{
	"103/EIP712.sol": {
		"EIP712Storage": {
			"abi": [
				{
					"inputs": [],
					"stateMutability": "nonpayable",
					"type": "constructor"
				},
				{
					"inputs": [],
					"name": "ECDSAInvalidSignature",
					"type": "error"
				},
				{
					"inputs": [
						{
							"internalType": "uint256",
							"name": "length",
							"type": "uint256"
						}
					],
					"name": "ECDSAInvalidSignatureLength",
					"type": "error"
				},
				{
					"inputs": [
						{
							"internalType": "bytes32",
							"name": "s",
							"type": "bytes32"
						}
					],
					"name": "ECDSAInvalidSignatureS",
					"type": "error"
				},
				{
					"inputs": [
						{
							"internalType": "uint256",
							"name": "_num",
							"type": "uint256"
						},
						{
							"internalType": "bytes",
							"name": "_signature",
							"type": "bytes"
						}
					],
					"name": "permitStore",
					"outputs": [],
					"stateMutability": "nonpayable",
					"type": "function"
				},
				{
					"inputs": [],
					"name": "retrieve",
					"outputs": [
						{
							"internalType": "uint256",
							"name": "",
							"type": "uint256"
						}
					],
					"stateMutability": "view",
					"type": "function"
				}
			],
			"devdoc": {
				"errors": {
					"ECDSAInvalidSignature()": [
						{
							"details": "The signature derives the `address(0)`."
						}
					],
					"ECDSAInvalidSignatureLength(uint256)": [
						{
							"details": "The signature has an invalid length."
						}
					],
					"ECDSAInvalidSignatureS(bytes32)": [
						{
							"details": "The signature has an S value that is in the upper half order."
						}
					]
				},
				"kind": "dev",
				"methods": {
					"permitStore(uint256,bytes)": {
						"details": "Store value in variable"
					},
					"retrieve()": {
						"details": "Return value ",
						"returns": {
							"_0": "value of 'number'"
						}
					}
				},
				"version": 1
			},
			"evm": {
				"assembly": "    /* \"103/EIP712.sol\":133:2452  contract EIP712Storage {... */\n  mstore(0x40, 0x80)\n    /* \"103/EIP712.sol\":522:865  constructor(){... */\n  callvalue\n  dup1\n  iszero\n  tag_1\n  jumpi\n  revert(0x00, 0x00)\ntag_1:\n  pop\n    /* \"103/EIP712.sol\":241:336  keccak256(\"EIP712Domain(string name,string version,uint256 chainId,address verifyingContract)\") */\n  0x8b73c3c69bb8fe3d512ecc4cf759cc79239f7b179b0ffacaa9a75d522b39400f\n    /* \"103/EIP712.sol\":656:678  bytes(\"EIP712Storage\") */\n  mload(0x40)\n  dup1\n  0x40\n  add\n  0x40\n  mstore\n  dup1\n  0x0d\n  dup2\n  mstore\n  0x20\n  add\n  0x45495037313253746f7261676500000000000000000000000000000000000000\n  dup2\n  mstore\n  pop\n    /* \"103/EIP712.sol\":646:679  keccak256(bytes(\"EIP712Storage\")) */\n  dup1\n  mload\n  swap1\n  0x20\n  add\n  keccak256\n    /* \"103/EIP712.sol\":711:721  bytes(\"1\") */\n  mload(0x40)\n  dup1\n  0x40\n  add\n  0x40\n  mstore\n  dup1\n  0x01\n  dup2\n  mstore\n  0x20\n  add\n  0x3100000000000000000000000000000000000000000000000000000000000000\n  dup2\n  mstore\n  pop\n    /* \"103/EIP712.sol\":701:722  keccak256(bytes(\"1\")) */\n  dup1\n  mload\n  swap1\n  0x20\n  add\n  keccak256\n    /* \"103/EIP712.sol\":747:760  block.chainid */\n  chainid\n    /* \"103/EIP712.sol\":794:798  this */\n  address\n    /* \"103/EIP712.sol\":574:829  abi.encode(... */\n  add(0x20, mload(0x40))\n  tag_4\n  swap6\n  swap5\n  swap4\n  swap3\n  swap2\n  swap1\n  tag_5\n  jump\t// in\ntag_4:\n  mload(0x40)\n  0x20\n  dup2\n  dup4\n  sub\n  sub\n  dup2\n  mstore\n  swap1\n  0x40\n  mstore\n    /* \"103/EIP712.sol\":564:830  keccak256(abi.encode(... */\n  dup1\n  mload\n  swap1\n  0x20\n  add\n  keccak256\n    /* \"103/EIP712.sol\":545:561  DOMAIN_SEPARATOR */\n  0x00\n    /* \"103/EIP712.sol\":545:830  DOMAIN_SEPARATOR = keccak256(abi.encode(... */\n  dup2\n  swap1\n  sstore\n  pop\n    /* \"103/EIP712.sol\":848:858  msg.sender */\n  caller\n    /* \"103/EIP712.sol\":840:845  owner */\n  0x02\n  0x00\n    /* \"103/EIP712.sol\":840:858  owner = msg.sender */\n  0x0100\n  exp\n  dup2\n  sload\n  dup2\n  0xffffffffffffffffffffffffffffffffffffffff\n  mul\n  not\n  and\n  swap1\n  dup4\n  0xffffffffffffffffffffffffffffffffffffffff\n  and\n  mul\n  or\n  swap1\n  sstore\n  pop\n    /* \"103/EIP712.sol\":133:2452  contract EIP712Storage {... */\n  jump(tag_6)\n    /* \"#utility.yul\":7:84   */\ntag_7:\n    /* \"#utility.yul\":44:51   */\n  0x00\n    /* \"#utility.yul\":73:78   */\n  dup2\n    /* \"#utility.yul\":62:78   */\n  swap1\n  pop\n    /* \"#utility.yul\":7:84   */\n  swap2\n  swap1\n  pop\n  jump\t// out\n    /* \"#utility.yul\":90:208   */\ntag_8:\n    /* \"#utility.yul\":177:201   */\n  tag_17\n    /* \"#utility.yul\":195:200   */\n  dup2\n    /* \"#utility.yul\":177:201   */\n  tag_7\n  jump\t// in\ntag_17:\n    /* \"#utility.yul\":172:175   */\n  dup3\n    /* \"#utility.yul\":165:202   */\n  mstore\n    /* \"#utility.yul\":90:208   */\n  pop\n  pop\n  jump\t// out\n    /* \"#utility.yul\":214:291   */\ntag_9:\n    /* \"#utility.yul\":251:258   */\n  0x00\n    /* \"#utility.yul\":280:285   */\n  dup2\n    /* \"#utility.yul\":269:285   */\n  swap1\n  pop\n    /* \"#utility.yul\":214:291   */\n  swap2\n  swap1\n  pop\n  jump\t// out\n    /* \"#utility.yul\":297:415   */\ntag_10:\n    /* \"#utility.yul\":384:408   */\n  tag_20\n    /* \"#utility.yul\":402:407   */\n  dup2\n    /* \"#utility.yul\":384:408   */\n  tag_9\n  jump\t// in\ntag_20:\n    /* \"#utility.yul\":379:382   */\n  dup3\n    /* \"#utility.yul\":372:409   */\n  mstore\n    /* \"#utility.yul\":297:415   */\n  pop\n  pop\n  jump\t// out\n    /* \"#utility.yul\":421:547   */\ntag_11:\n    /* \"#utility.yul\":458:465   */\n  0x00\n    /* \"#utility.yul\":498:540   */\n  0xffffffffffffffffffffffffffffffffffffffff\n    /* \"#utility.yul\":491:496   */\n  dup3\n    /* \"#utility.yul\":487:541   */\n  and\n    /* \"#utility.yul\":476:541   */\n  swap1\n  pop\n    /* \"#utility.yul\":421:547   */\n  swap2\n  swap1\n  pop\n  jump\t// out\n    /* \"#utility.yul\":553:649   */\ntag_12:\n    /* \"#utility.yul\":590:597   */\n  0x00\n    /* \"#utility.yul\":619:643   */\n  tag_23\n    /* \"#utility.yul\":637:642   */\n  dup3\n    /* \"#utility.yul\":619:643   */\n  tag_11\n  jump\t// in\ntag_23:\n    /* \"#utility.yul\":608:643   */\n  swap1\n  pop\n    /* \"#utility.yul\":553:649   */\n  swap2\n  swap1\n  pop\n  jump\t// out\n    /* \"#utility.yul\":655:773   */\ntag_13:\n    /* \"#utility.yul\":742:766   */\n  tag_25\n    /* \"#utility.yul\":760:765   */\n  dup2\n    /* \"#utility.yul\":742:766   */\n  tag_12\n  jump\t// in\ntag_25:\n    /* \"#utility.yul\":737:740   */\n  dup3\n    /* \"#utility.yul\":730:767   */\n  mstore\n    /* \"#utility.yul\":655:773   */\n  pop\n  pop\n  jump\t// out\n    /* \"#utility.yul\":779:1443   */\ntag_5:\n    /* \"#utility.yul\":984:988   */\n  0x00\n    /* \"#utility.yul\":1022:1025   */\n  0xa0\n    /* \"#utility.yul\":1011:1020   */\n  dup3\n    /* \"#utility.yul\":1007:1026   */\n  add\n    /* \"#utility.yul\":999:1026   */\n  swap1\n  pop\n    /* \"#utility.yul\":1036:1107   */\n  tag_27\n    /* \"#utility.yul\":1104:1105   */\n  0x00\n    /* \"#utility.yul\":1093:1102   */\n  dup4\n    /* \"#utility.yul\":1089:1106   */\n  add\n    /* \"#utility.yul\":1080:1086   */\n  dup9\n    /* \"#utility.yul\":1036:1107   */\n  tag_8\n  jump\t// in\ntag_27:\n    /* \"#utility.yul\":1117:1189   */\n  tag_28\n    /* \"#utility.yul\":1185:1187   */\n  0x20\n    /* \"#utility.yul\":1174:1183   */\n  dup4\n    /* \"#utility.yul\":1170:1188   */\n  add\n    /* \"#utility.yul\":1161:1167   */\n  dup8\n    /* \"#utility.yul\":1117:1189   */\n  tag_8\n  jump\t// in\ntag_28:\n    /* \"#utility.yul\":1199:1271   */\n  tag_29\n    /* \"#utility.yul\":1267:1269   */\n  0x40\n    /* \"#utility.yul\":1256:1265   */\n  dup4\n    /* \"#utility.yul\":1252:1270   */\n  add\n    /* \"#utility.yul\":1243:1249   */\n  dup7\n    /* \"#utility.yul\":1199:1271   */\n  tag_8\n  jump\t// in\ntag_29:\n    /* \"#utility.yul\":1281:1353   */\n  tag_30\n    /* \"#utility.yul\":1349:1351   */\n  0x60\n    /* \"#utility.yul\":1338:1347   */\n  dup4\n    /* \"#utility.yul\":1334:1352   */\n  add\n    /* \"#utility.yul\":1325:1331   */\n  dup6\n    /* \"#utility.yul\":1281:1353   */\n  tag_10\n  jump\t// in\ntag_30:\n    /* \"#utility.yul\":1363:1436   */\n  tag_31\n    /* \"#utility.yul\":1431:1434   */\n  0x80\n    /* \"#utility.yul\":1420:1429   */\n  dup4\n    /* \"#utility.yul\":1416:1435   */\n  add\n    /* \"#utility.yul\":1407:1413   */\n  dup5\n    /* \"#utility.yul\":1363:1436   */\n  tag_13\n  jump\t// in\ntag_31:\n    /* \"#utility.yul\":779:1443   */\n  swap7\n  swap6\n  pop\n  pop\n  pop\n  pop\n  pop\n  pop\n  jump\t// out\n    /* \"103/EIP712.sol\":133:2452  contract EIP712Storage {... */\ntag_6:\n  dataSize(sub_0)\n  dup1\n  dataOffset(sub_0)\n  0x00\n  codecopy\n  0x00\n  return\nstop\n\nsub_0: assembly {\n        /* \"103/EIP712.sol\":133:2452  contract EIP712Storage {... */\n      mstore(0x40, 0x80)\n      callvalue\n      dup1\n      iszero\n      tag_1\n      jumpi\n      revert(0x00, 0x00)\n    tag_1:\n      pop\n      jumpi(tag_2, lt(calldatasize, 0x04))\n      shr(0xe0, calldataload(0x00))\n      dup1\n      0x2e64cec1\n      eq\n      tag_3\n      jumpi\n      dup1\n      0x7fb4bf2a\n      eq\n      tag_4\n      jumpi\n    tag_2:\n      revert(0x00, 0x00)\n        /* \"103/EIP712.sol\":2367:2446  function retrieve() public view returns (uint256){... */\n    tag_3:\n      tag_5\n      tag_6\n      jump\t// in\n    tag_5:\n      mload(0x40)\n      tag_7\n      swap2\n      swap1\n      tag_8\n      jump\t// in\n    tag_7:\n      mload(0x40)\n      dup1\n      swap2\n      sub\n      swap1\n      return\n        /* \"103/EIP712.sol\":923:2286  function permitStore(uint256 _num, bytes memory _signature) public {... */\n    tag_4:\n      tag_9\n      0x04\n      dup1\n      calldatasize\n      sub\n      dup2\n      add\n      swap1\n      tag_10\n      swap2\n      swap1\n      tag_11\n      jump\t// in\n    tag_10:\n      tag_12\n      jump\t// in\n    tag_9:\n      stop\n        /* \"103/EIP712.sol\":2367:2446  function retrieve() public view returns (uint256){... */\n    tag_6:\n        /* \"103/EIP712.sol\":2408:2415  uint256 */\n      0x00\n        /* \"103/EIP712.sol\":2433:2439  number */\n      sload(0x01)\n        /* \"103/EIP712.sol\":2426:2439  return number */\n      swap1\n      pop\n        /* \"103/EIP712.sol\":2367:2446  function retrieve() public view returns (uint256){... */\n      swap1\n      jump\t// out\n        /* \"103/EIP712.sol\":923:2286  function permitStore(uint256 _num, bytes memory _signature) public {... */\n    tag_12:\n        /* \"103/EIP712.sol\":1093:1095  65 */\n      0x41\n        /* \"103/EIP712.sol\":1072:1082  _signature */\n      dup2\n        /* \"103/EIP712.sol\":1072:1089  _signature.length */\n      mload\n        /* \"103/EIP712.sol\":1072:1095  _signature.length == 65 */\n      eq\n        /* \"103/EIP712.sol\":1064:1124  require(_signature.length == 65, \"invalid signature length\") */\n      tag_15\n      jumpi\n      mload(0x40)\n      0x08c379a000000000000000000000000000000000000000000000000000000000\n      dup2\n      mstore\n      0x04\n      add\n      tag_16\n      swap1\n      tag_17\n      jump\t// in\n    tag_16:\n      mload(0x40)\n      dup1\n      swap2\n      sub\n      swap1\n      revert\n    tag_15:\n        /* \"103/EIP712.sol\":1134:1143  bytes32 r */\n      0x00\n        /* \"103/EIP712.sol\":1153:1162  bytes32 s */\n      0x00\n        /* \"103/EIP712.sol\":1172:1179  uint8 v */\n      0x00\n        /* \"103/EIP712.sol\":1643:1647  0x20 */\n      0x20\n        /* \"103/EIP712.sol\":1631:1641  _signature */\n      dup5\n        /* \"103/EIP712.sol\":1627:1648  add(_signature, 0x20) */\n      add\n        /* \"103/EIP712.sol\":1621:1649  mload(add(_signature, 0x20)) */\n      mload\n        /* \"103/EIP712.sol\":1616:1649  r := mload(add(_signature, 0x20)) */\n      swap3\n      pop\n        /* \"103/EIP712.sol\":1728:1732  0x40 */\n      0x40\n        /* \"103/EIP712.sol\":1716:1726  _signature */\n      dup5\n        /* \"103/EIP712.sol\":1712:1733  add(_signature, 0x40) */\n      add\n        /* \"103/EIP712.sol\":1706:1734  mload(add(_signature, 0x40)) */\n      mload\n        /* \"103/EIP712.sol\":1701:1734  s := mload(add(_signature, 0x40)) */\n      swap2\n      pop\n        /* \"103/EIP712.sol\":1820:1824  0x60 */\n      0x60\n        /* \"103/EIP712.sol\":1808:1818  _signature */\n      dup5\n        /* \"103/EIP712.sol\":1804:1825  add(_signature, 0x60) */\n      add\n        /* \"103/EIP712.sol\":1798:1826  mload(add(_signature, 0x60)) */\n      mload\n        /* \"103/EIP712.sol\":1795:1796  0 */\n      0x00\n        /* \"103/EIP712.sol\":1790:1827  byte(0, mload(add(_signature, 0x60))) */\n      byte\n        /* \"103/EIP712.sol\":1785:1827  v := byte(0, mload(add(_signature, 0x60))) */\n      swap1\n      pop\n        /* \"103/EIP712.sol\":1881:1895  bytes32 digest */\n      0x00\n        /* \"103/EIP712.sol\":1962:1978  DOMAIN_SEPARATOR */\n      sload(0x00)\n        /* \"103/EIP712.sol\":386:438  keccak256(\"Storage(address spender,uint256 number)\") */\n      0xd0424b76ec7a3227309117de6d952e26508aa80cc81ccac30dc95ed1419924cd\n        /* \"103/EIP712.sol\":2031:2041  msg.sender */\n      caller\n        /* \"103/EIP712.sol\":2043:2047  _num */\n      dup9\n        /* \"103/EIP712.sol\":2002:2048  abi.encode(STORAGE_TYPEHASH, msg.sender, _num) */\n      add(0x20, mload(0x40))\n      tag_18\n      swap4\n      swap3\n      swap2\n      swap1\n      tag_19\n      jump\t// in\n    tag_18:\n      mload(0x40)\n      0x20\n      dup2\n      dup4\n      sub\n      sub\n      dup2\n      mstore\n      swap1\n      0x40\n      mstore\n        /* \"103/EIP712.sol\":1992:2049  keccak256(abi.encode(STORAGE_TYPEHASH, msg.sender, _num)) */\n      dup1\n      mload\n      swap1\n      0x20\n      add\n      keccak256\n        /* \"103/EIP712.sol\":1908:2059  abi.encodePacked(... */\n      add(0x20, mload(0x40))\n      tag_20\n      swap3\n      swap2\n      swap1\n      tag_21\n      jump\t// in\n    tag_20:\n      mload(0x40)\n      0x20\n      dup2\n      dup4\n      sub\n      sub\n      dup2\n      mstore\n      swap1\n      0x40\n      mstore\n        /* \"103/EIP712.sol\":1898:2060  keccak256(abi.encodePacked(... */\n      dup1\n      mload\n      swap1\n      0x20\n      add\n      keccak256\n        /* \"103/EIP712.sol\":1881:2060  bytes32 digest = keccak256(abi.encodePacked(... */\n      swap1\n      pop\n        /* \"103/EIP712.sol\":2080:2094  address signer */\n      0x00\n        /* \"103/EIP712.sol\":2097:2120  digest.recover(v, r, s) */\n      tag_22\n        /* \"103/EIP712.sol\":2112:2113  v */\n      dup4\n        /* \"103/EIP712.sol\":2115:2116  r */\n      dup7\n        /* \"103/EIP712.sol\":2118:2119  s */\n      dup7\n        /* \"103/EIP712.sol\":2097:2103  digest */\n      dup6\n        /* \"103/EIP712.sol\":2097:2111  digest.recover */\n      tag_23\n      swap1\n        /* \"103/EIP712.sol\":2097:2120  digest.recover(v, r, s) */\n      swap4\n      swap3\n      swap2\n      swap1\n      0xffffffff\n      and\n      jump\t// in\n    tag_22:\n        /* \"103/EIP712.sol\":2080:2120  address signer = digest.recover(v, r, s) */\n      swap1\n      pop\n        /* \"103/EIP712.sol\":2167:2172  owner */\n      0x02\n      0x00\n      swap1\n      sload\n      swap1\n      0x0100\n      exp\n      swap1\n      div\n      0xffffffffffffffffffffffffffffffffffffffff\n      and\n        /* \"103/EIP712.sol\":2157:2172  signer == owner */\n      0xffffffffffffffffffffffffffffffffffffffff\n      and\n        /* \"103/EIP712.sol\":2157:2163  signer */\n      dup2\n        /* \"103/EIP712.sol\":2157:2172  signer == owner */\n      0xffffffffffffffffffffffffffffffffffffffff\n      and\n      eq\n        /* \"103/EIP712.sol\":2149:2209  require(signer == owner, \"EIP712Storage: Invalid signature\") */\n      tag_24\n      jumpi\n      mload(0x40)\n      0x08c379a000000000000000000000000000000000000000000000000000000000\n      dup2\n      mstore\n      0x04\n      add\n      tag_25\n      swap1\n      tag_26\n      jump\t// in\n    tag_25:\n      mload(0x40)\n      dup1\n      swap2\n      sub\n      swap1\n      revert\n    tag_24:\n        /* \"103/EIP712.sol\":2275:2279  _num */\n      dup7\n        /* \"103/EIP712.sol\":2266:2272  number */\n      0x01\n        /* \"103/EIP712.sol\":2266:2279  number = _num */\n      dup2\n      swap1\n      sstore\n      pop\n        /* \"103/EIP712.sol\":990:2286  {... */\n      pop\n      pop\n      pop\n      pop\n      pop\n        /* \"103/EIP712.sol\":923:2286  function permitStore(uint256 _num, bytes memory _signature) public {... */\n      pop\n      pop\n      jump\t// out\n        /* \"@openzeppelin/contracts/utils/cryptography/ECDSA.sol\":6887:7147  function recover(bytes32 hash, uint8 v, bytes32 r, bytes32 s) internal pure returns (address) {... */\n    tag_23:\n        /* \"@openzeppelin/contracts/utils/cryptography/ECDSA.sol\":6972:6979  address */\n      0x00\n        /* \"@openzeppelin/contracts/utils/cryptography/ECDSA.sol\":6992:7009  address recovered */\n      0x00\n        /* \"@openzeppelin/contracts/utils/cryptography/ECDSA.sol\":7011:7029  RecoverError error */\n      0x00\n        /* \"@openzeppelin/contracts/utils/cryptography/ECDSA.sol\":7031:7047  bytes32 errorArg */\n      0x00\n        /* \"@openzeppelin/contracts/utils/cryptography/ECDSA.sol\":7051:7076  tryRecover(hash, v, r, s) */\n      tag_28\n        /* \"@openzeppelin/contracts/utils/cryptography/ECDSA.sol\":7062:7066  hash */\n      dup9\n        /* \"@openzeppelin/contracts/utils/cryptography/ECDSA.sol\":7068:7069  v */\n      dup9\n        /* \"@openzeppelin/contracts/utils/cryptography/ECDSA.sol\":7071:7072  r */\n      dup9\n        /* \"@openzeppelin/contracts/utils/cryptography/ECDSA.sol\":7074:7075  s */\n      dup9\n        /* \"@openzeppelin/contracts/utils/cryptography/ECDSA.sol\":7051:7061  tryRecover */\n      tag_29\n        /* \"@openzeppelin/contracts/utils/cryptography/ECDSA.sol\":7051:7076  tryRecover(hash, v, r, s) */\n      jump\t// in\n    tag_28:\n        /* \"@openzeppelin/contracts/utils/cryptography/ECDSA.sol\":6991:7076  (address recovered, RecoverError error, bytes32 errorArg) = tryRecover(hash, v, r, s) */\n      swap3\n      pop\n      swap3\n      pop\n      swap3\n      pop\n        /* \"@openzeppelin/contracts/utils/cryptography/ECDSA.sol\":7086:7114  _throwError(error, errorArg) */\n      tag_30\n        /* \"@openzeppelin/contracts/utils/cryptography/ECDSA.sol\":7098:7103  error */\n      dup3\n        /* \"@openzeppelin/contracts/utils/cryptography/ECDSA.sol\":7105:7113  errorArg */\n      dup3\n        /* \"@openzeppelin/contracts/utils/cryptography/ECDSA.sol\":7086:7097  _throwError */\n      tag_31\n        /* \"@openzeppelin/contracts/utils/cryptography/ECDSA.sol\":7086:7114  _throwError(error, errorArg) */\n      jump\t// in\n    tag_30:\n        /* \"@openzeppelin/contracts/utils/cryptography/ECDSA.sol\":7131:7140  recovered */\n      dup3\n        /* \"@openzeppelin/contracts/utils/cryptography/ECDSA.sol\":7124:7140  return recovered */\n      swap4\n      pop\n      pop\n      pop\n      pop\n        /* \"@openzeppelin/contracts/utils/cryptography/ECDSA.sol\":6887:7147  function recover(bytes32 hash, uint8 v, bytes32 r, bytes32 s) internal pure returns (address) {... */\n      swap5\n      swap4\n      pop\n      pop\n      pop\n      pop\n      jump\t// out\n        /* \"@openzeppelin/contracts/utils/cryptography/ECDSA.sol\":5203:6754  function tryRecover(... */\n    tag_29:\n        /* \"@openzeppelin/contracts/utils/cryptography/ECDSA.sol\":5329:5346  address recovered */\n      0x00\n        /* \"@openzeppelin/contracts/utils/cryptography/ECDSA.sol\":5348:5364  RecoverError err */\n      0x00\n        /* \"@openzeppelin/contracts/utils/cryptography/ECDSA.sol\":5366:5380  bytes32 errArg */\n      0x00\n        /* \"@openzeppelin/contracts/utils/cryptography/ECDSA.sol\":6283:6349  0x7FFFFFFFFFFFFFFFFFFFFFFFFFFFFFFF5D576E7357A4501DDFE92F46681B20A0 */\n      0x7fffffffffffffffffffffffffffffff5d576e7357a4501ddfe92f46681b20a0\n        /* \"@openzeppelin/contracts/utils/cryptography/ECDSA.sol\":6278:6279  s */\n      dup5\n        /* \"@openzeppelin/contracts/utils/cryptography/ECDSA.sol\":6270:6280  uint256(s) */\n      0x00\n      shr\n        /* \"@openzeppelin/contracts/utils/cryptography/ECDSA.sol\":6270:6349  uint256(s) > 0x7FFFFFFFFFFFFFFFFFFFFFFFFFFFFFFF5D576E7357A4501DDFE92F46681B20A0 */\n      gt\n        /* \"@openzeppelin/contracts/utils/cryptography/ECDSA.sol\":6266:6430  if (uint256(s) > 0x7FFFFFFFFFFFFFFFFFFFFFFFFFFFFFFF5D576E7357A4501DDFE92F46681B20A0) {... */\n      iszero\n      tag_33\n      jumpi\n        /* \"@openzeppelin/contracts/utils/cryptography/ECDSA.sol\":6381:6382  0 */\n      0x00\n        /* \"@openzeppelin/contracts/utils/cryptography/ECDSA.sol\":6385:6415  RecoverError.InvalidSignatureS */\n      0x03\n        /* \"@openzeppelin/contracts/utils/cryptography/ECDSA.sol\":6417:6418  s */\n      dup6\n        /* \"@openzeppelin/contracts/utils/cryptography/ECDSA.sol\":6365:6419  return (address(0), RecoverError.InvalidSignatureS, s) */\n      swap3\n      pop\n      swap3\n      pop\n      swap3\n      pop\n      jump(tag_32)\n        /* \"@openzeppelin/contracts/utils/cryptography/ECDSA.sol\":6266:6430  if (uint256(s) > 0x7FFFFFFFFFFFFFFFFFFFFFFFFFFFFFFF5D576E7357A4501DDFE92F46681B20A0) {... */\n    tag_33:\n        /* \"@openzeppelin/contracts/utils/cryptography/ECDSA.sol\":6524:6538  address signer */\n      0x00\n        /* \"@openzeppelin/contracts/utils/cryptography/ECDSA.sol\":6541:6565  ecrecover(hash, v, r, s) */\n      0x01\n        /* \"@openzeppelin/contracts/utils/cryptography/ECDSA.sol\":6551:6555  hash */\n      dup9\n        /* \"@openzeppelin/contracts/utils/cryptography/ECDSA.sol\":6557:6558  v */\n      dup9\n        /* \"@openzeppelin/contracts/utils/cryptography/ECDSA.sol\":6560:6561  r */\n      dup9\n        /* \"@openzeppelin/contracts/utils/cryptography/ECDSA.sol\":6563:6564  s */\n      dup9\n        /* \"@openzeppelin/contracts/utils/cryptography/ECDSA.sol\":6541:6565  ecrecover(hash, v, r, s) */\n      mload(0x40)\n      0x00\n      dup2\n      mstore\n      0x20\n      add\n      0x40\n      mstore\n      mload(0x40)\n      tag_34\n      swap5\n      swap4\n      swap3\n      swap2\n      swap1\n      tag_35\n      jump\t// in\n    tag_34:\n      0x20\n      mload(0x40)\n      0x20\n      dup2\n      sub\n      swap1\n      dup1\n      dup5\n      sub\n      swap1\n      dup6\n      gas\n      staticcall\n      iszero\n      dup1\n      iszero\n      tag_37\n      jumpi\n      returndatacopy(0x00, 0x00, returndatasize)\n      revert(0x00, returndatasize)\n    tag_37:\n      pop\n      pop\n      pop\n      mload(sub(mload(0x40), 0x20))\n        /* \"@openzeppelin/contracts/utils/cryptography/ECDSA.sol\":6524:6565  address signer = ecrecover(hash, v, r, s) */\n      swap1\n      pop\n        /* \"@openzeppelin/contracts/utils/cryptography/ECDSA.sol\":6597:6598  0 */\n      0x00\n        /* \"@openzeppelin/contracts/utils/cryptography/ECDSA.sol\":6579:6599  signer == address(0) */\n      0xffffffffffffffffffffffffffffffffffffffff\n      and\n        /* \"@openzeppelin/contracts/utils/cryptography/ECDSA.sol\":6579:6585  signer */\n      dup2\n        /* \"@openzeppelin/contracts/utils/cryptography/ECDSA.sol\":6579:6599  signer == address(0) */\n      0xffffffffffffffffffffffffffffffffffffffff\n      and\n      sub\n        /* \"@openzeppelin/contracts/utils/cryptography/ECDSA.sol\":6575:6688  if (signer == address(0)) {... */\n      tag_38\n      jumpi\n        /* \"@openzeppelin/contracts/utils/cryptography/ECDSA.sol\":6631:6632  0 */\n      0x00\n        /* \"@openzeppelin/contracts/utils/cryptography/ECDSA.sol\":6635:6664  RecoverError.InvalidSignature */\n      0x01\n        /* \"@openzeppelin/contracts/utils/cryptography/ECDSA.sol\":6674:6675  0 */\n      0x00\n        /* \"@openzeppelin/contracts/utils/cryptography/ECDSA.sol\":6666:6676  bytes32(0) */\n      0x00\n      shl\n        /* \"@openzeppelin/contracts/utils/cryptography/ECDSA.sol\":6615:6677  return (address(0), RecoverError.InvalidSignature, bytes32(0)) */\n      swap4\n      pop\n      swap4\n      pop\n      swap4\n      pop\n      pop\n      jump(tag_32)\n        /* \"@openzeppelin/contracts/utils/cryptography/ECDSA.sol\":6575:6688  if (signer == address(0)) {... */\n    tag_38:\n        /* \"@openzeppelin/contracts/utils/cryptography/ECDSA.sol\":6706:6712  signer */\n      dup1\n        /* \"@openzeppelin/contracts/utils/cryptography/ECDSA.sol\":6714:6734  RecoverError.NoError */\n      0x00\n        /* \"@openzeppelin/contracts/utils/cryptography/ECDSA.sol\":6744:6745  0 */\n      0x00\n        /* \"@openzeppelin/contracts/utils/cryptography/ECDSA.sol\":6736:6746  bytes32(0) */\n      0x00\n      shl\n        /* \"@openzeppelin/contracts/utils/cryptography/ECDSA.sol\":6698:6747  return (signer, RecoverError.NoError, bytes32(0)) */\n      swap4\n      pop\n      swap4\n      pop\n      swap4\n      pop\n      pop\n        /* \"@openzeppelin/contracts/utils/cryptography/ECDSA.sol\":5203:6754  function tryRecover(... */\n    tag_32:\n      swap5\n      pop\n      swap5\n      pop\n      swap5\n      swap2\n      pop\n      pop\n      jump\t// out\n        /* \"@openzeppelin/contracts/utils/cryptography/ECDSA.sol\":7280:7812  function _throwError(RecoverError error, bytes32 errorArg) private pure {... */\n    tag_31:\n        /* \"@openzeppelin/contracts/utils/cryptography/ECDSA.sol\":7375:7395  RecoverError.NoError */\n      0x00\n        /* \"@openzeppelin/contracts/utils/cryptography/ECDSA.sol\":7366:7395  error == RecoverError.NoError */\n      0x03\n      dup2\n      gt\n      iszero\n      tag_40\n      jumpi\n      tag_41\n      tag_42\n      jump\t// in\n    tag_41:\n    tag_40:\n        /* \"@openzeppelin/contracts/utils/cryptography/ECDSA.sol\":7366:7371  error */\n      dup3\n        /* \"@openzeppelin/contracts/utils/cryptography/ECDSA.sol\":7366:7395  error == RecoverError.NoError */\n      0x03\n      dup2\n      gt\n      iszero\n      tag_43\n      jumpi\n      tag_44\n      tag_42\n      jump\t// in\n    tag_44:\n    tag_43:\n      sub\n        /* \"@openzeppelin/contracts/utils/cryptography/ECDSA.sol\":7362:7806  if (error == RecoverError.NoError) {... */\n      iszero\n        /* \"@openzeppelin/contracts/utils/cryptography/ECDSA.sol\":7411:7418  return; */\n      tag_39\n        /* \"@openzeppelin/contracts/utils/cryptography/ECDSA.sol\":7362:7806  if (error == RecoverError.NoError) {... */\n      jumpi\n        /* \"@openzeppelin/contracts/utils/cryptography/ECDSA.sol\":7471:7500  RecoverError.InvalidSignature */\n      0x01\n        /* \"@openzeppelin/contracts/utils/cryptography/ECDSA.sol\":7462:7500  error == RecoverError.InvalidSignature */\n      0x03\n      dup2\n      gt\n      iszero\n      tag_47\n      jumpi\n      tag_48\n      tag_42\n      jump\t// in\n    tag_48:\n    tag_47:\n        /* \"@openzeppelin/contracts/utils/cryptography/ECDSA.sol\":7462:7467  error */\n      dup3\n        /* \"@openzeppelin/contracts/utils/cryptography/ECDSA.sol\":7462:7500  error == RecoverError.InvalidSignature */\n      0x03\n      dup2\n      gt\n      iszero\n      tag_49\n      jumpi\n      tag_50\n      tag_42\n      jump\t// in\n    tag_50:\n    tag_49:\n      sub\n        /* \"@openzeppelin/contracts/utils/cryptography/ECDSA.sol\":7458:7806  if (error == RecoverError.InvalidSignature) {... */\n      tag_51\n      jumpi\n        /* \"@openzeppelin/contracts/utils/cryptography/ECDSA.sol\":7523:7546  ECDSAInvalidSignature() */\n      mload(0x40)\n      0xf645eedf00000000000000000000000000000000000000000000000000000000\n      dup2\n      mstore\n      0x04\n      add\n      mload(0x40)\n      dup1\n      swap2\n      sub\n      swap1\n      revert\n        /* \"@openzeppelin/contracts/utils/cryptography/ECDSA.sol\":7458:7806  if (error == RecoverError.InvalidSignature) {... */\n    tag_51:\n        /* \"@openzeppelin/contracts/utils/cryptography/ECDSA.sol\":7576:7611  RecoverError.InvalidSignatureLength */\n      0x02\n        /* \"@openzeppelin/contracts/utils/cryptography/ECDSA.sol\":7567:7611  error == RecoverError.InvalidSignatureLength */\n      0x03\n      dup2\n      gt\n      iszero\n      tag_53\n      jumpi\n      tag_54\n      tag_42\n      jump\t// in\n    tag_54:\n    tag_53:\n        /* \"@openzeppelin/contracts/utils/cryptography/ECDSA.sol\":7567:7572  error */\n      dup3\n        /* \"@openzeppelin/contracts/utils/cryptography/ECDSA.sol\":7567:7611  error == RecoverError.InvalidSignatureLength */\n      0x03\n      dup2\n      gt\n      iszero\n      tag_55\n      jumpi\n      tag_56\n      tag_42\n      jump\t// in\n    tag_56:\n    tag_55:\n      sub\n        /* \"@openzeppelin/contracts/utils/cryptography/ECDSA.sol\":7563:7806  if (error == RecoverError.InvalidSignatureLength) {... */\n      tag_57\n      jumpi\n        /* \"@openzeppelin/contracts/utils/cryptography/ECDSA.sol\":7670:7678  errorArg */\n      dup1\n        /* \"@openzeppelin/contracts/utils/cryptography/ECDSA.sol\":7662:7679  uint256(errorArg) */\n      0x00\n      shr\n        /* \"@openzeppelin/contracts/utils/cryptography/ECDSA.sol\":7634:7680  ECDSAInvalidSignatureLength(uint256(errorArg)) */\n      mload(0x40)\n      0xfce698f700000000000000000000000000000000000000000000000000000000\n      dup2\n      mstore\n      0x04\n      add\n      tag_58\n      swap2\n      swap1\n      tag_8\n      jump\t// in\n    tag_58:\n      mload(0x40)\n      dup1\n      swap2\n      sub\n      swap1\n      revert\n        /* \"@openzeppelin/contracts/utils/cryptography/ECDSA.sol\":7563:7806  if (error == RecoverError.InvalidSignatureLength) {... */\n    tag_57:\n        /* \"@openzeppelin/contracts/utils/cryptography/ECDSA.sol\":7710:7740  RecoverError.InvalidSignatureS */\n      0x03\n        /* \"@openzeppelin/contracts/utils/cryptography/ECDSA.sol\":7701:7740  error == RecoverError.InvalidSignatureS */\n      dup1\n      dup2\n      gt\n      iszero\n      tag_60\n      jumpi\n      tag_61\n      tag_42\n      jump\t// in\n    tag_61:\n    tag_60:\n        /* \"@openzeppelin/contracts/utils/cryptography/ECDSA.sol\":7701:7706  error */\n      dup3\n        /* \"@openzeppelin/contracts/utils/cryptography/ECDSA.sol\":7701:7740  error == RecoverError.InvalidSignatureS */\n      0x03\n      dup2\n      gt\n      iszero\n      tag_62\n      jumpi\n      tag_63\n      tag_42\n      jump\t// in\n    tag_63:\n    tag_62:\n      sub\n        /* \"@openzeppelin/contracts/utils/cryptography/ECDSA.sol\":7697:7806  if (error == RecoverError.InvalidSignatureS) {... */\n      tag_64\n      jumpi\n        /* \"@openzeppelin/contracts/utils/cryptography/ECDSA.sol\":7786:7794  errorArg */\n      dup1\n        /* \"@openzeppelin/contracts/utils/cryptography/ECDSA.sol\":7763:7795  ECDSAInvalidSignatureS(errorArg) */\n      mload(0x40)\n      0xd78bce0c00000000000000000000000000000000000000000000000000000000\n      dup2\n      mstore\n      0x04\n      add\n      tag_65\n      swap2\n      swap1\n      tag_66\n      jump\t// in\n    tag_65:\n      mload(0x40)\n      dup1\n      swap2\n      sub\n      swap1\n      revert\n        /* \"@openzeppelin/contracts/utils/cryptography/ECDSA.sol\":7697:7806  if (error == RecoverError.InvalidSignatureS) {... */\n    tag_64:\n        /* \"@openzeppelin/contracts/utils/cryptography/ECDSA.sol\":7280:7812  function _throwError(RecoverError error, bytes32 errorArg) private pure {... */\n    tag_39:\n      pop\n      pop\n      jump\t// out\n        /* \"#utility.yul\":7:84   */\n    tag_67:\n        /* \"#utility.yul\":44:51   */\n      0x00\n        /* \"#utility.yul\":73:78   */\n      dup2\n        /* \"#utility.yul\":62:78   */\n      swap1\n      pop\n        /* \"#utility.yul\":7:84   */\n      swap2\n      swap1\n      pop\n      jump\t// out\n        /* \"#utility.yul\":90:208   */\n    tag_68:\n        /* \"#utility.yul\":177:201   */\n      tag_104\n        /* \"#utility.yul\":195:200   */\n      dup2\n        /* \"#utility.yul\":177:201   */\n      tag_67\n      jump\t// in\n    tag_104:\n        /* \"#utility.yul\":172:175   */\n      dup3\n        /* \"#utility.yul\":165:202   */\n      mstore\n        /* \"#utility.yul\":90:208   */\n      pop\n      pop\n      jump\t// out\n        /* \"#utility.yul\":214:436   */\n    tag_8:\n        /* \"#utility.yul\":307:311   */\n      0x00\n        /* \"#utility.yul\":345:347   */\n      0x20\n        /* \"#utility.yul\":334:343   */\n      dup3\n        /* \"#utility.yul\":330:348   */\n      add\n        /* \"#utility.yul\":322:348   */\n      swap1\n      pop\n        /* \"#utility.yul\":358:429   */\n      tag_106\n        /* \"#utility.yul\":426:427   */\n      0x00\n        /* \"#utility.yul\":415:424   */\n      dup4\n        /* \"#utility.yul\":411:428   */\n      add\n        /* \"#utility.yul\":402:408   */\n      dup5\n        /* \"#utility.yul\":358:429   */\n      tag_68\n      jump\t// in\n    tag_106:\n        /* \"#utility.yul\":214:436   */\n      swap3\n      swap2\n      pop\n      pop\n      jump\t// out\n        /* \"#utility.yul\":442:517   */\n    tag_69:\n        /* \"#utility.yul\":475:481   */\n      0x00\n        /* \"#utility.yul\":508:510   */\n      0x40\n        /* \"#utility.yul\":502:511   */\n      mload\n        /* \"#utility.yul\":492:511   */\n      swap1\n      pop\n        /* \"#utility.yul\":442:517   */\n      swap1\n      jump\t// out\n        /* \"#utility.yul\":523:640   */\n    tag_70:\n        /* \"#utility.yul\":632:633   */\n      0x00\n        /* \"#utility.yul\":629:630   */\n      0x00\n        /* \"#utility.yul\":622:634   */\n      revert\n        /* \"#utility.yul\":646:763   */\n    tag_71:\n        /* \"#utility.yul\":755:756   */\n      0x00\n        /* \"#utility.yul\":752:753   */\n      0x00\n        /* \"#utility.yul\":745:757   */\n      revert\n        /* \"#utility.yul\":769:891   */\n    tag_72:\n        /* \"#utility.yul\":842:866   */\n      tag_111\n        /* \"#utility.yul\":860:865   */\n      dup2\n        /* \"#utility.yul\":842:866   */\n      tag_67\n      jump\t// in\n    tag_111:\n        /* \"#utility.yul\":835:840   */\n      dup2\n        /* \"#utility.yul\":832:867   */\n      eq\n        /* \"#utility.yul\":822:885   */\n      tag_112\n      jumpi\n        /* \"#utility.yul\":881:882   */\n      0x00\n        /* \"#utility.yul\":878:879   */\n      0x00\n        /* \"#utility.yul\":871:883   */\n      revert\n        /* \"#utility.yul\":822:885   */\n    tag_112:\n        /* \"#utility.yul\":769:891   */\n      pop\n      jump\t// out\n        /* \"#utility.yul\":897:1036   */\n    tag_73:\n        /* \"#utility.yul\":943:948   */\n      0x00\n        /* \"#utility.yul\":981:987   */\n      dup2\n        /* \"#utility.yul\":968:988   */\n      calldataload\n        /* \"#utility.yul\":959:988   */\n      swap1\n      pop\n        /* \"#utility.yul\":997:1030   */\n      tag_114\n        /* \"#utility.yul\":1024:1029   */\n      dup2\n        /* \"#utility.yul\":997:1030   */\n      tag_72\n      jump\t// in\n    tag_114:\n        /* \"#utility.yul\":897:1036   */\n      swap3\n      swap2\n      pop\n      pop\n      jump\t// out\n        /* \"#utility.yul\":1042:1159   */\n    tag_74:\n        /* \"#utility.yul\":1151:1152   */\n      0x00\n        /* \"#utility.yul\":1148:1149   */\n      0x00\n        /* \"#utility.yul\":1141:1153   */\n      revert\n        /* \"#utility.yul\":1165:1282   */\n    tag_75:\n        /* \"#utility.yul\":1274:1275   */\n      0x00\n        /* \"#utility.yul\":1271:1272   */\n      0x00\n        /* \"#utility.yul\":1264:1276   */\n      revert\n        /* \"#utility.yul\":1288:1390   */\n    tag_76:\n        /* \"#utility.yul\":1329:1335   */\n      0x00\n        /* \"#utility.yul\":1380:1382   */\n      0x1f\n        /* \"#utility.yul\":1376:1383   */\n      not\n        /* \"#utility.yul\":1371:1373   */\n      0x1f\n        /* \"#utility.yul\":1364:1369   */\n      dup4\n        /* \"#utility.yul\":1360:1374   */\n      add\n        /* \"#utility.yul\":1356:1384   */\n      and\n        /* \"#utility.yul\":1346:1384   */\n      swap1\n      pop\n        /* \"#utility.yul\":1288:1390   */\n      swap2\n      swap1\n      pop\n      jump\t// out\n        /* \"#utility.yul\":1396:1576   */\n    tag_77:\n        /* \"#utility.yul\":1444:1521   */\n      0x4e487b7100000000000000000000000000000000000000000000000000000000\n        /* \"#utility.yul\":1441:1442   */\n      0x00\n        /* \"#utility.yul\":1434:1522   */\n      mstore\n        /* \"#utility.yul\":1541:1545   */\n      0x41\n        /* \"#utility.yul\":1538:1539   */\n      0x04\n        /* \"#utility.yul\":1531:1546   */\n      mstore\n        /* \"#utility.yul\":1565:1569   */\n      0x24\n        /* \"#utility.yul\":1562:1563   */\n      0x00\n        /* \"#utility.yul\":1555:1570   */\n      revert\n        /* \"#utility.yul\":1582:1863   */\n    tag_78:\n        /* \"#utility.yul\":1665:1692   */\n      tag_120\n        /* \"#utility.yul\":1687:1691   */\n      dup3\n        /* \"#utility.yul\":1665:1692   */\n      tag_76\n      jump\t// in\n    tag_120:\n        /* \"#utility.yul\":1657:1663   */\n      dup2\n        /* \"#utility.yul\":1653:1693   */\n      add\n        /* \"#utility.yul\":1795:1801   */\n      dup2\n        /* \"#utility.yul\":1783:1793   */\n      dup2\n        /* \"#utility.yul\":1780:1802   */\n      lt\n        /* \"#utility.yul\":1759:1777   */\n      0xffffffffffffffff\n        /* \"#utility.yul\":1747:1757   */\n      dup3\n        /* \"#utility.yul\":1744:1778   */\n      gt\n        /* \"#utility.yul\":1741:1803   */\n      or\n        /* \"#utility.yul\":1738:1826   */\n      iszero\n      tag_121\n      jumpi\n        /* \"#utility.yul\":1806:1824   */\n      tag_122\n      tag_77\n      jump\t// in\n    tag_122:\n        /* \"#utility.yul\":1738:1826   */\n    tag_121:\n        /* \"#utility.yul\":1846:1856   */\n      dup1\n        /* \"#utility.yul\":1842:1844   */\n      0x40\n        /* \"#utility.yul\":1835:1857   */\n      mstore\n        /* \"#utility.yul\":1625:1863   */\n      pop\n        /* \"#utility.yul\":1582:1863   */\n      pop\n      pop\n      jump\t// out\n        /* \"#utility.yul\":1869:1998   */\n    tag_79:\n        /* \"#utility.yul\":1903:1909   */\n      0x00\n        /* \"#utility.yul\":1930:1950   */\n      tag_124\n      tag_69\n      jump\t// in\n    tag_124:\n        /* \"#utility.yul\":1920:1950   */\n      swap1\n      pop\n        /* \"#utility.yul\":1959:1992   */\n      tag_125\n        /* \"#utility.yul\":1987:1991   */\n      dup3\n        /* \"#utility.yul\":1979:1985   */\n      dup3\n        /* \"#utility.yul\":1959:1992   */\n      tag_78\n      jump\t// in\n    tag_125:\n        /* \"#utility.yul\":1869:1998   */\n      swap2\n      swap1\n      pop\n      jump\t// out\n        /* \"#utility.yul\":2004:2311   */\n    tag_80:\n        /* \"#utility.yul\":2065:2069   */\n      0x00\n        /* \"#utility.yul\":2155:2173   */\n      0xffffffffffffffff\n        /* \"#utility.yul\":2147:2153   */\n      dup3\n        /* \"#utility.yul\":2144:2174   */\n      gt\n        /* \"#utility.yul\":2141:2197   */\n      iszero\n      tag_127\n      jumpi\n        /* \"#utility.yul\":2177:2195   */\n      tag_128\n      tag_77\n      jump\t// in\n    tag_128:\n        /* \"#utility.yul\":2141:2197   */\n    tag_127:\n        /* \"#utility.yul\":2215:2244   */\n      tag_129\n        /* \"#utility.yul\":2237:2243   */\n      dup3\n        /* \"#utility.yul\":2215:2244   */\n      tag_76\n      jump\t// in\n    tag_129:\n        /* \"#utility.yul\":2207:2244   */\n      swap1\n      pop\n        /* \"#utility.yul\":2299:2303   */\n      0x20\n        /* \"#utility.yul\":2293:2297   */\n      dup2\n        /* \"#utility.yul\":2289:2304   */\n      add\n        /* \"#utility.yul\":2281:2304   */\n      swap1\n      pop\n        /* \"#utility.yul\":2004:2311   */\n      swap2\n      swap1\n      pop\n      jump\t// out\n        /* \"#utility.yul\":2317:2465   */\n    tag_81:\n        /* \"#utility.yul\":2415:2421   */\n      dup3\n        /* \"#utility.yul\":2410:2413   */\n      dup2\n        /* \"#utility.yul\":2405:2408   */\n      dup4\n        /* \"#utility.yul\":2392:2422   */\n      calldatacopy\n        /* \"#utility.yul\":2456:2457   */\n      0x00\n        /* \"#utility.yul\":2447:2453   */\n      dup4\n        /* \"#utility.yul\":2442:2445   */\n      dup4\n        /* \"#utility.yul\":2438:2454   */\n      add\n        /* \"#utility.yul\":2431:2458   */\n      mstore\n        /* \"#utility.yul\":2317:2465   */\n      pop\n      pop\n      pop\n      jump\t// out\n        /* \"#utility.yul\":2471:2894   */\n    tag_82:\n        /* \"#utility.yul\":2548:2553   */\n      0x00\n        /* \"#utility.yul\":2573:2638   */\n      tag_132\n        /* \"#utility.yul\":2589:2637   */\n      tag_133\n        /* \"#utility.yul\":2630:2636   */\n      dup5\n        /* \"#utility.yul\":2589:2637   */\n      tag_80\n      jump\t// in\n    tag_133:\n        /* \"#utility.yul\":2573:2638   */\n      tag_79\n      jump\t// in\n    tag_132:\n        /* \"#utility.yul\":2564:2638   */\n      swap1\n      pop\n        /* \"#utility.yul\":2661:2667   */\n      dup3\n        /* \"#utility.yul\":2654:2659   */\n      dup2\n        /* \"#utility.yul\":2647:2668   */\n      mstore\n        /* \"#utility.yul\":2699:2703   */\n      0x20\n        /* \"#utility.yul\":2692:2697   */\n      dup2\n        /* \"#utility.yul\":2688:2704   */\n      add\n        /* \"#utility.yul\":2737:2740   */\n      dup5\n        /* \"#utility.yul\":2728:2734   */\n      dup5\n        /* \"#utility.yul\":2723:2726   */\n      dup5\n        /* \"#utility.yul\":2719:2735   */\n      add\n        /* \"#utility.yul\":2716:2741   */\n      gt\n        /* \"#utility.yul\":2713:2825   */\n      iszero\n      tag_134\n      jumpi\n        /* \"#utility.yul\":2744:2823   */\n      tag_135\n      tag_75\n      jump\t// in\n    tag_135:\n        /* \"#utility.yul\":2713:2825   */\n    tag_134:\n        /* \"#utility.yul\":2834:2888   */\n      tag_136\n        /* \"#utility.yul\":2881:2887   */\n      dup5\n        /* \"#utility.yul\":2876:2879   */\n      dup3\n        /* \"#utility.yul\":2871:2874   */\n      dup6\n        /* \"#utility.yul\":2834:2888   */\n      tag_81\n      jump\t// in\n    tag_136:\n        /* \"#utility.yul\":2554:2894   */\n      pop\n        /* \"#utility.yul\":2471:2894   */\n      swap4\n      swap3\n      pop\n      pop\n      pop\n      jump\t// out\n        /* \"#utility.yul\":2913:3251   */\n    tag_83:\n        /* \"#utility.yul\":2968:2973   */\n      0x00\n        /* \"#utility.yul\":3017:3020   */\n      dup3\n        /* \"#utility.yul\":3010:3014   */\n      0x1f\n        /* \"#utility.yul\":3002:3008   */\n      dup4\n        /* \"#utility.yul\":2998:3015   */\n      add\n        /* \"#utility.yul\":2994:3021   */\n      slt\n        /* \"#utility.yul\":2984:3106   */\n      tag_138\n      jumpi\n        /* \"#utility.yul\":3025:3104   */\n      tag_139\n      tag_74\n      jump\t// in\n    tag_139:\n        /* \"#utility.yul\":2984:3106   */\n    tag_138:\n        /* \"#utility.yul\":3142:3148   */\n      dup2\n        /* \"#utility.yul\":3129:3149   */\n      calldataload\n        /* \"#utility.yul\":3167:3245   */\n      tag_140\n        /* \"#utility.yul\":3241:3244   */\n      dup5\n        /* \"#utility.yul\":3233:3239   */\n      dup3\n        /* \"#utility.yul\":3226:3230   */\n      0x20\n        /* \"#utility.yul\":3218:3224   */\n      dup7\n        /* \"#utility.yul\":3214:3231   */\n      add\n        /* \"#utility.yul\":3167:3245   */\n      tag_82\n      jump\t// in\n    tag_140:\n        /* \"#utility.yul\":3158:3245   */\n      swap2\n      pop\n        /* \"#utility.yul\":2974:3251   */\n      pop\n        /* \"#utility.yul\":2913:3251   */\n      swap3\n      swap2\n      pop\n      pop\n      jump\t// out\n        /* \"#utility.yul\":3257:3909   */\n    tag_11:\n        /* \"#utility.yul\":3334:3340   */\n      0x00\n        /* \"#utility.yul\":3342:3348   */\n      0x00\n        /* \"#utility.yul\":3391:3393   */\n      0x40\n        /* \"#utility.yul\":3379:3388   */\n      dup4\n        /* \"#utility.yul\":3370:3377   */\n      dup6\n        /* \"#utility.yul\":3366:3389   */\n      sub\n        /* \"#utility.yul\":3362:3394   */\n      slt\n        /* \"#utility.yul\":3359:3478   */\n      iszero\n      tag_142\n      jumpi\n        /* \"#utility.yul\":3397:3476   */\n      tag_143\n      tag_70\n      jump\t// in\n    tag_143:\n        /* \"#utility.yul\":3359:3478   */\n    tag_142:\n        /* \"#utility.yul\":3517:3518   */\n      0x00\n        /* \"#utility.yul\":3542:3595   */\n      tag_144\n        /* \"#utility.yul\":3587:3594   */\n      dup6\n        /* \"#utility.yul\":3578:3584   */\n      dup3\n        /* \"#utility.yul\":3567:3576   */\n      dup7\n        /* \"#utility.yul\":3563:3585   */\n      add\n        /* \"#utility.yul\":3542:3595   */\n      tag_73\n      jump\t// in\n    tag_144:\n        /* \"#utility.yul\":3532:3595   */\n      swap3\n      pop\n        /* \"#utility.yul\":3488:3605   */\n      pop\n        /* \"#utility.yul\":3672:3674   */\n      0x20\n        /* \"#utility.yul\":3661:3670   */\n      dup4\n        /* \"#utility.yul\":3657:3675   */\n      add\n        /* \"#utility.yul\":3644:3676   */\n      calldataload\n        /* \"#utility.yul\":3703:3721   */\n      0xffffffffffffffff\n        /* \"#utility.yul\":3695:3701   */\n      dup2\n        /* \"#utility.yul\":3692:3722   */\n      gt\n        /* \"#utility.yul\":3689:3806   */\n      iszero\n      tag_145\n      jumpi\n        /* \"#utility.yul\":3725:3804   */\n      tag_146\n      tag_71\n      jump\t// in\n    tag_146:\n        /* \"#utility.yul\":3689:3806   */\n    tag_145:\n        /* \"#utility.yul\":3830:3892   */\n      tag_147\n        /* \"#utility.yul\":3884:3891   */\n      dup6\n        /* \"#utility.yul\":3875:3881   */\n      dup3\n        /* \"#utility.yul\":3864:3873   */\n      dup7\n        /* \"#utility.yul\":3860:3882   */\n      add\n        /* \"#utility.yul\":3830:3892   */\n      tag_83\n      jump\t// in\n    tag_147:\n        /* \"#utility.yul\":3820:3892   */\n      swap2\n      pop\n        /* \"#utility.yul\":3615:3902   */\n      pop\n        /* \"#utility.yul\":3257:3909   */\n      swap3\n      pop\n      swap3\n      swap1\n      pop\n      jump\t// out\n        /* \"#utility.yul\":3915:4084   */\n    tag_84:\n        /* \"#utility.yul\":3999:4010   */\n      0x00\n        /* \"#utility.yul\":4033:4039   */\n      dup3\n        /* \"#utility.yul\":4028:4031   */\n      dup3\n        /* \"#utility.yul\":4021:4040   */\n      mstore\n        /* \"#utility.yul\":4073:4077   */\n      0x20\n        /* \"#utility.yul\":4068:4071   */\n      dup3\n        /* \"#utility.yul\":4064:4078   */\n      add\n        /* \"#utility.yul\":4049:4078   */\n      swap1\n      pop\n        /* \"#utility.yul\":3915:4084   */\n      swap3\n      swap2\n      pop\n      pop\n      jump\t// out\n        /* \"#utility.yul\":4090:4264   */\n    tag_85:\n        /* \"#utility.yul\":4230:4256   */\n      0x696e76616c6964207369676e6174757265206c656e6774680000000000000000\n        /* \"#utility.yul\":4226:4227   */\n      0x00\n        /* \"#utility.yul\":4218:4224   */\n      dup3\n        /* \"#utility.yul\":4214:4228   */\n      add\n        /* \"#utility.yul\":4207:4257   */\n      mstore\n        /* \"#utility.yul\":4090:4264   */\n      pop\n      jump\t// out\n        /* \"#utility.yul\":4270:4636   */\n    tag_86:\n        /* \"#utility.yul\":4412:4415   */\n      0x00\n        /* \"#utility.yul\":4433:4500   */\n      tag_151\n        /* \"#utility.yul\":4497:4499   */\n      0x18\n        /* \"#utility.yul\":4492:4495   */\n      dup4\n        /* \"#utility.yul\":4433:4500   */\n      tag_84\n      jump\t// in\n    tag_151:\n        /* \"#utility.yul\":4426:4500   */\n      swap2\n      pop\n        /* \"#utility.yul\":4509:4602   */\n      tag_152\n        /* \"#utility.yul\":4598:4601   */\n      dup3\n        /* \"#utility.yul\":4509:4602   */\n      tag_85\n      jump\t// in\n    tag_152:\n        /* \"#utility.yul\":4627:4629   */\n      0x20\n        /* \"#utility.yul\":4622:4625   */\n      dup3\n        /* \"#utility.yul\":4618:4630   */\n      add\n        /* \"#utility.yul\":4611:4630   */\n      swap1\n      pop\n        /* \"#utility.yul\":4270:4636   */\n      swap2\n      swap1\n      pop\n      jump\t// out\n        /* \"#utility.yul\":4642:5061   */\n    tag_17:\n        /* \"#utility.yul\":4808:4812   */\n      0x00\n        /* \"#utility.yul\":4846:4848   */\n      0x20\n        /* \"#utility.yul\":4835:4844   */\n      dup3\n        /* \"#utility.yul\":4831:4849   */\n      add\n        /* \"#utility.yul\":4823:4849   */\n      swap1\n      pop\n        /* \"#utility.yul\":4895:4904   */\n      dup2\n        /* \"#utility.yul\":4889:4893   */\n      dup2\n        /* \"#utility.yul\":4885:4905   */\n      sub\n        /* \"#utility.yul\":4881:4882   */\n      0x00\n        /* \"#utility.yul\":4870:4879   */\n      dup4\n        /* \"#utility.yul\":4866:4883   */\n      add\n        /* \"#utility.yul\":4859:4906   */\n      mstore\n        /* \"#utility.yul\":4923:5054   */\n      tag_154\n        /* \"#utility.yul\":5049:5053   */\n      dup2\n        /* \"#utility.yul\":4923:5054   */\n      tag_86\n      jump\t// in\n    tag_154:\n        /* \"#utility.yul\":4915:5054   */\n      swap1\n      pop\n        /* \"#utility.yul\":4642:5061   */\n      swap2\n      swap1\n      pop\n      jump\t// out\n        /* \"#utility.yul\":5067:5144   */\n    tag_87:\n        /* \"#utility.yul\":5104:5111   */\n      0x00\n        /* \"#utility.yul\":5133:5138   */\n      dup2\n        /* \"#utility.yul\":5122:5138   */\n      swap1\n      pop\n        /* \"#utility.yul\":5067:5144   */\n      swap2\n      swap1\n      pop\n      jump\t// out\n        /* \"#utility.yul\":5150:5268   */\n    tag_88:\n        /* \"#utility.yul\":5237:5261   */\n      tag_157\n        /* \"#utility.yul\":5255:5260   */\n      dup2\n        /* \"#utility.yul\":5237:5261   */\n      tag_87\n      jump\t// in\n    tag_157:\n        /* \"#utility.yul\":5232:5235   */\n      dup3\n        /* \"#utility.yul\":5225:5262   */\n      mstore\n        /* \"#utility.yul\":5150:5268   */\n      pop\n      pop\n      jump\t// out\n        /* \"#utility.yul\":5274:5400   */\n    tag_89:\n        /* \"#utility.yul\":5311:5318   */\n      0x00\n        /* \"#utility.yul\":5351:5393   */\n      0xffffffffffffffffffffffffffffffffffffffff\n        /* \"#utility.yul\":5344:5349   */\n      dup3\n        /* \"#utility.yul\":5340:5394   */\n      and\n        /* \"#utility.yul\":5329:5394   */\n      swap1\n      pop\n        /* \"#utility.yul\":5274:5400   */\n      swap2\n      swap1\n      pop\n      jump\t// out\n        /* \"#utility.yul\":5406:5502   */\n    tag_90:\n        /* \"#utility.yul\":5443:5450   */\n      0x00\n        /* \"#utility.yul\":5472:5496   */\n      tag_160\n        /* \"#utility.yul\":5490:5495   */\n      dup3\n        /* \"#utility.yul\":5472:5496   */\n      tag_89\n      jump\t// in\n    tag_160:\n        /* \"#utility.yul\":5461:5496   */\n      swap1\n      pop\n        /* \"#utility.yul\":5406:5502   */\n      swap2\n      swap1\n      pop\n      jump\t// out\n        /* \"#utility.yul\":5508:5626   */\n    tag_91:\n        /* \"#utility.yul\":5595:5619   */\n      tag_162\n        /* \"#utility.yul\":5613:5618   */\n      dup2\n        /* \"#utility.yul\":5595:5619   */\n      tag_90\n      jump\t// in\n    tag_162:\n        /* \"#utility.yul\":5590:5593   */\n      dup3\n        /* \"#utility.yul\":5583:5620   */\n      mstore\n        /* \"#utility.yul\":5508:5626   */\n      pop\n      pop\n      jump\t// out\n        /* \"#utility.yul\":5632:6074   */\n    tag_19:\n        /* \"#utility.yul\":5781:5785   */\n      0x00\n        /* \"#utility.yul\":5819:5821   */\n      0x60\n        /* \"#utility.yul\":5808:5817   */\n      dup3\n        /* \"#utility.yul\":5804:5822   */\n      add\n        /* \"#utility.yul\":5796:5822   */\n      swap1\n      pop\n        /* \"#utility.yul\":5832:5903   */\n      tag_164\n        /* \"#utility.yul\":5900:5901   */\n      0x00\n        /* \"#utility.yul\":5889:5898   */\n      dup4\n        /* \"#utility.yul\":5885:5902   */\n      add\n        /* \"#utility.yul\":5876:5882   */\n      dup7\n        /* \"#utility.yul\":5832:5903   */\n      tag_88\n      jump\t// in\n    tag_164:\n        /* \"#utility.yul\":5913:5985   */\n      tag_165\n        /* \"#utility.yul\":5981:5983   */\n      0x20\n        /* \"#utility.yul\":5970:5979   */\n      dup4\n        /* \"#utility.yul\":5966:5984   */\n      add\n        /* \"#utility.yul\":5957:5963   */\n      dup6\n        /* \"#utility.yul\":5913:5985   */\n      tag_91\n      jump\t// in\n    tag_165:\n        /* \"#utility.yul\":5995:6067   */\n      tag_166\n        /* \"#utility.yul\":6063:6065   */\n      0x40\n        /* \"#utility.yul\":6052:6061   */\n      dup4\n        /* \"#utility.yul\":6048:6066   */\n      add\n        /* \"#utility.yul\":6039:6045   */\n      dup5\n        /* \"#utility.yul\":5995:6067   */\n      tag_68\n      jump\t// in\n    tag_166:\n        /* \"#utility.yul\":5632:6074   */\n      swap5\n      swap4\n      pop\n      pop\n      pop\n      pop\n      jump\t// out\n        /* \"#utility.yul\":6080:6228   */\n    tag_92:\n        /* \"#utility.yul\":6182:6193   */\n      0x00\n        /* \"#utility.yul\":6219:6222   */\n      dup2\n        /* \"#utility.yul\":6204:6222   */\n      swap1\n      pop\n        /* \"#utility.yul\":6080:6228   */\n      swap3\n      swap2\n      pop\n      pop\n      jump\t// out\n        /* \"#utility.yul\":6234:6448   */\n    tag_93:\n        /* \"#utility.yul\":6374:6440   */\n      0x1901000000000000000000000000000000000000000000000000000000000000\n        /* \"#utility.yul\":6370:6371   */\n      0x00\n        /* \"#utility.yul\":6362:6368   */\n      dup3\n        /* \"#utility.yul\":6358:6372   */\n      add\n        /* \"#utility.yul\":6351:6441   */\n      mstore\n        /* \"#utility.yul\":6234:6448   */\n      pop\n      jump\t// out\n        /* \"#utility.yul\":6454:6854   */\n    tag_94:\n        /* \"#utility.yul\":6614:6617   */\n      0x00\n        /* \"#utility.yul\":6635:6719   */\n      tag_170\n        /* \"#utility.yul\":6717:6718   */\n      0x02\n        /* \"#utility.yul\":6712:6715   */\n      dup4\n        /* \"#utility.yul\":6635:6719   */\n      tag_92\n      jump\t// in\n    tag_170:\n        /* \"#utility.yul\":6628:6719   */\n      swap2\n      pop\n        /* \"#utility.yul\":6728:6821   */\n      tag_171\n        /* \"#utility.yul\":6817:6820   */\n      dup3\n        /* \"#utility.yul\":6728:6821   */\n      tag_93\n      jump\t// in\n    tag_171:\n        /* \"#utility.yul\":6846:6847   */\n      0x02\n        /* \"#utility.yul\":6841:6844   */\n      dup3\n        /* \"#utility.yul\":6837:6848   */\n      add\n        /* \"#utility.yul\":6830:6848   */\n      swap1\n      pop\n        /* \"#utility.yul\":6454:6854   */\n      swap2\n      swap1\n      pop\n      jump\t// out\n        /* \"#utility.yul\":6860:6939   */\n    tag_95:\n        /* \"#utility.yul\":6899:6906   */\n      0x00\n        /* \"#utility.yul\":6928:6933   */\n      dup2\n        /* \"#utility.yul\":6917:6933   */\n      swap1\n      pop\n        /* \"#utility.yul\":6860:6939   */\n      swap2\n      swap1\n      pop\n      jump\t// out\n        /* \"#utility.yul\":6945:7102   */\n    tag_96:\n        /* \"#utility.yul\":7050:7095   */\n      tag_174\n        /* \"#utility.yul\":7070:7094   */\n      tag_175\n        /* \"#utility.yul\":7088:7093   */\n      dup3\n        /* \"#utility.yul\":7070:7094   */\n      tag_87\n      jump\t// in\n    tag_175:\n        /* \"#utility.yul\":7050:7095   */\n      tag_95\n      jump\t// in\n    tag_174:\n        /* \"#utility.yul\":7045:7048   */\n      dup3\n        /* \"#utility.yul\":7038:7096   */\n      mstore\n        /* \"#utility.yul\":6945:7102   */\n      pop\n      pop\n      jump\t// out\n        /* \"#utility.yul\":7108:7771   */\n    tag_21:\n        /* \"#utility.yul\":7349:7352   */\n      0x00\n        /* \"#utility.yul\":7371:7519   */\n      tag_177\n        /* \"#utility.yul\":7515:7518   */\n      dup3\n        /* \"#utility.yul\":7371:7519   */\n      tag_94\n      jump\t// in\n    tag_177:\n        /* \"#utility.yul\":7364:7519   */\n      swap2\n      pop\n        /* \"#utility.yul\":7529:7604   */\n      tag_178\n        /* \"#utility.yul\":7600:7603   */\n      dup3\n        /* \"#utility.yul\":7591:7597   */\n      dup6\n        /* \"#utility.yul\":7529:7604   */\n      tag_96\n      jump\t// in\n    tag_178:\n        /* \"#utility.yul\":7629:7631   */\n      0x20\n        /* \"#utility.yul\":7624:7627   */\n      dup3\n        /* \"#utility.yul\":7620:7632   */\n      add\n        /* \"#utility.yul\":7613:7632   */\n      swap2\n      pop\n        /* \"#utility.yul\":7642:7717   */\n      tag_179\n        /* \"#utility.yul\":7713:7716   */\n      dup3\n        /* \"#utility.yul\":7704:7710   */\n      dup5\n        /* \"#utility.yul\":7642:7717   */\n      tag_96\n      jump\t// in\n    tag_179:\n        /* \"#utility.yul\":7742:7744   */\n      0x20\n        /* \"#utility.yul\":7737:7740   */\n      dup3\n        /* \"#utility.yul\":7733:7745   */\n      add\n        /* \"#utility.yul\":7726:7745   */\n      swap2\n      pop\n        /* \"#utility.yul\":7762:7765   */\n      dup2\n        /* \"#utility.yul\":7755:7765   */\n      swap1\n      pop\n        /* \"#utility.yul\":7108:7771   */\n      swap4\n      swap3\n      pop\n      pop\n      pop\n      jump\t// out\n        /* \"#utility.yul\":7777:7959   */\n    tag_97:\n        /* \"#utility.yul\":7917:7951   */\n      0x45495037313253746f726167653a20496e76616c6964207369676e6174757265\n        /* \"#utility.yul\":7913:7914   */\n      0x00\n        /* \"#utility.yul\":7905:7911   */\n      dup3\n        /* \"#utility.yul\":7901:7915   */\n      add\n        /* \"#utility.yul\":7894:7952   */\n      mstore\n        /* \"#utility.yul\":7777:7959   */\n      pop\n      jump\t// out\n        /* \"#utility.yul\":7965:8331   */\n    tag_98:\n        /* \"#utility.yul\":8107:8110   */\n      0x00\n        /* \"#utility.yul\":8128:8195   */\n      tag_182\n        /* \"#utility.yul\":8192:8194   */\n      0x20\n        /* \"#utility.yul\":8187:8190   */\n      dup4\n        /* \"#utility.yul\":8128:8195   */\n      tag_84\n      jump\t// in\n    tag_182:\n        /* \"#utility.yul\":8121:8195   */\n      swap2\n      pop\n        /* \"#utility.yul\":8204:8297   */\n      tag_183\n        /* \"#utility.yul\":8293:8296   */\n      dup3\n        /* \"#utility.yul\":8204:8297   */\n      tag_97\n      jump\t// in\n    tag_183:\n        /* \"#utility.yul\":8322:8324   */\n      0x20\n        /* \"#utility.yul\":8317:8320   */\n      dup3\n        /* \"#utility.yul\":8313:8325   */\n      add\n        /* \"#utility.yul\":8306:8325   */\n      swap1\n      pop\n        /* \"#utility.yul\":7965:8331   */\n      swap2\n      swap1\n      pop\n      jump\t// out\n        /* \"#utility.yul\":8337:8756   */\n    tag_26:\n        /* \"#utility.yul\":8503:8507   */\n      0x00\n        /* \"#utility.yul\":8541:8543   */\n      0x20\n        /* \"#utility.yul\":8530:8539   */\n      dup3\n        /* \"#utility.yul\":8526:8544   */\n      add\n        /* \"#utility.yul\":8518:8544   */\n      swap1\n      pop\n        /* \"#utility.yul\":8590:8599   */\n      dup2\n        /* \"#utility.yul\":8584:8588   */\n      dup2\n        /* \"#utility.yul\":8580:8600   */\n      sub\n        /* \"#utility.yul\":8576:8577   */\n      0x00\n        /* \"#utility.yul\":8565:8574   */\n      dup4\n        /* \"#utility.yul\":8561:8578   */\n      add\n        /* \"#utility.yul\":8554:8601   */\n      mstore\n        /* \"#utility.yul\":8618:8749   */\n      tag_185\n        /* \"#utility.yul\":8744:8748   */\n      dup2\n        /* \"#utility.yul\":8618:8749   */\n      tag_98\n      jump\t// in\n    tag_185:\n        /* \"#utility.yul\":8610:8749   */\n      swap1\n      pop\n        /* \"#utility.yul\":8337:8756   */\n      swap2\n      swap1\n      pop\n      jump\t// out\n        /* \"#utility.yul\":8762:8848   */\n    tag_99:\n        /* \"#utility.yul\":8797:8804   */\n      0x00\n        /* \"#utility.yul\":8837:8841   */\n      0xff\n        /* \"#utility.yul\":8830:8835   */\n      dup3\n        /* \"#utility.yul\":8826:8842   */\n      and\n        /* \"#utility.yul\":8815:8842   */\n      swap1\n      pop\n        /* \"#utility.yul\":8762:8848   */\n      swap2\n      swap1\n      pop\n      jump\t// out\n        /* \"#utility.yul\":8854:8966   */\n    tag_100:\n        /* \"#utility.yul\":8937:8959   */\n      tag_188\n        /* \"#utility.yul\":8953:8958   */\n      dup2\n        /* \"#utility.yul\":8937:8959   */\n      tag_99\n      jump\t// in\n    tag_188:\n        /* \"#utility.yul\":8932:8935   */\n      dup3\n        /* \"#utility.yul\":8925:8960   */\n      mstore\n        /* \"#utility.yul\":8854:8966   */\n      pop\n      pop\n      jump\t// out\n        /* \"#utility.yul\":8972:9517   */\n    tag_35:\n        /* \"#utility.yul\":9145:9149   */\n      0x00\n        /* \"#utility.yul\":9183:9186   */\n      0x80\n        /* \"#utility.yul\":9172:9181   */\n      dup3\n        /* \"#utility.yul\":9168:9187   */\n      add\n        /* \"#utility.yul\":9160:9187   */\n      swap1\n      pop\n        /* \"#utility.yul\":9197:9268   */\n      tag_190\n        /* \"#utility.yul\":9265:9266   */\n      0x00\n        /* \"#utility.yul\":9254:9263   */\n      dup4\n        /* \"#utility.yul\":9250:9267   */\n      add\n        /* \"#utility.yul\":9241:9247   */\n      dup8\n        /* \"#utility.yul\":9197:9268   */\n      tag_88\n      jump\t// in\n    tag_190:\n        /* \"#utility.yul\":9278:9346   */\n      tag_191\n        /* \"#utility.yul\":9342:9344   */\n      0x20\n        /* \"#utility.yul\":9331:9340   */\n      dup4\n        /* \"#utility.yul\":9327:9345   */\n      add\n        /* \"#utility.yul\":9318:9324   */\n      dup7\n        /* \"#utility.yul\":9278:9346   */\n      tag_100\n      jump\t// in\n    tag_191:\n        /* \"#utility.yul\":9356:9428   */\n      tag_192\n        /* \"#utility.yul\":9424:9426   */\n      0x40\n        /* \"#utility.yul\":9413:9422   */\n      dup4\n        /* \"#utility.yul\":9409:9427   */\n      add\n        /* \"#utility.yul\":9400:9406   */\n      dup6\n        /* \"#utility.yul\":9356:9428   */\n      tag_88\n      jump\t// in\n    tag_192:\n        /* \"#utility.yul\":9438:9510   */\n      tag_193\n        /* \"#utility.yul\":9506:9508   */\n      0x60\n        /* \"#utility.yul\":9495:9504   */\n      dup4\n        /* \"#utility.yul\":9491:9509   */\n      add\n        /* \"#utility.yul\":9482:9488   */\n      dup5\n        /* \"#utility.yul\":9438:9510   */\n      tag_88\n      jump\t// in\n    tag_193:\n        /* \"#utility.yul\":8972:9517   */\n      swap6\n      swap5\n      pop\n      pop\n      pop\n      pop\n      pop\n      jump\t// out\n        /* \"#utility.yul\":9523:9703   */\n    tag_42:\n        /* \"#utility.yul\":9571:9648   */\n      0x4e487b7100000000000000000000000000000000000000000000000000000000\n        /* \"#utility.yul\":9568:9569   */\n      0x00\n        /* \"#utility.yul\":9561:9649   */\n      mstore\n        /* \"#utility.yul\":9668:9672   */\n      0x21\n        /* \"#utility.yul\":9665:9666   */\n      0x04\n        /* \"#utility.yul\":9658:9673   */\n      mstore\n        /* \"#utility.yul\":9692:9696   */\n      0x24\n        /* \"#utility.yul\":9689:9690   */\n      0x00\n        /* \"#utility.yul\":9682:9697   */\n      revert\n        /* \"#utility.yul\":9709:9931   */\n    tag_66:\n        /* \"#utility.yul\":9802:9806   */\n      0x00\n        /* \"#utility.yul\":9840:9842   */\n      0x20\n        /* \"#utility.yul\":9829:9838   */\n      dup3\n        /* \"#utility.yul\":9825:9843   */\n      add\n        /* \"#utility.yul\":9817:9843   */\n      swap1\n      pop\n        /* \"#utility.yul\":9853:9924   */\n      tag_196\n        /* \"#utility.yul\":9921:9922   */\n      0x00\n        /* \"#utility.yul\":9910:9919   */\n      dup4\n        /* \"#utility.yul\":9906:9923   */\n      add\n        /* \"#utility.yul\":9897:9903   */\n      dup5\n        /* \"#utility.yul\":9853:9924   */\n      tag_88\n      jump\t// in\n    tag_196:\n        /* \"#utility.yul\":9709:9931   */\n      swap3\n      swap2\n      pop\n      pop\n      jump\t// out\n\n    auxdata: 0xa2646970667358221220ee92f3c3fe92ff356522e272ac1b9ed5b371657513d0e7a04f97aec918fea91e64736f6c634300081e0033\n}\n",
				"bytecode": {
					"linkReferences": {},
					"object": "608060405234801561000f575f5ffd5b507f8b73c3c69bb8fe3d512ecc4cf759cc79239f7b179b0ffacaa9a75d522b39400f6040518060400160405280600d81526020017f45495037313253746f7261676500000000000000000000000000000000000000815250805190602001206040518060400160405280600181526020017f31000000000000000000000000000000000000000000000000000000000000008152508051906020012046306040516020016100c1959493929190610190565b604051602081830303815290604052805190602001205f819055503360025f6101000a81548173ffffffffffffffffffffffffffffffffffffffff021916908373ffffffffffffffffffffffffffffffffffffffff1602179055506101e1565b5f819050919050565b61013381610121565b82525050565b5f819050919050565b61014b81610139565b82525050565b5f73ffffffffffffffffffffffffffffffffffffffff82169050919050565b5f61017a82610151565b9050919050565b61018a81610170565b82525050565b5f60a0820190506101a35f83018861012a565b6101b0602083018761012a565b6101bd604083018661012a565b6101ca6060830185610142565b6101d76080830184610181565b9695505050505050565b610972806101ee5f395ff3fe608060405234801561000f575f5ffd5b5060043610610034575f3560e01c80632e64cec1146100385780637fb4bf2a14610056575b5f5ffd5b610040610072565b60405161004d9190610498565b60405180910390f35b610070600480360381019061006b9190610628565b61007b565b005b5f600154905090565b60418151146100bf576040517f08c379a00000000000000000000000000000000000000000000000000000000081526004016100b6906106dc565b60405180910390fd5b5f5f5f602084015192506040840151915060608401515f1a90505f5f547fd0424b76ec7a3227309117de6d952e26508aa80cc81ccac30dc95ed1419924cd338860405160200161011193929190610751565b604051602081830303815290604052805190602001206040516020016101389291906107fa565b6040516020818303038152906040528051906020012090505f61016883868685610209909392919063ffffffff16565b905060025f9054906101000a900473ffffffffffffffffffffffffffffffffffffffff1673ffffffffffffffffffffffffffffffffffffffff168173ffffffffffffffffffffffffffffffffffffffff16146101f9576040517f08c379a00000000000000000000000000000000000000000000000000000000081526004016101f09061087a565b60405180910390fd5b8660018190555050505050505050565b5f5f5f5f61021988888888610237565b925092509250610229828261031e565b829350505050949350505050565b5f5f5f7f7fffffffffffffffffffffffffffffff5d576e7357a4501ddfe92f46681b20a0845f1c1115610273575f600385925092509250610314565b5f6001888888886040515f815260200160405260405161029694939291906108b3565b6020604051602081039080840390855afa1580156102b6573d5f5f3e3d5ffd5b5050506020604051035190505f73ffffffffffffffffffffffffffffffffffffffff168173ffffffffffffffffffffffffffffffffffffffff1603610307575f60015f5f1b93509350935050610314565b805f5f5f1b935093509350505b9450945094915050565b5f6003811115610331576103306108f6565b5b826003811115610344576103436108f6565b5b031561047c576001600381111561035e5761035d6108f6565b5b826003811115610371576103706108f6565b5b036103a8576040517ff645eedf00000000000000000000000000000000000000000000000000000000815260040160405180910390fd5b600260038111156103bc576103bb6108f6565b5b8260038111156103cf576103ce6108f6565b5b0361041357805f1c6040517ffce698f700000000000000000000000000000000000000000000000000000000815260040161040a9190610498565b60405180910390fd5b600380811115610426576104256108f6565b5b826003811115610439576104386108f6565b5b0361047b57806040517fd78bce0c0000000000000000000000000000000000000000000000000000000081526004016104729190610923565b60405180910390fd5b5b5050565b5f819050919050565b61049281610480565b82525050565b5f6020820190506104ab5f830184610489565b92915050565b5f604051905090565b5f5ffd5b5f5ffd5b6104cb81610480565b81146104d5575f5ffd5b50565b5f813590506104e6816104c2565b92915050565b5f5ffd5b5f5ffd5b5f601f19601f8301169050919050565b7f4e487b71000000000000000000000000000000000000000000000000000000005f52604160045260245ffd5b61053a826104f4565b810181811067ffffffffffffffff8211171561055957610558610504565b5b80604052505050565b5f61056b6104b1565b90506105778282610531565b919050565b5f67ffffffffffffffff82111561059657610595610504565b5b61059f826104f4565b9050602081019050919050565b828183375f83830152505050565b5f6105cc6105c78461057c565b610562565b9050828152602081018484840111156105e8576105e76104f0565b5b6105f38482856105ac565b509392505050565b5f82601f83011261060f5761060e6104ec565b5b813561061f8482602086016105ba565b91505092915050565b5f5f6040838503121561063e5761063d6104ba565b5b5f61064b858286016104d8565b925050602083013567ffffffffffffffff81111561066c5761066b6104be565b5b610678858286016105fb565b9150509250929050565b5f82825260208201905092915050565b7f696e76616c6964207369676e6174757265206c656e67746800000000000000005f82015250565b5f6106c6601883610682565b91506106d182610692565b602082019050919050565b5f6020820190508181035f8301526106f3816106ba565b9050919050565b5f819050919050565b61070c816106fa565b82525050565b5f73ffffffffffffffffffffffffffffffffffffffff82169050919050565b5f61073b82610712565b9050919050565b61074b81610731565b82525050565b5f6060820190506107645f830186610703565b6107716020830185610742565b61077e6040830184610489565b949350505050565b5f81905092915050565b7f19010000000000000000000000000000000000000000000000000000000000005f82015250565b5f6107c4600283610786565b91506107cf82610790565b600282019050919050565b5f819050919050565b6107f46107ef826106fa565b6107da565b82525050565b5f610804826107b8565b915061081082856107e3565b60208201915061082082846107e3565b6020820191508190509392505050565b7f45495037313253746f726167653a20496e76616c6964207369676e61747572655f82015250565b5f610864602083610682565b915061086f82610830565b602082019050919050565b5f6020820190508181035f83015261089181610858565b9050919050565b5f60ff82169050919050565b6108ad81610898565b82525050565b5f6080820190506108c65f830187610703565b6108d360208301866108a4565b6108e06040830185610703565b6108ed6060830184610703565b95945050505050565b7f4e487b71000000000000000000000000000000000000000000000000000000005f52602160045260245ffd5b5f6020820190506109365f830184610703565b9291505056fea2646970667358221220ee92f3c3fe92ff356522e272ac1b9ed5b371657513d0e7a04f97aec918fea91e64736f6c634300081e0033",
					"opcodes": "PUSH1 0x80 PUSH1 0x40 MSTORE CALLVALUE DUP1 ISZERO PUSH2 0xF JUMPI PUSH0 PUSH0 REVERT JUMPDEST POP PUSH32 0x8B73C3C69BB8FE3D512ECC4CF759CC79239F7B179B0FFACAA9A75D522B39400F PUSH1 0x40 MLOAD DUP1 PUSH1 0x40 ADD PUSH1 0x40 MSTORE DUP1 PUSH1 0xD DUP2 MSTORE PUSH1 0x20 ADD PUSH32 0x45495037313253746F7261676500000000000000000000000000000000000000 DUP2 MSTORE POP DUP1 MLOAD SWAP1 PUSH1 0x20 ADD KECCAK256 PUSH1 0x40 MLOAD DUP1 PUSH1 0x40 ADD PUSH1 0x40 MSTORE DUP1 PUSH1 0x1 DUP2 MSTORE PUSH1 0x20 ADD PUSH32 0x3100000000000000000000000000000000000000000000000000000000000000 DUP2 MSTORE POP DUP1 MLOAD SWAP1 PUSH1 0x20 ADD KECCAK256 CHAINID ADDRESS PUSH1 0x40 MLOAD PUSH1 0x20 ADD PUSH2 0xC1 SWAP6 SWAP5 SWAP4 SWAP3 SWAP2 SWAP1 PUSH2 0x190 JUMP JUMPDEST PUSH1 0x40 MLOAD PUSH1 0x20 DUP2 DUP4 SUB SUB DUP2 MSTORE SWAP1 PUSH1 0x40 MSTORE DUP1 MLOAD SWAP1 PUSH1 0x20 ADD KECCAK256 PUSH0 DUP2 SWAP1 SSTORE POP CALLER PUSH1 0x2 PUSH0 PUSH2 0x100 EXP DUP2 SLOAD DUP2 PUSH20 0xFFFFFFFFFFFFFFFFFFFFFFFFFFFFFFFFFFFFFFFF MUL NOT AND SWAP1 DUP4 PUSH20 0xFFFFFFFFFFFFFFFFFFFFFFFFFFFFFFFFFFFFFFFF AND MUL OR SWAP1 SSTORE POP PUSH2 0x1E1 JUMP JUMPDEST PUSH0 DUP2 SWAP1 POP SWAP2 SWAP1 POP JUMP JUMPDEST PUSH2 0x133 DUP2 PUSH2 0x121 JUMP JUMPDEST DUP3 MSTORE POP POP JUMP JUMPDEST PUSH0 DUP2 SWAP1 POP SWAP2 SWAP1 POP JUMP JUMPDEST PUSH2 0x14B DUP2 PUSH2 0x139 JUMP JUMPDEST DUP3 MSTORE POP POP JUMP JUMPDEST PUSH0 PUSH20 0xFFFFFFFFFFFFFFFFFFFFFFFFFFFFFFFFFFFFFFFF DUP3 AND SWAP1 POP SWAP2 SWAP1 POP JUMP JUMPDEST PUSH0 PUSH2 0x17A DUP3 PUSH2 0x151 JUMP JUMPDEST SWAP1 POP SWAP2 SWAP1 POP JUMP JUMPDEST PUSH2 0x18A DUP2 PUSH2 0x170 JUMP JUMPDEST DUP3 MSTORE POP POP JUMP JUMPDEST PUSH0 PUSH1 0xA0 DUP3 ADD SWAP1 POP PUSH2 0x1A3 PUSH0 DUP4 ADD DUP9 PUSH2 0x12A JUMP JUMPDEST PUSH2 0x1B0 PUSH1 0x20 DUP4 ADD DUP8 PUSH2 0x12A JUMP JUMPDEST PUSH2 0x1BD PUSH1 0x40 DUP4 ADD DUP7 PUSH2 0x12A JUMP JUMPDEST PUSH2 0x1CA PUSH1 0x60 DUP4 ADD DUP6 PUSH2 0x142 JUMP JUMPDEST PUSH2 0x1D7 PUSH1 0x80 DUP4 ADD DUP5 PUSH2 0x181 JUMP JUMPDEST SWAP7 SWAP6 POP POP POP POP POP POP JUMP JUMPDEST PUSH2 0x972 DUP1 PUSH2 0x1EE PUSH0 CODECOPY PUSH0 RETURN INVALID PUSH1 0x80 PUSH1 0x40 MSTORE CALLVALUE DUP1 ISZERO PUSH2 0xF JUMPI PUSH0 PUSH0 REVERT JUMPDEST POP PUSH1 0x4 CALLDATASIZE LT PUSH2 0x34 JUMPI PUSH0 CALLDATALOAD PUSH1 0xE0 SHR DUP1 PUSH4 0x2E64CEC1 EQ PUSH2 0x38 JUMPI DUP1 PUSH4 0x7FB4BF2A EQ PUSH2 0x56 JUMPI JUMPDEST PUSH0 PUSH0 REVERT JUMPDEST PUSH2 0x40 PUSH2 0x72 JUMP JUMPDEST PUSH1 0x40 MLOAD PUSH2 0x4D SWAP2 SWAP1 PUSH2 0x498 JUMP JUMPDEST PUSH1 0x40 MLOAD DUP1 SWAP2 SUB SWAP1 RETURN JUMPDEST PUSH2 0x70 PUSH1 0x4 DUP1 CALLDATASIZE SUB DUP2 ADD SWAP1 PUSH2 0x6B SWAP2 SWAP1 PUSH2 0x628 JUMP JUMPDEST PUSH2 0x7B JUMP JUMPDEST STOP JUMPDEST PUSH0 PUSH1 0x1 SLOAD SWAP1 POP SWAP1 JUMP JUMPDEST PUSH1 0x41 DUP2 MLOAD EQ PUSH2 0xBF JUMPI PUSH1 0x40 MLOAD PUSH32 0x8C379A000000000000000000000000000000000000000000000000000000000 DUP2 MSTORE PUSH1 0x4 ADD PUSH2 0xB6 SWAP1 PUSH2 0x6DC JUMP JUMPDEST PUSH1 0x40 MLOAD DUP1 SWAP2 SUB SWAP1 REVERT JUMPDEST PUSH0 PUSH0 PUSH0 PUSH1 0x20 DUP5 ADD MLOAD SWAP3 POP PUSH1 0x40 DUP5 ADD MLOAD SWAP2 POP PUSH1 0x60 DUP5 ADD MLOAD PUSH0 BYTE SWAP1 POP PUSH0 PUSH0 SLOAD PUSH32 0xD0424B76EC7A3227309117DE6D952E26508AA80CC81CCAC30DC95ED1419924CD CALLER DUP9 PUSH1 0x40 MLOAD PUSH1 0x20 ADD PUSH2 0x111 SWAP4 SWAP3 SWAP2 SWAP1 PUSH2 0x751 JUMP JUMPDEST PUSH1 0x40 MLOAD PUSH1 0x20 DUP2 DUP4 SUB SUB DUP2 MSTORE SWAP1 PUSH1 0x40 MSTORE DUP1 MLOAD SWAP1 PUSH1 0x20 ADD KECCAK256 PUSH1 0x40 MLOAD PUSH1 0x20 ADD PUSH2 0x138 SWAP3 SWAP2 SWAP1 PUSH2 0x7FA JUMP JUMPDEST PUSH1 0x40 MLOAD PUSH1 0x20 DUP2 DUP4 SUB SUB DUP2 MSTORE SWAP1 PUSH1 0x40 MSTORE DUP1 MLOAD SWAP1 PUSH1 0x20 ADD KECCAK256 SWAP1 POP PUSH0 PUSH2 0x168 DUP4 DUP7 DUP7 DUP6 PUSH2 0x209 SWAP1 SWAP4 SWAP3 SWAP2 SWAP1 PUSH4 0xFFFFFFFF AND JUMP JUMPDEST SWAP1 POP PUSH1 0x2 PUSH0 SWAP1 SLOAD SWAP1 PUSH2 0x100 EXP SWAP1 DIV PUSH20 0xFFFFFFFFFFFFFFFFFFFFFFFFFFFFFFFFFFFFFFFF AND PUSH20 0xFFFFFFFFFFFFFFFFFFFFFFFFFFFFFFFFFFFFFFFF AND DUP2 PUSH20 0xFFFFFFFFFFFFFFFFFFFFFFFFFFFFFFFFFFFFFFFF AND EQ PUSH2 0x1F9 JUMPI PUSH1 0x40 MLOAD PUSH32 0x8C379A000000000000000000000000000000000000000000000000000000000 DUP2 MSTORE PUSH1 0x4 ADD PUSH2 0x1F0 SWAP1 PUSH2 0x87A JUMP JUMPDEST PUSH1 0x40 MLOAD DUP1 SWAP2 SUB SWAP1 REVERT JUMPDEST DUP7 PUSH1 0x1 DUP2 SWAP1 SSTORE POP POP POP POP POP POP POP POP JUMP JUMPDEST PUSH0 PUSH0 PUSH0 PUSH0 PUSH2 0x219 DUP9 DUP9 DUP9 DUP9 PUSH2 0x237 JUMP JUMPDEST SWAP3 POP SWAP3 POP SWAP3 POP PUSH2 0x229 DUP3 DUP3 PUSH2 0x31E JUMP JUMPDEST DUP3 SWAP4 POP POP POP POP SWAP5 SWAP4 POP POP POP POP JUMP JUMPDEST PUSH0 PUSH0 PUSH0 PUSH32 0x7FFFFFFFFFFFFFFFFFFFFFFFFFFFFFFF5D576E7357A4501DDFE92F46681B20A0 DUP5 PUSH0 SHR GT ISZERO PUSH2 0x273 JUMPI PUSH0 PUSH1 0x3 DUP6 SWAP3 POP SWAP3 POP SWAP3 POP PUSH2 0x314 JUMP JUMPDEST PUSH0 PUSH1 0x1 DUP9 DUP9 DUP9 DUP9 PUSH1 0x40 MLOAD PUSH0 DUP2 MSTORE PUSH1 0x20 ADD PUSH1 0x40 MSTORE PUSH1 0x40 MLOAD PUSH2 0x296 SWAP5 SWAP4 SWAP3 SWAP2 SWAP1 PUSH2 0x8B3 JUMP JUMPDEST PUSH1 0x20 PUSH1 0x40 MLOAD PUSH1 0x20 DUP2 SUB SWAP1 DUP1 DUP5 SUB SWAP1 DUP6 GAS STATICCALL ISZERO DUP1 ISZERO PUSH2 0x2B6 JUMPI RETURNDATASIZE PUSH0 PUSH0 RETURNDATACOPY RETURNDATASIZE PUSH0 REVERT JUMPDEST POP POP POP PUSH1 0x20 PUSH1 0x40 MLOAD SUB MLOAD SWAP1 POP PUSH0 PUSH20 0xFFFFFFFFFFFFFFFFFFFFFFFFFFFFFFFFFFFFFFFF AND DUP2 PUSH20 0xFFFFFFFFFFFFFFFFFFFFFFFFFFFFFFFFFFFFFFFF AND SUB PUSH2 0x307 JUMPI PUSH0 PUSH1 0x1 PUSH0 PUSH0 SHL SWAP4 POP SWAP4 POP SWAP4 POP POP PUSH2 0x314 JUMP JUMPDEST DUP1 PUSH0 PUSH0 PUSH0 SHL SWAP4 POP SWAP4 POP SWAP4 POP POP JUMPDEST SWAP5 POP SWAP5 POP SWAP5 SWAP2 POP POP JUMP JUMPDEST PUSH0 PUSH1 0x3 DUP2 GT ISZERO PUSH2 0x331 JUMPI PUSH2 0x330 PUSH2 0x8F6 JUMP JUMPDEST JUMPDEST DUP3 PUSH1 0x3 DUP2 GT ISZERO PUSH2 0x344 JUMPI PUSH2 0x343 PUSH2 0x8F6 JUMP JUMPDEST JUMPDEST SUB ISZERO PUSH2 0x47C JUMPI PUSH1 0x1 PUSH1 0x3 DUP2 GT ISZERO PUSH2 0x35E JUMPI PUSH2 0x35D PUSH2 0x8F6 JUMP JUMPDEST JUMPDEST DUP3 PUSH1 0x3 DUP2 GT ISZERO PUSH2 0x371 JUMPI PUSH2 0x370 PUSH2 0x8F6 JUMP JUMPDEST JUMPDEST SUB PUSH2 0x3A8 JUMPI PUSH1 0x40 MLOAD PUSH32 0xF645EEDF00000000000000000000000000000000000000000000000000000000 DUP2 MSTORE PUSH1 0x4 ADD PUSH1 0x40 MLOAD DUP1 SWAP2 SUB SWAP1 REVERT JUMPDEST PUSH1 0x2 PUSH1 0x3 DUP2 GT ISZERO PUSH2 0x3BC JUMPI PUSH2 0x3BB PUSH2 0x8F6 JUMP JUMPDEST JUMPDEST DUP3 PUSH1 0x3 DUP2 GT ISZERO PUSH2 0x3CF JUMPI PUSH2 0x3CE PUSH2 0x8F6 JUMP JUMPDEST JUMPDEST SUB PUSH2 0x413 JUMPI DUP1 PUSH0 SHR PUSH1 0x40 MLOAD PUSH32 0xFCE698F700000000000000000000000000000000000000000000000000000000 DUP2 MSTORE PUSH1 0x4 ADD PUSH2 0x40A SWAP2 SWAP1 PUSH2 0x498 JUMP JUMPDEST PUSH1 0x40 MLOAD DUP1 SWAP2 SUB SWAP1 REVERT JUMPDEST PUSH1 0x3 DUP1 DUP2 GT ISZERO PUSH2 0x426 JUMPI PUSH2 0x425 PUSH2 0x8F6 JUMP JUMPDEST JUMPDEST DUP3 PUSH1 0x3 DUP2 GT ISZERO PUSH2 0x439 JUMPI PUSH2 0x438 PUSH2 0x8F6 JUMP JUMPDEST JUMPDEST SUB PUSH2 0x47B JUMPI DUP1 PUSH1 0x40 MLOAD PUSH32 0xD78BCE0C00000000000000000000000000000000000000000000000000000000 DUP2 MSTORE PUSH1 0x4 ADD PUSH2 0x472 SWAP2 SWAP1 PUSH2 0x923 JUMP JUMPDEST PUSH1 0x40 MLOAD DUP1 SWAP2 SUB SWAP1 REVERT JUMPDEST JUMPDEST POP POP JUMP JUMPDEST PUSH0 DUP2 SWAP1 POP SWAP2 SWAP1 POP JUMP JUMPDEST PUSH2 0x492 DUP2 PUSH2 0x480 JUMP JUMPDEST DUP3 MSTORE POP POP JUMP JUMPDEST PUSH0 PUSH1 0x20 DUP3 ADD SWAP1 POP PUSH2 0x4AB PUSH0 DUP4 ADD DUP5 PUSH2 0x489 JUMP JUMPDEST SWAP3 SWAP2 POP POP JUMP JUMPDEST PUSH0 PUSH1 0x40 MLOAD SWAP1 POP SWAP1 JUMP JUMPDEST PUSH0 PUSH0 REVERT JUMPDEST PUSH0 PUSH0 REVERT JUMPDEST PUSH2 0x4CB DUP2 PUSH2 0x480 JUMP JUMPDEST DUP2 EQ PUSH2 0x4D5 JUMPI PUSH0 PUSH0 REVERT JUMPDEST POP JUMP JUMPDEST PUSH0 DUP2 CALLDATALOAD SWAP1 POP PUSH2 0x4E6 DUP2 PUSH2 0x4C2 JUMP JUMPDEST SWAP3 SWAP2 POP POP JUMP JUMPDEST PUSH0 PUSH0 REVERT JUMPDEST PUSH0 PUSH0 REVERT JUMPDEST PUSH0 PUSH1 0x1F NOT PUSH1 0x1F DUP4 ADD AND SWAP1 POP SWAP2 SWAP1 POP JUMP JUMPDEST PUSH32 0x4E487B7100000000000000000000000000000000000000000000000000000000 PUSH0 MSTORE PUSH1 0x41 PUSH1 0x4 MSTORE PUSH1 0x24 PUSH0 REVERT JUMPDEST PUSH2 0x53A DUP3 PUSH2 0x4F4 JUMP JUMPDEST DUP2 ADD DUP2 DUP2 LT PUSH8 0xFFFFFFFFFFFFFFFF DUP3 GT OR ISZERO PUSH2 0x559 JUMPI PUSH2 0x558 PUSH2 0x504 JUMP JUMPDEST JUMPDEST DUP1 PUSH1 0x40 MSTORE POP POP POP JUMP JUMPDEST PUSH0 PUSH2 0x56B PUSH2 0x4B1 JUMP JUMPDEST SWAP1 POP PUSH2 0x577 DUP3 DUP3 PUSH2 0x531 JUMP JUMPDEST SWAP2 SWAP1 POP JUMP JUMPDEST PUSH0 PUSH8 0xFFFFFFFFFFFFFFFF DUP3 GT ISZERO PUSH2 0x596 JUMPI PUSH2 0x595 PUSH2 0x504 JUMP JUMPDEST JUMPDEST PUSH2 0x59F DUP3 PUSH2 0x4F4 JUMP JUMPDEST SWAP1 POP PUSH1 0x20 DUP2 ADD SWAP1 POP SWAP2 SWAP1 POP JUMP JUMPDEST DUP3 DUP2 DUP4 CALLDATACOPY PUSH0 DUP4 DUP4 ADD MSTORE POP POP POP JUMP JUMPDEST PUSH0 PUSH2 0x5CC PUSH2 0x5C7 DUP5 PUSH2 0x57C JUMP JUMPDEST PUSH2 0x562 JUMP JUMPDEST SWAP1 POP DUP3 DUP2 MSTORE PUSH1 0x20 DUP2 ADD DUP5 DUP5 DUP5 ADD GT ISZERO PUSH2 0x5E8 JUMPI PUSH2 0x5E7 PUSH2 0x4F0 JUMP JUMPDEST JUMPDEST PUSH2 0x5F3 DUP5 DUP3 DUP6 PUSH2 0x5AC JUMP JUMPDEST POP SWAP4 SWAP3 POP POP POP JUMP JUMPDEST PUSH0 DUP3 PUSH1 0x1F DUP4 ADD SLT PUSH2 0x60F JUMPI PUSH2 0x60E PUSH2 0x4EC JUMP JUMPDEST JUMPDEST DUP2 CALLDATALOAD PUSH2 0x61F DUP5 DUP3 PUSH1 0x20 DUP7 ADD PUSH2 0x5BA JUMP JUMPDEST SWAP2 POP POP SWAP3 SWAP2 POP POP JUMP JUMPDEST PUSH0 PUSH0 PUSH1 0x40 DUP4 DUP6 SUB SLT ISZERO PUSH2 0x63E JUMPI PUSH2 0x63D PUSH2 0x4BA JUMP JUMPDEST JUMPDEST PUSH0 PUSH2 0x64B DUP6 DUP3 DUP7 ADD PUSH2 0x4D8 JUMP JUMPDEST SWAP3 POP POP PUSH1 0x20 DUP4 ADD CALLDATALOAD PUSH8 0xFFFFFFFFFFFFFFFF DUP2 GT ISZERO PUSH2 0x66C JUMPI PUSH2 0x66B PUSH2 0x4BE JUMP JUMPDEST JUMPDEST PUSH2 0x678 DUP6 DUP3 DUP7 ADD PUSH2 0x5FB JUMP JUMPDEST SWAP2 POP POP SWAP3 POP SWAP3 SWAP1 POP JUMP JUMPDEST PUSH0 DUP3 DUP3 MSTORE PUSH1 0x20 DUP3 ADD SWAP1 POP SWAP3 SWAP2 POP POP JUMP JUMPDEST PUSH32 0x696E76616C6964207369676E6174757265206C656E6774680000000000000000 PUSH0 DUP3 ADD MSTORE POP JUMP JUMPDEST PUSH0 PUSH2 0x6C6 PUSH1 0x18 DUP4 PUSH2 0x682 JUMP JUMPDEST SWAP2 POP PUSH2 0x6D1 DUP3 PUSH2 0x692 JUMP JUMPDEST PUSH1 0x20 DUP3 ADD SWAP1 POP SWAP2 SWAP1 POP JUMP JUMPDEST PUSH0 PUSH1 0x20 DUP3 ADD SWAP1 POP DUP2 DUP2 SUB PUSH0 DUP4 ADD MSTORE PUSH2 0x6F3 DUP2 PUSH2 0x6BA JUMP JUMPDEST SWAP1 POP SWAP2 SWAP1 POP JUMP JUMPDEST PUSH0 DUP2 SWAP1 POP SWAP2 SWAP1 POP JUMP JUMPDEST PUSH2 0x70C DUP2 PUSH2 0x6FA JUMP JUMPDEST DUP3 MSTORE POP POP JUMP JUMPDEST PUSH0 PUSH20 0xFFFFFFFFFFFFFFFFFFFFFFFFFFFFFFFFFFFFFFFF DUP3 AND SWAP1 POP SWAP2 SWAP1 POP JUMP JUMPDEST PUSH0 PUSH2 0x73B DUP3 PUSH2 0x712 JUMP JUMPDEST SWAP1 POP SWAP2 SWAP1 POP JUMP JUMPDEST PUSH2 0x74B DUP2 PUSH2 0x731 JUMP JUMPDEST DUP3 MSTORE POP POP JUMP JUMPDEST PUSH0 PUSH1 0x60 DUP3 ADD SWAP1 POP PUSH2 0x764 PUSH0 DUP4 ADD DUP7 PUSH2 0x703 JUMP JUMPDEST PUSH2 0x771 PUSH1 0x20 DUP4 ADD DUP6 PUSH2 0x742 JUMP JUMPDEST PUSH2 0x77E PUSH1 0x40 DUP4 ADD DUP5 PUSH2 0x489 JUMP JUMPDEST SWAP5 SWAP4 POP POP POP POP JUMP JUMPDEST PUSH0 DUP2 SWAP1 POP SWAP3 SWAP2 POP POP JUMP JUMPDEST PUSH32 0x1901000000000000000000000000000000000000000000000000000000000000 PUSH0 DUP3 ADD MSTORE POP JUMP JUMPDEST PUSH0 PUSH2 0x7C4 PUSH1 0x2 DUP4 PUSH2 0x786 JUMP JUMPDEST SWAP2 POP PUSH2 0x7CF DUP3 PUSH2 0x790 JUMP JUMPDEST PUSH1 0x2 DUP3 ADD SWAP1 POP SWAP2 SWAP1 POP JUMP JUMPDEST PUSH0 DUP2 SWAP1 POP SWAP2 SWAP1 POP JUMP JUMPDEST PUSH2 0x7F4 PUSH2 0x7EF DUP3 PUSH2 0x6FA JUMP JUMPDEST PUSH2 0x7DA JUMP JUMPDEST DUP3 MSTORE POP POP JUMP JUMPDEST PUSH0 PUSH2 0x804 DUP3 PUSH2 0x7B8 JUMP JUMPDEST SWAP2 POP PUSH2 0x810 DUP3 DUP6 PUSH2 0x7E3 JUMP JUMPDEST PUSH1 0x20 DUP3 ADD SWAP2 POP PUSH2 0x820 DUP3 DUP5 PUSH2 0x7E3 JUMP JUMPDEST PUSH1 0x20 DUP3 ADD SWAP2 POP DUP2 SWAP1 POP SWAP4 SWAP3 POP POP POP JUMP JUMPDEST PUSH32 0x45495037313253746F726167653A20496E76616C6964207369676E6174757265 PUSH0 DUP3 ADD MSTORE POP JUMP JUMPDEST PUSH0 PUSH2 0x864 PUSH1 0x20 DUP4 PUSH2 0x682 JUMP JUMPDEST SWAP2 POP PUSH2 0x86F DUP3 PUSH2 0x830 JUMP JUMPDEST PUSH1 0x20 DUP3 ADD SWAP1 POP SWAP2 SWAP1 POP JUMP JUMPDEST PUSH0 PUSH1 0x20 DUP3 ADD SWAP1 POP DUP2 DUP2 SUB PUSH0 DUP4 ADD MSTORE PUSH2 0x891 DUP2 PUSH2 0x858 JUMP JUMPDEST SWAP1 POP SWAP2 SWAP1 POP JUMP JUMPDEST PUSH0 PUSH1 0xFF DUP3 AND SWAP1 POP SWAP2 SWAP1 POP JUMP JUMPDEST PUSH2 0x8AD DUP2 PUSH2 0x898 JUMP JUMPDEST DUP3 MSTORE POP POP JUMP JUMPDEST PUSH0 PUSH1 0x80 DUP3 ADD SWAP1 POP PUSH2 0x8C6 PUSH0 DUP4 ADD DUP8 PUSH2 0x703 JUMP JUMPDEST PUSH2 0x8D3 PUSH1 0x20 DUP4 ADD DUP7 PUSH2 0x8A4 JUMP JUMPDEST PUSH2 0x8E0 PUSH1 0x40 DUP4 ADD DUP6 PUSH2 0x703 JUMP JUMPDEST PUSH2 0x8ED PUSH1 0x60 DUP4 ADD DUP5 PUSH2 0x703 JUMP JUMPDEST SWAP6 SWAP5 POP POP POP POP POP JUMP JUMPDEST PUSH32 0x4E487B7100000000000000000000000000000000000000000000000000000000 PUSH0 MSTORE PUSH1 0x21 PUSH1 0x4 MSTORE PUSH1 0x24 PUSH0 REVERT JUMPDEST PUSH0 PUSH1 0x20 DUP3 ADD SWAP1 POP PUSH2 0x936 PUSH0 DUP4 ADD DUP5 PUSH2 0x703 JUMP JUMPDEST SWAP3 SWAP2 POP POP JUMP INVALID LOG2 PUSH5 0x6970667358 0x22 SLT KECCAK256 RETURNCONTRACT 0x92 RETURN 0xC3 INVALID SWAP3 SELFDESTRUCT CALLDATALOAD PUSH6 0x22E272AC1B9E 0xD5 0xB3 PUSH18 0x657513D0E7A04F97AEC918FEA91E64736F6C PUSH4 0x4300081E STOP CALLER "
				},
				"gasEstimates": {
					"creation": {
						"codeDepositCost": "483600",
						"executionCost": "infinite",
						"totalCost": "infinite"
					},
					"external": {
						"permitStore(uint256,bytes)": "infinite",
						"retrieve()": "2410"
					}
				},
				"methodIdentifiers": {
					"permitStore(uint256,bytes)": "7fb4bf2a",
					"retrieve()": "2e64cec1"
				}
			},
			"storageLayout": {
				"storage": [
					{
						"astId": 17,
						"contract": "103/EIP712.sol:EIP712Storage",
						"label": "DOMAIN_SEPARATOR",
						"offset": 0,
						"slot": "0",
						"type": "t_bytes32"
					},
					{
						"astId": 19,
						"contract": "103/EIP712.sol:EIP712Storage",
						"label": "number",
						"offset": 0,
						"slot": "1",
						"type": "t_uint256"
					},
					{
						"astId": 21,
						"contract": "103/EIP712.sol:EIP712Storage",
						"label": "owner",
						"offset": 0,
						"slot": "2",
						"type": "t_address"
					}
				],
				"types": {
					"t_address": {
						"encoding": "inplace",
						"label": "address",
						"numberOfBytes": "20"
					},
					"t_bytes32": {
						"encoding": "inplace",
						"label": "bytes32",
						"numberOfBytes": "32"
					},
					"t_uint256": {
						"encoding": "inplace",
						"label": "uint256",
						"numberOfBytes": "32"
					}
				}
			},
			"userdoc": {
				"kind": "user",
				"methods": {},
				"version": 1
			}
		}
	}
}