{
	"roman2int.sol": {
		"Int2Roman": {
			"abi": [
				{
					"inputs": [],
					"stateMutability": "nonpayable",
					"type": "constructor"
				},
				{
					"anonymous": false,
					"inputs": [
						{
							"indexed": false,
							"internalType": "uint256",
							"name": "num",
							"type": "uint256"
						}
					],
					"name": "Log",
					"type": "event"
				},
				{
					"inputs": [
						{
							"internalType": "bytes1",
							"name": "romanChar",
							"type": "bytes1"
						}
					],
					"name": "getValue",
					"outputs": [
						{
							"internalType": "uint256",
							"name": "",
							"type": "uint256"
						}
					],
					"stateMutability": "view",
					"type": "function"
				},
				{
					"inputs": [
						{
							"internalType": "bytes1",
							"name": "",
							"type": "bytes1"
						}
					],
					"name": "romanMap",
					"outputs": [
						{
							"internalType": "uint256",
							"name": "",
							"type": "uint256"
						}
					],
					"stateMutability": "view",
					"type": "function"
				},
				{
					"inputs": [
						{
							"internalType": "string",
							"name": "roman",
							"type": "string"
						}
					],
					"name": "romanToInt",
					"outputs": [
						{
							"internalType": "uint256",
							"name": "",
							"type": "uint256"
						}
					],
					"stateMutability": "view",
					"type": "function"
				},
				{
					"inputs": [
						{
							"internalType": "string",
							"name": "roman",
							"type": "string"
						}
					],
					"name": "validRoman",
					"outputs": [
						{
							"internalType": "bool",
							"name": "",
							"type": "bool"
						}
					],
					"stateMutability": "view",
					"type": "function"
				}
			],
			"devdoc": {
				"kind": "dev",
				"methods": {},
				"version": 1
			},
			"evm": {
				"assembly": "    /* \"roman2int.sol\":57:1915  contract Int2Roman{... */\n  mstore(0x40, 0x80)\n    /* \"roman2int.sol\":176:425  constructor() {... */\n  callvalue\n  dup1\n  iszero\n  tag_1\n  jumpi\n  revert(0x00, 0x00)\ntag_1:\n  pop\n    /* \"roman2int.sol\":246:247  1 */\n  0x01\n    /* \"roman2int.sol\":230:238  romanMap */\n  0x00\n    /* \"roman2int.sol\":230:243  romanMap['I'] */\n  0x00\n  and(not(0xffffffffffffffffffffffffffffffffffffffffffffffffffffffffffffff), 0x4900000000000000000000000000000000000000000000000000000000000000)\n  dup2\n  mstore\n  0x20\n  add\n  swap1\n  dup2\n  mstore\n  0x20\n  add\n  0x00\n  keccak256\n    /* \"roman2int.sol\":230:247  romanMap['I'] = 1 */\n  dup2\n  swap1\n  sstore\n  pop\n    /* \"roman2int.sol\":273:274  5 */\n  0x05\n    /* \"roman2int.sol\":257:265  romanMap */\n  0x00\n    /* \"roman2int.sol\":257:270  romanMap['V'] */\n  0x00\n  and(not(0xffffffffffffffffffffffffffffffffffffffffffffffffffffffffffffff), 0x5600000000000000000000000000000000000000000000000000000000000000)\n  dup2\n  mstore\n  0x20\n  add\n  swap1\n  dup2\n  mstore\n  0x20\n  add\n  0x00\n  keccak256\n    /* \"roman2int.sol\":257:274  romanMap['V'] = 5 */\n  dup2\n  swap1\n  sstore\n  pop\n    /* \"roman2int.sol\":300:302  10 */\n  0x0a\n    /* \"roman2int.sol\":284:292  romanMap */\n  0x00\n    /* \"roman2int.sol\":284:297  romanMap['X'] */\n  0x00\n  and(not(0xffffffffffffffffffffffffffffffffffffffffffffffffffffffffffffff), 0x5800000000000000000000000000000000000000000000000000000000000000)\n  dup2\n  mstore\n  0x20\n  add\n  swap1\n  dup2\n  mstore\n  0x20\n  add\n  0x00\n  keccak256\n    /* \"roman2int.sol\":284:302  romanMap['X'] = 10 */\n  dup2\n  swap1\n  sstore\n  pop\n    /* \"roman2int.sol\":328:330  50 */\n  0x32\n    /* \"roman2int.sol\":312:320  romanMap */\n  0x00\n    /* \"roman2int.sol\":312:325  romanMap['L'] */\n  0x00\n  and(not(0xffffffffffffffffffffffffffffffffffffffffffffffffffffffffffffff), 0x4c00000000000000000000000000000000000000000000000000000000000000)\n  dup2\n  mstore\n  0x20\n  add\n  swap1\n  dup2\n  mstore\n  0x20\n  add\n  0x00\n  keccak256\n    /* \"roman2int.sol\":312:330  romanMap['L'] = 50 */\n  dup2\n  swap1\n  sstore\n  pop\n    /* \"roman2int.sol\":356:359  100 */\n  0x64\n    /* \"roman2int.sol\":340:348  romanMap */\n  0x00\n    /* \"roman2int.sol\":340:353  romanMap['C'] */\n  0x00\n  and(not(0xffffffffffffffffffffffffffffffffffffffffffffffffffffffffffffff), 0x4300000000000000000000000000000000000000000000000000000000000000)\n  dup2\n  mstore\n  0x20\n  add\n  swap1\n  dup2\n  mstore\n  0x20\n  add\n  0x00\n  keccak256\n    /* \"roman2int.sol\":340:359  romanMap['C'] = 100 */\n  dup2\n  swap1\n  sstore\n  pop\n    /* \"roman2int.sol\":385:388  500 */\n  0x01f4\n    /* \"roman2int.sol\":369:377  romanMap */\n  0x00\n    /* \"roman2int.sol\":369:382  romanMap['D'] */\n  0x00\n  and(not(0xffffffffffffffffffffffffffffffffffffffffffffffffffffffffffffff), 0x4400000000000000000000000000000000000000000000000000000000000000)\n  dup2\n  mstore\n  0x20\n  add\n  swap1\n  dup2\n  mstore\n  0x20\n  add\n  0x00\n  keccak256\n    /* \"roman2int.sol\":369:388  romanMap['D'] = 500 */\n  dup2\n  swap1\n  sstore\n  pop\n    /* \"roman2int.sol\":414:418  1000 */\n  0x03e8\n    /* \"roman2int.sol\":398:406  romanMap */\n  0x00\n    /* \"roman2int.sol\":398:411  romanMap['M'] */\n  0x00\n  and(not(0xffffffffffffffffffffffffffffffffffffffffffffffffffffffffffffff), 0x4d00000000000000000000000000000000000000000000000000000000000000)\n  dup2\n  mstore\n  0x20\n  add\n  swap1\n  dup2\n  mstore\n  0x20\n  add\n  0x00\n  keccak256\n    /* \"roman2int.sol\":398:418  romanMap['M'] = 1000 */\n  dup2\n  swap1\n  sstore\n  pop\n    /* \"roman2int.sol\":57:1915  contract Int2Roman{... */\n  dataSize(sub_0)\n  dup1\n  dataOffset(sub_0)\n  0x00\n  codecopy\n  0x00\n  return\nstop\n\nsub_0: assembly {\n        /* \"roman2int.sol\":57:1915  contract Int2Roman{... */\n      mstore(0x40, 0x80)\n      callvalue\n      dup1\n      iszero\n      tag_1\n      jumpi\n      revert(0x00, 0x00)\n    tag_1:\n      pop\n      jumpi(tag_2, lt(calldatasize, 0x04))\n      shr(0xe0, calldataload(0x00))\n      dup1\n      0x2f0e44d8\n      eq\n      tag_3\n      jumpi\n      dup1\n      0x445458dc\n      eq\n      tag_4\n      jumpi\n      dup1\n      0x525274db\n      eq\n      tag_5\n      jumpi\n      dup1\n      0xcb159dfe\n      eq\n      tag_6\n      jumpi\n    tag_2:\n      revert(0x00, 0x00)\n        /* \"roman2int.sol\":1718:1913  function getValue(bytes1 romanChar) public view returns (uint256) {... */\n    tag_3:\n      tag_7\n      0x04\n      dup1\n      calldatasize\n      sub\n      dup2\n      add\n      swap1\n      tag_8\n      swap2\n      swap1\n      tag_9\n      jump\t// in\n    tag_8:\n      tag_10\n      jump\t// in\n    tag_7:\n      mload(0x40)\n      tag_11\n      swap2\n      swap1\n      tag_12\n      jump\t// in\n    tag_11:\n      mload(0x40)\n      dup1\n      swap2\n      sub\n      swap1\n      return\n        /* \"roman2int.sol\":127:169  mapping(bytes1 => uint256) public romanMap */\n    tag_4:\n      tag_13\n      0x04\n      dup1\n      calldatasize\n      sub\n      dup2\n      add\n      swap1\n      tag_14\n      swap2\n      swap1\n      tag_9\n      jump\t// in\n    tag_14:\n      tag_15\n      jump\t// in\n    tag_13:\n      mload(0x40)\n      tag_16\n      swap2\n      swap1\n      tag_12\n      jump\t// in\n    tag_16:\n      mload(0x40)\n      dup1\n      swap2\n      sub\n      swap1\n      return\n        /* \"roman2int.sol\":430:794  function validRoman(string memory roman) public view returns (bool)  {... */\n    tag_5:\n      tag_17\n      0x04\n      dup1\n      calldatasize\n      sub\n      dup2\n      add\n      swap1\n      tag_18\n      swap2\n      swap1\n      tag_19\n      jump\t// in\n    tag_18:\n      tag_20\n      jump\t// in\n    tag_17:\n      mload(0x40)\n      tag_21\n      swap2\n      swap1\n      tag_22\n      jump\t// in\n    tag_21:\n      mload(0x40)\n      dup1\n      swap2\n      sub\n      swap1\n      return\n        /* \"roman2int.sol\":799:1713  function romanToInt(string memory roman) public view returns (uint256) {... */\n    tag_6:\n      tag_23\n      0x04\n      dup1\n      calldatasize\n      sub\n      dup2\n      add\n      swap1\n      tag_24\n      swap2\n      swap1\n      tag_19\n      jump\t// in\n    tag_24:\n      tag_25\n      jump\t// in\n    tag_23:\n      mload(0x40)\n      tag_26\n      swap2\n      swap1\n      tag_12\n      jump\t// in\n    tag_26:\n      mload(0x40)\n      dup1\n      swap2\n      sub\n      swap1\n      return\n        /* \"roman2int.sol\":1718:1913  function getValue(bytes1 romanChar) public view returns (uint256) {... */\n    tag_10:\n        /* \"roman2int.sol\":1775:1782  uint256 */\n      0x00\n        /* \"roman2int.sol\":1794:1807  uint256 value */\n      0x00\n        /* \"roman2int.sol\":1810:1818  romanMap */\n      0x00\n        /* \"roman2int.sol\":1810:1829  romanMap[romanChar] */\n      0x00\n        /* \"roman2int.sol\":1819:1828  romanChar */\n      dup5\n        /* \"roman2int.sol\":1810:1829  romanMap[romanChar] */\n      not(0xffffffffffffffffffffffffffffffffffffffffffffffffffffffffffffff)\n      and\n      not(0xffffffffffffffffffffffffffffffffffffffffffffffffffffffffffffff)\n      and\n      dup2\n      mstore\n      0x20\n      add\n      swap1\n      dup2\n      mstore\n      0x20\n      add\n      0x00\n      keccak256\n      sload\n        /* \"roman2int.sol\":1794:1829  uint256 value = romanMap[romanChar] */\n      swap1\n      pop\n        /* \"roman2int.sol\":1855:1856  0 */\n      0x00\n        /* \"roman2int.sol\":1847:1852  value */\n      dup2\n        /* \"roman2int.sol\":1847:1856  value > 0 */\n      gt\n        /* \"roman2int.sol\":1839:1884  require(value > 0, \"Invalid Roman character\") */\n      tag_28\n      jumpi\n      mload(0x40)\n      0x08c379a000000000000000000000000000000000000000000000000000000000\n      dup2\n      mstore\n      0x04\n      add\n      tag_29\n      swap1\n      tag_30\n      jump\t// in\n    tag_29:\n      mload(0x40)\n      dup1\n      swap2\n      sub\n      swap1\n      revert\n    tag_28:\n        /* \"roman2int.sol\":1901:1906  value */\n      dup1\n        /* \"roman2int.sol\":1894:1906  return value */\n      swap2\n      pop\n      pop\n        /* \"roman2int.sol\":1718:1913  function getValue(bytes1 romanChar) public view returns (uint256) {... */\n      swap2\n      swap1\n      pop\n      jump\t// out\n        /* \"roman2int.sol\":127:169  mapping(bytes1 => uint256) public romanMap */\n    tag_15:\n      mstore(0x20, 0x00)\n      dup1\n      0x00\n      mstore\n      keccak256(0x00, 0x40)\n      0x00\n      swap2\n      pop\n      swap1\n      pop\n      sload\n      dup2\n      jump\t// out\n        /* \"roman2int.sol\":430:794  function validRoman(string memory roman) public view returns (bool)  {... */\n    tag_20:\n        /* \"roman2int.sol\":492:496  bool */\n      0x00\n        /* \"roman2int.sol\":509:532  bytes memory romanBytes */\n      0x00\n        /* \"roman2int.sol\":541:546  roman */\n      dup3\n        /* \"roman2int.sol\":509:547  bytes memory romanBytes = bytes(roman) */\n      swap1\n      pop\n        /* \"roman2int.sol\":582:583  0 */\n      0x00\n        /* \"roman2int.sol\":561:571  romanBytes */\n      dup2\n        /* \"roman2int.sol\":561:578  romanBytes.length */\n      mload\n        /* \"roman2int.sol\":561:583  romanBytes.length == 0 */\n      sub\n        /* \"roman2int.sol\":557:597  if (romanBytes.length == 0) return false */\n      tag_32\n      jumpi\n        /* \"roman2int.sol\":592:597  false */\n      0x00\n        /* \"roman2int.sol\":585:597  return false */\n      swap2\n      pop\n      pop\n      jump(tag_31)\n        /* \"roman2int.sol\":557:597  if (romanBytes.length == 0) return false */\n    tag_32:\n        /* \"roman2int.sol\":621:630  uint256 i */\n      0x00\n        /* \"roman2int.sol\":633:634  0 */\n      0x00\n        /* \"roman2int.sol\":621:634  uint256 i = 0 */\n      swap1\n      pop\n        /* \"roman2int.sol\":616:767  for (uint256 i = 0; i < romanBytes.length; i++) {... */\n    tag_33:\n        /* \"roman2int.sol\":640:650  romanBytes */\n      dup2\n        /* \"roman2int.sol\":640:657  romanBytes.length */\n      mload\n        /* \"roman2int.sol\":636:637  i */\n      dup2\n        /* \"roman2int.sol\":636:657  i < romanBytes.length */\n      lt\n        /* \"roman2int.sol\":616:767  for (uint256 i = 0; i < romanBytes.length; i++) {... */\n      iszero\n      tag_34\n      jumpi\n        /* \"roman2int.sol\":709:710  0 */\n      0x00\n        /* \"roman2int.sol\":682:690  romanMap */\n      0x00\n        /* \"roman2int.sol\":682:705  romanMap[romanBytes[i]] */\n      0x00\n        /* \"roman2int.sol\":691:701  romanBytes */\n      dup5\n        /* \"roman2int.sol\":702:703  i */\n      dup5\n        /* \"roman2int.sol\":691:704  romanBytes[i] */\n      dup2\n      mload\n      dup2\n      lt\n      tag_36\n      jumpi\n      tag_37\n      tag_38\n      jump\t// in\n    tag_37:\n    tag_36:\n      0x20\n      add\n      add\n      mload\n      0xf8\n      shr\n      0xf8\n      shl\n        /* \"roman2int.sol\":682:705  romanMap[romanBytes[i]] */\n      not(0xffffffffffffffffffffffffffffffffffffffffffffffffffffffffffffff)\n      and\n      not(0xffffffffffffffffffffffffffffffffffffffffffffffffffffffffffffff)\n      and\n      dup2\n      mstore\n      0x20\n      add\n      swap1\n      dup2\n      mstore\n      0x20\n      add\n      0x00\n      keccak256\n      sload\n        /* \"roman2int.sol\":682:710  romanMap[romanBytes[i]] == 0 */\n      sub\n        /* \"roman2int.sol\":678:757  if (romanMap[romanBytes[i]] == 0) {... */\n      tag_39\n      jumpi\n        /* \"roman2int.sol\":737:742  false */\n      0x00\n        /* \"roman2int.sol\":730:742  return false */\n      swap3\n      pop\n      pop\n      pop\n      jump(tag_31)\n        /* \"roman2int.sol\":678:757  if (romanMap[romanBytes[i]] == 0) {... */\n    tag_39:\n        /* \"roman2int.sol\":659:662  i++ */\n      dup1\n      dup1\n      0x01\n      add\n      swap2\n      pop\n      pop\n        /* \"roman2int.sol\":616:767  for (uint256 i = 0; i < romanBytes.length; i++) {... */\n      jump(tag_33)\n    tag_34:\n      pop\n        /* \"roman2int.sol\":783:787  true */\n      0x01\n        /* \"roman2int.sol\":776:787  return true */\n      swap2\n      pop\n      pop\n        /* \"roman2int.sol\":430:794  function validRoman(string memory roman) public view returns (bool)  {... */\n    tag_31:\n      swap2\n      swap1\n      pop\n      jump\t// out\n        /* \"roman2int.sol\":799:1713  function romanToInt(string memory roman) public view returns (uint256) {... */\n    tag_25:\n        /* \"roman2int.sol\":861:868  uint256 */\n      0x00\n        /* \"roman2int.sol\":880:903  bytes memory romanBytes */\n      0x00\n        /* \"roman2int.sol\":912:917  roman */\n      dup3\n        /* \"roman2int.sol\":880:918  bytes memory romanBytes = bytes(roman) */\n      swap1\n      pop\n        /* \"roman2int.sol\":956:957  0 */\n      0x00\n        /* \"roman2int.sol\":936:946  romanBytes */\n      dup2\n        /* \"roman2int.sol\":936:953  romanBytes.length */\n      mload\n        /* \"roman2int.sol\":936:957  romanBytes.length > 0 */\n      gt\n        /* \"roman2int.sol\":928:981  require(romanBytes.length > 0, \"Empty Roman numeral\") */\n      tag_41\n      jumpi\n      mload(0x40)\n      0x08c379a000000000000000000000000000000000000000000000000000000000\n      dup2\n      mstore\n      0x04\n      add\n      tag_42\n      swap1\n      tag_43\n      jump\t// in\n    tag_42:\n      mload(0x40)\n      dup1\n      swap2\n      sub\n      swap1\n      revert\n    tag_41:\n        /* \"roman2int.sol\":999:1016  validRoman(roman) */\n      tag_44\n        /* \"roman2int.sol\":1010:1015  roman */\n      dup4\n        /* \"roman2int.sol\":999:1009  validRoman */\n      tag_20\n        /* \"roman2int.sol\":999:1016  validRoman(roman) */\n      jump\t// in\n    tag_44:\n        /* \"roman2int.sol\":991:1055  require(validRoman(roman), \"please input correct Roman numeral\") */\n      tag_45\n      jumpi\n      mload(0x40)\n      0x08c379a000000000000000000000000000000000000000000000000000000000\n      dup2\n      mstore\n      0x04\n      add\n      tag_46\n      swap1\n      tag_47\n      jump\t// in\n    tag_46:\n      mload(0x40)\n      dup1\n      swap2\n      sub\n      swap1\n      revert\n    tag_45:\n        /* \"roman2int.sol\":1074:1088  uint256 result */\n      0x00\n        /* \"roman2int.sol\":1091:1092  0 */\n      0x00\n        /* \"roman2int.sol\":1074:1092  uint256 result = 0 */\n      swap1\n      pop\n        /* \"roman2int.sol\":1102:1119  uint256 prevValue */\n      0x00\n        /* \"roman2int.sol\":1122:1123  0 */\n      0x00\n        /* \"roman2int.sol\":1102:1123  uint256 prevValue = 0 */\n      swap1\n      pop\n        /* \"roman2int.sol\":1209:1218  uint256 i */\n      0x00\n        /* \"roman2int.sol\":1221:1231  romanBytes */\n      dup4\n        /* \"roman2int.sol\":1221:1238  romanBytes.length */\n      mload\n        /* \"roman2int.sol\":1209:1238  uint256 i = romanBytes.length */\n      swap1\n      pop\n        /* \"roman2int.sol\":1204:1675  for (uint256 i = romanBytes.length; i > 0; i--) {... */\n    tag_48:\n        /* \"roman2int.sol\":1244:1245  0 */\n      0x00\n        /* \"roman2int.sol\":1240:1241  i */\n      dup2\n        /* \"roman2int.sol\":1240:1245  i > 0 */\n      gt\n        /* \"roman2int.sol\":1204:1675  for (uint256 i = romanBytes.length; i > 0; i--) {... */\n      iszero\n      tag_49\n      jumpi\n        /* \"roman2int.sol\":1266:1284  bytes1 currentChar */\n      0x00\n        /* \"roman2int.sol\":1287:1297  romanBytes */\n      dup5\n        /* \"roman2int.sol\":1302:1303  1 */\n      0x01\n        /* \"roman2int.sol\":1298:1299  i */\n      dup4\n        /* \"roman2int.sol\":1298:1303  i - 1 */\n      tag_51\n      swap2\n      swap1\n      tag_52\n      jump\t// in\n    tag_51:\n        /* \"roman2int.sol\":1287:1304  romanBytes[i - 1] */\n      dup2\n      mload\n      dup2\n      lt\n      tag_53\n      jumpi\n      tag_54\n      tag_38\n      jump\t// in\n    tag_54:\n    tag_53:\n      0x20\n      add\n      add\n      mload\n      0xf8\n      shr\n      0xf8\n      shl\n        /* \"roman2int.sol\":1266:1304  bytes1 currentChar = romanBytes[i - 1] */\n      swap1\n      pop\n        /* \"roman2int.sol\":1318:1338  uint256 currentValue */\n      0x00\n        /* \"roman2int.sol\":1341:1362  getValue(currentChar) */\n      tag_55\n        /* \"roman2int.sol\":1350:1361  currentChar */\n      dup3\n        /* \"roman2int.sol\":1341:1349  getValue */\n      tag_10\n        /* \"roman2int.sol\":1341:1362  getValue(currentChar) */\n      jump\t// in\n    tag_55:\n        /* \"roman2int.sol\":1318:1362  uint256 currentValue = getValue(currentChar) */\n      swap1\n      pop\n        /* \"roman2int.sol\":1487:1496  prevValue */\n      dup4\n        /* \"roman2int.sol\":1472:1484  currentValue */\n      dup2\n        /* \"roman2int.sol\":1472:1496  currentValue < prevValue */\n      lt\n        /* \"roman2int.sol\":1468:1614  if (currentValue < prevValue) {... */\n      iszero\n      tag_56\n      jumpi\n        /* \"roman2int.sol\":1526:1538  currentValue */\n      dup1\n        /* \"roman2int.sol\":1516:1538  result -= currentValue */\n      dup6\n      tag_57\n      swap2\n      swap1\n      tag_52\n      jump\t// in\n    tag_57:\n      swap5\n      pop\n        /* \"roman2int.sol\":1468:1614  if (currentValue < prevValue) {... */\n      jump(tag_58)\n    tag_56:\n        /* \"roman2int.sol\":1587:1599  currentValue */\n      dup1\n        /* \"roman2int.sol\":1577:1599  result += currentValue */\n      dup6\n      tag_59\n      swap2\n      swap1\n      tag_60\n      jump\t// in\n    tag_59:\n      swap5\n      pop\n        /* \"roman2int.sol\":1468:1614  if (currentValue < prevValue) {... */\n    tag_58:\n        /* \"roman2int.sol\":1652:1664  currentValue */\n      dup1\n        /* \"roman2int.sol\":1640:1664  prevValue = currentValue */\n      swap4\n      pop\n        /* \"roman2int.sol\":1252:1675  {... */\n      pop\n      pop\n        /* \"roman2int.sol\":1247:1250  i-- */\n      dup1\n      dup1\n      tag_61\n      swap1\n      tag_62\n      jump\t// in\n    tag_61:\n      swap2\n      pop\n      pop\n        /* \"roman2int.sol\":1204:1675  for (uint256 i = romanBytes.length; i > 0; i--) {... */\n      jump(tag_48)\n    tag_49:\n      pop\n        /* \"roman2int.sol\":1700:1706  result */\n      dup2\n        /* \"roman2int.sol\":1693:1706  return result */\n      swap4\n      pop\n      pop\n      pop\n      pop\n        /* \"roman2int.sol\":799:1713  function romanToInt(string memory roman) public view returns (uint256) {... */\n      swap2\n      swap1\n      pop\n      jump\t// out\n        /* \"#utility.yul\":7:82   */\n    tag_63:\n        /* \"#utility.yul\":40:46   */\n      0x00\n        /* \"#utility.yul\":73:75   */\n      0x40\n        /* \"#utility.yul\":67:76   */\n      mload\n        /* \"#utility.yul\":57:76   */\n      swap1\n      pop\n        /* \"#utility.yul\":7:82   */\n      swap1\n      jump\t// out\n        /* \"#utility.yul\":88:205   */\n    tag_64:\n        /* \"#utility.yul\":197:198   */\n      0x00\n        /* \"#utility.yul\":194:195   */\n      0x00\n        /* \"#utility.yul\":187:199   */\n      revert\n        /* \"#utility.yul\":211:328   */\n    tag_65:\n        /* \"#utility.yul\":320:321   */\n      0x00\n        /* \"#utility.yul\":317:318   */\n      0x00\n        /* \"#utility.yul\":310:322   */\n      revert\n        /* \"#utility.yul\":334:483   */\n    tag_66:\n        /* \"#utility.yul\":370:377   */\n      0x00\n        /* \"#utility.yul\":410:476   */\n      0xff00000000000000000000000000000000000000000000000000000000000000\n        /* \"#utility.yul\":403:408   */\n      dup3\n        /* \"#utility.yul\":399:477   */\n      and\n        /* \"#utility.yul\":388:477   */\n      swap1\n      pop\n        /* \"#utility.yul\":334:483   */\n      swap2\n      swap1\n      pop\n      jump\t// out\n        /* \"#utility.yul\":489:609   */\n    tag_67:\n        /* \"#utility.yul\":561:584   */\n      tag_97\n        /* \"#utility.yul\":578:583   */\n      dup2\n        /* \"#utility.yul\":561:584   */\n      tag_66\n      jump\t// in\n    tag_97:\n        /* \"#utility.yul\":554:559   */\n      dup2\n        /* \"#utility.yul\":551:585   */\n      eq\n        /* \"#utility.yul\":541:603   */\n      tag_98\n      jumpi\n        /* \"#utility.yul\":599:600   */\n      0x00\n        /* \"#utility.yul\":596:597   */\n      0x00\n        /* \"#utility.yul\":589:601   */\n      revert\n        /* \"#utility.yul\":541:603   */\n    tag_98:\n        /* \"#utility.yul\":489:609   */\n      pop\n      jump\t// out\n        /* \"#utility.yul\":615:752   */\n    tag_68:\n        /* \"#utility.yul\":660:665   */\n      0x00\n        /* \"#utility.yul\":698:704   */\n      dup2\n        /* \"#utility.yul\":685:705   */\n      calldataload\n        /* \"#utility.yul\":676:705   */\n      swap1\n      pop\n        /* \"#utility.yul\":714:746   */\n      tag_100\n        /* \"#utility.yul\":740:745   */\n      dup2\n        /* \"#utility.yul\":714:746   */\n      tag_67\n      jump\t// in\n    tag_100:\n        /* \"#utility.yul\":615:752   */\n      swap3\n      swap2\n      pop\n      pop\n      jump\t// out\n        /* \"#utility.yul\":758:1085   */\n    tag_9:\n        /* \"#utility.yul\":816:822   */\n      0x00\n        /* \"#utility.yul\":865:867   */\n      0x20\n        /* \"#utility.yul\":853:862   */\n      dup3\n        /* \"#utility.yul\":844:851   */\n      dup5\n        /* \"#utility.yul\":840:863   */\n      sub\n        /* \"#utility.yul\":836:868   */\n      slt\n        /* \"#utility.yul\":833:952   */\n      iszero\n      tag_102\n      jumpi\n        /* \"#utility.yul\":871:950   */\n      tag_103\n      tag_64\n      jump\t// in\n    tag_103:\n        /* \"#utility.yul\":833:952   */\n    tag_102:\n        /* \"#utility.yul\":991:992   */\n      0x00\n        /* \"#utility.yul\":1016:1068   */\n      tag_104\n        /* \"#utility.yul\":1060:1067   */\n      dup5\n        /* \"#utility.yul\":1051:1057   */\n      dup3\n        /* \"#utility.yul\":1040:1049   */\n      dup6\n        /* \"#utility.yul\":1036:1058   */\n      add\n        /* \"#utility.yul\":1016:1068   */\n      tag_68\n      jump\t// in\n    tag_104:\n        /* \"#utility.yul\":1006:1068   */\n      swap2\n      pop\n        /* \"#utility.yul\":962:1078   */\n      pop\n        /* \"#utility.yul\":758:1085   */\n      swap3\n      swap2\n      pop\n      pop\n      jump\t// out\n        /* \"#utility.yul\":1091:1168   */\n    tag_69:\n        /* \"#utility.yul\":1128:1135   */\n      0x00\n        /* \"#utility.yul\":1157:1162   */\n      dup2\n        /* \"#utility.yul\":1146:1162   */\n      swap1\n      pop\n        /* \"#utility.yul\":1091:1168   */\n      swap2\n      swap1\n      pop\n      jump\t// out\n        /* \"#utility.yul\":1174:1292   */\n    tag_70:\n        /* \"#utility.yul\":1261:1285   */\n      tag_107\n        /* \"#utility.yul\":1279:1284   */\n      dup2\n        /* \"#utility.yul\":1261:1285   */\n      tag_69\n      jump\t// in\n    tag_107:\n        /* \"#utility.yul\":1256:1259   */\n      dup3\n        /* \"#utility.yul\":1249:1286   */\n      mstore\n        /* \"#utility.yul\":1174:1292   */\n      pop\n      pop\n      jump\t// out\n        /* \"#utility.yul\":1298:1520   */\n    tag_12:\n        /* \"#utility.yul\":1391:1395   */\n      0x00\n        /* \"#utility.yul\":1429:1431   */\n      0x20\n        /* \"#utility.yul\":1418:1427   */\n      dup3\n        /* \"#utility.yul\":1414:1432   */\n      add\n        /* \"#utility.yul\":1406:1432   */\n      swap1\n      pop\n        /* \"#utility.yul\":1442:1513   */\n      tag_109\n        /* \"#utility.yul\":1510:1511   */\n      0x00\n        /* \"#utility.yul\":1499:1508   */\n      dup4\n        /* \"#utility.yul\":1495:1512   */\n      add\n        /* \"#utility.yul\":1486:1492   */\n      dup5\n        /* \"#utility.yul\":1442:1513   */\n      tag_70\n      jump\t// in\n    tag_109:\n        /* \"#utility.yul\":1298:1520   */\n      swap3\n      swap2\n      pop\n      pop\n      jump\t// out\n        /* \"#utility.yul\":1526:1643   */\n    tag_71:\n        /* \"#utility.yul\":1635:1636   */\n      0x00\n        /* \"#utility.yul\":1632:1633   */\n      0x00\n        /* \"#utility.yul\":1625:1637   */\n      revert\n        /* \"#utility.yul\":1649:1766   */\n    tag_72:\n        /* \"#utility.yul\":1758:1759   */\n      0x00\n        /* \"#utility.yul\":1755:1756   */\n      0x00\n        /* \"#utility.yul\":1748:1760   */\n      revert\n        /* \"#utility.yul\":1772:1874   */\n    tag_73:\n        /* \"#utility.yul\":1813:1819   */\n      0x00\n        /* \"#utility.yul\":1864:1866   */\n      0x1f\n        /* \"#utility.yul\":1860:1867   */\n      not\n        /* \"#utility.yul\":1855:1857   */\n      0x1f\n        /* \"#utility.yul\":1848:1853   */\n      dup4\n        /* \"#utility.yul\":1844:1858   */\n      add\n        /* \"#utility.yul\":1840:1868   */\n      and\n        /* \"#utility.yul\":1830:1868   */\n      swap1\n      pop\n        /* \"#utility.yul\":1772:1874   */\n      swap2\n      swap1\n      pop\n      jump\t// out\n        /* \"#utility.yul\":1880:2060   */\n    tag_74:\n        /* \"#utility.yul\":1928:2005   */\n      0x4e487b7100000000000000000000000000000000000000000000000000000000\n        /* \"#utility.yul\":1925:1926   */\n      0x00\n        /* \"#utility.yul\":1918:2006   */\n      mstore\n        /* \"#utility.yul\":2025:2029   */\n      0x41\n        /* \"#utility.yul\":2022:2023   */\n      0x04\n        /* \"#utility.yul\":2015:2030   */\n      mstore\n        /* \"#utility.yul\":2049:2053   */\n      0x24\n        /* \"#utility.yul\":2046:2047   */\n      0x00\n        /* \"#utility.yul\":2039:2054   */\n      revert\n        /* \"#utility.yul\":2066:2347   */\n    tag_75:\n        /* \"#utility.yul\":2149:2176   */\n      tag_115\n        /* \"#utility.yul\":2171:2175   */\n      dup3\n        /* \"#utility.yul\":2149:2176   */\n      tag_73\n      jump\t// in\n    tag_115:\n        /* \"#utility.yul\":2141:2147   */\n      dup2\n        /* \"#utility.yul\":2137:2177   */\n      add\n        /* \"#utility.yul\":2279:2285   */\n      dup2\n        /* \"#utility.yul\":2267:2277   */\n      dup2\n        /* \"#utility.yul\":2264:2286   */\n      lt\n        /* \"#utility.yul\":2243:2261   */\n      0xffffffffffffffff\n        /* \"#utility.yul\":2231:2241   */\n      dup3\n        /* \"#utility.yul\":2228:2262   */\n      gt\n        /* \"#utility.yul\":2225:2287   */\n      or\n        /* \"#utility.yul\":2222:2310   */\n      iszero\n      tag_116\n      jumpi\n        /* \"#utility.yul\":2290:2308   */\n      tag_117\n      tag_74\n      jump\t// in\n    tag_117:\n        /* \"#utility.yul\":2222:2310   */\n    tag_116:\n        /* \"#utility.yul\":2330:2340   */\n      dup1\n        /* \"#utility.yul\":2326:2328   */\n      0x40\n        /* \"#utility.yul\":2319:2341   */\n      mstore\n        /* \"#utility.yul\":2109:2347   */\n      pop\n        /* \"#utility.yul\":2066:2347   */\n      pop\n      pop\n      jump\t// out\n        /* \"#utility.yul\":2353:2482   */\n    tag_76:\n        /* \"#utility.yul\":2387:2393   */\n      0x00\n        /* \"#utility.yul\":2414:2434   */\n      tag_119\n      tag_63\n      jump\t// in\n    tag_119:\n        /* \"#utility.yul\":2404:2434   */\n      swap1\n      pop\n        /* \"#utility.yul\":2443:2476   */\n      tag_120\n        /* \"#utility.yul\":2471:2475   */\n      dup3\n        /* \"#utility.yul\":2463:2469   */\n      dup3\n        /* \"#utility.yul\":2443:2476   */\n      tag_75\n      jump\t// in\n    tag_120:\n        /* \"#utility.yul\":2353:2482   */\n      swap2\n      swap1\n      pop\n      jump\t// out\n        /* \"#utility.yul\":2488:2796   */\n    tag_77:\n        /* \"#utility.yul\":2550:2554   */\n      0x00\n        /* \"#utility.yul\":2640:2658   */\n      0xffffffffffffffff\n        /* \"#utility.yul\":2632:2638   */\n      dup3\n        /* \"#utility.yul\":2629:2659   */\n      gt\n        /* \"#utility.yul\":2626:2682   */\n      iszero\n      tag_122\n      jumpi\n        /* \"#utility.yul\":2662:2680   */\n      tag_123\n      tag_74\n      jump\t// in\n    tag_123:\n        /* \"#utility.yul\":2626:2682   */\n    tag_122:\n        /* \"#utility.yul\":2700:2729   */\n      tag_124\n        /* \"#utility.yul\":2722:2728   */\n      dup3\n        /* \"#utility.yul\":2700:2729   */\n      tag_73\n      jump\t// in\n    tag_124:\n        /* \"#utility.yul\":2692:2729   */\n      swap1\n      pop\n        /* \"#utility.yul\":2784:2788   */\n      0x20\n        /* \"#utility.yul\":2778:2782   */\n      dup2\n        /* \"#utility.yul\":2774:2789   */\n      add\n        /* \"#utility.yul\":2766:2789   */\n      swap1\n      pop\n        /* \"#utility.yul\":2488:2796   */\n      swap2\n      swap1\n      pop\n      jump\t// out\n        /* \"#utility.yul\":2802:2950   */\n    tag_78:\n        /* \"#utility.yul\":2900:2906   */\n      dup3\n        /* \"#utility.yul\":2895:2898   */\n      dup2\n        /* \"#utility.yul\":2890:2893   */\n      dup4\n        /* \"#utility.yul\":2877:2907   */\n      calldatacopy\n        /* \"#utility.yul\":2941:2942   */\n      0x00\n        /* \"#utility.yul\":2932:2938   */\n      dup4\n        /* \"#utility.yul\":2927:2930   */\n      dup4\n        /* \"#utility.yul\":2923:2939   */\n      add\n        /* \"#utility.yul\":2916:2943   */\n      mstore\n        /* \"#utility.yul\":2802:2950   */\n      pop\n      pop\n      pop\n      jump\t// out\n        /* \"#utility.yul\":2956:3381   */\n    tag_79:\n        /* \"#utility.yul\":3034:3039   */\n      0x00\n        /* \"#utility.yul\":3059:3125   */\n      tag_127\n        /* \"#utility.yul\":3075:3124   */\n      tag_128\n        /* \"#utility.yul\":3117:3123   */\n      dup5\n        /* \"#utility.yul\":3075:3124   */\n      tag_77\n      jump\t// in\n    tag_128:\n        /* \"#utility.yul\":3059:3125   */\n      tag_76\n      jump\t// in\n    tag_127:\n        /* \"#utility.yul\":3050:3125   */\n      swap1\n      pop\n        /* \"#utility.yul\":3148:3154   */\n      dup3\n        /* \"#utility.yul\":3141:3146   */\n      dup2\n        /* \"#utility.yul\":3134:3155   */\n      mstore\n        /* \"#utility.yul\":3186:3190   */\n      0x20\n        /* \"#utility.yul\":3179:3184   */\n      dup2\n        /* \"#utility.yul\":3175:3191   */\n      add\n        /* \"#utility.yul\":3224:3227   */\n      dup5\n        /* \"#utility.yul\":3215:3221   */\n      dup5\n        /* \"#utility.yul\":3210:3213   */\n      dup5\n        /* \"#utility.yul\":3206:3222   */\n      add\n        /* \"#utility.yul\":3203:3228   */\n      gt\n        /* \"#utility.yul\":3200:3312   */\n      iszero\n      tag_129\n      jumpi\n        /* \"#utility.yul\":3231:3310   */\n      tag_130\n      tag_72\n      jump\t// in\n    tag_130:\n        /* \"#utility.yul\":3200:3312   */\n    tag_129:\n        /* \"#utility.yul\":3321:3375   */\n      tag_131\n        /* \"#utility.yul\":3368:3374   */\n      dup5\n        /* \"#utility.yul\":3363:3366   */\n      dup3\n        /* \"#utility.yul\":3358:3361   */\n      dup6\n        /* \"#utility.yul\":3321:3375   */\n      tag_78\n      jump\t// in\n    tag_131:\n        /* \"#utility.yul\":3040:3381   */\n      pop\n        /* \"#utility.yul\":2956:3381   */\n      swap4\n      swap3\n      pop\n      pop\n      pop\n      jump\t// out\n        /* \"#utility.yul\":3401:3741   */\n    tag_80:\n        /* \"#utility.yul\":3457:3462   */\n      0x00\n        /* \"#utility.yul\":3506:3509   */\n      dup3\n        /* \"#utility.yul\":3499:3503   */\n      0x1f\n        /* \"#utility.yul\":3491:3497   */\n      dup4\n        /* \"#utility.yul\":3487:3504   */\n      add\n        /* \"#utility.yul\":3483:3510   */\n      slt\n        /* \"#utility.yul\":3473:3595   */\n      tag_133\n      jumpi\n        /* \"#utility.yul\":3514:3593   */\n      tag_134\n      tag_71\n      jump\t// in\n    tag_134:\n        /* \"#utility.yul\":3473:3595   */\n    tag_133:\n        /* \"#utility.yul\":3631:3637   */\n      dup2\n        /* \"#utility.yul\":3618:3638   */\n      calldataload\n        /* \"#utility.yul\":3656:3735   */\n      tag_135\n        /* \"#utility.yul\":3731:3734   */\n      dup5\n        /* \"#utility.yul\":3723:3729   */\n      dup3\n        /* \"#utility.yul\":3716:3720   */\n      0x20\n        /* \"#utility.yul\":3708:3714   */\n      dup7\n        /* \"#utility.yul\":3704:3721   */\n      add\n        /* \"#utility.yul\":3656:3735   */\n      tag_79\n      jump\t// in\n    tag_135:\n        /* \"#utility.yul\":3647:3735   */\n      swap2\n      pop\n        /* \"#utility.yul\":3463:3741   */\n      pop\n        /* \"#utility.yul\":3401:3741   */\n      swap3\n      swap2\n      pop\n      pop\n      jump\t// out\n        /* \"#utility.yul\":3747:4256   */\n    tag_19:\n        /* \"#utility.yul\":3816:3822   */\n      0x00\n        /* \"#utility.yul\":3865:3867   */\n      0x20\n        /* \"#utility.yul\":3853:3862   */\n      dup3\n        /* \"#utility.yul\":3844:3851   */\n      dup5\n        /* \"#utility.yul\":3840:3863   */\n      sub\n        /* \"#utility.yul\":3836:3868   */\n      slt\n        /* \"#utility.yul\":3833:3952   */\n      iszero\n      tag_137\n      jumpi\n        /* \"#utility.yul\":3871:3950   */\n      tag_138\n      tag_64\n      jump\t// in\n    tag_138:\n        /* \"#utility.yul\":3833:3952   */\n    tag_137:\n        /* \"#utility.yul\":4019:4020   */\n      0x00\n        /* \"#utility.yul\":4008:4017   */\n      dup3\n        /* \"#utility.yul\":4004:4021   */\n      add\n        /* \"#utility.yul\":3991:4022   */\n      calldataload\n        /* \"#utility.yul\":4049:4067   */\n      0xffffffffffffffff\n        /* \"#utility.yul\":4041:4047   */\n      dup2\n        /* \"#utility.yul\":4038:4068   */\n      gt\n        /* \"#utility.yul\":4035:4152   */\n      iszero\n      tag_139\n      jumpi\n        /* \"#utility.yul\":4071:4150   */\n      tag_140\n      tag_65\n      jump\t// in\n    tag_140:\n        /* \"#utility.yul\":4035:4152   */\n    tag_139:\n        /* \"#utility.yul\":4176:4239   */\n      tag_141\n        /* \"#utility.yul\":4231:4238   */\n      dup5\n        /* \"#utility.yul\":4222:4228   */\n      dup3\n        /* \"#utility.yul\":4211:4220   */\n      dup6\n        /* \"#utility.yul\":4207:4229   */\n      add\n        /* \"#utility.yul\":4176:4239   */\n      tag_80\n      jump\t// in\n    tag_141:\n        /* \"#utility.yul\":4166:4239   */\n      swap2\n      pop\n        /* \"#utility.yul\":3962:4249   */\n      pop\n        /* \"#utility.yul\":3747:4256   */\n      swap3\n      swap2\n      pop\n      pop\n      jump\t// out\n        /* \"#utility.yul\":4262:4352   */\n    tag_81:\n        /* \"#utility.yul\":4296:4303   */\n      0x00\n        /* \"#utility.yul\":4339:4344   */\n      dup2\n        /* \"#utility.yul\":4332:4345   */\n      iszero\n        /* \"#utility.yul\":4325:4346   */\n      iszero\n        /* \"#utility.yul\":4314:4346   */\n      swap1\n      pop\n        /* \"#utility.yul\":4262:4352   */\n      swap2\n      swap1\n      pop\n      jump\t// out\n        /* \"#utility.yul\":4358:4467   */\n    tag_82:\n        /* \"#utility.yul\":4439:4460   */\n      tag_144\n        /* \"#utility.yul\":4454:4459   */\n      dup2\n        /* \"#utility.yul\":4439:4460   */\n      tag_81\n      jump\t// in\n    tag_144:\n        /* \"#utility.yul\":4434:4437   */\n      dup3\n        /* \"#utility.yul\":4427:4461   */\n      mstore\n        /* \"#utility.yul\":4358:4467   */\n      pop\n      pop\n      jump\t// out\n        /* \"#utility.yul\":4473:4683   */\n    tag_22:\n        /* \"#utility.yul\":4560:4564   */\n      0x00\n        /* \"#utility.yul\":4598:4600   */\n      0x20\n        /* \"#utility.yul\":4587:4596   */\n      dup3\n        /* \"#utility.yul\":4583:4601   */\n      add\n        /* \"#utility.yul\":4575:4601   */\n      swap1\n      pop\n        /* \"#utility.yul\":4611:4676   */\n      tag_146\n        /* \"#utility.yul\":4673:4674   */\n      0x00\n        /* \"#utility.yul\":4662:4671   */\n      dup4\n        /* \"#utility.yul\":4658:4675   */\n      add\n        /* \"#utility.yul\":4649:4655   */\n      dup5\n        /* \"#utility.yul\":4611:4676   */\n      tag_82\n      jump\t// in\n    tag_146:\n        /* \"#utility.yul\":4473:4683   */\n      swap3\n      swap2\n      pop\n      pop\n      jump\t// out\n        /* \"#utility.yul\":4689:4858   */\n    tag_83:\n        /* \"#utility.yul\":4773:4784   */\n      0x00\n        /* \"#utility.yul\":4807:4813   */\n      dup3\n        /* \"#utility.yul\":4802:4805   */\n      dup3\n        /* \"#utility.yul\":4795:4814   */\n      mstore\n        /* \"#utility.yul\":4847:4851   */\n      0x20\n        /* \"#utility.yul\":4842:4845   */\n      dup3\n        /* \"#utility.yul\":4838:4852   */\n      add\n        /* \"#utility.yul\":4823:4852   */\n      swap1\n      pop\n        /* \"#utility.yul\":4689:4858   */\n      swap3\n      swap2\n      pop\n      pop\n      jump\t// out\n        /* \"#utility.yul\":4864:5037   */\n    tag_84:\n        /* \"#utility.yul\":5004:5029   */\n      0x496e76616c696420526f6d616e20636861726163746572000000000000000000\n        /* \"#utility.yul\":5000:5001   */\n      0x00\n        /* \"#utility.yul\":4992:4998   */\n      dup3\n        /* \"#utility.yul\":4988:5002   */\n      add\n        /* \"#utility.yul\":4981:5030   */\n      mstore\n        /* \"#utility.yul\":4864:5037   */\n      pop\n      jump\t// out\n        /* \"#utility.yul\":5043:5409   */\n    tag_85:\n        /* \"#utility.yul\":5185:5188   */\n      0x00\n        /* \"#utility.yul\":5206:5273   */\n      tag_150\n        /* \"#utility.yul\":5270:5272   */\n      0x17\n        /* \"#utility.yul\":5265:5268   */\n      dup4\n        /* \"#utility.yul\":5206:5273   */\n      tag_83\n      jump\t// in\n    tag_150:\n        /* \"#utility.yul\":5199:5273   */\n      swap2\n      pop\n        /* \"#utility.yul\":5282:5375   */\n      tag_151\n        /* \"#utility.yul\":5371:5374   */\n      dup3\n        /* \"#utility.yul\":5282:5375   */\n      tag_84\n      jump\t// in\n    tag_151:\n        /* \"#utility.yul\":5400:5402   */\n      0x20\n        /* \"#utility.yul\":5395:5398   */\n      dup3\n        /* \"#utility.yul\":5391:5403   */\n      add\n        /* \"#utility.yul\":5384:5403   */\n      swap1\n      pop\n        /* \"#utility.yul\":5043:5409   */\n      swap2\n      swap1\n      pop\n      jump\t// out\n        /* \"#utility.yul\":5415:5834   */\n    tag_30:\n        /* \"#utility.yul\":5581:5585   */\n      0x00\n        /* \"#utility.yul\":5619:5621   */\n      0x20\n        /* \"#utility.yul\":5608:5617   */\n      dup3\n        /* \"#utility.yul\":5604:5622   */\n      add\n        /* \"#utility.yul\":5596:5622   */\n      swap1\n      pop\n        /* \"#utility.yul\":5668:5677   */\n      dup2\n        /* \"#utility.yul\":5662:5666   */\n      dup2\n        /* \"#utility.yul\":5658:5678   */\n      sub\n        /* \"#utility.yul\":5654:5655   */\n      0x00\n        /* \"#utility.yul\":5643:5652   */\n      dup4\n        /* \"#utility.yul\":5639:5656   */\n      add\n        /* \"#utility.yul\":5632:5679   */\n      mstore\n        /* \"#utility.yul\":5696:5827   */\n      tag_153\n        /* \"#utility.yul\":5822:5826   */\n      dup2\n        /* \"#utility.yul\":5696:5827   */\n      tag_85\n      jump\t// in\n    tag_153:\n        /* \"#utility.yul\":5688:5827   */\n      swap1\n      pop\n        /* \"#utility.yul\":5415:5834   */\n      swap2\n      swap1\n      pop\n      jump\t// out\n        /* \"#utility.yul\":5840:6020   */\n    tag_38:\n        /* \"#utility.yul\":5888:5965   */\n      0x4e487b7100000000000000000000000000000000000000000000000000000000\n        /* \"#utility.yul\":5885:5886   */\n      0x00\n        /* \"#utility.yul\":5878:5966   */\n      mstore\n        /* \"#utility.yul\":5985:5989   */\n      0x32\n        /* \"#utility.yul\":5982:5983   */\n      0x04\n        /* \"#utility.yul\":5975:5990   */\n      mstore\n        /* \"#utility.yul\":6009:6013   */\n      0x24\n        /* \"#utility.yul\":6006:6007   */\n      0x00\n        /* \"#utility.yul\":5999:6014   */\n      revert\n        /* \"#utility.yul\":6026:6195   */\n    tag_86:\n        /* \"#utility.yul\":6166:6187   */\n      0x456d70747920526f6d616e206e756d6572616c00000000000000000000000000\n        /* \"#utility.yul\":6162:6163   */\n      0x00\n        /* \"#utility.yul\":6154:6160   */\n      dup3\n        /* \"#utility.yul\":6150:6164   */\n      add\n        /* \"#utility.yul\":6143:6188   */\n      mstore\n        /* \"#utility.yul\":6026:6195   */\n      pop\n      jump\t// out\n        /* \"#utility.yul\":6201:6567   */\n    tag_87:\n        /* \"#utility.yul\":6343:6346   */\n      0x00\n        /* \"#utility.yul\":6364:6431   */\n      tag_157\n        /* \"#utility.yul\":6428:6430   */\n      0x13\n        /* \"#utility.yul\":6423:6426   */\n      dup4\n        /* \"#utility.yul\":6364:6431   */\n      tag_83\n      jump\t// in\n    tag_157:\n        /* \"#utility.yul\":6357:6431   */\n      swap2\n      pop\n        /* \"#utility.yul\":6440:6533   */\n      tag_158\n        /* \"#utility.yul\":6529:6532   */\n      dup3\n        /* \"#utility.yul\":6440:6533   */\n      tag_86\n      jump\t// in\n    tag_158:\n        /* \"#utility.yul\":6558:6560   */\n      0x20\n        /* \"#utility.yul\":6553:6556   */\n      dup3\n        /* \"#utility.yul\":6549:6561   */\n      add\n        /* \"#utility.yul\":6542:6561   */\n      swap1\n      pop\n        /* \"#utility.yul\":6201:6567   */\n      swap2\n      swap1\n      pop\n      jump\t// out\n        /* \"#utility.yul\":6573:6992   */\n    tag_43:\n        /* \"#utility.yul\":6739:6743   */\n      0x00\n        /* \"#utility.yul\":6777:6779   */\n      0x20\n        /* \"#utility.yul\":6766:6775   */\n      dup3\n        /* \"#utility.yul\":6762:6780   */\n      add\n        /* \"#utility.yul\":6754:6780   */\n      swap1\n      pop\n        /* \"#utility.yul\":6826:6835   */\n      dup2\n        /* \"#utility.yul\":6820:6824   */\n      dup2\n        /* \"#utility.yul\":6816:6836   */\n      sub\n        /* \"#utility.yul\":6812:6813   */\n      0x00\n        /* \"#utility.yul\":6801:6810   */\n      dup4\n        /* \"#utility.yul\":6797:6814   */\n      add\n        /* \"#utility.yul\":6790:6837   */\n      mstore\n        /* \"#utility.yul\":6854:6985   */\n      tag_160\n        /* \"#utility.yul\":6980:6984   */\n      dup2\n        /* \"#utility.yul\":6854:6985   */\n      tag_87\n      jump\t// in\n    tag_160:\n        /* \"#utility.yul\":6846:6985   */\n      swap1\n      pop\n        /* \"#utility.yul\":6573:6992   */\n      swap2\n      swap1\n      pop\n      jump\t// out\n        /* \"#utility.yul\":6998:7219   */\n    tag_88:\n        /* \"#utility.yul\":7138:7172   */\n      0x706c6561736520696e70757420636f727265637420526f6d616e206e756d6572\n        /* \"#utility.yul\":7134:7135   */\n      0x00\n        /* \"#utility.yul\":7126:7132   */\n      dup3\n        /* \"#utility.yul\":7122:7136   */\n      add\n        /* \"#utility.yul\":7115:7173   */\n      mstore\n        /* \"#utility.yul\":7207:7211   */\n      0x616c000000000000000000000000000000000000000000000000000000000000\n        /* \"#utility.yul\":7202:7204   */\n      0x20\n        /* \"#utility.yul\":7194:7200   */\n      dup3\n        /* \"#utility.yul\":7190:7205   */\n      add\n        /* \"#utility.yul\":7183:7212   */\n      mstore\n        /* \"#utility.yul\":6998:7219   */\n      pop\n      jump\t// out\n        /* \"#utility.yul\":7225:7591   */\n    tag_89:\n        /* \"#utility.yul\":7367:7370   */\n      0x00\n        /* \"#utility.yul\":7388:7455   */\n      tag_163\n        /* \"#utility.yul\":7452:7454   */\n      0x22\n        /* \"#utility.yul\":7447:7450   */\n      dup4\n        /* \"#utility.yul\":7388:7455   */\n      tag_83\n      jump\t// in\n    tag_163:\n        /* \"#utility.yul\":7381:7455   */\n      swap2\n      pop\n        /* \"#utility.yul\":7464:7557   */\n      tag_164\n        /* \"#utility.yul\":7553:7556   */\n      dup3\n        /* \"#utility.yul\":7464:7557   */\n      tag_88\n      jump\t// in\n    tag_164:\n        /* \"#utility.yul\":7582:7584   */\n      0x40\n        /* \"#utility.yul\":7577:7580   */\n      dup3\n        /* \"#utility.yul\":7573:7585   */\n      add\n        /* \"#utility.yul\":7566:7585   */\n      swap1\n      pop\n        /* \"#utility.yul\":7225:7591   */\n      swap2\n      swap1\n      pop\n      jump\t// out\n        /* \"#utility.yul\":7597:8016   */\n    tag_47:\n        /* \"#utility.yul\":7763:7767   */\n      0x00\n        /* \"#utility.yul\":7801:7803   */\n      0x20\n        /* \"#utility.yul\":7790:7799   */\n      dup3\n        /* \"#utility.yul\":7786:7804   */\n      add\n        /* \"#utility.yul\":7778:7804   */\n      swap1\n      pop\n        /* \"#utility.yul\":7850:7859   */\n      dup2\n        /* \"#utility.yul\":7844:7848   */\n      dup2\n        /* \"#utility.yul\":7840:7860   */\n      sub\n        /* \"#utility.yul\":7836:7837   */\n      0x00\n        /* \"#utility.yul\":7825:7834   */\n      dup4\n        /* \"#utility.yul\":7821:7838   */\n      add\n        /* \"#utility.yul\":7814:7861   */\n      mstore\n        /* \"#utility.yul\":7878:8009   */\n      tag_166\n        /* \"#utility.yul\":8004:8008   */\n      dup2\n        /* \"#utility.yul\":7878:8009   */\n      tag_89\n      jump\t// in\n    tag_166:\n        /* \"#utility.yul\":7870:8009   */\n      swap1\n      pop\n        /* \"#utility.yul\":7597:8016   */\n      swap2\n      swap1\n      pop\n      jump\t// out\n        /* \"#utility.yul\":8022:8202   */\n    tag_90:\n        /* \"#utility.yul\":8070:8147   */\n      0x4e487b7100000000000000000000000000000000000000000000000000000000\n        /* \"#utility.yul\":8067:8068   */\n      0x00\n        /* \"#utility.yul\":8060:8148   */\n      mstore\n        /* \"#utility.yul\":8167:8171   */\n      0x11\n        /* \"#utility.yul\":8164:8165   */\n      0x04\n        /* \"#utility.yul\":8157:8172   */\n      mstore\n        /* \"#utility.yul\":8191:8195   */\n      0x24\n        /* \"#utility.yul\":8188:8189   */\n      0x00\n        /* \"#utility.yul\":8181:8196   */\n      revert\n        /* \"#utility.yul\":8208:8402   */\n    tag_52:\n        /* \"#utility.yul\":8248:8252   */\n      0x00\n        /* \"#utility.yul\":8268:8288   */\n      tag_169\n        /* \"#utility.yul\":8286:8287   */\n      dup3\n        /* \"#utility.yul\":8268:8288   */\n      tag_69\n      jump\t// in\n    tag_169:\n        /* \"#utility.yul\":8263:8288   */\n      swap2\n      pop\n        /* \"#utility.yul\":8302:8322   */\n      tag_170\n        /* \"#utility.yul\":8320:8321   */\n      dup4\n        /* \"#utility.yul\":8302:8322   */\n      tag_69\n      jump\t// in\n    tag_170:\n        /* \"#utility.yul\":8297:8322   */\n      swap3\n      pop\n        /* \"#utility.yul\":8346:8347   */\n      dup3\n        /* \"#utility.yul\":8343:8344   */\n      dup3\n        /* \"#utility.yul\":8339:8348   */\n      sub\n        /* \"#utility.yul\":8331:8348   */\n      swap1\n      pop\n        /* \"#utility.yul\":8370:8371   */\n      dup2\n        /* \"#utility.yul\":8364:8368   */\n      dup2\n        /* \"#utility.yul\":8361:8372   */\n      gt\n        /* \"#utility.yul\":8358:8395   */\n      iszero\n      tag_171\n      jumpi\n        /* \"#utility.yul\":8375:8393   */\n      tag_172\n      tag_90\n      jump\t// in\n    tag_172:\n        /* \"#utility.yul\":8358:8395   */\n    tag_171:\n        /* \"#utility.yul\":8208:8402   */\n      swap3\n      swap2\n      pop\n      pop\n      jump\t// out\n        /* \"#utility.yul\":8408:8599   */\n    tag_60:\n        /* \"#utility.yul\":8448:8451   */\n      0x00\n        /* \"#utility.yul\":8467:8487   */\n      tag_174\n        /* \"#utility.yul\":8485:8486   */\n      dup3\n        /* \"#utility.yul\":8467:8487   */\n      tag_69\n      jump\t// in\n    tag_174:\n        /* \"#utility.yul\":8462:8487   */\n      swap2\n      pop\n        /* \"#utility.yul\":8501:8521   */\n      tag_175\n        /* \"#utility.yul\":8519:8520   */\n      dup4\n        /* \"#utility.yul\":8501:8521   */\n      tag_69\n      jump\t// in\n    tag_175:\n        /* \"#utility.yul\":8496:8521   */\n      swap3\n      pop\n        /* \"#utility.yul\":8544:8545   */\n      dup3\n        /* \"#utility.yul\":8541:8542   */\n      dup3\n        /* \"#utility.yul\":8537:8546   */\n      add\n        /* \"#utility.yul\":8530:8546   */\n      swap1\n      pop\n        /* \"#utility.yul\":8565:8568   */\n      dup1\n        /* \"#utility.yul\":8562:8563   */\n      dup3\n        /* \"#utility.yul\":8559:8569   */\n      gt\n        /* \"#utility.yul\":8556:8592   */\n      iszero\n      tag_176\n      jumpi\n        /* \"#utility.yul\":8572:8590   */\n      tag_177\n      tag_90\n      jump\t// in\n    tag_177:\n        /* \"#utility.yul\":8556:8592   */\n    tag_176:\n        /* \"#utility.yul\":8408:8599   */\n      swap3\n      swap2\n      pop\n      pop\n      jump\t// out\n        /* \"#utility.yul\":8605:8776   */\n    tag_62:\n        /* \"#utility.yul\":8644:8647   */\n      0x00\n        /* \"#utility.yul\":8667:8691   */\n      tag_179\n        /* \"#utility.yul\":8685:8690   */\n      dup3\n        /* \"#utility.yul\":8667:8691   */\n      tag_69\n      jump\t// in\n    tag_179:\n        /* \"#utility.yul\":8658:8691   */\n      swap2\n      pop\n        /* \"#utility.yul\":8713:8717   */\n      0x00\n        /* \"#utility.yul\":8706:8711   */\n      dup3\n        /* \"#utility.yul\":8703:8718   */\n      sub\n        /* \"#utility.yul\":8700:8741   */\n      tag_180\n      jumpi\n        /* \"#utility.yul\":8721:8739   */\n      tag_181\n      tag_90\n      jump\t// in\n    tag_181:\n        /* \"#utility.yul\":8700:8741   */\n    tag_180:\n        /* \"#utility.yul\":8768:8769   */\n      0x01\n        /* \"#utility.yul\":8761:8766   */\n      dup3\n        /* \"#utility.yul\":8757:8770   */\n      sub\n        /* \"#utility.yul\":8750:8770   */\n      swap1\n      pop\n        /* \"#utility.yul\":8605:8776   */\n      swap2\n      swap1\n      pop\n      jump\t// out\n\n    auxdata: 0xa264697066735822122059c3c5d692f444f6065c49b6c0630c526880487aadd8e8fe6dd5e1245b9cdffa64736f6c634300081e0033\n}\n",
				"bytecode": {
					"linkReferences": {},
					"object": "608060405234801561000f575f5ffd5b5060015f5f7f49000000000000000000000000000000000000000000000000000000000000007effffffffffffffffffffffffffffffffffffffffffffffffffffffffffffff191681526020019081526020015f208190555060055f5f7f56000000000000000000000000000000000000000000000000000000000000007effffffffffffffffffffffffffffffffffffffffffffffffffffffffffffff191681526020019081526020015f2081905550600a5f5f7f58000000000000000000000000000000000000000000000000000000000000007effffffffffffffffffffffffffffffffffffffffffffffffffffffffffffff191681526020019081526020015f208190555060325f5f7f4c000000000000000000000000000000000000000000000000000000000000007effffffffffffffffffffffffffffffffffffffffffffffffffffffffffffff191681526020019081526020015f208190555060645f5f7f43000000000000000000000000000000000000000000000000000000000000007effffffffffffffffffffffffffffffffffffffffffffffffffffffffffffff191681526020019081526020015f20819055506101f45f5f7f44000000000000000000000000000000000000000000000000000000000000007effffffffffffffffffffffffffffffffffffffffffffffffffffffffffffff191681526020019081526020015f20819055506103e85f5f7f4d000000000000000000000000000000000000000000000000000000000000007effffffffffffffffffffffffffffffffffffffffffffffffffffffffffffff191681526020019081526020015f20819055506108b5806102875f395ff3fe608060405234801561000f575f5ffd5b506004361061004a575f3560e01c80632f0e44d81461004e578063445458dc1461007e578063525274db146100ae578063cb159dfe146100de575b5f5ffd5b61006860048036038101906100639190610418565b61010e565b604051610075919061045b565b60405180910390f35b61009860048036038101906100939190610418565b6101b2565b6040516100a5919061045b565b60405180910390f35b6100c860048036038101906100c391906105b0565b6101c6565b6040516100d59190610611565b60405180910390f35b6100f860048036038101906100f391906105b0565b610285565b604051610105919061045b565b60405180910390f35b5f5f5f5f847effffffffffffffffffffffffffffffffffffffffffffffffffffffffffffff19167effffffffffffffffffffffffffffffffffffffffffffffffffffffffffffff191681526020019081526020015f205490505f81116101a9576040517f08c379a00000000000000000000000000000000000000000000000000000000081526004016101a090610684565b60405180910390fd5b80915050919050565b5f602052805f5260405f205f915090505481565b5f5f8290505f8151036101dc575f915050610280565b5f5f90505b8151811015610279575f5f5f848481518110610200576101ff6106a2565b5b602001015160f81c60f81b7effffffffffffffffffffffffffffffffffffffffffffffffffffffffffffff19167effffffffffffffffffffffffffffffffffffffffffffffffffffffffffffff191681526020019081526020015f20540361026c575f92505050610280565b80806001019150506101e1565b5060019150505b919050565b5f5f8290505f8151116102cd576040517f08c379a00000000000000000000000000000000000000000000000000000000081526004016102c490610719565b60405180910390fd5b6102d6836101c6565b610315576040517f08c379a000000000000000000000000000000000000000000000000000000000815260040161030c906107a7565b60405180910390fd5b5f5f90505f5f90505f835190505b5f8111156103a6575f8460018361033a91906107f2565b8151811061034b5761034a6106a2565b5b602001015160f81c60f81b90505f6103628261010e565b90508381101561037f57808561037891906107f2565b945061038e565b808561038b9190610825565b94505b8093505050808061039e90610858565b915050610323565b50819350505050919050565b5f604051905090565b5f5ffd5b5f5ffd5b5f7fff0000000000000000000000000000000000000000000000000000000000000082169050919050565b6103f7816103c3565b8114610401575f5ffd5b50565b5f81359050610412816103ee565b92915050565b5f6020828403121561042d5761042c6103bb565b5b5f61043a84828501610404565b91505092915050565b5f819050919050565b61045581610443565b82525050565b5f60208201905061046e5f83018461044c565b92915050565b5f5ffd5b5f5ffd5b5f601f19601f8301169050919050565b7f4e487b71000000000000000000000000000000000000000000000000000000005f52604160045260245ffd5b6104c28261047c565b810181811067ffffffffffffffff821117156104e1576104e061048c565b5b80604052505050565b5f6104f36103b2565b90506104ff82826104b9565b919050565b5f67ffffffffffffffff82111561051e5761051d61048c565b5b6105278261047c565b9050602081019050919050565b828183375f83830152505050565b5f61055461054f84610504565b6104ea565b9050828152602081018484840111156105705761056f610478565b5b61057b848285610534565b509392505050565b5f82601f83011261059757610596610474565b5b81356105a7848260208601610542565b91505092915050565b5f602082840312156105c5576105c46103bb565b5b5f82013567ffffffffffffffff8111156105e2576105e16103bf565b5b6105ee84828501610583565b91505092915050565b5f8115159050919050565b61060b816105f7565b82525050565b5f6020820190506106245f830184610602565b92915050565b5f82825260208201905092915050565b7f496e76616c696420526f6d616e206368617261637465720000000000000000005f82015250565b5f61066e60178361062a565b91506106798261063a565b602082019050919050565b5f6020820190508181035f83015261069b81610662565b9050919050565b7f4e487b71000000000000000000000000000000000000000000000000000000005f52603260045260245ffd5b7f456d70747920526f6d616e206e756d6572616c000000000000000000000000005f82015250565b5f61070360138361062a565b915061070e826106cf565b602082019050919050565b5f6020820190508181035f830152610730816106f7565b9050919050565b7f706c6561736520696e70757420636f727265637420526f6d616e206e756d65725f8201527f616c000000000000000000000000000000000000000000000000000000000000602082015250565b5f61079160228361062a565b915061079c82610737565b604082019050919050565b5f6020820190508181035f8301526107be81610785565b9050919050565b7f4e487b71000000000000000000000000000000000000000000000000000000005f52601160045260245ffd5b5f6107fc82610443565b915061080783610443565b925082820390508181111561081f5761081e6107c5565b5b92915050565b5f61082f82610443565b915061083a83610443565b9250828201905080821115610852576108516107c5565b5b92915050565b5f61086282610443565b91505f8203610874576108736107c5565b5b60018203905091905056fea264697066735822122059c3c5d692f444f6065c49b6c0630c526880487aadd8e8fe6dd5e1245b9cdffa64736f6c634300081e0033",
					"opcodes": "PUSH1 0x80 PUSH1 0x40 MSTORE CALLVALUE DUP1 ISZERO PUSH2 0xF JUMPI PUSH0 PUSH0 REVERT JUMPDEST POP PUSH1 0x1 PUSH0 PUSH0 PUSH32 0x4900000000000000000000000000000000000000000000000000000000000000 PUSH31 0xFFFFFFFFFFFFFFFFFFFFFFFFFFFFFFFFFFFFFFFFFFFFFFFFFFFFFFFFFFFFFF NOT AND DUP2 MSTORE PUSH1 0x20 ADD SWAP1 DUP2 MSTORE PUSH1 0x20 ADD PUSH0 KECCAK256 DUP2 SWAP1 SSTORE POP PUSH1 0x5 PUSH0 PUSH0 PUSH32 0x5600000000000000000000000000000000000000000000000000000000000000 PUSH31 0xFFFFFFFFFFFFFFFFFFFFFFFFFFFFFFFFFFFFFFFFFFFFFFFFFFFFFFFFFFFFFF NOT AND DUP2 MSTORE PUSH1 0x20 ADD SWAP1 DUP2 MSTORE PUSH1 0x20 ADD PUSH0 KECCAK256 DUP2 SWAP1 SSTORE POP PUSH1 0xA PUSH0 PUSH0 PUSH32 0x5800000000000000000000000000000000000000000000000000000000000000 PUSH31 0xFFFFFFFFFFFFFFFFFFFFFFFFFFFFFFFFFFFFFFFFFFFFFFFFFFFFFFFFFFFFFF NOT AND DUP2 MSTORE PUSH1 0x20 ADD SWAP1 DUP2 MSTORE PUSH1 0x20 ADD PUSH0 KECCAK256 DUP2 SWAP1 SSTORE POP PUSH1 0x32 PUSH0 PUSH0 PUSH32 0x4C00000000000000000000000000000000000000000000000000000000000000 PUSH31 0xFFFFFFFFFFFFFFFFFFFFFFFFFFFFFFFFFFFFFFFFFFFFFFFFFFFFFFFFFFFFFF NOT AND DUP2 MSTORE PUSH1 0x20 ADD SWAP1 DUP2 MSTORE PUSH1 0x20 ADD PUSH0 KECCAK256 DUP2 SWAP1 SSTORE POP PUSH1 0x64 PUSH0 PUSH0 PUSH32 0x4300000000000000000000000000000000000000000000000000000000000000 PUSH31 0xFFFFFFFFFFFFFFFFFFFFFFFFFFFFFFFFFFFFFFFFFFFFFFFFFFFFFFFFFFFFFF NOT AND DUP2 MSTORE PUSH1 0x20 ADD SWAP1 DUP2 MSTORE PUSH1 0x20 ADD PUSH0 KECCAK256 DUP2 SWAP1 SSTORE POP PUSH2 0x1F4 PUSH0 PUSH0 PUSH32 0x4400000000000000000000000000000000000000000000000000000000000000 PUSH31 0xFFFFFFFFFFFFFFFFFFFFFFFFFFFFFFFFFFFFFFFFFFFFFFFFFFFFFFFFFFFFFF NOT AND DUP2 MSTORE PUSH1 0x20 ADD SWAP1 DUP2 MSTORE PUSH1 0x20 ADD PUSH0 KECCAK256 DUP2 SWAP1 SSTORE POP PUSH2 0x3E8 PUSH0 PUSH0 PUSH32 0x4D00000000000000000000000000000000000000000000000000000000000000 PUSH31 0xFFFFFFFFFFFFFFFFFFFFFFFFFFFFFFFFFFFFFFFFFFFFFFFFFFFFFFFFFFFFFF NOT AND DUP2 MSTORE PUSH1 0x20 ADD SWAP1 DUP2 MSTORE PUSH1 0x20 ADD PUSH0 KECCAK256 DUP2 SWAP1 SSTORE POP PUSH2 0x8B5 DUP1 PUSH2 0x287 PUSH0 CODECOPY PUSH0 RETURN INVALID PUSH1 0x80 PUSH1 0x40 MSTORE CALLVALUE DUP1 ISZERO PUSH2 0xF JUMPI PUSH0 PUSH0 REVERT JUMPDEST POP PUSH1 0x4 CALLDATASIZE LT PUSH2 0x4A JUMPI PUSH0 CALLDATALOAD PUSH1 0xE0 SHR DUP1 PUSH4 0x2F0E44D8 EQ PUSH2 0x4E JUMPI DUP1 PUSH4 0x445458DC EQ PUSH2 0x7E JUMPI DUP1 PUSH4 0x525274DB EQ PUSH2 0xAE JUMPI DUP1 PUSH4 0xCB159DFE EQ PUSH2 0xDE JUMPI JUMPDEST PUSH0 PUSH0 REVERT JUMPDEST PUSH2 0x68 PUSH1 0x4 DUP1 CALLDATASIZE SUB DUP2 ADD SWAP1 PUSH2 0x63 SWAP2 SWAP1 PUSH2 0x418 JUMP JUMPDEST PUSH2 0x10E JUMP JUMPDEST PUSH1 0x40 MLOAD PUSH2 0x75 SWAP2 SWAP1 PUSH2 0x45B JUMP JUMPDEST PUSH1 0x40 MLOAD DUP1 SWAP2 SUB SWAP1 RETURN JUMPDEST PUSH2 0x98 PUSH1 0x4 DUP1 CALLDATASIZE SUB DUP2 ADD SWAP1 PUSH2 0x93 SWAP2 SWAP1 PUSH2 0x418 JUMP JUMPDEST PUSH2 0x1B2 JUMP JUMPDEST PUSH1 0x40 MLOAD PUSH2 0xA5 SWAP2 SWAP1 PUSH2 0x45B JUMP JUMPDEST PUSH1 0x40 MLOAD DUP1 SWAP2 SUB SWAP1 RETURN JUMPDEST PUSH2 0xC8 PUSH1 0x4 DUP1 CALLDATASIZE SUB DUP2 ADD SWAP1 PUSH2 0xC3 SWAP2 SWAP1 PUSH2 0x5B0 JUMP JUMPDEST PUSH2 0x1C6 JUMP JUMPDEST PUSH1 0x40 MLOAD PUSH2 0xD5 SWAP2 SWAP1 PUSH2 0x611 JUMP JUMPDEST PUSH1 0x40 MLOAD DUP1 SWAP2 SUB SWAP1 RETURN JUMPDEST PUSH2 0xF8 PUSH1 0x4 DUP1 CALLDATASIZE SUB DUP2 ADD SWAP1 PUSH2 0xF3 SWAP2 SWAP1 PUSH2 0x5B0 JUMP JUMPDEST PUSH2 0x285 JUMP JUMPDEST PUSH1 0x40 MLOAD PUSH2 0x105 SWAP2 SWAP1 PUSH2 0x45B JUMP JUMPDEST PUSH1 0x40 MLOAD DUP1 SWAP2 SUB SWAP1 RETURN JUMPDEST PUSH0 PUSH0 PUSH0 PUSH0 DUP5 PUSH31 0xFFFFFFFFFFFFFFFFFFFFFFFFFFFFFFFFFFFFFFFFFFFFFFFFFFFFFFFFFFFFFF NOT AND PUSH31 0xFFFFFFFFFFFFFFFFFFFFFFFFFFFFFFFFFFFFFFFFFFFFFFFFFFFFFFFFFFFFFF NOT AND DUP2 MSTORE PUSH1 0x20 ADD SWAP1 DUP2 MSTORE PUSH1 0x20 ADD PUSH0 KECCAK256 SLOAD SWAP1 POP PUSH0 DUP2 GT PUSH2 0x1A9 JUMPI PUSH1 0x40 MLOAD PUSH32 0x8C379A000000000000000000000000000000000000000000000000000000000 DUP2 MSTORE PUSH1 0x4 ADD PUSH2 0x1A0 SWAP1 PUSH2 0x684 JUMP JUMPDEST PUSH1 0x40 MLOAD DUP1 SWAP2 SUB SWAP1 REVERT JUMPDEST DUP1 SWAP2 POP POP SWAP2 SWAP1 POP JUMP JUMPDEST PUSH0 PUSH1 0x20 MSTORE DUP1 PUSH0 MSTORE PUSH1 0x40 PUSH0 KECCAK256 PUSH0 SWAP2 POP SWAP1 POP SLOAD DUP2 JUMP JUMPDEST PUSH0 PUSH0 DUP3 SWAP1 POP PUSH0 DUP2 MLOAD SUB PUSH2 0x1DC JUMPI PUSH0 SWAP2 POP POP PUSH2 0x280 JUMP JUMPDEST PUSH0 PUSH0 SWAP1 POP JUMPDEST DUP2 MLOAD DUP2 LT ISZERO PUSH2 0x279 JUMPI PUSH0 PUSH0 PUSH0 DUP5 DUP5 DUP2 MLOAD DUP2 LT PUSH2 0x200 JUMPI PUSH2 0x1FF PUSH2 0x6A2 JUMP JUMPDEST JUMPDEST PUSH1 0x20 ADD ADD MLOAD PUSH1 0xF8 SHR PUSH1 0xF8 SHL PUSH31 0xFFFFFFFFFFFFFFFFFFFFFFFFFFFFFFFFFFFFFFFFFFFFFFFFFFFFFFFFFFFFFF NOT AND PUSH31 0xFFFFFFFFFFFFFFFFFFFFFFFFFFFFFFFFFFFFFFFFFFFFFFFFFFFFFFFFFFFFFF NOT AND DUP2 MSTORE PUSH1 0x20 ADD SWAP1 DUP2 MSTORE PUSH1 0x20 ADD PUSH0 KECCAK256 SLOAD SUB PUSH2 0x26C JUMPI PUSH0 SWAP3 POP POP POP PUSH2 0x280 JUMP JUMPDEST DUP1 DUP1 PUSH1 0x1 ADD SWAP2 POP POP PUSH2 0x1E1 JUMP JUMPDEST POP PUSH1 0x1 SWAP2 POP POP JUMPDEST SWAP2 SWAP1 POP JUMP JUMPDEST PUSH0 PUSH0 DUP3 SWAP1 POP PUSH0 DUP2 MLOAD GT PUSH2 0x2CD JUMPI PUSH1 0x40 MLOAD PUSH32 0x8C379A000000000000000000000000000000000000000000000000000000000 DUP2 MSTORE PUSH1 0x4 ADD PUSH2 0x2C4 SWAP1 PUSH2 0x719 JUMP JUMPDEST PUSH1 0x40 MLOAD DUP1 SWAP2 SUB SWAP1 REVERT JUMPDEST PUSH2 0x2D6 DUP4 PUSH2 0x1C6 JUMP JUMPDEST PUSH2 0x315 JUMPI PUSH1 0x40 MLOAD PUSH32 0x8C379A000000000000000000000000000000000000000000000000000000000 DUP2 MSTORE PUSH1 0x4 ADD PUSH2 0x30C SWAP1 PUSH2 0x7A7 JUMP JUMPDEST PUSH1 0x40 MLOAD DUP1 SWAP2 SUB SWAP1 REVERT JUMPDEST PUSH0 PUSH0 SWAP1 POP PUSH0 PUSH0 SWAP1 POP PUSH0 DUP4 MLOAD SWAP1 POP JUMPDEST PUSH0 DUP2 GT ISZERO PUSH2 0x3A6 JUMPI PUSH0 DUP5 PUSH1 0x1 DUP4 PUSH2 0x33A SWAP2 SWAP1 PUSH2 0x7F2 JUMP JUMPDEST DUP2 MLOAD DUP2 LT PUSH2 0x34B JUMPI PUSH2 0x34A PUSH2 0x6A2 JUMP JUMPDEST JUMPDEST PUSH1 0x20 ADD ADD MLOAD PUSH1 0xF8 SHR PUSH1 0xF8 SHL SWAP1 POP PUSH0 PUSH2 0x362 DUP3 PUSH2 0x10E JUMP JUMPDEST SWAP1 POP DUP4 DUP2 LT ISZERO PUSH2 0x37F JUMPI DUP1 DUP6 PUSH2 0x378 SWAP2 SWAP1 PUSH2 0x7F2 JUMP JUMPDEST SWAP5 POP PUSH2 0x38E JUMP JUMPDEST DUP1 DUP6 PUSH2 0x38B SWAP2 SWAP1 PUSH2 0x825 JUMP JUMPDEST SWAP5 POP JUMPDEST DUP1 SWAP4 POP POP POP DUP1 DUP1 PUSH2 0x39E SWAP1 PUSH2 0x858 JUMP JUMPDEST SWAP2 POP POP PUSH2 0x323 JUMP JUMPDEST POP DUP2 SWAP4 POP POP POP POP SWAP2 SWAP1 POP JUMP JUMPDEST PUSH0 PUSH1 0x40 MLOAD SWAP1 POP SWAP1 JUMP JUMPDEST PUSH0 PUSH0 REVERT JUMPDEST PUSH0 PUSH0 REVERT JUMPDEST PUSH0 PUSH32 0xFF00000000000000000000000000000000000000000000000000000000000000 DUP3 AND SWAP1 POP SWAP2 SWAP1 POP JUMP JUMPDEST PUSH2 0x3F7 DUP2 PUSH2 0x3C3 JUMP JUMPDEST DUP2 EQ PUSH2 0x401 JUMPI PUSH0 PUSH0 REVERT JUMPDEST POP JUMP JUMPDEST PUSH0 DUP2 CALLDATALOAD SWAP1 POP PUSH2 0x412 DUP2 PUSH2 0x3EE JUMP JUMPDEST SWAP3 SWAP2 POP POP JUMP JUMPDEST PUSH0 PUSH1 0x20 DUP3 DUP5 SUB SLT ISZERO PUSH2 0x42D JUMPI PUSH2 0x42C PUSH2 0x3BB JUMP JUMPDEST JUMPDEST PUSH0 PUSH2 0x43A DUP5 DUP3 DUP6 ADD PUSH2 0x404 JUMP JUMPDEST SWAP2 POP POP SWAP3 SWAP2 POP POP JUMP JUMPDEST PUSH0 DUP2 SWAP1 POP SWAP2 SWAP1 POP JUMP JUMPDEST PUSH2 0x455 DUP2 PUSH2 0x443 JUMP JUMPDEST DUP3 MSTORE POP POP JUMP JUMPDEST PUSH0 PUSH1 0x20 DUP3 ADD SWAP1 POP PUSH2 0x46E PUSH0 DUP4 ADD DUP5 PUSH2 0x44C JUMP JUMPDEST SWAP3 SWAP2 POP POP JUMP JUMPDEST PUSH0 PUSH0 REVERT JUMPDEST PUSH0 PUSH0 REVERT JUMPDEST PUSH0 PUSH1 0x1F NOT PUSH1 0x1F DUP4 ADD AND SWAP1 POP SWAP2 SWAP1 POP JUMP JUMPDEST PUSH32 0x4E487B7100000000000000000000000000000000000000000000000000000000 PUSH0 MSTORE PUSH1 0x41 PUSH1 0x4 MSTORE PUSH1 0x24 PUSH0 REVERT JUMPDEST PUSH2 0x4C2 DUP3 PUSH2 0x47C JUMP JUMPDEST DUP2 ADD DUP2 DUP2 LT PUSH8 0xFFFFFFFFFFFFFFFF DUP3 GT OR ISZERO PUSH2 0x4E1 JUMPI PUSH2 0x4E0 PUSH2 0x48C JUMP JUMPDEST JUMPDEST DUP1 PUSH1 0x40 MSTORE POP POP POP JUMP JUMPDEST PUSH0 PUSH2 0x4F3 PUSH2 0x3B2 JUMP JUMPDEST SWAP1 POP PUSH2 0x4FF DUP3 DUP3 PUSH2 0x4B9 JUMP JUMPDEST SWAP2 SWAP1 POP JUMP JUMPDEST PUSH0 PUSH8 0xFFFFFFFFFFFFFFFF DUP3 GT ISZERO PUSH2 0x51E JUMPI PUSH2 0x51D PUSH2 0x48C JUMP JUMPDEST JUMPDEST PUSH2 0x527 DUP3 PUSH2 0x47C JUMP JUMPDEST SWAP1 POP PUSH1 0x20 DUP2 ADD SWAP1 POP SWAP2 SWAP1 POP JUMP JUMPDEST DUP3 DUP2 DUP4 CALLDATACOPY PUSH0 DUP4 DUP4 ADD MSTORE POP POP POP JUMP JUMPDEST PUSH0 PUSH2 0x554 PUSH2 0x54F DUP5 PUSH2 0x504 JUMP JUMPDEST PUSH2 0x4EA JUMP JUMPDEST SWAP1 POP DUP3 DUP2 MSTORE PUSH1 0x20 DUP2 ADD DUP5 DUP5 DUP5 ADD GT ISZERO PUSH2 0x570 JUMPI PUSH2 0x56F PUSH2 0x478 JUMP JUMPDEST JUMPDEST PUSH2 0x57B DUP5 DUP3 DUP6 PUSH2 0x534 JUMP JUMPDEST POP SWAP4 SWAP3 POP POP POP JUMP JUMPDEST PUSH0 DUP3 PUSH1 0x1F DUP4 ADD SLT PUSH2 0x597 JUMPI PUSH2 0x596 PUSH2 0x474 JUMP JUMPDEST JUMPDEST DUP2 CALLDATALOAD PUSH2 0x5A7 DUP5 DUP3 PUSH1 0x20 DUP7 ADD PUSH2 0x542 JUMP JUMPDEST SWAP2 POP POP SWAP3 SWAP2 POP POP JUMP JUMPDEST PUSH0 PUSH1 0x20 DUP3 DUP5 SUB SLT ISZERO PUSH2 0x5C5 JUMPI PUSH2 0x5C4 PUSH2 0x3BB JUMP JUMPDEST JUMPDEST PUSH0 DUP3 ADD CALLDATALOAD PUSH8 0xFFFFFFFFFFFFFFFF DUP2 GT ISZERO PUSH2 0x5E2 JUMPI PUSH2 0x5E1 PUSH2 0x3BF JUMP JUMPDEST JUMPDEST PUSH2 0x5EE DUP5 DUP3 DUP6 ADD PUSH2 0x583 JUMP JUMPDEST SWAP2 POP POP SWAP3 SWAP2 POP POP JUMP JUMPDEST PUSH0 DUP2 ISZERO ISZERO SWAP1 POP SWAP2 SWAP1 POP JUMP JUMPDEST PUSH2 0x60B DUP2 PUSH2 0x5F7 JUMP JUMPDEST DUP3 MSTORE POP POP JUMP JUMPDEST PUSH0 PUSH1 0x20 DUP3 ADD SWAP1 POP PUSH2 0x624 PUSH0 DUP4 ADD DUP5 PUSH2 0x602 JUMP JUMPDEST SWAP3 SWAP2 POP POP JUMP JUMPDEST PUSH0 DUP3 DUP3 MSTORE PUSH1 0x20 DUP3 ADD SWAP1 POP SWAP3 SWAP2 POP POP JUMP JUMPDEST PUSH32 0x496E76616C696420526F6D616E20636861726163746572000000000000000000 PUSH0 DUP3 ADD MSTORE POP JUMP JUMPDEST PUSH0 PUSH2 0x66E PUSH1 0x17 DUP4 PUSH2 0x62A JUMP JUMPDEST SWAP2 POP PUSH2 0x679 DUP3 PUSH2 0x63A JUMP JUMPDEST PUSH1 0x20 DUP3 ADD SWAP1 POP SWAP2 SWAP1 POP JUMP JUMPDEST PUSH0 PUSH1 0x20 DUP3 ADD SWAP1 POP DUP2 DUP2 SUB PUSH0 DUP4 ADD MSTORE PUSH2 0x69B DUP2 PUSH2 0x662 JUMP JUMPDEST SWAP1 POP SWAP2 SWAP1 POP JUMP JUMPDEST PUSH32 0x4E487B7100000000000000000000000000000000000000000000000000000000 PUSH0 MSTORE PUSH1 0x32 PUSH1 0x4 MSTORE PUSH1 0x24 PUSH0 REVERT JUMPDEST PUSH32 0x456D70747920526F6D616E206E756D6572616C00000000000000000000000000 PUSH0 DUP3 ADD MSTORE POP JUMP JUMPDEST PUSH0 PUSH2 0x703 PUSH1 0x13 DUP4 PUSH2 0x62A JUMP JUMPDEST SWAP2 POP PUSH2 0x70E DUP3 PUSH2 0x6CF JUMP JUMPDEST PUSH1 0x20 DUP3 ADD SWAP1 POP SWAP2 SWAP1 POP JUMP JUMPDEST PUSH0 PUSH1 0x20 DUP3 ADD SWAP1 POP DUP2 DUP2 SUB PUSH0 DUP4 ADD MSTORE PUSH2 0x730 DUP2 PUSH2 0x6F7 JUMP JUMPDEST SWAP1 POP SWAP2 SWAP1 POP JUMP JUMPDEST PUSH32 0x706C6561736520696E70757420636F727265637420526F6D616E206E756D6572 PUSH0 DUP3 ADD MSTORE PUSH32 0x616C000000000000000000000000000000000000000000000000000000000000 PUSH1 0x20 DUP3 ADD MSTORE POP JUMP JUMPDEST PUSH0 PUSH2 0x791 PUSH1 0x22 DUP4 PUSH2 0x62A JUMP JUMPDEST SWAP2 POP PUSH2 0x79C DUP3 PUSH2 0x737 JUMP JUMPDEST PUSH1 0x40 DUP3 ADD SWAP1 POP SWAP2 SWAP1 POP JUMP JUMPDEST PUSH0 PUSH1 0x20 DUP3 ADD SWAP1 POP DUP2 DUP2 SUB PUSH0 DUP4 ADD MSTORE PUSH2 0x7BE DUP2 PUSH2 0x785 JUMP JUMPDEST SWAP1 POP SWAP2 SWAP1 POP JUMP JUMPDEST PUSH32 0x4E487B7100000000000000000000000000000000000000000000000000000000 PUSH0 MSTORE PUSH1 0x11 PUSH1 0x4 MSTORE PUSH1 0x24 PUSH0 REVERT JUMPDEST PUSH0 PUSH2 0x7FC DUP3 PUSH2 0x443 JUMP JUMPDEST SWAP2 POP PUSH2 0x807 DUP4 PUSH2 0x443 JUMP JUMPDEST SWAP3 POP DUP3 DUP3 SUB SWAP1 POP DUP2 DUP2 GT ISZERO PUSH2 0x81F JUMPI PUSH2 0x81E PUSH2 0x7C5 JUMP JUMPDEST JUMPDEST SWAP3 SWAP2 POP POP JUMP JUMPDEST PUSH0 PUSH2 0x82F DUP3 PUSH2 0x443 JUMP JUMPDEST SWAP2 POP PUSH2 0x83A DUP4 PUSH2 0x443 JUMP JUMPDEST SWAP3 POP DUP3 DUP3 ADD SWAP1 POP DUP1 DUP3 GT ISZERO PUSH2 0x852 JUMPI PUSH2 0x851 PUSH2 0x7C5 JUMP JUMPDEST JUMPDEST SWAP3 SWAP2 POP POP JUMP JUMPDEST PUSH0 PUSH2 0x862 DUP3 PUSH2 0x443 JUMP JUMPDEST SWAP2 POP PUSH0 DUP3 SUB PUSH2 0x874 JUMPI PUSH2 0x873 PUSH2 0x7C5 JUMP JUMPDEST JUMPDEST PUSH1 0x1 DUP3 SUB SWAP1 POP SWAP2 SWAP1 POP JUMP INVALID LOG2 PUSH5 0x6970667358 0x22 SLT KECCAK256 MSIZE 0xC3 0xC5 0xD6 SWAP3 DELEGATECALL PREVRANDAO 0xF6 MOD TLOAD BLOBHASH 0xB6 0xC0 PUSH4 0xC526880 BASEFEE PUSH27 0xADD8E8FE6DD5E1245B9CDFFA64736F6C634300081E003300000000 "
				},
				"gasEstimates": {
					"creation": {
						"codeDepositCost": "445800",
						"executionCost": "155864",
						"totalCost": "601664"
					},
					"external": {
						"getValue(bytes1)": "2894",
						"romanMap(bytes1)": "2759",
						"romanToInt(string)": "infinite",
						"validRoman(string)": "infinite"
					}
				},
				"methodIdentifiers": {
					"getValue(bytes1)": "2f0e44d8",
					"romanMap(bytes1)": "445458dc",
					"romanToInt(string)": "cb159dfe",
					"validRoman(string)": "525274db"
				}
			},
			"storageLayout": {
				"storage": [
					{
						"astId": 9,
						"contract": "roman2int.sol:Int2Roman",
						"label": "romanMap",
						"offset": 0,
						"slot": "0",
						"type": "t_mapping(t_bytes1,t_uint256)"
					}
				],
				"types": {
					"t_bytes1": {
						"encoding": "inplace",
						"label": "bytes1",
						"numberOfBytes": "1"
					},
					"t_mapping(t_bytes1,t_uint256)": {
						"encoding": "mapping",
						"key": "t_bytes1",
						"label": "mapping(bytes1 => uint256)",
						"numberOfBytes": "32",
						"value": "t_uint256"
					},
					"t_uint256": {
						"encoding": "inplace",
						"label": "uint256",
						"numberOfBytes": "32"
					}
				}
			},
			"userdoc": {
				"kind": "user",
				"methods": {},
				"version": 1
			}
		}
	}
}