{
	"103/NFTSwap.sol": {
		"NFTSwap": {
			"abi": [
				{
					"anonymous": false,
					"inputs": [
						{
							"indexed": true,
							"internalType": "address",
							"name": "seller",
							"type": "address"
						},
						{
							"indexed": true,
							"internalType": "address",
							"name": "nftAddr",
							"type": "address"
						},
						{
							"indexed": true,
							"internalType": "uint256",
							"name": "tokenId",
							"type": "uint256"
						},
						{
							"indexed": false,
							"internalType": "uint256",
							"name": "price",
							"type": "uint256"
						}
					],
					"name": "List",
					"type": "event"
				},
				{
					"anonymous": false,
					"inputs": [
						{
							"indexed": true,
							"internalType": "address",
							"name": "buyer",
							"type": "address"
						},
						{
							"indexed": true,
							"internalType": "address",
							"name": "nftAddr",
							"type": "address"
						},
						{
							"indexed": true,
							"internalType": "uint256",
							"name": "tokenId",
							"type": "uint256"
						},
						{
							"indexed": false,
							"internalType": "uint256",
							"name": "price",
							"type": "uint256"
						}
					],
					"name": "Purchase",
					"type": "event"
				},
				{
					"anonymous": false,
					"inputs": [
						{
							"indexed": true,
							"internalType": "address",
							"name": "seller",
							"type": "address"
						},
						{
							"indexed": true,
							"internalType": "address",
							"name": "nftAddr",
							"type": "address"
						},
						{
							"indexed": true,
							"internalType": "uint256",
							"name": "tokenId",
							"type": "uint256"
						}
					],
					"name": "Revoke",
					"type": "event"
				},
				{
					"anonymous": false,
					"inputs": [
						{
							"indexed": true,
							"internalType": "address",
							"name": "seller",
							"type": "address"
						},
						{
							"indexed": true,
							"internalType": "address",
							"name": "nftAddr",
							"type": "address"
						},
						{
							"indexed": true,
							"internalType": "uint256",
							"name": "tokenId",
							"type": "uint256"
						},
						{
							"indexed": false,
							"internalType": "uint256",
							"name": "newPrice",
							"type": "uint256"
						}
					],
					"name": "Update",
					"type": "event"
				},
				{
					"inputs": [
						{
							"internalType": "address",
							"name": "_nftAddr",
							"type": "address"
						},
						{
							"internalType": "uint256",
							"name": "_tokenId",
							"type": "uint256"
						},
						{
							"internalType": "uint256",
							"name": "_price",
							"type": "uint256"
						}
					],
					"name": "list",
					"outputs": [],
					"stateMutability": "nonpayable",
					"type": "function"
				},
				{
					"inputs": [
						{
							"internalType": "address",
							"name": "",
							"type": "address"
						},
						{
							"internalType": "address",
							"name": "",
							"type": "address"
						},
						{
							"internalType": "uint256",
							"name": "",
							"type": "uint256"
						},
						{
							"internalType": "bytes",
							"name": "",
							"type": "bytes"
						}
					],
					"name": "onERC721Received",
					"outputs": [
						{
							"internalType": "bytes4",
							"name": "",
							"type": "bytes4"
						}
					],
					"stateMutability": "pure",
					"type": "function"
				},
				{
					"inputs": [
						{
							"internalType": "address",
							"name": "_nftAddr",
							"type": "address"
						},
						{
							"internalType": "uint256",
							"name": "_tokenId",
							"type": "uint256"
						}
					],
					"name": "purchase",
					"outputs": [],
					"stateMutability": "payable",
					"type": "function"
				},
				{
					"inputs": [
						{
							"internalType": "address",
							"name": "_nftAddr",
							"type": "address"
						},
						{
							"internalType": "uint256",
							"name": "_tokenId",
							"type": "uint256"
						}
					],
					"name": "revoke",
					"outputs": [],
					"stateMutability": "nonpayable",
					"type": "function"
				},
				{
					"inputs": [
						{
							"internalType": "address",
							"name": "_nftAddr",
							"type": "address"
						},
						{
							"internalType": "uint256",
							"name": "_tokenId",
							"type": "uint256"
						},
						{
							"internalType": "uint256",
							"name": "_newPrice",
							"type": "uint256"
						}
					],
					"name": "update",
					"outputs": [],
					"stateMutability": "nonpayable",
					"type": "function"
				}
			],
			"devdoc": {
				"kind": "dev",
				"methods": {},
				"version": 1
			},
			"evm": {
				"assembly": "    /* \"103/NFTSwap.sol\":115:4465  contract NFTSwap is IERC721Receiver {... */\n  mstore(0x40, 0x80)\n  callvalue\n  dup1\n  iszero\n  tag_1\n  jumpi\n  revert(0x00, 0x00)\ntag_1:\n  pop\n  dataSize(sub_0)\n  dup1\n  dataOffset(sub_0)\n  0x00\n  codecopy\n  0x00\n  return\nstop\n\nsub_0: assembly {\n        /* \"103/NFTSwap.sol\":115:4465  contract NFTSwap is IERC721Receiver {... */\n      mstore(0x40, 0x80)\n      jumpi(tag_1, lt(calldatasize, 0x04))\n      shr(0xe0, calldataload(0x00))\n      dup1\n      0x150b7a02\n      eq\n      tag_2\n      jumpi\n      dup1\n      0x8de93222\n      eq\n      tag_3\n      jumpi\n      dup1\n      0xd09b6d43\n      eq\n      tag_4\n      jumpi\n      dup1\n      0xdda342bb\n      eq\n      tag_5\n      jumpi\n      dup1\n      0xeac449d9\n      eq\n      tag_6\n      jumpi\n    tag_1:\n      revert(0x00, 0x00)\n        /* \"103/NFTSwap.sol\":902:1154  function onERC721Received(... */\n    tag_2:\n      callvalue\n      dup1\n      iszero\n      tag_7\n      jumpi\n      revert(0x00, 0x00)\n    tag_7:\n      pop\n      tag_8\n      0x04\n      dup1\n      calldatasize\n      sub\n      dup2\n      add\n      swap1\n      tag_9\n      swap2\n      swap1\n      tag_10\n      jump\t// in\n    tag_9:\n      tag_11\n      jump\t// in\n    tag_8:\n      mload(0x40)\n      tag_12\n      swap2\n      swap1\n      tag_13\n      jump\t// in\n    tag_12:\n      mload(0x40)\n      dup1\n      swap2\n      sub\n      swap1\n      return\n        /* \"103/NFTSwap.sol\":3470:4461  function purchase(address _nftAddr, uint256 _tokenId) public payable {... */\n    tag_3:\n      tag_14\n      0x04\n      dup1\n      calldatasize\n      sub\n      dup2\n      add\n      swap1\n      tag_15\n      swap2\n      swap1\n      tag_16\n      jump\t// in\n    tag_15:\n      tag_17\n      jump\t// in\n    tag_14:\n      stop\n        /* \"103/NFTSwap.sol\":2691:3362  function update(address _nftAddr, uint256 _tokenId, uint256 _newPrice) public {... */\n    tag_4:\n      callvalue\n      dup1\n      iszero\n      tag_18\n      jumpi\n      revert(0x00, 0x00)\n    tag_18:\n      pop\n      tag_19\n      0x04\n      dup1\n      calldatasize\n      sub\n      dup2\n      add\n      swap1\n      tag_20\n      swap2\n      swap1\n      tag_21\n      jump\t// in\n    tag_20:\n      tag_22\n      jump\t// in\n    tag_19:\n      stop\n        /* \"103/NFTSwap.sol\":1282:1931  function list(address _nftAddr, uint256 _tokenId, uint256 _price) public{... */\n    tag_5:\n      callvalue\n      dup1\n      iszero\n      tag_23\n      jumpi\n      revert(0x00, 0x00)\n    tag_23:\n      pop\n      tag_24\n      0x04\n      dup1\n      calldatasize\n      sub\n      dup2\n      add\n      swap1\n      tag_25\n      swap2\n      swap1\n      tag_21\n      jump\t// in\n    tag_25:\n      tag_26\n      jump\t// in\n    tag_24:\n      stop\n        /* \"103/NFTSwap.sol\":1972:2640  function revoke(address _nftAddr, uint256 _tokenId) public {... */\n    tag_6:\n      callvalue\n      dup1\n      iszero\n      tag_27\n      jumpi\n      revert(0x00, 0x00)\n    tag_27:\n      pop\n      tag_28\n      0x04\n      dup1\n      calldatasize\n      sub\n      dup2\n      add\n      swap1\n      tag_29\n      swap2\n      swap1\n      tag_16\n      jump\t// in\n    tag_29:\n      tag_30\n      jump\t// in\n    tag_28:\n      stop\n        /* \"103/NFTSwap.sol\":902:1154  function onERC721Received(... */\n    tag_11:\n        /* \"103/NFTSwap.sol\":1082:1088  bytes4 */\n      0x00\n        /* \"103/NFTSwap.sol\":1106:1147  IERC721Receiver.onERC721Received.selector */\n      shl(0xe0, 0x150b7a02)\n        /* \"103/NFTSwap.sol\":1099:1147  return IERC721Receiver.onERC721Received.selector */\n      swap1\n      pop\n        /* \"103/NFTSwap.sol\":902:1154  function onERC721Received(... */\n      swap6\n      swap5\n      pop\n      pop\n      pop\n      pop\n      pop\n      jump\t// out\n        /* \"103/NFTSwap.sol\":3470:4461  function purchase(address _nftAddr, uint256 _tokenId) public payable {... */\n    tag_17:\n        /* \"103/NFTSwap.sol\":3549:3569  Order storage _order */\n      0x00\n        /* \"103/NFTSwap.sol\":3572:3579  nftList */\n      0x00\n        /* \"103/NFTSwap.sol\":3572:3589  nftList[_nftAddr] */\n      0x00\n        /* \"103/NFTSwap.sol\":3580:3588  _nftAddr */\n      dup5\n        /* \"103/NFTSwap.sol\":3572:3589  nftList[_nftAddr] */\n      0xffffffffffffffffffffffffffffffffffffffff\n      and\n      0xffffffffffffffffffffffffffffffffffffffff\n      and\n      dup2\n      mstore\n      0x20\n      add\n      swap1\n      dup2\n      mstore\n      0x20\n      add\n      0x00\n      keccak256\n        /* \"103/NFTSwap.sol\":3572:3599  nftList[_nftAddr][_tokenId] */\n      0x00\n        /* \"103/NFTSwap.sol\":3590:3598  _tokenId */\n      dup4\n        /* \"103/NFTSwap.sol\":3572:3599  nftList[_nftAddr][_tokenId] */\n      dup2\n      mstore\n      0x20\n      add\n      swap1\n      dup2\n      mstore\n      0x20\n      add\n      0x00\n      keccak256\n        /* \"103/NFTSwap.sol\":3549:3599  Order storage _order = nftList[_nftAddr][_tokenId] */\n      swap1\n      pop\n        /* \"103/NFTSwap.sol\":3647:3648  0 */\n      0x00\n        /* \"103/NFTSwap.sol\":3632:3638  _order */\n      dup2\n        /* \"103/NFTSwap.sol\":3632:3644  _order.price */\n      0x01\n      add\n      sload\n        /* \"103/NFTSwap.sol\":3632:3648  _order.price > 0 */\n      gt\n        /* \"103/NFTSwap.sol\":3624:3666  require(_order.price > 0, \"Invalid Price\") */\n      tag_33\n      jumpi\n      mload(0x40)\n      0x08c379a000000000000000000000000000000000000000000000000000000000\n      dup2\n      mstore\n      0x04\n      add\n      tag_34\n      swap1\n      tag_35\n      jump\t// in\n    tag_34:\n      mload(0x40)\n      dup1\n      swap2\n      sub\n      swap1\n      revert\n    tag_33:\n        /* \"103/NFTSwap.sol\":3717:3723  _order */\n      dup1\n        /* \"103/NFTSwap.sol\":3717:3729  _order.price */\n      0x01\n      add\n      sload\n        /* \"103/NFTSwap.sol\":3704:3713  msg.value */\n      callvalue\n        /* \"103/NFTSwap.sol\":3704:3729  msg.value >= _order.price */\n      lt\n      iszero\n        /* \"103/NFTSwap.sol\":3696:3748  require(msg.value >= _order.price, \"Increase price\") */\n      tag_36\n      jumpi\n      mload(0x40)\n      0x08c379a000000000000000000000000000000000000000000000000000000000\n      dup2\n      mstore\n      0x04\n      add\n      tag_37\n      swap1\n      tag_38\n      jump\t// in\n    tag_37:\n      mload(0x40)\n      dup1\n      swap2\n      sub\n      swap1\n      revert\n    tag_36:\n        /* \"103/NFTSwap.sol\":3829:3841  IERC721 _nft */\n      0x00\n        /* \"103/NFTSwap.sol\":3852:3860  _nftAddr */\n      dup4\n        /* \"103/NFTSwap.sol\":3829:3861  IERC721 _nft = IERC721(_nftAddr) */\n      swap1\n      pop\n        /* \"103/NFTSwap.sol\":3913:3917  this */\n      address\n        /* \"103/NFTSwap.sol\":3879:3918  _nft.ownerOf(_tokenId) == address(this) */\n      0xffffffffffffffffffffffffffffffffffffffff\n      and\n        /* \"103/NFTSwap.sol\":3879:3883  _nft */\n      dup2\n        /* \"103/NFTSwap.sol\":3879:3891  _nft.ownerOf */\n      0xffffffffffffffffffffffffffffffffffffffff\n      and\n      0x6352211e\n        /* \"103/NFTSwap.sol\":3892:3900  _tokenId */\n      dup6\n        /* \"103/NFTSwap.sol\":3879:3901  _nft.ownerOf(_tokenId) */\n      mload(0x40)\n      dup3\n      0xffffffff\n      and\n      0xe0\n      shl\n      dup2\n      mstore\n      0x04\n      add\n      tag_39\n      swap2\n      swap1\n      tag_40\n      jump\t// in\n    tag_39:\n      0x20\n      mload(0x40)\n      dup1\n      dup4\n      sub\n      dup2\n      dup7\n      gas\n      staticcall\n      iszero\n      dup1\n      iszero\n      tag_42\n      jumpi\n      returndatacopy(0x00, 0x00, returndatasize)\n      revert(0x00, returndatasize)\n    tag_42:\n      pop\n      pop\n      pop\n      pop\n      mload(0x40)\n      returndatasize\n      not(0x1f)\n      0x1f\n      dup3\n      add\n      and\n      dup3\n      add\n      dup1\n      0x40\n      mstore\n      pop\n      dup2\n      add\n      swap1\n      tag_43\n      swap2\n      swap1\n      tag_44\n      jump\t// in\n    tag_43:\n        /* \"103/NFTSwap.sol\":3879:3918  _nft.ownerOf(_tokenId) == address(this) */\n      0xffffffffffffffffffffffffffffffffffffffff\n      and\n      eq\n        /* \"103/NFTSwap.sol\":3871:3936  require(_nft.ownerOf(_tokenId) == address(this), \"Invalid Order\") */\n      tag_45\n      jumpi\n      mload(0x40)\n      0x08c379a000000000000000000000000000000000000000000000000000000000\n      dup2\n      mstore\n      0x04\n      add\n      tag_46\n      swap1\n      tag_47\n      jump\t// in\n    tag_46:\n      mload(0x40)\n      dup1\n      swap2\n      sub\n      swap1\n      revert\n    tag_45:\n        /* \"103/NFTSwap.sol\":3996:4000  _nft */\n      dup1\n        /* \"103/NFTSwap.sol\":3996:4017  _nft.safeTransferFrom */\n      0xffffffffffffffffffffffffffffffffffffffff\n      and\n      0x42842e0e\n        /* \"103/NFTSwap.sol\":4026:4030  this */\n      address\n        /* \"103/NFTSwap.sol\":4033:4043  msg.sender */\n      caller\n        /* \"103/NFTSwap.sol\":4045:4053  _tokenId */\n      dup7\n        /* \"103/NFTSwap.sol\":3996:4054  _nft.safeTransferFrom(address(this), msg.sender, _tokenId) */\n      mload(0x40)\n      dup5\n      0xffffffff\n      and\n      0xe0\n      shl\n      dup2\n      mstore\n      0x04\n      add\n      tag_48\n      swap4\n      swap3\n      swap2\n      swap1\n      tag_49\n      jump\t// in\n    tag_48:\n      0x00\n      mload(0x40)\n      dup1\n      dup4\n      sub\n      dup2\n      0x00\n      dup8\n      dup1\n      extcodesize\n      iszero\n      dup1\n      iszero\n      tag_50\n      jumpi\n      revert(0x00, 0x00)\n    tag_50:\n      pop\n      gas\n      call\n      iszero\n      dup1\n      iszero\n      tag_52\n      jumpi\n      returndatacopy(0x00, 0x00, returndatasize)\n      revert(0x00, returndatasize)\n    tag_52:\n      pop\n      pop\n      pop\n      pop\n        /* \"103/NFTSwap.sol\":4102:4108  _order */\n      dup2\n        /* \"103/NFTSwap.sol\":4102:4114  _order.owner */\n      0x00\n      add\n      0x00\n      swap1\n      sload\n      swap1\n      0x0100\n      exp\n      swap1\n      div\n      0xffffffffffffffffffffffffffffffffffffffff\n      and\n        /* \"103/NFTSwap.sol\":4094:4124  payable(_order.owner).transfer */\n      0xffffffffffffffffffffffffffffffffffffffff\n      and\n        /* \"103/NFTSwap.sol\":4094:4138  payable(_order.owner).transfer(_order.price) */\n      0x08fc\n        /* \"103/NFTSwap.sol\":4125:4131  _order */\n      dup4\n        /* \"103/NFTSwap.sol\":4125:4137  _order.price */\n      0x01\n      add\n      sload\n        /* \"103/NFTSwap.sol\":4094:4138  payable(_order.owner).transfer(_order.price) */\n      swap1\n      dup2\n      iszero\n      mul\n      swap1\n      mload(0x40)\n      0x00\n      mload(0x40)\n      dup1\n      dup4\n      sub\n      dup2\n      dup6\n      dup9\n      dup9\n      call\n      swap4\n      pop\n      pop\n      pop\n      pop\n      iszero\n      dup1\n      iszero\n      tag_54\n      jumpi\n      returndatacopy(0x00, 0x00, returndatasize)\n      revert(0x00, returndatasize)\n    tag_54:\n      pop\n        /* \"103/NFTSwap.sol\":4200:4206  _order */\n      dup2\n        /* \"103/NFTSwap.sol\":4200:4212  _order.price */\n      0x01\n      add\n      sload\n        /* \"103/NFTSwap.sol\":4188:4197  msg.value */\n      callvalue\n        /* \"103/NFTSwap.sol\":4188:4212  msg.value > _order.price */\n      gt\n        /* \"103/NFTSwap.sol\":4184:4293  if (msg.value > _order.price) {... */\n      iszero\n      tag_55\n      jumpi\n        /* \"103/NFTSwap.sol\":4236:4246  msg.sender */\n      caller\n        /* \"103/NFTSwap.sol\":4228:4256  payable(msg.sender).transfer */\n      0xffffffffffffffffffffffffffffffffffffffff\n      and\n        /* \"103/NFTSwap.sol\":4228:4282  payable(msg.sender).transfer(msg.value - _order.price) */\n      0x08fc\n        /* \"103/NFTSwap.sol\":4269:4275  _order */\n      dup4\n        /* \"103/NFTSwap.sol\":4269:4281  _order.price */\n      0x01\n      add\n      sload\n        /* \"103/NFTSwap.sol\":4257:4266  msg.value */\n      callvalue\n        /* \"103/NFTSwap.sol\":4257:4281  msg.value - _order.price */\n      tag_56\n      swap2\n      swap1\n      tag_57\n      jump\t// in\n    tag_56:\n        /* \"103/NFTSwap.sol\":4228:4282  payable(msg.sender).transfer(msg.value - _order.price) */\n      swap1\n      dup2\n      iszero\n      mul\n      swap1\n      mload(0x40)\n      0x00\n      mload(0x40)\n      dup1\n      dup4\n      sub\n      dup2\n      dup6\n      dup9\n      dup9\n      call\n      swap4\n      pop\n      pop\n      pop\n      pop\n      iszero\n      dup1\n      iszero\n      tag_59\n      jumpi\n      returndatacopy(0x00, 0x00, returndatasize)\n      revert(0x00, returndatasize)\n    tag_59:\n      pop\n        /* \"103/NFTSwap.sol\":4184:4293  if (msg.value > _order.price) {... */\n    tag_55:\n        /* \"103/NFTSwap.sol\":4371:4379  _tokenId */\n      dup3\n        /* \"103/NFTSwap.sol\":4361:4369  _nftAddr */\n      dup5\n        /* \"103/NFTSwap.sol\":4340:4394  Purchase(msg.sender, _nftAddr, _tokenId, _order.price) */\n      0xffffffffffffffffffffffffffffffffffffffff\n      and\n        /* \"103/NFTSwap.sol\":4349:4359  msg.sender */\n      caller\n        /* \"103/NFTSwap.sol\":4340:4394  Purchase(msg.sender, _nftAddr, _tokenId, _order.price) */\n      0xffffffffffffffffffffffffffffffffffffffff\n      and\n      0x46661dab58311a6838247afecbee792192b4f27fc8b3e7168c66bc55ec2e404e\n        /* \"103/NFTSwap.sol\":4381:4387  _order */\n      dup6\n        /* \"103/NFTSwap.sol\":4381:4393  _order.price */\n      0x01\n      add\n      sload\n        /* \"103/NFTSwap.sol\":4340:4394  Purchase(msg.sender, _nftAddr, _tokenId, _order.price) */\n      mload(0x40)\n      tag_60\n      swap2\n      swap1\n      tag_40\n      jump\t// in\n    tag_60:\n      mload(0x40)\n      dup1\n      swap2\n      sub\n      swap1\n      log4\n        /* \"103/NFTSwap.sol\":4412:4419  nftList */\n      0x00\n        /* \"103/NFTSwap.sol\":4412:4429  nftList[_nftAddr] */\n      0x00\n        /* \"103/NFTSwap.sol\":4420:4428  _nftAddr */\n      dup6\n        /* \"103/NFTSwap.sol\":4412:4429  nftList[_nftAddr] */\n      0xffffffffffffffffffffffffffffffffffffffff\n      and\n      0xffffffffffffffffffffffffffffffffffffffff\n      and\n      dup2\n      mstore\n      0x20\n      add\n      swap1\n      dup2\n      mstore\n      0x20\n      add\n      0x00\n      keccak256\n        /* \"103/NFTSwap.sol\":4412:4439  nftList[_nftAddr][_tokenId] */\n      0x00\n        /* \"103/NFTSwap.sol\":4430:4438  _tokenId */\n      dup5\n        /* \"103/NFTSwap.sol\":4412:4439  nftList[_nftAddr][_tokenId] */\n      dup2\n      mstore\n      0x20\n      add\n      swap1\n      dup2\n      mstore\n      0x20\n      add\n      0x00\n      keccak256\n      0x00\n        /* \"103/NFTSwap.sol\":4405:4439  delete nftList[_nftAddr][_tokenId] */\n      0x00\n      dup3\n      add\n      exp(0x0100, 0x00)\n      dup2\n      sload\n      swap1\n      0xffffffffffffffffffffffffffffffffffffffff\n      mul\n      not\n      and\n      swap1\n      sstore\n      0x01\n      dup3\n      add\n      0x00\n      swap1\n      sstore\n      pop\n      pop\n        /* \"103/NFTSwap.sol\":3539:4461  {... */\n      pop\n      pop\n        /* \"103/NFTSwap.sol\":3470:4461  function purchase(address _nftAddr, uint256 _tokenId) public payable {... */\n      pop\n      pop\n      jump\t// out\n        /* \"103/NFTSwap.sol\":2691:3362  function update(address _nftAddr, uint256 _tokenId, uint256 _newPrice) public {... */\n    tag_22:\n        /* \"103/NFTSwap.sol\":2799:2800  0 */\n      0x00\n        /* \"103/NFTSwap.sol\":2787:2796  _newPrice */\n      dup2\n        /* \"103/NFTSwap.sol\":2787:2800  _newPrice > 0 */\n      gt\n        /* \"103/NFTSwap.sol\":2779:2818  require(_newPrice > 0, \"Invalid Price\") */\n      tag_62\n      jumpi\n      mload(0x40)\n      0x08c379a000000000000000000000000000000000000000000000000000000000\n      dup2\n      mstore\n      0x04\n      add\n      tag_63\n      swap1\n      tag_35\n      jump\t// in\n    tag_63:\n      mload(0x40)\n      dup1\n      swap2\n      sub\n      swap1\n      revert\n    tag_62:\n        /* \"103/NFTSwap.sol\":2848:2868  Order storage _order */\n      0x00\n        /* \"103/NFTSwap.sol\":2871:2878  nftList */\n      0x00\n        /* \"103/NFTSwap.sol\":2871:2888  nftList[_nftAddr] */\n      0x00\n        /* \"103/NFTSwap.sol\":2879:2887  _nftAddr */\n      dup6\n        /* \"103/NFTSwap.sol\":2871:2888  nftList[_nftAddr] */\n      0xffffffffffffffffffffffffffffffffffffffff\n      and\n      0xffffffffffffffffffffffffffffffffffffffff\n      and\n      dup2\n      mstore\n      0x20\n      add\n      swap1\n      dup2\n      mstore\n      0x20\n      add\n      0x00\n      keccak256\n        /* \"103/NFTSwap.sol\":2871:2898  nftList[_nftAddr][_tokenId] */\n      0x00\n        /* \"103/NFTSwap.sol\":2889:2897  _tokenId */\n      dup5\n        /* \"103/NFTSwap.sol\":2871:2898  nftList[_nftAddr][_tokenId] */\n      dup2\n      mstore\n      0x20\n      add\n      swap1\n      dup2\n      mstore\n      0x20\n      add\n      0x00\n      keccak256\n        /* \"103/NFTSwap.sol\":2848:2898  Order storage _order = nftList[_nftAddr][_tokenId] */\n      swap1\n      pop\n        /* \"103/NFTSwap.sol\":2955:2965  msg.sender */\n      caller\n        /* \"103/NFTSwap.sol\":2939:2965  _order.owner == msg.sender */\n      0xffffffffffffffffffffffffffffffffffffffff\n      and\n        /* \"103/NFTSwap.sol\":2939:2945  _order */\n      dup2\n        /* \"103/NFTSwap.sol\":2939:2951  _order.owner */\n      0x00\n      add\n      0x00\n      swap1\n      sload\n      swap1\n      0x0100\n      exp\n      swap1\n      div\n      0xffffffffffffffffffffffffffffffffffffffff\n      and\n        /* \"103/NFTSwap.sol\":2939:2965  _order.owner == msg.sender */\n      0xffffffffffffffffffffffffffffffffffffffff\n      and\n      eq\n        /* \"103/NFTSwap.sol\":2931:2979  require(_order.owner == msg.sender, \"Not Owner\") */\n      tag_64\n      jumpi\n      mload(0x40)\n      0x08c379a000000000000000000000000000000000000000000000000000000000\n      dup2\n      mstore\n      0x04\n      add\n      tag_65\n      swap1\n      tag_66\n      jump\t// in\n    tag_65:\n      mload(0x40)\n      dup1\n      swap2\n      sub\n      swap1\n      revert\n    tag_64:\n        /* \"103/NFTSwap.sol\":3060:3072  IERC721 _nft */\n      0x00\n        /* \"103/NFTSwap.sol\":3083:3091  _nftAddr */\n      dup5\n        /* \"103/NFTSwap.sol\":3060:3092  IERC721 _nft = IERC721(_nftAddr) */\n      swap1\n      pop\n        /* \"103/NFTSwap.sol\":3144:3148  this */\n      address\n        /* \"103/NFTSwap.sol\":3110:3149  _nft.ownerOf(_tokenId) == address(this) */\n      0xffffffffffffffffffffffffffffffffffffffff\n      and\n        /* \"103/NFTSwap.sol\":3110:3114  _nft */\n      dup2\n        /* \"103/NFTSwap.sol\":3110:3122  _nft.ownerOf */\n      0xffffffffffffffffffffffffffffffffffffffff\n      and\n      0x6352211e\n        /* \"103/NFTSwap.sol\":3123:3131  _tokenId */\n      dup7\n        /* \"103/NFTSwap.sol\":3110:3132  _nft.ownerOf(_tokenId) */\n      mload(0x40)\n      dup3\n      0xffffffff\n      and\n      0xe0\n      shl\n      dup2\n      mstore\n      0x04\n      add\n      tag_67\n      swap2\n      swap1\n      tag_40\n      jump\t// in\n    tag_67:\n      0x20\n      mload(0x40)\n      dup1\n      dup4\n      sub\n      dup2\n      dup7\n      gas\n      staticcall\n      iszero\n      dup1\n      iszero\n      tag_69\n      jumpi\n      returndatacopy(0x00, 0x00, returndatasize)\n      revert(0x00, returndatasize)\n    tag_69:\n      pop\n      pop\n      pop\n      pop\n      mload(0x40)\n      returndatasize\n      not(0x1f)\n      0x1f\n      dup3\n      add\n      and\n      dup3\n      add\n      dup1\n      0x40\n      mstore\n      pop\n      dup2\n      add\n      swap1\n      tag_70\n      swap2\n      swap1\n      tag_44\n      jump\t// in\n    tag_70:\n        /* \"103/NFTSwap.sol\":3110:3149  _nft.ownerOf(_tokenId) == address(this) */\n      0xffffffffffffffffffffffffffffffffffffffff\n      and\n      eq\n        /* \"103/NFTSwap.sol\":3102:3167  require(_nft.ownerOf(_tokenId) == address(this), \"Invalid Order\") */\n      tag_71\n      jumpi\n      mload(0x40)\n      0x08c379a000000000000000000000000000000000000000000000000000000000\n      dup2\n      mstore\n      0x04\n      add\n      tag_72\n      swap1\n      tag_47\n      jump\t// in\n    tag_72:\n      mload(0x40)\n      dup1\n      swap2\n      sub\n      swap1\n      revert\n    tag_71:\n        /* \"103/NFTSwap.sol\":3247:3256  _newPrice */\n      dup3\n        /* \"103/NFTSwap.sol\":3232:3238  _order */\n      dup3\n        /* \"103/NFTSwap.sol\":3232:3244  _order.price */\n      0x01\n      add\n        /* \"103/NFTSwap.sol\":3232:3256  _order.price = _newPrice */\n      dup2\n      swap1\n      sstore\n      pop\n        /* \"103/NFTSwap.sol\":3335:3343  _tokenId */\n      dup4\n        /* \"103/NFTSwap.sol\":3325:3333  _nftAddr */\n      dup6\n        /* \"103/NFTSwap.sol\":3306:3355  Update(msg.sender, _nftAddr, _tokenId, _newPrice) */\n      0xffffffffffffffffffffffffffffffffffffffff\n      and\n        /* \"103/NFTSwap.sol\":3313:3323  msg.sender */\n      caller\n        /* \"103/NFTSwap.sol\":3306:3355  Update(msg.sender, _nftAddr, _tokenId, _newPrice) */\n      0xffffffffffffffffffffffffffffffffffffffff\n      and\n      0xb7f0ca7cd5b24651672216886135b99ff40342bcf549009a4c6fc74f059fb9a0\n        /* \"103/NFTSwap.sol\":3345:3354  _newPrice */\n      dup7\n        /* \"103/NFTSwap.sol\":3306:3355  Update(msg.sender, _nftAddr, _tokenId, _newPrice) */\n      mload(0x40)\n      tag_73\n      swap2\n      swap1\n      tag_40\n      jump\t// in\n    tag_73:\n      mload(0x40)\n      dup1\n      swap2\n      sub\n      swap1\n      log4\n        /* \"103/NFTSwap.sol\":2769:3362  {... */\n      pop\n      pop\n        /* \"103/NFTSwap.sol\":2691:3362  function update(address _nftAddr, uint256 _tokenId, uint256 _newPrice) public {... */\n      pop\n      pop\n      pop\n      jump\t// out\n        /* \"103/NFTSwap.sol\":1282:1931  function list(address _nftAddr, uint256 _tokenId, uint256 _price) public{... */\n    tag_26:\n        /* \"103/NFTSwap.sol\":1364:1376  IERC721 _nft */\n      0x00\n        /* \"103/NFTSwap.sol\":1387:1395  _nftAddr */\n      dup4\n        /* \"103/NFTSwap.sol\":1364:1396  IERC721 _nft = IERC721(_nftAddr) */\n      swap1\n      pop\n        /* \"103/NFTSwap.sol\":1487:1491  this */\n      address\n        /* \"103/NFTSwap.sol\":1449:1492  _nft.getApproved(_tokenId) == address(this) */\n      0xffffffffffffffffffffffffffffffffffffffff\n      and\n        /* \"103/NFTSwap.sol\":1449:1453  _nft */\n      dup2\n        /* \"103/NFTSwap.sol\":1449:1465  _nft.getApproved */\n      0xffffffffffffffffffffffffffffffffffffffff\n      and\n      0x081812fc\n        /* \"103/NFTSwap.sol\":1466:1474  _tokenId */\n      dup6\n        /* \"103/NFTSwap.sol\":1449:1475  _nft.getApproved(_tokenId) */\n      mload(0x40)\n      dup3\n      0xffffffff\n      and\n      0xe0\n      shl\n      dup2\n      mstore\n      0x04\n      add\n      tag_75\n      swap2\n      swap1\n      tag_40\n      jump\t// in\n    tag_75:\n      0x20\n      mload(0x40)\n      dup1\n      dup4\n      sub\n      dup2\n      dup7\n      gas\n      staticcall\n      iszero\n      dup1\n      iszero\n      tag_77\n      jumpi\n      returndatacopy(0x00, 0x00, returndatasize)\n      revert(0x00, returndatasize)\n    tag_77:\n      pop\n      pop\n      pop\n      pop\n      mload(0x40)\n      returndatasize\n      not(0x1f)\n      0x1f\n      dup3\n      add\n      and\n      dup3\n      add\n      dup1\n      0x40\n      mstore\n      pop\n      dup2\n      add\n      swap1\n      tag_78\n      swap2\n      swap1\n      tag_44\n      jump\t// in\n    tag_78:\n        /* \"103/NFTSwap.sol\":1449:1492  _nft.getApproved(_tokenId) == address(this) */\n      0xffffffffffffffffffffffffffffffffffffffff\n      and\n      eq\n        /* \"103/NFTSwap.sol\":1441:1510  require(_nft.getApproved(_tokenId) == address(this), \"Need Approval\") */\n      tag_79\n      jumpi\n      mload(0x40)\n      0x08c379a000000000000000000000000000000000000000000000000000000000\n      dup2\n      mstore\n      0x04\n      add\n      tag_80\n      swap1\n      tag_81\n      jump\t// in\n    tag_80:\n      mload(0x40)\n      dup1\n      swap2\n      sub\n      swap1\n      revert\n    tag_79:\n        /* \"103/NFTSwap.sol\":1559:1560  0 */\n      0x00\n        /* \"103/NFTSwap.sol\":1550:1556  _price */\n      dup3\n        /* \"103/NFTSwap.sol\":1550:1560  _price > 0 */\n      gt\n        /* \"103/NFTSwap.sol\":1542:1561  require(_price > 0) */\n      tag_82\n      jumpi\n      revert(0x00, 0x00)\n    tag_82:\n        /* \"103/NFTSwap.sol\":1589:1609  Order storage _order */\n      0x00\n        /* \"103/NFTSwap.sol\":1612:1619  nftList */\n      0x00\n        /* \"103/NFTSwap.sol\":1612:1629  nftList[_nftAddr] */\n      0x00\n        /* \"103/NFTSwap.sol\":1620:1628  _nftAddr */\n      dup7\n        /* \"103/NFTSwap.sol\":1612:1629  nftList[_nftAddr] */\n      0xffffffffffffffffffffffffffffffffffffffff\n      and\n      0xffffffffffffffffffffffffffffffffffffffff\n      and\n      dup2\n      mstore\n      0x20\n      add\n      swap1\n      dup2\n      mstore\n      0x20\n      add\n      0x00\n      keccak256\n        /* \"103/NFTSwap.sol\":1612:1639  nftList[_nftAddr][_tokenId] */\n      0x00\n        /* \"103/NFTSwap.sol\":1630:1638  _tokenId */\n      dup6\n        /* \"103/NFTSwap.sol\":1612:1639  nftList[_nftAddr][_tokenId] */\n      dup2\n      mstore\n      0x20\n      add\n      swap1\n      dup2\n      mstore\n      0x20\n      add\n      0x00\n      keccak256\n        /* \"103/NFTSwap.sol\":1589:1639  Order storage _order = nftList[_nftAddr][_tokenId] */\n      swap1\n      pop\n        /* \"103/NFTSwap.sol\":1694:1704  msg.sender */\n      caller\n        /* \"103/NFTSwap.sol\":1679:1685  _order */\n      dup2\n        /* \"103/NFTSwap.sol\":1679:1691  _order.owner */\n      0x00\n      add\n      0x00\n        /* \"103/NFTSwap.sol\":1679:1704  _order.owner = msg.sender */\n      0x0100\n      exp\n      dup2\n      sload\n      dup2\n      0xffffffffffffffffffffffffffffffffffffffff\n      mul\n      not\n      and\n      swap1\n      dup4\n      0xffffffffffffffffffffffffffffffffffffffff\n      and\n      mul\n      or\n      swap1\n      sstore\n      pop\n        /* \"103/NFTSwap.sol\":1729:1735  _price */\n      dup3\n        /* \"103/NFTSwap.sol\":1714:1720  _order */\n      dup2\n        /* \"103/NFTSwap.sol\":1714:1726  _order.price */\n      0x01\n      add\n        /* \"103/NFTSwap.sol\":1714:1735  _order.price = _price */\n      dup2\n      swap1\n      sstore\n      pop\n        /* \"103/NFTSwap.sol\":1778:1782  _nft */\n      dup2\n        /* \"103/NFTSwap.sol\":1778:1799  _nft.safeTransferFrom */\n      0xffffffffffffffffffffffffffffffffffffffff\n      and\n      0x42842e0e\n        /* \"103/NFTSwap.sol\":1800:1810  msg.sender */\n      caller\n        /* \"103/NFTSwap.sol\":1820:1824  this */\n      address\n        /* \"103/NFTSwap.sol\":1827:1835  _tokenId */\n      dup8\n        /* \"103/NFTSwap.sol\":1778:1836  _nft.safeTransferFrom(msg.sender, address(this), _tokenId) */\n      mload(0x40)\n      dup5\n      0xffffffff\n      and\n      0xe0\n      shl\n      dup2\n      mstore\n      0x04\n      add\n      tag_83\n      swap4\n      swap3\n      swap2\n      swap1\n      tag_49\n      jump\t// in\n    tag_83:\n      0x00\n      mload(0x40)\n      dup1\n      dup4\n      sub\n      dup2\n      0x00\n      dup8\n      dup1\n      extcodesize\n      iszero\n      dup1\n      iszero\n      tag_84\n      jumpi\n      revert(0x00, 0x00)\n    tag_84:\n      pop\n      gas\n      call\n      iszero\n      dup1\n      iszero\n      tag_86\n      jumpi\n      returndatacopy(0x00, 0x00, returndatasize)\n      revert(0x00, returndatasize)\n    tag_86:\n      pop\n      pop\n      pop\n      pop\n        /* \"103/NFTSwap.sol\":1907:1915  _tokenId */\n      dup4\n        /* \"103/NFTSwap.sol\":1897:1905  _nftAddr */\n      dup6\n        /* \"103/NFTSwap.sol\":1880:1924  List(msg.sender, _nftAddr, _tokenId, _price) */\n      0xffffffffffffffffffffffffffffffffffffffff\n      and\n        /* \"103/NFTSwap.sol\":1885:1895  msg.sender */\n      caller\n        /* \"103/NFTSwap.sol\":1880:1924  List(msg.sender, _nftAddr, _tokenId, _price) */\n      0xffffffffffffffffffffffffffffffffffffffff\n      and\n      0xedbdf022944a3291f4b30148903a84720506f48e10478ec5812e5caf30e1fab0\n        /* \"103/NFTSwap.sol\":1917:1923  _price */\n      dup7\n        /* \"103/NFTSwap.sol\":1880:1924  List(msg.sender, _nftAddr, _tokenId, _price) */\n      mload(0x40)\n      tag_87\n      swap2\n      swap1\n      tag_40\n      jump\t// in\n    tag_87:\n      mload(0x40)\n      dup1\n      swap2\n      sub\n      swap1\n      log4\n        /* \"103/NFTSwap.sol\":1354:1931  {... */\n      pop\n      pop\n        /* \"103/NFTSwap.sol\":1282:1931  function list(address _nftAddr, uint256 _tokenId, uint256 _price) public{... */\n      pop\n      pop\n      pop\n      jump\t// out\n        /* \"103/NFTSwap.sol\":1972:2640  function revoke(address _nftAddr, uint256 _tokenId) public {... */\n    tag_30:\n        /* \"103/NFTSwap.sol\":2041:2061  Order storage _order */\n      0x00\n        /* \"103/NFTSwap.sol\":2064:2071  nftList */\n      0x00\n        /* \"103/NFTSwap.sol\":2064:2081  nftList[_nftAddr] */\n      0x00\n        /* \"103/NFTSwap.sol\":2072:2080  _nftAddr */\n      dup5\n        /* \"103/NFTSwap.sol\":2064:2081  nftList[_nftAddr] */\n      0xffffffffffffffffffffffffffffffffffffffff\n      and\n      0xffffffffffffffffffffffffffffffffffffffff\n      and\n      dup2\n      mstore\n      0x20\n      add\n      swap1\n      dup2\n      mstore\n      0x20\n      add\n      0x00\n      keccak256\n        /* \"103/NFTSwap.sol\":2064:2091  nftList[_nftAddr][_tokenId] */\n      0x00\n        /* \"103/NFTSwap.sol\":2082:2090  _tokenId */\n      dup4\n        /* \"103/NFTSwap.sol\":2064:2091  nftList[_nftAddr][_tokenId] */\n      dup2\n      mstore\n      0x20\n      add\n      swap1\n      dup2\n      mstore\n      0x20\n      add\n      0x00\n      keccak256\n        /* \"103/NFTSwap.sol\":2041:2091  Order storage _order = nftList[_nftAddr][_tokenId] */\n      swap1\n      pop\n        /* \"103/NFTSwap.sol\":2148:2158  msg.sender */\n      caller\n        /* \"103/NFTSwap.sol\":2132:2158  _order.owner == msg.sender */\n      0xffffffffffffffffffffffffffffffffffffffff\n      and\n        /* \"103/NFTSwap.sol\":2132:2138  _order */\n      dup2\n        /* \"103/NFTSwap.sol\":2132:2144  _order.owner */\n      0x00\n      add\n      0x00\n      swap1\n      sload\n      swap1\n      0x0100\n      exp\n      swap1\n      div\n      0xffffffffffffffffffffffffffffffffffffffff\n      and\n        /* \"103/NFTSwap.sol\":2132:2158  _order.owner == msg.sender */\n      0xffffffffffffffffffffffffffffffffffffffff\n      and\n      eq\n        /* \"103/NFTSwap.sol\":2124:2172  require(_order.owner == msg.sender, \"Not Owner\") */\n      tag_89\n      jumpi\n      mload(0x40)\n      0x08c379a000000000000000000000000000000000000000000000000000000000\n      dup2\n      mstore\n      0x04\n      add\n      tag_90\n      swap1\n      tag_66\n      jump\t// in\n    tag_90:\n      mload(0x40)\n      dup1\n      swap2\n      sub\n      swap1\n      revert\n    tag_89:\n        /* \"103/NFTSwap.sol\":2253:2265  IERC721 _nft */\n      0x00\n        /* \"103/NFTSwap.sol\":2276:2284  _nftAddr */\n      dup4\n        /* \"103/NFTSwap.sol\":2253:2285  IERC721 _nft = IERC721(_nftAddr) */\n      swap1\n      pop\n        /* \"103/NFTSwap.sol\":2337:2341  this */\n      address\n        /* \"103/NFTSwap.sol\":2303:2342  _nft.ownerOf(_tokenId) == address(this) */\n      0xffffffffffffffffffffffffffffffffffffffff\n      and\n        /* \"103/NFTSwap.sol\":2303:2307  _nft */\n      dup2\n        /* \"103/NFTSwap.sol\":2303:2315  _nft.ownerOf */\n      0xffffffffffffffffffffffffffffffffffffffff\n      and\n      0x6352211e\n        /* \"103/NFTSwap.sol\":2316:2324  _tokenId */\n      dup6\n        /* \"103/NFTSwap.sol\":2303:2325  _nft.ownerOf(_tokenId) */\n      mload(0x40)\n      dup3\n      0xffffffff\n      and\n      0xe0\n      shl\n      dup2\n      mstore\n      0x04\n      add\n      tag_91\n      swap2\n      swap1\n      tag_40\n      jump\t// in\n    tag_91:\n      0x20\n      mload(0x40)\n      dup1\n      dup4\n      sub\n      dup2\n      dup7\n      gas\n      staticcall\n      iszero\n      dup1\n      iszero\n      tag_93\n      jumpi\n      returndatacopy(0x00, 0x00, returndatasize)\n      revert(0x00, returndatasize)\n    tag_93:\n      pop\n      pop\n      pop\n      pop\n      mload(0x40)\n      returndatasize\n      not(0x1f)\n      0x1f\n      dup3\n      add\n      and\n      dup3\n      add\n      dup1\n      0x40\n      mstore\n      pop\n      dup2\n      add\n      swap1\n      tag_94\n      swap2\n      swap1\n      tag_44\n      jump\t// in\n    tag_94:\n        /* \"103/NFTSwap.sol\":2303:2342  _nft.ownerOf(_tokenId) == address(this) */\n      0xffffffffffffffffffffffffffffffffffffffff\n      and\n      eq\n        /* \"103/NFTSwap.sol\":2295:2360  require(_nft.ownerOf(_tokenId) == address(this), \"Invalid Order\") */\n      tag_95\n      jumpi\n      mload(0x40)\n      0x08c379a000000000000000000000000000000000000000000000000000000000\n      dup2\n      mstore\n      0x04\n      add\n      tag_96\n      swap1\n      tag_47\n      jump\t// in\n    tag_96:\n      mload(0x40)\n      dup1\n      swap2\n      sub\n      swap1\n      revert\n    tag_95:\n        /* \"103/NFTSwap.sol\":2428:2432  _nft */\n      dup1\n        /* \"103/NFTSwap.sol\":2428:2449  _nft.safeTransferFrom */\n      0xffffffffffffffffffffffffffffffffffffffff\n      and\n      0x42842e0e\n        /* \"103/NFTSwap.sol\":2458:2462  this */\n      address\n        /* \"103/NFTSwap.sol\":2465:2475  msg.sender */\n      caller\n        /* \"103/NFTSwap.sol\":2477:2485  _tokenId */\n      dup7\n        /* \"103/NFTSwap.sol\":2428:2486  _nft.safeTransferFrom(address(this), msg.sender, _tokenId) */\n      mload(0x40)\n      dup5\n      0xffffffff\n      and\n      0xe0\n      shl\n      dup2\n      mstore\n      0x04\n      add\n      tag_97\n      swap4\n      swap3\n      swap2\n      swap1\n      tag_49\n      jump\t// in\n    tag_97:\n      0x00\n      mload(0x40)\n      dup1\n      dup4\n      sub\n      dup2\n      0x00\n      dup8\n      dup1\n      extcodesize\n      iszero\n      dup1\n      iszero\n      tag_98\n      jumpi\n      revert(0x00, 0x00)\n    tag_98:\n      pop\n      gas\n      call\n      iszero\n      dup1\n      iszero\n      tag_100\n      jumpi\n      returndatacopy(0x00, 0x00, returndatasize)\n      revert(0x00, returndatasize)\n    tag_100:\n      pop\n      pop\n      pop\n      pop\n        /* \"103/NFTSwap.sol\":2503:2510  nftList */\n      0x00\n        /* \"103/NFTSwap.sol\":2503:2520  nftList[_nftAddr] */\n      0x00\n        /* \"103/NFTSwap.sol\":2511:2519  _nftAddr */\n      dup6\n        /* \"103/NFTSwap.sol\":2503:2520  nftList[_nftAddr] */\n      0xffffffffffffffffffffffffffffffffffffffff\n      and\n      0xffffffffffffffffffffffffffffffffffffffff\n      and\n      dup2\n      mstore\n      0x20\n      add\n      swap1\n      dup2\n      mstore\n      0x20\n      add\n      0x00\n      keccak256\n        /* \"103/NFTSwap.sol\":2503:2530  nftList[_nftAddr][_tokenId] */\n      0x00\n        /* \"103/NFTSwap.sol\":2521:2529  _tokenId */\n      dup5\n        /* \"103/NFTSwap.sol\":2503:2530  nftList[_nftAddr][_tokenId] */\n      dup2\n      mstore\n      0x20\n      add\n      swap1\n      dup2\n      mstore\n      0x20\n      add\n      0x00\n      keccak256\n      0x00\n        /* \"103/NFTSwap.sol\":2496:2530  delete nftList[_nftAddr][_tokenId] */\n      0x00\n      dup3\n      add\n      exp(0x0100, 0x00)\n      dup2\n      sload\n      swap1\n      0xffffffffffffffffffffffffffffffffffffffff\n      mul\n      not\n      and\n      swap1\n      sstore\n      0x01\n      dup3\n      add\n      0x00\n      swap1\n      sstore\n      pop\n      pop\n        /* \"103/NFTSwap.sol\":2624:2632  _tokenId */\n      dup3\n        /* \"103/NFTSwap.sol\":2614:2622  _nftAddr */\n      dup5\n        /* \"103/NFTSwap.sol\":2595:2633  Revoke(msg.sender, _nftAddr, _tokenId) */\n      0xffffffffffffffffffffffffffffffffffffffff\n      and\n        /* \"103/NFTSwap.sol\":2602:2612  msg.sender */\n      caller\n        /* \"103/NFTSwap.sol\":2595:2633  Revoke(msg.sender, _nftAddr, _tokenId) */\n      0xffffffffffffffffffffffffffffffffffffffff\n      and\n      0xb698e31a2abee5824d0d7bcfd2339aead7f9e9ae413fba50bf554ff3fa470b7b\n      mload(0x40)\n      mload(0x40)\n      dup1\n      swap2\n      sub\n      swap1\n      log4\n        /* \"103/NFTSwap.sol\":2031:2640  {... */\n      pop\n      pop\n        /* \"103/NFTSwap.sol\":1972:2640  function revoke(address _nftAddr, uint256 _tokenId) public {... */\n      pop\n      pop\n      jump\t// out\n        /* \"#utility.yul\":88:205   */\n    tag_102:\n        /* \"#utility.yul\":197:198   */\n      0x00\n        /* \"#utility.yul\":194:195   */\n      0x00\n        /* \"#utility.yul\":187:199   */\n      revert\n        /* \"#utility.yul\":211:328   */\n    tag_103:\n        /* \"#utility.yul\":320:321   */\n      0x00\n        /* \"#utility.yul\":317:318   */\n      0x00\n        /* \"#utility.yul\":310:322   */\n      revert\n        /* \"#utility.yul\":334:460   */\n    tag_104:\n        /* \"#utility.yul\":371:378   */\n      0x00\n        /* \"#utility.yul\":411:453   */\n      0xffffffffffffffffffffffffffffffffffffffff\n        /* \"#utility.yul\":404:409   */\n      dup3\n        /* \"#utility.yul\":400:454   */\n      and\n        /* \"#utility.yul\":389:454   */\n      swap1\n      pop\n        /* \"#utility.yul\":334:460   */\n      swap2\n      swap1\n      pop\n      jump\t// out\n        /* \"#utility.yul\":466:562   */\n    tag_105:\n        /* \"#utility.yul\":503:510   */\n      0x00\n        /* \"#utility.yul\":532:556   */\n      tag_138\n        /* \"#utility.yul\":550:555   */\n      dup3\n        /* \"#utility.yul\":532:556   */\n      tag_104\n      jump\t// in\n    tag_138:\n        /* \"#utility.yul\":521:556   */\n      swap1\n      pop\n        /* \"#utility.yul\":466:562   */\n      swap2\n      swap1\n      pop\n      jump\t// out\n        /* \"#utility.yul\":568:690   */\n    tag_106:\n        /* \"#utility.yul\":641:665   */\n      tag_140\n        /* \"#utility.yul\":659:664   */\n      dup2\n        /* \"#utility.yul\":641:665   */\n      tag_105\n      jump\t// in\n    tag_140:\n        /* \"#utility.yul\":634:639   */\n      dup2\n        /* \"#utility.yul\":631:666   */\n      eq\n        /* \"#utility.yul\":621:684   */\n      tag_141\n      jumpi\n        /* \"#utility.yul\":680:681   */\n      0x00\n        /* \"#utility.yul\":677:678   */\n      0x00\n        /* \"#utility.yul\":670:682   */\n      revert\n        /* \"#utility.yul\":621:684   */\n    tag_141:\n        /* \"#utility.yul\":568:690   */\n      pop\n      jump\t// out\n        /* \"#utility.yul\":696:835   */\n    tag_107:\n        /* \"#utility.yul\":742:747   */\n      0x00\n        /* \"#utility.yul\":780:786   */\n      dup2\n        /* \"#utility.yul\":767:787   */\n      calldataload\n        /* \"#utility.yul\":758:787   */\n      swap1\n      pop\n        /* \"#utility.yul\":796:829   */\n      tag_143\n        /* \"#utility.yul\":823:828   */\n      dup2\n        /* \"#utility.yul\":796:829   */\n      tag_106\n      jump\t// in\n    tag_143:\n        /* \"#utility.yul\":696:835   */\n      swap3\n      swap2\n      pop\n      pop\n      jump\t// out\n        /* \"#utility.yul\":841:918   */\n    tag_108:\n        /* \"#utility.yul\":878:885   */\n      0x00\n        /* \"#utility.yul\":907:912   */\n      dup2\n        /* \"#utility.yul\":896:912   */\n      swap1\n      pop\n        /* \"#utility.yul\":841:918   */\n      swap2\n      swap1\n      pop\n      jump\t// out\n        /* \"#utility.yul\":924:1046   */\n    tag_109:\n        /* \"#utility.yul\":997:1021   */\n      tag_146\n        /* \"#utility.yul\":1015:1020   */\n      dup2\n        /* \"#utility.yul\":997:1021   */\n      tag_108\n      jump\t// in\n    tag_146:\n        /* \"#utility.yul\":990:995   */\n      dup2\n        /* \"#utility.yul\":987:1022   */\n      eq\n        /* \"#utility.yul\":977:1040   */\n      tag_147\n      jumpi\n        /* \"#utility.yul\":1036:1037   */\n      0x00\n        /* \"#utility.yul\":1033:1034   */\n      0x00\n        /* \"#utility.yul\":1026:1038   */\n      revert\n        /* \"#utility.yul\":977:1040   */\n    tag_147:\n        /* \"#utility.yul\":924:1046   */\n      pop\n      jump\t// out\n        /* \"#utility.yul\":1052:1191   */\n    tag_110:\n        /* \"#utility.yul\":1098:1103   */\n      0x00\n        /* \"#utility.yul\":1136:1142   */\n      dup2\n        /* \"#utility.yul\":1123:1143   */\n      calldataload\n        /* \"#utility.yul\":1114:1143   */\n      swap1\n      pop\n        /* \"#utility.yul\":1152:1185   */\n      tag_149\n        /* \"#utility.yul\":1179:1184   */\n      dup2\n        /* \"#utility.yul\":1152:1185   */\n      tag_109\n      jump\t// in\n    tag_149:\n        /* \"#utility.yul\":1052:1191   */\n      swap3\n      swap2\n      pop\n      pop\n      jump\t// out\n        /* \"#utility.yul\":1197:1314   */\n    tag_111:\n        /* \"#utility.yul\":1306:1307   */\n      0x00\n        /* \"#utility.yul\":1303:1304   */\n      0x00\n        /* \"#utility.yul\":1296:1308   */\n      revert\n        /* \"#utility.yul\":1320:1437   */\n    tag_112:\n        /* \"#utility.yul\":1429:1430   */\n      0x00\n        /* \"#utility.yul\":1426:1427   */\n      0x00\n        /* \"#utility.yul\":1419:1431   */\n      revert\n        /* \"#utility.yul\":1443:1560   */\n    tag_113:\n        /* \"#utility.yul\":1552:1553   */\n      0x00\n        /* \"#utility.yul\":1549:1550   */\n      0x00\n        /* \"#utility.yul\":1542:1554   */\n      revert\n        /* \"#utility.yul\":1579:2131   */\n    tag_114:\n        /* \"#utility.yul\":1636:1644   */\n      0x00\n        /* \"#utility.yul\":1646:1652   */\n      0x00\n        /* \"#utility.yul\":1696:1699   */\n      dup4\n        /* \"#utility.yul\":1689:1693   */\n      0x1f\n        /* \"#utility.yul\":1681:1687   */\n      dup5\n        /* \"#utility.yul\":1677:1694   */\n      add\n        /* \"#utility.yul\":1673:1700   */\n      slt\n        /* \"#utility.yul\":1663:1785   */\n      tag_154\n      jumpi\n        /* \"#utility.yul\":1704:1783   */\n      tag_155\n      tag_111\n      jump\t// in\n    tag_155:\n        /* \"#utility.yul\":1663:1785   */\n    tag_154:\n        /* \"#utility.yul\":1817:1823   */\n      dup3\n        /* \"#utility.yul\":1804:1824   */\n      calldataload\n        /* \"#utility.yul\":1794:1824   */\n      swap1\n      pop\n        /* \"#utility.yul\":1847:1865   */\n      0xffffffffffffffff\n        /* \"#utility.yul\":1839:1845   */\n      dup2\n        /* \"#utility.yul\":1836:1866   */\n      gt\n        /* \"#utility.yul\":1833:1950   */\n      iszero\n      tag_156\n      jumpi\n        /* \"#utility.yul\":1869:1948   */\n      tag_157\n      tag_112\n      jump\t// in\n    tag_157:\n        /* \"#utility.yul\":1833:1950   */\n    tag_156:\n        /* \"#utility.yul\":1983:1987   */\n      0x20\n        /* \"#utility.yul\":1975:1981   */\n      dup4\n        /* \"#utility.yul\":1971:1988   */\n      add\n        /* \"#utility.yul\":1959:1988   */\n      swap2\n      pop\n        /* \"#utility.yul\":2037:2040   */\n      dup4\n        /* \"#utility.yul\":2029:2033   */\n      0x01\n        /* \"#utility.yul\":2021:2027   */\n      dup3\n        /* \"#utility.yul\":2017:2034   */\n      mul\n        /* \"#utility.yul\":2007:2015   */\n      dup4\n        /* \"#utility.yul\":2003:2035   */\n      add\n        /* \"#utility.yul\":2000:2041   */\n      gt\n        /* \"#utility.yul\":1997:2125   */\n      iszero\n      tag_158\n      jumpi\n        /* \"#utility.yul\":2044:2123   */\n      tag_159\n      tag_113\n      jump\t// in\n    tag_159:\n        /* \"#utility.yul\":1997:2125   */\n    tag_158:\n        /* \"#utility.yul\":1579:2131   */\n      swap3\n      pop\n      swap3\n      swap1\n      pop\n      jump\t// out\n        /* \"#utility.yul\":2137:3100   */\n    tag_10:\n        /* \"#utility.yul\":2234:2240   */\n      0x00\n        /* \"#utility.yul\":2242:2248   */\n      0x00\n        /* \"#utility.yul\":2250:2256   */\n      0x00\n        /* \"#utility.yul\":2258:2264   */\n      0x00\n        /* \"#utility.yul\":2266:2272   */\n      0x00\n        /* \"#utility.yul\":2315:2318   */\n      0x80\n        /* \"#utility.yul\":2303:2312   */\n      dup7\n        /* \"#utility.yul\":2294:2301   */\n      dup9\n        /* \"#utility.yul\":2290:2313   */\n      sub\n        /* \"#utility.yul\":2286:2319   */\n      slt\n        /* \"#utility.yul\":2283:2403   */\n      iszero\n      tag_161\n      jumpi\n        /* \"#utility.yul\":2322:2401   */\n      tag_162\n      tag_102\n      jump\t// in\n    tag_162:\n        /* \"#utility.yul\":2283:2403   */\n    tag_161:\n        /* \"#utility.yul\":2442:2443   */\n      0x00\n        /* \"#utility.yul\":2467:2520   */\n      tag_163\n        /* \"#utility.yul\":2512:2519   */\n      dup9\n        /* \"#utility.yul\":2503:2509   */\n      dup3\n        /* \"#utility.yul\":2492:2501   */\n      dup10\n        /* \"#utility.yul\":2488:2510   */\n      add\n        /* \"#utility.yul\":2467:2520   */\n      tag_107\n      jump\t// in\n    tag_163:\n        /* \"#utility.yul\":2457:2520   */\n      swap6\n      pop\n        /* \"#utility.yul\":2413:2530   */\n      pop\n        /* \"#utility.yul\":2569:2571   */\n      0x20\n        /* \"#utility.yul\":2595:2648   */\n      tag_164\n        /* \"#utility.yul\":2640:2647   */\n      dup9\n        /* \"#utility.yul\":2631:2637   */\n      dup3\n        /* \"#utility.yul\":2620:2629   */\n      dup10\n        /* \"#utility.yul\":2616:2638   */\n      add\n        /* \"#utility.yul\":2595:2648   */\n      tag_107\n      jump\t// in\n    tag_164:\n        /* \"#utility.yul\":2585:2648   */\n      swap5\n      pop\n        /* \"#utility.yul\":2540:2658   */\n      pop\n        /* \"#utility.yul\":2697:2699   */\n      0x40\n        /* \"#utility.yul\":2723:2776   */\n      tag_165\n        /* \"#utility.yul\":2768:2775   */\n      dup9\n        /* \"#utility.yul\":2759:2765   */\n      dup3\n        /* \"#utility.yul\":2748:2757   */\n      dup10\n        /* \"#utility.yul\":2744:2766   */\n      add\n        /* \"#utility.yul\":2723:2776   */\n      tag_110\n      jump\t// in\n    tag_165:\n        /* \"#utility.yul\":2713:2776   */\n      swap4\n      pop\n        /* \"#utility.yul\":2668:2786   */\n      pop\n        /* \"#utility.yul\":2853:2855   */\n      0x60\n        /* \"#utility.yul\":2842:2851   */\n      dup7\n        /* \"#utility.yul\":2838:2856   */\n      add\n        /* \"#utility.yul\":2825:2857   */\n      calldataload\n        /* \"#utility.yul\":2884:2902   */\n      0xffffffffffffffff\n        /* \"#utility.yul\":2876:2882   */\n      dup2\n        /* \"#utility.yul\":2873:2903   */\n      gt\n        /* \"#utility.yul\":2870:2987   */\n      iszero\n      tag_166\n      jumpi\n        /* \"#utility.yul\":2906:2985   */\n      tag_167\n      tag_103\n      jump\t// in\n    tag_167:\n        /* \"#utility.yul\":2870:2987   */\n    tag_166:\n        /* \"#utility.yul\":3019:3083   */\n      tag_168\n        /* \"#utility.yul\":3075:3082   */\n      dup9\n        /* \"#utility.yul\":3066:3072   */\n      dup3\n        /* \"#utility.yul\":3055:3064   */\n      dup10\n        /* \"#utility.yul\":3051:3073   */\n      add\n        /* \"#utility.yul\":3019:3083   */\n      tag_114\n      jump\t// in\n    tag_168:\n        /* \"#utility.yul\":3001:3083   */\n      swap3\n      pop\n      swap3\n      pop\n        /* \"#utility.yul\":2796:3093   */\n      pop\n        /* \"#utility.yul\":2137:3100   */\n      swap3\n      swap6\n      pop\n      swap3\n      swap6\n      swap1\n      swap4\n      pop\n      jump\t// out\n        /* \"#utility.yul\":3106:3255   */\n    tag_115:\n        /* \"#utility.yul\":3142:3149   */\n      0x00\n        /* \"#utility.yul\":3182:3248   */\n      0xffffffff00000000000000000000000000000000000000000000000000000000\n        /* \"#utility.yul\":3175:3180   */\n      dup3\n        /* \"#utility.yul\":3171:3249   */\n      and\n        /* \"#utility.yul\":3160:3249   */\n      swap1\n      pop\n        /* \"#utility.yul\":3106:3255   */\n      swap2\n      swap1\n      pop\n      jump\t// out\n        /* \"#utility.yul\":3261:3376   */\n    tag_116:\n        /* \"#utility.yul\":3346:3369   */\n      tag_171\n        /* \"#utility.yul\":3363:3368   */\n      dup2\n        /* \"#utility.yul\":3346:3369   */\n      tag_115\n      jump\t// in\n    tag_171:\n        /* \"#utility.yul\":3341:3344   */\n      dup3\n        /* \"#utility.yul\":3334:3370   */\n      mstore\n        /* \"#utility.yul\":3261:3376   */\n      pop\n      pop\n      jump\t// out\n        /* \"#utility.yul\":3382:3600   */\n    tag_13:\n        /* \"#utility.yul\":3473:3477   */\n      0x00\n        /* \"#utility.yul\":3511:3513   */\n      0x20\n        /* \"#utility.yul\":3500:3509   */\n      dup3\n        /* \"#utility.yul\":3496:3514   */\n      add\n        /* \"#utility.yul\":3488:3514   */\n      swap1\n      pop\n        /* \"#utility.yul\":3524:3593   */\n      tag_173\n        /* \"#utility.yul\":3590:3591   */\n      0x00\n        /* \"#utility.yul\":3579:3588   */\n      dup4\n        /* \"#utility.yul\":3575:3592   */\n      add\n        /* \"#utility.yul\":3566:3572   */\n      dup5\n        /* \"#utility.yul\":3524:3593   */\n      tag_116\n      jump\t// in\n    tag_173:\n        /* \"#utility.yul\":3382:3600   */\n      swap3\n      swap2\n      pop\n      pop\n      jump\t// out\n        /* \"#utility.yul\":3606:4080   */\n    tag_16:\n        /* \"#utility.yul\":3674:3680   */\n      0x00\n        /* \"#utility.yul\":3682:3688   */\n      0x00\n        /* \"#utility.yul\":3731:3733   */\n      0x40\n        /* \"#utility.yul\":3719:3728   */\n      dup4\n        /* \"#utility.yul\":3710:3717   */\n      dup6\n        /* \"#utility.yul\":3706:3729   */\n      sub\n        /* \"#utility.yul\":3702:3734   */\n      slt\n        /* \"#utility.yul\":3699:3818   */\n      iszero\n      tag_175\n      jumpi\n        /* \"#utility.yul\":3737:3816   */\n      tag_176\n      tag_102\n      jump\t// in\n    tag_176:\n        /* \"#utility.yul\":3699:3818   */\n    tag_175:\n        /* \"#utility.yul\":3857:3858   */\n      0x00\n        /* \"#utility.yul\":3882:3935   */\n      tag_177\n        /* \"#utility.yul\":3927:3934   */\n      dup6\n        /* \"#utility.yul\":3918:3924   */\n      dup3\n        /* \"#utility.yul\":3907:3916   */\n      dup7\n        /* \"#utility.yul\":3903:3925   */\n      add\n        /* \"#utility.yul\":3882:3935   */\n      tag_107\n      jump\t// in\n    tag_177:\n        /* \"#utility.yul\":3872:3935   */\n      swap3\n      pop\n        /* \"#utility.yul\":3828:3945   */\n      pop\n        /* \"#utility.yul\":3984:3986   */\n      0x20\n        /* \"#utility.yul\":4010:4063   */\n      tag_178\n        /* \"#utility.yul\":4055:4062   */\n      dup6\n        /* \"#utility.yul\":4046:4052   */\n      dup3\n        /* \"#utility.yul\":4035:4044   */\n      dup7\n        /* \"#utility.yul\":4031:4053   */\n      add\n        /* \"#utility.yul\":4010:4063   */\n      tag_110\n      jump\t// in\n    tag_178:\n        /* \"#utility.yul\":4000:4063   */\n      swap2\n      pop\n        /* \"#utility.yul\":3955:4073   */\n      pop\n        /* \"#utility.yul\":3606:4080   */\n      swap3\n      pop\n      swap3\n      swap1\n      pop\n      jump\t// out\n        /* \"#utility.yul\":4086:4705   */\n    tag_21:\n        /* \"#utility.yul\":4163:4169   */\n      0x00\n        /* \"#utility.yul\":4171:4177   */\n      0x00\n        /* \"#utility.yul\":4179:4185   */\n      0x00\n        /* \"#utility.yul\":4228:4230   */\n      0x60\n        /* \"#utility.yul\":4216:4225   */\n      dup5\n        /* \"#utility.yul\":4207:4214   */\n      dup7\n        /* \"#utility.yul\":4203:4226   */\n      sub\n        /* \"#utility.yul\":4199:4231   */\n      slt\n        /* \"#utility.yul\":4196:4315   */\n      iszero\n      tag_180\n      jumpi\n        /* \"#utility.yul\":4234:4313   */\n      tag_181\n      tag_102\n      jump\t// in\n    tag_181:\n        /* \"#utility.yul\":4196:4315   */\n    tag_180:\n        /* \"#utility.yul\":4354:4355   */\n      0x00\n        /* \"#utility.yul\":4379:4432   */\n      tag_182\n        /* \"#utility.yul\":4424:4431   */\n      dup7\n        /* \"#utility.yul\":4415:4421   */\n      dup3\n        /* \"#utility.yul\":4404:4413   */\n      dup8\n        /* \"#utility.yul\":4400:4422   */\n      add\n        /* \"#utility.yul\":4379:4432   */\n      tag_107\n      jump\t// in\n    tag_182:\n        /* \"#utility.yul\":4369:4432   */\n      swap4\n      pop\n        /* \"#utility.yul\":4325:4442   */\n      pop\n        /* \"#utility.yul\":4481:4483   */\n      0x20\n        /* \"#utility.yul\":4507:4560   */\n      tag_183\n        /* \"#utility.yul\":4552:4559   */\n      dup7\n        /* \"#utility.yul\":4543:4549   */\n      dup3\n        /* \"#utility.yul\":4532:4541   */\n      dup8\n        /* \"#utility.yul\":4528:4550   */\n      add\n        /* \"#utility.yul\":4507:4560   */\n      tag_110\n      jump\t// in\n    tag_183:\n        /* \"#utility.yul\":4497:4560   */\n      swap3\n      pop\n        /* \"#utility.yul\":4452:4570   */\n      pop\n        /* \"#utility.yul\":4609:4611   */\n      0x40\n        /* \"#utility.yul\":4635:4688   */\n      tag_184\n        /* \"#utility.yul\":4680:4687   */\n      dup7\n        /* \"#utility.yul\":4671:4677   */\n      dup3\n        /* \"#utility.yul\":4660:4669   */\n      dup8\n        /* \"#utility.yul\":4656:4678   */\n      add\n        /* \"#utility.yul\":4635:4688   */\n      tag_110\n      jump\t// in\n    tag_184:\n        /* \"#utility.yul\":4625:4688   */\n      swap2\n      pop\n        /* \"#utility.yul\":4580:4698   */\n      pop\n        /* \"#utility.yul\":4086:4705   */\n      swap3\n      pop\n      swap3\n      pop\n      swap3\n      jump\t// out\n        /* \"#utility.yul\":4711:4880   */\n    tag_117:\n        /* \"#utility.yul\":4795:4806   */\n      0x00\n        /* \"#utility.yul\":4829:4835   */\n      dup3\n        /* \"#utility.yul\":4824:4827   */\n      dup3\n        /* \"#utility.yul\":4817:4836   */\n      mstore\n        /* \"#utility.yul\":4869:4873   */\n      0x20\n        /* \"#utility.yul\":4864:4867   */\n      dup3\n        /* \"#utility.yul\":4860:4874   */\n      add\n        /* \"#utility.yul\":4845:4874   */\n      swap1\n      pop\n        /* \"#utility.yul\":4711:4880   */\n      swap3\n      swap2\n      pop\n      pop\n      jump\t// out\n        /* \"#utility.yul\":4886:5049   */\n    tag_118:\n        /* \"#utility.yul\":5026:5041   */\n      0x496e76616c696420507269636500000000000000000000000000000000000000\n        /* \"#utility.yul\":5022:5023   */\n      0x00\n        /* \"#utility.yul\":5014:5020   */\n      dup3\n        /* \"#utility.yul\":5010:5024   */\n      add\n        /* \"#utility.yul\":5003:5042   */\n      mstore\n        /* \"#utility.yul\":4886:5049   */\n      pop\n      jump\t// out\n        /* \"#utility.yul\":5055:5421   */\n    tag_119:\n        /* \"#utility.yul\":5197:5200   */\n      0x00\n        /* \"#utility.yul\":5218:5285   */\n      tag_188\n        /* \"#utility.yul\":5282:5284   */\n      0x0d\n        /* \"#utility.yul\":5277:5280   */\n      dup4\n        /* \"#utility.yul\":5218:5285   */\n      tag_117\n      jump\t// in\n    tag_188:\n        /* \"#utility.yul\":5211:5285   */\n      swap2\n      pop\n        /* \"#utility.yul\":5294:5387   */\n      tag_189\n        /* \"#utility.yul\":5383:5386   */\n      dup3\n        /* \"#utility.yul\":5294:5387   */\n      tag_118\n      jump\t// in\n    tag_189:\n        /* \"#utility.yul\":5412:5414   */\n      0x20\n        /* \"#utility.yul\":5407:5410   */\n      dup3\n        /* \"#utility.yul\":5403:5415   */\n      add\n        /* \"#utility.yul\":5396:5415   */\n      swap1\n      pop\n        /* \"#utility.yul\":5055:5421   */\n      swap2\n      swap1\n      pop\n      jump\t// out\n        /* \"#utility.yul\":5427:5846   */\n    tag_35:\n        /* \"#utility.yul\":5593:5597   */\n      0x00\n        /* \"#utility.yul\":5631:5633   */\n      0x20\n        /* \"#utility.yul\":5620:5629   */\n      dup3\n        /* \"#utility.yul\":5616:5634   */\n      add\n        /* \"#utility.yul\":5608:5634   */\n      swap1\n      pop\n        /* \"#utility.yul\":5680:5689   */\n      dup2\n        /* \"#utility.yul\":5674:5678   */\n      dup2\n        /* \"#utility.yul\":5670:5690   */\n      sub\n        /* \"#utility.yul\":5666:5667   */\n      0x00\n        /* \"#utility.yul\":5655:5664   */\n      dup4\n        /* \"#utility.yul\":5651:5668   */\n      add\n        /* \"#utility.yul\":5644:5691   */\n      mstore\n        /* \"#utility.yul\":5708:5839   */\n      tag_191\n        /* \"#utility.yul\":5834:5838   */\n      dup2\n        /* \"#utility.yul\":5708:5839   */\n      tag_119\n      jump\t// in\n    tag_191:\n        /* \"#utility.yul\":5700:5839   */\n      swap1\n      pop\n        /* \"#utility.yul\":5427:5846   */\n      swap2\n      swap1\n      pop\n      jump\t// out\n        /* \"#utility.yul\":5852:6016   */\n    tag_120:\n        /* \"#utility.yul\":5992:6008   */\n      0x496e637265617365207072696365000000000000000000000000000000000000\n        /* \"#utility.yul\":5988:5989   */\n      0x00\n        /* \"#utility.yul\":5980:5986   */\n      dup3\n        /* \"#utility.yul\":5976:5990   */\n      add\n        /* \"#utility.yul\":5969:6009   */\n      mstore\n        /* \"#utility.yul\":5852:6016   */\n      pop\n      jump\t// out\n        /* \"#utility.yul\":6022:6388   */\n    tag_121:\n        /* \"#utility.yul\":6164:6167   */\n      0x00\n        /* \"#utility.yul\":6185:6252   */\n      tag_194\n        /* \"#utility.yul\":6249:6251   */\n      0x0e\n        /* \"#utility.yul\":6244:6247   */\n      dup4\n        /* \"#utility.yul\":6185:6252   */\n      tag_117\n      jump\t// in\n    tag_194:\n        /* \"#utility.yul\":6178:6252   */\n      swap2\n      pop\n        /* \"#utility.yul\":6261:6354   */\n      tag_195\n        /* \"#utility.yul\":6350:6353   */\n      dup3\n        /* \"#utility.yul\":6261:6354   */\n      tag_120\n      jump\t// in\n    tag_195:\n        /* \"#utility.yul\":6379:6381   */\n      0x20\n        /* \"#utility.yul\":6374:6377   */\n      dup3\n        /* \"#utility.yul\":6370:6382   */\n      add\n        /* \"#utility.yul\":6363:6382   */\n      swap1\n      pop\n        /* \"#utility.yul\":6022:6388   */\n      swap2\n      swap1\n      pop\n      jump\t// out\n        /* \"#utility.yul\":6394:6813   */\n    tag_38:\n        /* \"#utility.yul\":6560:6564   */\n      0x00\n        /* \"#utility.yul\":6598:6600   */\n      0x20\n        /* \"#utility.yul\":6587:6596   */\n      dup3\n        /* \"#utility.yul\":6583:6601   */\n      add\n        /* \"#utility.yul\":6575:6601   */\n      swap1\n      pop\n        /* \"#utility.yul\":6647:6656   */\n      dup2\n        /* \"#utility.yul\":6641:6645   */\n      dup2\n        /* \"#utility.yul\":6637:6657   */\n      sub\n        /* \"#utility.yul\":6633:6634   */\n      0x00\n        /* \"#utility.yul\":6622:6631   */\n      dup4\n        /* \"#utility.yul\":6618:6635   */\n      add\n        /* \"#utility.yul\":6611:6658   */\n      mstore\n        /* \"#utility.yul\":6675:6806   */\n      tag_197\n        /* \"#utility.yul\":6801:6805   */\n      dup2\n        /* \"#utility.yul\":6675:6806   */\n      tag_121\n      jump\t// in\n    tag_197:\n        /* \"#utility.yul\":6667:6806   */\n      swap1\n      pop\n        /* \"#utility.yul\":6394:6813   */\n      swap2\n      swap1\n      pop\n      jump\t// out\n        /* \"#utility.yul\":6819:6937   */\n    tag_122:\n        /* \"#utility.yul\":6906:6930   */\n      tag_199\n        /* \"#utility.yul\":6924:6929   */\n      dup2\n        /* \"#utility.yul\":6906:6930   */\n      tag_108\n      jump\t// in\n    tag_199:\n        /* \"#utility.yul\":6901:6904   */\n      dup3\n        /* \"#utility.yul\":6894:6931   */\n      mstore\n        /* \"#utility.yul\":6819:6937   */\n      pop\n      pop\n      jump\t// out\n        /* \"#utility.yul\":6943:7165   */\n    tag_40:\n        /* \"#utility.yul\":7036:7040   */\n      0x00\n        /* \"#utility.yul\":7074:7076   */\n      0x20\n        /* \"#utility.yul\":7063:7072   */\n      dup3\n        /* \"#utility.yul\":7059:7077   */\n      add\n        /* \"#utility.yul\":7051:7077   */\n      swap1\n      pop\n        /* \"#utility.yul\":7087:7158   */\n      tag_201\n        /* \"#utility.yul\":7155:7156   */\n      0x00\n        /* \"#utility.yul\":7144:7153   */\n      dup4\n        /* \"#utility.yul\":7140:7157   */\n      add\n        /* \"#utility.yul\":7131:7137   */\n      dup5\n        /* \"#utility.yul\":7087:7158   */\n      tag_122\n      jump\t// in\n    tag_201:\n        /* \"#utility.yul\":6943:7165   */\n      swap3\n      swap2\n      pop\n      pop\n      jump\t// out\n        /* \"#utility.yul\":7171:7314   */\n    tag_123:\n        /* \"#utility.yul\":7228:7233   */\n      0x00\n        /* \"#utility.yul\":7259:7265   */\n      dup2\n        /* \"#utility.yul\":7253:7266   */\n      mload\n        /* \"#utility.yul\":7244:7266   */\n      swap1\n      pop\n        /* \"#utility.yul\":7275:7308   */\n      tag_203\n        /* \"#utility.yul\":7302:7307   */\n      dup2\n        /* \"#utility.yul\":7275:7308   */\n      tag_106\n      jump\t// in\n    tag_203:\n        /* \"#utility.yul\":7171:7314   */\n      swap3\n      swap2\n      pop\n      pop\n      jump\t// out\n        /* \"#utility.yul\":7320:7671   */\n    tag_44:\n        /* \"#utility.yul\":7390:7396   */\n      0x00\n        /* \"#utility.yul\":7439:7441   */\n      0x20\n        /* \"#utility.yul\":7427:7436   */\n      dup3\n        /* \"#utility.yul\":7418:7425   */\n      dup5\n        /* \"#utility.yul\":7414:7437   */\n      sub\n        /* \"#utility.yul\":7410:7442   */\n      slt\n        /* \"#utility.yul\":7407:7526   */\n      iszero\n      tag_205\n      jumpi\n        /* \"#utility.yul\":7445:7524   */\n      tag_206\n      tag_102\n      jump\t// in\n    tag_206:\n        /* \"#utility.yul\":7407:7526   */\n    tag_205:\n        /* \"#utility.yul\":7565:7566   */\n      0x00\n        /* \"#utility.yul\":7590:7654   */\n      tag_207\n        /* \"#utility.yul\":7646:7653   */\n      dup5\n        /* \"#utility.yul\":7637:7643   */\n      dup3\n        /* \"#utility.yul\":7626:7635   */\n      dup6\n        /* \"#utility.yul\":7622:7644   */\n      add\n        /* \"#utility.yul\":7590:7654   */\n      tag_123\n      jump\t// in\n    tag_207:\n        /* \"#utility.yul\":7580:7654   */\n      swap2\n      pop\n        /* \"#utility.yul\":7536:7664   */\n      pop\n        /* \"#utility.yul\":7320:7671   */\n      swap3\n      swap2\n      pop\n      pop\n      jump\t// out\n        /* \"#utility.yul\":7677:7840   */\n    tag_124:\n        /* \"#utility.yul\":7817:7832   */\n      0x496e76616c6964204f7264657200000000000000000000000000000000000000\n        /* \"#utility.yul\":7813:7814   */\n      0x00\n        /* \"#utility.yul\":7805:7811   */\n      dup3\n        /* \"#utility.yul\":7801:7815   */\n      add\n        /* \"#utility.yul\":7794:7833   */\n      mstore\n        /* \"#utility.yul\":7677:7840   */\n      pop\n      jump\t// out\n        /* \"#utility.yul\":7846:8212   */\n    tag_125:\n        /* \"#utility.yul\":7988:7991   */\n      0x00\n        /* \"#utility.yul\":8009:8076   */\n      tag_210\n        /* \"#utility.yul\":8073:8075   */\n      0x0d\n        /* \"#utility.yul\":8068:8071   */\n      dup4\n        /* \"#utility.yul\":8009:8076   */\n      tag_117\n      jump\t// in\n    tag_210:\n        /* \"#utility.yul\":8002:8076   */\n      swap2\n      pop\n        /* \"#utility.yul\":8085:8178   */\n      tag_211\n        /* \"#utility.yul\":8174:8177   */\n      dup3\n        /* \"#utility.yul\":8085:8178   */\n      tag_124\n      jump\t// in\n    tag_211:\n        /* \"#utility.yul\":8203:8205   */\n      0x20\n        /* \"#utility.yul\":8198:8201   */\n      dup3\n        /* \"#utility.yul\":8194:8206   */\n      add\n        /* \"#utility.yul\":8187:8206   */\n      swap1\n      pop\n        /* \"#utility.yul\":7846:8212   */\n      swap2\n      swap1\n      pop\n      jump\t// out\n        /* \"#utility.yul\":8218:8637   */\n    tag_47:\n        /* \"#utility.yul\":8384:8388   */\n      0x00\n        /* \"#utility.yul\":8422:8424   */\n      0x20\n        /* \"#utility.yul\":8411:8420   */\n      dup3\n        /* \"#utility.yul\":8407:8425   */\n      add\n        /* \"#utility.yul\":8399:8425   */\n      swap1\n      pop\n        /* \"#utility.yul\":8471:8480   */\n      dup2\n        /* \"#utility.yul\":8465:8469   */\n      dup2\n        /* \"#utility.yul\":8461:8481   */\n      sub\n        /* \"#utility.yul\":8457:8458   */\n      0x00\n        /* \"#utility.yul\":8446:8455   */\n      dup4\n        /* \"#utility.yul\":8442:8459   */\n      add\n        /* \"#utility.yul\":8435:8482   */\n      mstore\n        /* \"#utility.yul\":8499:8630   */\n      tag_213\n        /* \"#utility.yul\":8625:8629   */\n      dup2\n        /* \"#utility.yul\":8499:8630   */\n      tag_125\n      jump\t// in\n    tag_213:\n        /* \"#utility.yul\":8491:8630   */\n      swap1\n      pop\n        /* \"#utility.yul\":8218:8637   */\n      swap2\n      swap1\n      pop\n      jump\t// out\n        /* \"#utility.yul\":8643:8761   */\n    tag_126:\n        /* \"#utility.yul\":8730:8754   */\n      tag_215\n        /* \"#utility.yul\":8748:8753   */\n      dup2\n        /* \"#utility.yul\":8730:8754   */\n      tag_105\n      jump\t// in\n    tag_215:\n        /* \"#utility.yul\":8725:8728   */\n      dup3\n        /* \"#utility.yul\":8718:8755   */\n      mstore\n        /* \"#utility.yul\":8643:8761   */\n      pop\n      pop\n      jump\t// out\n        /* \"#utility.yul\":8767:9209   */\n    tag_49:\n        /* \"#utility.yul\":8916:8920   */\n      0x00\n        /* \"#utility.yul\":8954:8956   */\n      0x60\n        /* \"#utility.yul\":8943:8952   */\n      dup3\n        /* \"#utility.yul\":8939:8957   */\n      add\n        /* \"#utility.yul\":8931:8957   */\n      swap1\n      pop\n        /* \"#utility.yul\":8967:9038   */\n      tag_217\n        /* \"#utility.yul\":9035:9036   */\n      0x00\n        /* \"#utility.yul\":9024:9033   */\n      dup4\n        /* \"#utility.yul\":9020:9037   */\n      add\n        /* \"#utility.yul\":9011:9017   */\n      dup7\n        /* \"#utility.yul\":8967:9038   */\n      tag_126\n      jump\t// in\n    tag_217:\n        /* \"#utility.yul\":9048:9120   */\n      tag_218\n        /* \"#utility.yul\":9116:9118   */\n      0x20\n        /* \"#utility.yul\":9105:9114   */\n      dup4\n        /* \"#utility.yul\":9101:9119   */\n      add\n        /* \"#utility.yul\":9092:9098   */\n      dup6\n        /* \"#utility.yul\":9048:9120   */\n      tag_126\n      jump\t// in\n    tag_218:\n        /* \"#utility.yul\":9130:9202   */\n      tag_219\n        /* \"#utility.yul\":9198:9200   */\n      0x40\n        /* \"#utility.yul\":9187:9196   */\n      dup4\n        /* \"#utility.yul\":9183:9201   */\n      add\n        /* \"#utility.yul\":9174:9180   */\n      dup5\n        /* \"#utility.yul\":9130:9202   */\n      tag_122\n      jump\t// in\n    tag_219:\n        /* \"#utility.yul\":8767:9209   */\n      swap5\n      swap4\n      pop\n      pop\n      pop\n      pop\n      jump\t// out\n        /* \"#utility.yul\":9215:9395   */\n    tag_127:\n        /* \"#utility.yul\":9263:9340   */\n      0x4e487b7100000000000000000000000000000000000000000000000000000000\n        /* \"#utility.yul\":9260:9261   */\n      0x00\n        /* \"#utility.yul\":9253:9341   */\n      mstore\n        /* \"#utility.yul\":9360:9364   */\n      0x11\n        /* \"#utility.yul\":9357:9358   */\n      0x04\n        /* \"#utility.yul\":9350:9365   */\n      mstore\n        /* \"#utility.yul\":9384:9388   */\n      0x24\n        /* \"#utility.yul\":9381:9382   */\n      0x00\n        /* \"#utility.yul\":9374:9389   */\n      revert\n        /* \"#utility.yul\":9401:9595   */\n    tag_57:\n        /* \"#utility.yul\":9441:9445   */\n      0x00\n        /* \"#utility.yul\":9461:9481   */\n      tag_222\n        /* \"#utility.yul\":9479:9480   */\n      dup3\n        /* \"#utility.yul\":9461:9481   */\n      tag_108\n      jump\t// in\n    tag_222:\n        /* \"#utility.yul\":9456:9481   */\n      swap2\n      pop\n        /* \"#utility.yul\":9495:9515   */\n      tag_223\n        /* \"#utility.yul\":9513:9514   */\n      dup4\n        /* \"#utility.yul\":9495:9515   */\n      tag_108\n      jump\t// in\n    tag_223:\n        /* \"#utility.yul\":9490:9515   */\n      swap3\n      pop\n        /* \"#utility.yul\":9539:9540   */\n      dup3\n        /* \"#utility.yul\":9536:9537   */\n      dup3\n        /* \"#utility.yul\":9532:9541   */\n      sub\n        /* \"#utility.yul\":9524:9541   */\n      swap1\n      pop\n        /* \"#utility.yul\":9563:9564   */\n      dup2\n        /* \"#utility.yul\":9557:9561   */\n      dup2\n        /* \"#utility.yul\":9554:9565   */\n      gt\n        /* \"#utility.yul\":9551:9588   */\n      iszero\n      tag_224\n      jumpi\n        /* \"#utility.yul\":9568:9586   */\n      tag_225\n      tag_127\n      jump\t// in\n    tag_225:\n        /* \"#utility.yul\":9551:9588   */\n    tag_224:\n        /* \"#utility.yul\":9401:9595   */\n      swap3\n      swap2\n      pop\n      pop\n      jump\t// out\n        /* \"#utility.yul\":9601:9760   */\n    tag_128:\n        /* \"#utility.yul\":9741:9752   */\n      0x4e6f74204f776e65720000000000000000000000000000000000000000000000\n        /* \"#utility.yul\":9737:9738   */\n      0x00\n        /* \"#utility.yul\":9729:9735   */\n      dup3\n        /* \"#utility.yul\":9725:9739   */\n      add\n        /* \"#utility.yul\":9718:9753   */\n      mstore\n        /* \"#utility.yul\":9601:9760   */\n      pop\n      jump\t// out\n        /* \"#utility.yul\":9766:10131   */\n    tag_129:\n        /* \"#utility.yul\":9908:9911   */\n      0x00\n        /* \"#utility.yul\":9929:9995   */\n      tag_228\n        /* \"#utility.yul\":9993:9994   */\n      0x09\n        /* \"#utility.yul\":9988:9991   */\n      dup4\n        /* \"#utility.yul\":9929:9995   */\n      tag_117\n      jump\t// in\n    tag_228:\n        /* \"#utility.yul\":9922:9995   */\n      swap2\n      pop\n        /* \"#utility.yul\":10004:10097   */\n      tag_229\n        /* \"#utility.yul\":10093:10096   */\n      dup3\n        /* \"#utility.yul\":10004:10097   */\n      tag_128\n      jump\t// in\n    tag_229:\n        /* \"#utility.yul\":10122:10124   */\n      0x20\n        /* \"#utility.yul\":10117:10120   */\n      dup3\n        /* \"#utility.yul\":10113:10125   */\n      add\n        /* \"#utility.yul\":10106:10125   */\n      swap1\n      pop\n        /* \"#utility.yul\":9766:10131   */\n      swap2\n      swap1\n      pop\n      jump\t// out\n        /* \"#utility.yul\":10137:10556   */\n    tag_66:\n        /* \"#utility.yul\":10303:10307   */\n      0x00\n        /* \"#utility.yul\":10341:10343   */\n      0x20\n        /* \"#utility.yul\":10330:10339   */\n      dup3\n        /* \"#utility.yul\":10326:10344   */\n      add\n        /* \"#utility.yul\":10318:10344   */\n      swap1\n      pop\n        /* \"#utility.yul\":10390:10399   */\n      dup2\n        /* \"#utility.yul\":10384:10388   */\n      dup2\n        /* \"#utility.yul\":10380:10400   */\n      sub\n        /* \"#utility.yul\":10376:10377   */\n      0x00\n        /* \"#utility.yul\":10365:10374   */\n      dup4\n        /* \"#utility.yul\":10361:10378   */\n      add\n        /* \"#utility.yul\":10354:10401   */\n      mstore\n        /* \"#utility.yul\":10418:10549   */\n      tag_231\n        /* \"#utility.yul\":10544:10548   */\n      dup2\n        /* \"#utility.yul\":10418:10549   */\n      tag_129\n      jump\t// in\n    tag_231:\n        /* \"#utility.yul\":10410:10549   */\n      swap1\n      pop\n        /* \"#utility.yul\":10137:10556   */\n      swap2\n      swap1\n      pop\n      jump\t// out\n        /* \"#utility.yul\":10562:10725   */\n    tag_130:\n        /* \"#utility.yul\":10702:10717   */\n      0x4e65656420417070726f76616c00000000000000000000000000000000000000\n        /* \"#utility.yul\":10698:10699   */\n      0x00\n        /* \"#utility.yul\":10690:10696   */\n      dup3\n        /* \"#utility.yul\":10686:10700   */\n      add\n        /* \"#utility.yul\":10679:10718   */\n      mstore\n        /* \"#utility.yul\":10562:10725   */\n      pop\n      jump\t// out\n        /* \"#utility.yul\":10731:11097   */\n    tag_131:\n        /* \"#utility.yul\":10873:10876   */\n      0x00\n        /* \"#utility.yul\":10894:10961   */\n      tag_234\n        /* \"#utility.yul\":10958:10960   */\n      0x0d\n        /* \"#utility.yul\":10953:10956   */\n      dup4\n        /* \"#utility.yul\":10894:10961   */\n      tag_117\n      jump\t// in\n    tag_234:\n        /* \"#utility.yul\":10887:10961   */\n      swap2\n      pop\n        /* \"#utility.yul\":10970:11063   */\n      tag_235\n        /* \"#utility.yul\":11059:11062   */\n      dup3\n        /* \"#utility.yul\":10970:11063   */\n      tag_130\n      jump\t// in\n    tag_235:\n        /* \"#utility.yul\":11088:11090   */\n      0x20\n        /* \"#utility.yul\":11083:11086   */\n      dup3\n        /* \"#utility.yul\":11079:11091   */\n      add\n        /* \"#utility.yul\":11072:11091   */\n      swap1\n      pop\n        /* \"#utility.yul\":10731:11097   */\n      swap2\n      swap1\n      pop\n      jump\t// out\n        /* \"#utility.yul\":11103:11522   */\n    tag_81:\n        /* \"#utility.yul\":11269:11273   */\n      0x00\n        /* \"#utility.yul\":11307:11309   */\n      0x20\n        /* \"#utility.yul\":11296:11305   */\n      dup3\n        /* \"#utility.yul\":11292:11310   */\n      add\n        /* \"#utility.yul\":11284:11310   */\n      swap1\n      pop\n        /* \"#utility.yul\":11356:11365   */\n      dup2\n        /* \"#utility.yul\":11350:11354   */\n      dup2\n        /* \"#utility.yul\":11346:11366   */\n      sub\n        /* \"#utility.yul\":11342:11343   */\n      0x00\n        /* \"#utility.yul\":11331:11340   */\n      dup4\n        /* \"#utility.yul\":11327:11344   */\n      add\n        /* \"#utility.yul\":11320:11367   */\n      mstore\n        /* \"#utility.yul\":11384:11515   */\n      tag_237\n        /* \"#utility.yul\":11510:11514   */\n      dup2\n        /* \"#utility.yul\":11384:11515   */\n      tag_131\n      jump\t// in\n    tag_237:\n        /* \"#utility.yul\":11376:11515   */\n      swap1\n      pop\n        /* \"#utility.yul\":11103:11522   */\n      swap2\n      swap1\n      pop\n      jump\t// out\n\n    auxdata: 0xa264697066735822122052efb5a6a27b91e13a6606cc1dbeb742e78fdd2e58f547563817e032118af7d764736f6c634300081e0033\n}\n",
				"bytecode": {
					"linkReferences": {},
					"object": "6080604052348015600e575f5ffd5b506112b58061001c5f395ff3fe608060405260043610610049575f3560e01c8063150b7a021461004d5780638de9322214610089578063d09b6d43146100a5578063dda342bb146100cd578063eac449d9146100f5575b5f5ffd5b348015610058575f5ffd5b50610073600480360381019061006e9190610df7565b61011d565b6040516100809190610eb5565b60405180910390f35b6100a3600480360381019061009e9190610ece565b610131565b005b3480156100b0575f5ffd5b506100cb60048036038101906100c69190610f0c565b610513565b005b3480156100d8575f5ffd5b506100f360048036038101906100ee9190610f0c565b610792565b005b348015610100575f5ffd5b5061011b60048036038101906101169190610ece565b6109f5565b005b5f63150b7a0260e01b905095945050505050565b5f5f5f8473ffffffffffffffffffffffffffffffffffffffff1673ffffffffffffffffffffffffffffffffffffffff1681526020019081526020015f205f8381526020019081526020015f2090505f8160010154116101c5576040517f08c379a00000000000000000000000000000000000000000000000000000000081526004016101bc90610fb6565b60405180910390fd5b806001015434101561020c576040517f08c379a00000000000000000000000000000000000000000000000000000000081526004016102039061101e565b60405180910390fd5b5f8390503073ffffffffffffffffffffffffffffffffffffffff168173ffffffffffffffffffffffffffffffffffffffff16636352211e856040518263ffffffff1660e01b8152600401610260919061104b565b602060405180830381865afa15801561027b573d5f5f3e3d5ffd5b505050506040513d601f19601f8201168201806040525081019061029f9190611078565b73ffffffffffffffffffffffffffffffffffffffff16146102f5576040517f08c379a00000000000000000000000000000000000000000000000000000000081526004016102ec906110ed565b60405180910390fd5b8073ffffffffffffffffffffffffffffffffffffffff166342842e0e3033866040518463ffffffff1660e01b81526004016103329392919061111a565b5f604051808303815f87803b158015610349575f5ffd5b505af115801561035b573d5f5f3e3d5ffd5b50505050815f015f9054906101000a900473ffffffffffffffffffffffffffffffffffffffff1673ffffffffffffffffffffffffffffffffffffffff166108fc836001015490811502906040515f60405180830381858888f193505050501580156103c8573d5f5f3e3d5ffd5b508160010154341115610429573373ffffffffffffffffffffffffffffffffffffffff166108fc8360010154346103ff919061117c565b90811502906040515f60405180830381858888f19350505050158015610427573d5f5f3e3d5ffd5b505b828473ffffffffffffffffffffffffffffffffffffffff163373ffffffffffffffffffffffffffffffffffffffff167f46661dab58311a6838247afecbee792192b4f27fc8b3e7168c66bc55ec2e404e856001015460405161048b919061104b565b60405180910390a45f5f8573ffffffffffffffffffffffffffffffffffffffff1673ffffffffffffffffffffffffffffffffffffffff1681526020019081526020015f205f8481526020019081526020015f205f5f82015f6101000a81549073ffffffffffffffffffffffffffffffffffffffff0219169055600182015f9055505050505050565b5f8111610555576040517f08c379a000000000000000000000000000000000000000000000000000000000815260040161054c90610fb6565b60405180910390fd5b5f5f5f8573ffffffffffffffffffffffffffffffffffffffff1673ffffffffffffffffffffffffffffffffffffffff1681526020019081526020015f205f8481526020019081526020015f2090503373ffffffffffffffffffffffffffffffffffffffff16815f015f9054906101000a900473ffffffffffffffffffffffffffffffffffffffff1673ffffffffffffffffffffffffffffffffffffffff1614610633576040517f08c379a000000000000000000000000000000000000000000000000000000000815260040161062a906111f9565b60405180910390fd5b5f8490503073ffffffffffffffffffffffffffffffffffffffff168173ffffffffffffffffffffffffffffffffffffffff16636352211e866040518263ffffffff1660e01b8152600401610687919061104b565b602060405180830381865afa1580156106a2573d5f5f3e3d5ffd5b505050506040513d601f19601f820116820180604052508101906106c69190611078565b73ffffffffffffffffffffffffffffffffffffffff161461071c576040517f08c379a0000000000000000000000000000000000000000000000000000000008152600401610713906110ed565b60405180910390fd5b828260010181905550838573ffffffffffffffffffffffffffffffffffffffff163373ffffffffffffffffffffffffffffffffffffffff167fb7f0ca7cd5b24651672216886135b99ff40342bcf549009a4c6fc74f059fb9a086604051610783919061104b565b60405180910390a45050505050565b5f8390503073ffffffffffffffffffffffffffffffffffffffff168173ffffffffffffffffffffffffffffffffffffffff1663081812fc856040518263ffffffff1660e01b81526004016107e6919061104b565b602060405180830381865afa158015610801573d5f5f3e3d5ffd5b505050506040513d601f19601f820116820180604052508101906108259190611078565b73ffffffffffffffffffffffffffffffffffffffff161461087b576040517f08c379a000000000000000000000000000000000000000000000000000000000815260040161087290611261565b60405180910390fd5b5f8211610886575f5ffd5b5f5f5f8673ffffffffffffffffffffffffffffffffffffffff1673ffffffffffffffffffffffffffffffffffffffff1681526020019081526020015f205f8581526020019081526020015f20905033815f015f6101000a81548173ffffffffffffffffffffffffffffffffffffffff021916908373ffffffffffffffffffffffffffffffffffffffff1602179055508281600101819055508173ffffffffffffffffffffffffffffffffffffffff166342842e0e3330876040518463ffffffff1660e01b815260040161095b9392919061111a565b5f604051808303815f87803b158015610972575f5ffd5b505af1158015610984573d5f5f3e3d5ffd5b50505050838573ffffffffffffffffffffffffffffffffffffffff163373ffffffffffffffffffffffffffffffffffffffff167fedbdf022944a3291f4b30148903a84720506f48e10478ec5812e5caf30e1fab0866040516109e6919061104b565b60405180910390a45050505050565b5f5f5f8473ffffffffffffffffffffffffffffffffffffffff1673ffffffffffffffffffffffffffffffffffffffff1681526020019081526020015f205f8381526020019081526020015f2090503373ffffffffffffffffffffffffffffffffffffffff16815f015f9054906101000a900473ffffffffffffffffffffffffffffffffffffffff1673ffffffffffffffffffffffffffffffffffffffff1614610ad3576040517f08c379a0000000000000000000000000000000000000000000000000000000008152600401610aca906111f9565b60405180910390fd5b5f8390503073ffffffffffffffffffffffffffffffffffffffff168173ffffffffffffffffffffffffffffffffffffffff16636352211e856040518263ffffffff1660e01b8152600401610b27919061104b565b602060405180830381865afa158015610b42573d5f5f3e3d5ffd5b505050506040513d601f19601f82011682018060405250810190610b669190611078565b73ffffffffffffffffffffffffffffffffffffffff1614610bbc576040517f08c379a0000000000000000000000000000000000000000000000000000000008152600401610bb3906110ed565b60405180910390fd5b8073ffffffffffffffffffffffffffffffffffffffff166342842e0e3033866040518463ffffffff1660e01b8152600401610bf99392919061111a565b5f604051808303815f87803b158015610c10575f5ffd5b505af1158015610c22573d5f5f3e3d5ffd5b505050505f5f8573ffffffffffffffffffffffffffffffffffffffff1673ffffffffffffffffffffffffffffffffffffffff1681526020019081526020015f205f8481526020019081526020015f205f5f82015f6101000a81549073ffffffffffffffffffffffffffffffffffffffff0219169055600182015f90555050828473ffffffffffffffffffffffffffffffffffffffff163373ffffffffffffffffffffffffffffffffffffffff167fb698e31a2abee5824d0d7bcfd2339aead7f9e9ae413fba50bf554ff3fa470b7b60405160405180910390a450505050565b5f5ffd5b5f5ffd5b5f73ffffffffffffffffffffffffffffffffffffffff82169050919050565b5f610d3282610d09565b9050919050565b610d4281610d28565b8114610d4c575f5ffd5b50565b5f81359050610d5d81610d39565b92915050565b5f819050919050565b610d7581610d63565b8114610d7f575f5ffd5b50565b5f81359050610d9081610d6c565b92915050565b5f5ffd5b5f5ffd5b5f5ffd5b5f5f83601f840112610db757610db6610d96565b5b8235905067ffffffffffffffff811115610dd457610dd3610d9a565b5b602083019150836001820283011115610df057610def610d9e565b5b9250929050565b5f5f5f5f5f60808688031215610e1057610e0f610d01565b5b5f610e1d88828901610d4f565b9550506020610e2e88828901610d4f565b9450506040610e3f88828901610d82565b935050606086013567ffffffffffffffff811115610e6057610e5f610d05565b5b610e6c88828901610da2565b92509250509295509295909350565b5f7fffffffff0000000000000000000000000000000000000000000000000000000082169050919050565b610eaf81610e7b565b82525050565b5f602082019050610ec85f830184610ea6565b92915050565b5f5f60408385031215610ee457610ee3610d01565b5b5f610ef185828601610d4f565b9250506020610f0285828601610d82565b9150509250929050565b5f5f5f60608486031215610f2357610f22610d01565b5b5f610f3086828701610d4f565b9350506020610f4186828701610d82565b9250506040610f5286828701610d82565b9150509250925092565b5f82825260208201905092915050565b7f496e76616c6964205072696365000000000000000000000000000000000000005f82015250565b5f610fa0600d83610f5c565b9150610fab82610f6c565b602082019050919050565b5f6020820190508181035f830152610fcd81610f94565b9050919050565b7f496e6372656173652070726963650000000000000000000000000000000000005f82015250565b5f611008600e83610f5c565b915061101382610fd4565b602082019050919050565b5f6020820190508181035f83015261103581610ffc565b9050919050565b61104581610d63565b82525050565b5f60208201905061105e5f83018461103c565b92915050565b5f8151905061107281610d39565b92915050565b5f6020828403121561108d5761108c610d01565b5b5f61109a84828501611064565b91505092915050565b7f496e76616c6964204f72646572000000000000000000000000000000000000005f82015250565b5f6110d7600d83610f5c565b91506110e2826110a3565b602082019050919050565b5f6020820190508181035f830152611104816110cb565b9050919050565b61111481610d28565b82525050565b5f60608201905061112d5f83018661110b565b61113a602083018561110b565b611147604083018461103c565b949350505050565b7f4e487b71000000000000000000000000000000000000000000000000000000005f52601160045260245ffd5b5f61118682610d63565b915061119183610d63565b92508282039050818111156111a9576111a861114f565b5b92915050565b7f4e6f74204f776e657200000000000000000000000000000000000000000000005f82015250565b5f6111e3600983610f5c565b91506111ee826111af565b602082019050919050565b5f6020820190508181035f830152611210816111d7565b9050919050565b7f4e65656420417070726f76616c000000000000000000000000000000000000005f82015250565b5f61124b600d83610f5c565b915061125682611217565b602082019050919050565b5f6020820190508181035f8301526112788161123f565b905091905056fea264697066735822122052efb5a6a27b91e13a6606cc1dbeb742e78fdd2e58f547563817e032118af7d764736f6c634300081e0033",
					"opcodes": "PUSH1 0x80 PUSH1 0x40 MSTORE CALLVALUE DUP1 ISZERO PUSH1 0xE JUMPI PUSH0 PUSH0 REVERT JUMPDEST POP PUSH2 0x12B5 DUP1 PUSH2 0x1C PUSH0 CODECOPY PUSH0 RETURN INVALID PUSH1 0x80 PUSH1 0x40 MSTORE PUSH1 0x4 CALLDATASIZE LT PUSH2 0x49 JUMPI PUSH0 CALLDATALOAD PUSH1 0xE0 SHR DUP1 PUSH4 0x150B7A02 EQ PUSH2 0x4D JUMPI DUP1 PUSH4 0x8DE93222 EQ PUSH2 0x89 JUMPI DUP1 PUSH4 0xD09B6D43 EQ PUSH2 0xA5 JUMPI DUP1 PUSH4 0xDDA342BB EQ PUSH2 0xCD JUMPI DUP1 PUSH4 0xEAC449D9 EQ PUSH2 0xF5 JUMPI JUMPDEST PUSH0 PUSH0 REVERT JUMPDEST CALLVALUE DUP1 ISZERO PUSH2 0x58 JUMPI PUSH0 PUSH0 REVERT JUMPDEST POP PUSH2 0x73 PUSH1 0x4 DUP1 CALLDATASIZE SUB DUP2 ADD SWAP1 PUSH2 0x6E SWAP2 SWAP1 PUSH2 0xDF7 JUMP JUMPDEST PUSH2 0x11D JUMP JUMPDEST PUSH1 0x40 MLOAD PUSH2 0x80 SWAP2 SWAP1 PUSH2 0xEB5 JUMP JUMPDEST PUSH1 0x40 MLOAD DUP1 SWAP2 SUB SWAP1 RETURN JUMPDEST PUSH2 0xA3 PUSH1 0x4 DUP1 CALLDATASIZE SUB DUP2 ADD SWAP1 PUSH2 0x9E SWAP2 SWAP1 PUSH2 0xECE JUMP JUMPDEST PUSH2 0x131 JUMP JUMPDEST STOP JUMPDEST CALLVALUE DUP1 ISZERO PUSH2 0xB0 JUMPI PUSH0 PUSH0 REVERT JUMPDEST POP PUSH2 0xCB PUSH1 0x4 DUP1 CALLDATASIZE SUB DUP2 ADD SWAP1 PUSH2 0xC6 SWAP2 SWAP1 PUSH2 0xF0C JUMP JUMPDEST PUSH2 0x513 JUMP JUMPDEST STOP JUMPDEST CALLVALUE DUP1 ISZERO PUSH2 0xD8 JUMPI PUSH0 PUSH0 REVERT JUMPDEST POP PUSH2 0xF3 PUSH1 0x4 DUP1 CALLDATASIZE SUB DUP2 ADD SWAP1 PUSH2 0xEE SWAP2 SWAP1 PUSH2 0xF0C JUMP JUMPDEST PUSH2 0x792 JUMP JUMPDEST STOP JUMPDEST CALLVALUE DUP1 ISZERO PUSH2 0x100 JUMPI PUSH0 PUSH0 REVERT JUMPDEST POP PUSH2 0x11B PUSH1 0x4 DUP1 CALLDATASIZE SUB DUP2 ADD SWAP1 PUSH2 0x116 SWAP2 SWAP1 PUSH2 0xECE JUMP JUMPDEST PUSH2 0x9F5 JUMP JUMPDEST STOP JUMPDEST PUSH0 PUSH4 0x150B7A02 PUSH1 0xE0 SHL SWAP1 POP SWAP6 SWAP5 POP POP POP POP POP JUMP JUMPDEST PUSH0 PUSH0 PUSH0 DUP5 PUSH20 0xFFFFFFFFFFFFFFFFFFFFFFFFFFFFFFFFFFFFFFFF AND PUSH20 0xFFFFFFFFFFFFFFFFFFFFFFFFFFFFFFFFFFFFFFFF AND DUP2 MSTORE PUSH1 0x20 ADD SWAP1 DUP2 MSTORE PUSH1 0x20 ADD PUSH0 KECCAK256 PUSH0 DUP4 DUP2 MSTORE PUSH1 0x20 ADD SWAP1 DUP2 MSTORE PUSH1 0x20 ADD PUSH0 KECCAK256 SWAP1 POP PUSH0 DUP2 PUSH1 0x1 ADD SLOAD GT PUSH2 0x1C5 JUMPI PUSH1 0x40 MLOAD PUSH32 0x8C379A000000000000000000000000000000000000000000000000000000000 DUP2 MSTORE PUSH1 0x4 ADD PUSH2 0x1BC SWAP1 PUSH2 0xFB6 JUMP JUMPDEST PUSH1 0x40 MLOAD DUP1 SWAP2 SUB SWAP1 REVERT JUMPDEST DUP1 PUSH1 0x1 ADD SLOAD CALLVALUE LT ISZERO PUSH2 0x20C JUMPI PUSH1 0x40 MLOAD PUSH32 0x8C379A000000000000000000000000000000000000000000000000000000000 DUP2 MSTORE PUSH1 0x4 ADD PUSH2 0x203 SWAP1 PUSH2 0x101E JUMP JUMPDEST PUSH1 0x40 MLOAD DUP1 SWAP2 SUB SWAP1 REVERT JUMPDEST PUSH0 DUP4 SWAP1 POP ADDRESS PUSH20 0xFFFFFFFFFFFFFFFFFFFFFFFFFFFFFFFFFFFFFFFF AND DUP2 PUSH20 0xFFFFFFFFFFFFFFFFFFFFFFFFFFFFFFFFFFFFFFFF AND PUSH4 0x6352211E DUP6 PUSH1 0x40 MLOAD DUP3 PUSH4 0xFFFFFFFF AND PUSH1 0xE0 SHL DUP2 MSTORE PUSH1 0x4 ADD PUSH2 0x260 SWAP2 SWAP1 PUSH2 0x104B JUMP JUMPDEST PUSH1 0x20 PUSH1 0x40 MLOAD DUP1 DUP4 SUB DUP2 DUP7 GAS STATICCALL ISZERO DUP1 ISZERO PUSH2 0x27B JUMPI RETURNDATASIZE PUSH0 PUSH0 RETURNDATACOPY RETURNDATASIZE PUSH0 REVERT JUMPDEST POP POP POP POP PUSH1 0x40 MLOAD RETURNDATASIZE PUSH1 0x1F NOT PUSH1 0x1F DUP3 ADD AND DUP3 ADD DUP1 PUSH1 0x40 MSTORE POP DUP2 ADD SWAP1 PUSH2 0x29F SWAP2 SWAP1 PUSH2 0x1078 JUMP JUMPDEST PUSH20 0xFFFFFFFFFFFFFFFFFFFFFFFFFFFFFFFFFFFFFFFF AND EQ PUSH2 0x2F5 JUMPI PUSH1 0x40 MLOAD PUSH32 0x8C379A000000000000000000000000000000000000000000000000000000000 DUP2 MSTORE PUSH1 0x4 ADD PUSH2 0x2EC SWAP1 PUSH2 0x10ED JUMP JUMPDEST PUSH1 0x40 MLOAD DUP1 SWAP2 SUB SWAP1 REVERT JUMPDEST DUP1 PUSH20 0xFFFFFFFFFFFFFFFFFFFFFFFFFFFFFFFFFFFFFFFF AND PUSH4 0x42842E0E ADDRESS CALLER DUP7 PUSH1 0x40 MLOAD DUP5 PUSH4 0xFFFFFFFF AND PUSH1 0xE0 SHL DUP2 MSTORE PUSH1 0x4 ADD PUSH2 0x332 SWAP4 SWAP3 SWAP2 SWAP1 PUSH2 0x111A JUMP JUMPDEST PUSH0 PUSH1 0x40 MLOAD DUP1 DUP4 SUB DUP2 PUSH0 DUP8 DUP1 EXTCODESIZE ISZERO DUP1 ISZERO PUSH2 0x349 JUMPI PUSH0 PUSH0 REVERT JUMPDEST POP GAS CALL ISZERO DUP1 ISZERO PUSH2 0x35B JUMPI RETURNDATASIZE PUSH0 PUSH0 RETURNDATACOPY RETURNDATASIZE PUSH0 REVERT JUMPDEST POP POP POP POP DUP2 PUSH0 ADD PUSH0 SWAP1 SLOAD SWAP1 PUSH2 0x100 EXP SWAP1 DIV PUSH20 0xFFFFFFFFFFFFFFFFFFFFFFFFFFFFFFFFFFFFFFFF AND PUSH20 0xFFFFFFFFFFFFFFFFFFFFFFFFFFFFFFFFFFFFFFFF AND PUSH2 0x8FC DUP4 PUSH1 0x1 ADD SLOAD SWAP1 DUP2 ISZERO MUL SWAP1 PUSH1 0x40 MLOAD PUSH0 PUSH1 0x40 MLOAD DUP1 DUP4 SUB DUP2 DUP6 DUP9 DUP9 CALL SWAP4 POP POP POP POP ISZERO DUP1 ISZERO PUSH2 0x3C8 JUMPI RETURNDATASIZE PUSH0 PUSH0 RETURNDATACOPY RETURNDATASIZE PUSH0 REVERT JUMPDEST POP DUP2 PUSH1 0x1 ADD SLOAD CALLVALUE GT ISZERO PUSH2 0x429 JUMPI CALLER PUSH20 0xFFFFFFFFFFFFFFFFFFFFFFFFFFFFFFFFFFFFFFFF AND PUSH2 0x8FC DUP4 PUSH1 0x1 ADD SLOAD CALLVALUE PUSH2 0x3FF SWAP2 SWAP1 PUSH2 0x117C JUMP JUMPDEST SWAP1 DUP2 ISZERO MUL SWAP1 PUSH1 0x40 MLOAD PUSH0 PUSH1 0x40 MLOAD DUP1 DUP4 SUB DUP2 DUP6 DUP9 DUP9 CALL SWAP4 POP POP POP POP ISZERO DUP1 ISZERO PUSH2 0x427 JUMPI RETURNDATASIZE PUSH0 PUSH0 RETURNDATACOPY RETURNDATASIZE PUSH0 REVERT JUMPDEST POP JUMPDEST DUP3 DUP5 PUSH20 0xFFFFFFFFFFFFFFFFFFFFFFFFFFFFFFFFFFFFFFFF AND CALLER PUSH20 0xFFFFFFFFFFFFFFFFFFFFFFFFFFFFFFFFFFFFFFFF AND PUSH32 0x46661DAB58311A6838247AFECBEE792192B4F27FC8B3E7168C66BC55EC2E404E DUP6 PUSH1 0x1 ADD SLOAD PUSH1 0x40 MLOAD PUSH2 0x48B SWAP2 SWAP1 PUSH2 0x104B JUMP JUMPDEST PUSH1 0x40 MLOAD DUP1 SWAP2 SUB SWAP1 LOG4 PUSH0 PUSH0 DUP6 PUSH20 0xFFFFFFFFFFFFFFFFFFFFFFFFFFFFFFFFFFFFFFFF AND PUSH20 0xFFFFFFFFFFFFFFFFFFFFFFFFFFFFFFFFFFFFFFFF AND DUP2 MSTORE PUSH1 0x20 ADD SWAP1 DUP2 MSTORE PUSH1 0x20 ADD PUSH0 KECCAK256 PUSH0 DUP5 DUP2 MSTORE PUSH1 0x20 ADD SWAP1 DUP2 MSTORE PUSH1 0x20 ADD PUSH0 KECCAK256 PUSH0 PUSH0 DUP3 ADD PUSH0 PUSH2 0x100 EXP DUP2 SLOAD SWAP1 PUSH20 0xFFFFFFFFFFFFFFFFFFFFFFFFFFFFFFFFFFFFFFFF MUL NOT AND SWAP1 SSTORE PUSH1 0x1 DUP3 ADD PUSH0 SWAP1 SSTORE POP POP POP POP POP POP JUMP JUMPDEST PUSH0 DUP2 GT PUSH2 0x555 JUMPI PUSH1 0x40 MLOAD PUSH32 0x8C379A000000000000000000000000000000000000000000000000000000000 DUP2 MSTORE PUSH1 0x4 ADD PUSH2 0x54C SWAP1 PUSH2 0xFB6 JUMP JUMPDEST PUSH1 0x40 MLOAD DUP1 SWAP2 SUB SWAP1 REVERT JUMPDEST PUSH0 PUSH0 PUSH0 DUP6 PUSH20 0xFFFFFFFFFFFFFFFFFFFFFFFFFFFFFFFFFFFFFFFF AND PUSH20 0xFFFFFFFFFFFFFFFFFFFFFFFFFFFFFFFFFFFFFFFF AND DUP2 MSTORE PUSH1 0x20 ADD SWAP1 DUP2 MSTORE PUSH1 0x20 ADD PUSH0 KECCAK256 PUSH0 DUP5 DUP2 MSTORE PUSH1 0x20 ADD SWAP1 DUP2 MSTORE PUSH1 0x20 ADD PUSH0 KECCAK256 SWAP1 POP CALLER PUSH20 0xFFFFFFFFFFFFFFFFFFFFFFFFFFFFFFFFFFFFFFFF AND DUP2 PUSH0 ADD PUSH0 SWAP1 SLOAD SWAP1 PUSH2 0x100 EXP SWAP1 DIV PUSH20 0xFFFFFFFFFFFFFFFFFFFFFFFFFFFFFFFFFFFFFFFF AND PUSH20 0xFFFFFFFFFFFFFFFFFFFFFFFFFFFFFFFFFFFFFFFF AND EQ PUSH2 0x633 JUMPI PUSH1 0x40 MLOAD PUSH32 0x8C379A000000000000000000000000000000000000000000000000000000000 DUP2 MSTORE PUSH1 0x4 ADD PUSH2 0x62A SWAP1 PUSH2 0x11F9 JUMP JUMPDEST PUSH1 0x40 MLOAD DUP1 SWAP2 SUB SWAP1 REVERT JUMPDEST PUSH0 DUP5 SWAP1 POP ADDRESS PUSH20 0xFFFFFFFFFFFFFFFFFFFFFFFFFFFFFFFFFFFFFFFF AND DUP2 PUSH20 0xFFFFFFFFFFFFFFFFFFFFFFFFFFFFFFFFFFFFFFFF AND PUSH4 0x6352211E DUP7 PUSH1 0x40 MLOAD DUP3 PUSH4 0xFFFFFFFF AND PUSH1 0xE0 SHL DUP2 MSTORE PUSH1 0x4 ADD PUSH2 0x687 SWAP2 SWAP1 PUSH2 0x104B JUMP JUMPDEST PUSH1 0x20 PUSH1 0x40 MLOAD DUP1 DUP4 SUB DUP2 DUP7 GAS STATICCALL ISZERO DUP1 ISZERO PUSH2 0x6A2 JUMPI RETURNDATASIZE PUSH0 PUSH0 RETURNDATACOPY RETURNDATASIZE PUSH0 REVERT JUMPDEST POP POP POP POP PUSH1 0x40 MLOAD RETURNDATASIZE PUSH1 0x1F NOT PUSH1 0x1F DUP3 ADD AND DUP3 ADD DUP1 PUSH1 0x40 MSTORE POP DUP2 ADD SWAP1 PUSH2 0x6C6 SWAP2 SWAP1 PUSH2 0x1078 JUMP JUMPDEST PUSH20 0xFFFFFFFFFFFFFFFFFFFFFFFFFFFFFFFFFFFFFFFF AND EQ PUSH2 0x71C JUMPI PUSH1 0x40 MLOAD PUSH32 0x8C379A000000000000000000000000000000000000000000000000000000000 DUP2 MSTORE PUSH1 0x4 ADD PUSH2 0x713 SWAP1 PUSH2 0x10ED JUMP JUMPDEST PUSH1 0x40 MLOAD DUP1 SWAP2 SUB SWAP1 REVERT JUMPDEST DUP3 DUP3 PUSH1 0x1 ADD DUP2 SWAP1 SSTORE POP DUP4 DUP6 PUSH20 0xFFFFFFFFFFFFFFFFFFFFFFFFFFFFFFFFFFFFFFFF AND CALLER PUSH20 0xFFFFFFFFFFFFFFFFFFFFFFFFFFFFFFFFFFFFFFFF AND PUSH32 0xB7F0CA7CD5B24651672216886135B99FF40342BCF549009A4C6FC74F059FB9A0 DUP7 PUSH1 0x40 MLOAD PUSH2 0x783 SWAP2 SWAP1 PUSH2 0x104B JUMP JUMPDEST PUSH1 0x40 MLOAD DUP1 SWAP2 SUB SWAP1 LOG4 POP POP POP POP POP JUMP JUMPDEST PUSH0 DUP4 SWAP1 POP ADDRESS PUSH20 0xFFFFFFFFFFFFFFFFFFFFFFFFFFFFFFFFFFFFFFFF AND DUP2 PUSH20 0xFFFFFFFFFFFFFFFFFFFFFFFFFFFFFFFFFFFFFFFF AND PUSH4 0x81812FC DUP6 PUSH1 0x40 MLOAD DUP3 PUSH4 0xFFFFFFFF AND PUSH1 0xE0 SHL DUP2 MSTORE PUSH1 0x4 ADD PUSH2 0x7E6 SWAP2 SWAP1 PUSH2 0x104B JUMP JUMPDEST PUSH1 0x20 PUSH1 0x40 MLOAD DUP1 DUP4 SUB DUP2 DUP7 GAS STATICCALL ISZERO DUP1 ISZERO PUSH2 0x801 JUMPI RETURNDATASIZE PUSH0 PUSH0 RETURNDATACOPY RETURNDATASIZE PUSH0 REVERT JUMPDEST POP POP POP POP PUSH1 0x40 MLOAD RETURNDATASIZE PUSH1 0x1F NOT PUSH1 0x1F DUP3 ADD AND DUP3 ADD DUP1 PUSH1 0x40 MSTORE POP DUP2 ADD SWAP1 PUSH2 0x825 SWAP2 SWAP1 PUSH2 0x1078 JUMP JUMPDEST PUSH20 0xFFFFFFFFFFFFFFFFFFFFFFFFFFFFFFFFFFFFFFFF AND EQ PUSH2 0x87B JUMPI PUSH1 0x40 MLOAD PUSH32 0x8C379A000000000000000000000000000000000000000000000000000000000 DUP2 MSTORE PUSH1 0x4 ADD PUSH2 0x872 SWAP1 PUSH2 0x1261 JUMP JUMPDEST PUSH1 0x40 MLOAD DUP1 SWAP2 SUB SWAP1 REVERT JUMPDEST PUSH0 DUP3 GT PUSH2 0x886 JUMPI PUSH0 PUSH0 REVERT JUMPDEST PUSH0 PUSH0 PUSH0 DUP7 PUSH20 0xFFFFFFFFFFFFFFFFFFFFFFFFFFFFFFFFFFFFFFFF AND PUSH20 0xFFFFFFFFFFFFFFFFFFFFFFFFFFFFFFFFFFFFFFFF AND DUP2 MSTORE PUSH1 0x20 ADD SWAP1 DUP2 MSTORE PUSH1 0x20 ADD PUSH0 KECCAK256 PUSH0 DUP6 DUP2 MSTORE PUSH1 0x20 ADD SWAP1 DUP2 MSTORE PUSH1 0x20 ADD PUSH0 KECCAK256 SWAP1 POP CALLER DUP2 PUSH0 ADD PUSH0 PUSH2 0x100 EXP DUP2 SLOAD DUP2 PUSH20 0xFFFFFFFFFFFFFFFFFFFFFFFFFFFFFFFFFFFFFFFF MUL NOT AND SWAP1 DUP4 PUSH20 0xFFFFFFFFFFFFFFFFFFFFFFFFFFFFFFFFFFFFFFFF AND MUL OR SWAP1 SSTORE POP DUP3 DUP2 PUSH1 0x1 ADD DUP2 SWAP1 SSTORE POP DUP2 PUSH20 0xFFFFFFFFFFFFFFFFFFFFFFFFFFFFFFFFFFFFFFFF AND PUSH4 0x42842E0E CALLER ADDRESS DUP8 PUSH1 0x40 MLOAD DUP5 PUSH4 0xFFFFFFFF AND PUSH1 0xE0 SHL DUP2 MSTORE PUSH1 0x4 ADD PUSH2 0x95B SWAP4 SWAP3 SWAP2 SWAP1 PUSH2 0x111A JUMP JUMPDEST PUSH0 PUSH1 0x40 MLOAD DUP1 DUP4 SUB DUP2 PUSH0 DUP8 DUP1 EXTCODESIZE ISZERO DUP1 ISZERO PUSH2 0x972 JUMPI PUSH0 PUSH0 REVERT JUMPDEST POP GAS CALL ISZERO DUP1 ISZERO PUSH2 0x984 JUMPI RETURNDATASIZE PUSH0 PUSH0 RETURNDATACOPY RETURNDATASIZE PUSH0 REVERT JUMPDEST POP POP POP POP DUP4 DUP6 PUSH20 0xFFFFFFFFFFFFFFFFFFFFFFFFFFFFFFFFFFFFFFFF AND CALLER PUSH20 0xFFFFFFFFFFFFFFFFFFFFFFFFFFFFFFFFFFFFFFFF AND PUSH32 0xEDBDF022944A3291F4B30148903A84720506F48E10478EC5812E5CAF30E1FAB0 DUP7 PUSH1 0x40 MLOAD PUSH2 0x9E6 SWAP2 SWAP1 PUSH2 0x104B JUMP JUMPDEST PUSH1 0x40 MLOAD DUP1 SWAP2 SUB SWAP1 LOG4 POP POP POP POP POP JUMP JUMPDEST PUSH0 PUSH0 PUSH0 DUP5 PUSH20 0xFFFFFFFFFFFFFFFFFFFFFFFFFFFFFFFFFFFFFFFF AND PUSH20 0xFFFFFFFFFFFFFFFFFFFFFFFFFFFFFFFFFFFFFFFF AND DUP2 MSTORE PUSH1 0x20 ADD SWAP1 DUP2 MSTORE PUSH1 0x20 ADD PUSH0 KECCAK256 PUSH0 DUP4 DUP2 MSTORE PUSH1 0x20 ADD SWAP1 DUP2 MSTORE PUSH1 0x20 ADD PUSH0 KECCAK256 SWAP1 POP CALLER PUSH20 0xFFFFFFFFFFFFFFFFFFFFFFFFFFFFFFFFFFFFFFFF AND DUP2 PUSH0 ADD PUSH0 SWAP1 SLOAD SWAP1 PUSH2 0x100 EXP SWAP1 DIV PUSH20 0xFFFFFFFFFFFFFFFFFFFFFFFFFFFFFFFFFFFFFFFF AND PUSH20 0xFFFFFFFFFFFFFFFFFFFFFFFFFFFFFFFFFFFFFFFF AND EQ PUSH2 0xAD3 JUMPI PUSH1 0x40 MLOAD PUSH32 0x8C379A000000000000000000000000000000000000000000000000000000000 DUP2 MSTORE PUSH1 0x4 ADD PUSH2 0xACA SWAP1 PUSH2 0x11F9 JUMP JUMPDEST PUSH1 0x40 MLOAD DUP1 SWAP2 SUB SWAP1 REVERT JUMPDEST PUSH0 DUP4 SWAP1 POP ADDRESS PUSH20 0xFFFFFFFFFFFFFFFFFFFFFFFFFFFFFFFFFFFFFFFF AND DUP2 PUSH20 0xFFFFFFFFFFFFFFFFFFFFFFFFFFFFFFFFFFFFFFFF AND PUSH4 0x6352211E DUP6 PUSH1 0x40 MLOAD DUP3 PUSH4 0xFFFFFFFF AND PUSH1 0xE0 SHL DUP2 MSTORE PUSH1 0x4 ADD PUSH2 0xB27 SWAP2 SWAP1 PUSH2 0x104B JUMP JUMPDEST PUSH1 0x20 PUSH1 0x40 MLOAD DUP1 DUP4 SUB DUP2 DUP7 GAS STATICCALL ISZERO DUP1 ISZERO PUSH2 0xB42 JUMPI RETURNDATASIZE PUSH0 PUSH0 RETURNDATACOPY RETURNDATASIZE PUSH0 REVERT JUMPDEST POP POP POP POP PUSH1 0x40 MLOAD RETURNDATASIZE PUSH1 0x1F NOT PUSH1 0x1F DUP3 ADD AND DUP3 ADD DUP1 PUSH1 0x40 MSTORE POP DUP2 ADD SWAP1 PUSH2 0xB66 SWAP2 SWAP1 PUSH2 0x1078 JUMP JUMPDEST PUSH20 0xFFFFFFFFFFFFFFFFFFFFFFFFFFFFFFFFFFFFFFFF AND EQ PUSH2 0xBBC JUMPI PUSH1 0x40 MLOAD PUSH32 0x8C379A000000000000000000000000000000000000000000000000000000000 DUP2 MSTORE PUSH1 0x4 ADD PUSH2 0xBB3 SWAP1 PUSH2 0x10ED JUMP JUMPDEST PUSH1 0x40 MLOAD DUP1 SWAP2 SUB SWAP1 REVERT JUMPDEST DUP1 PUSH20 0xFFFFFFFFFFFFFFFFFFFFFFFFFFFFFFFFFFFFFFFF AND PUSH4 0x42842E0E ADDRESS CALLER DUP7 PUSH1 0x40 MLOAD DUP5 PUSH4 0xFFFFFFFF AND PUSH1 0xE0 SHL DUP2 MSTORE PUSH1 0x4 ADD PUSH2 0xBF9 SWAP4 SWAP3 SWAP2 SWAP1 PUSH2 0x111A JUMP JUMPDEST PUSH0 PUSH1 0x40 MLOAD DUP1 DUP4 SUB DUP2 PUSH0 DUP8 DUP1 EXTCODESIZE ISZERO DUP1 ISZERO PUSH2 0xC10 JUMPI PUSH0 PUSH0 REVERT JUMPDEST POP GAS CALL ISZERO DUP1 ISZERO PUSH2 0xC22 JUMPI RETURNDATASIZE PUSH0 PUSH0 RETURNDATACOPY RETURNDATASIZE PUSH0 REVERT JUMPDEST POP POP POP POP PUSH0 PUSH0 DUP6 PUSH20 0xFFFFFFFFFFFFFFFFFFFFFFFFFFFFFFFFFFFFFFFF AND PUSH20 0xFFFFFFFFFFFFFFFFFFFFFFFFFFFFFFFFFFFFFFFF AND DUP2 MSTORE PUSH1 0x20 ADD SWAP1 DUP2 MSTORE PUSH1 0x20 ADD PUSH0 KECCAK256 PUSH0 DUP5 DUP2 MSTORE PUSH1 0x20 ADD SWAP1 DUP2 MSTORE PUSH1 0x20 ADD PUSH0 KECCAK256 PUSH0 PUSH0 DUP3 ADD PUSH0 PUSH2 0x100 EXP DUP2 SLOAD SWAP1 PUSH20 0xFFFFFFFFFFFFFFFFFFFFFFFFFFFFFFFFFFFFFFFF MUL NOT AND SWAP1 SSTORE PUSH1 0x1 DUP3 ADD PUSH0 SWAP1 SSTORE POP POP DUP3 DUP5 PUSH20 0xFFFFFFFFFFFFFFFFFFFFFFFFFFFFFFFFFFFFFFFF AND CALLER PUSH20 0xFFFFFFFFFFFFFFFFFFFFFFFFFFFFFFFFFFFFFFFF AND PUSH32 0xB698E31A2ABEE5824D0D7BCFD2339AEAD7F9E9AE413FBA50BF554FF3FA470B7B PUSH1 0x40 MLOAD PUSH1 0x40 MLOAD DUP1 SWAP2 SUB SWAP1 LOG4 POP POP POP POP JUMP JUMPDEST PUSH0 PUSH0 REVERT JUMPDEST PUSH0 PUSH0 REVERT JUMPDEST PUSH0 PUSH20 0xFFFFFFFFFFFFFFFFFFFFFFFFFFFFFFFFFFFFFFFF DUP3 AND SWAP1 POP SWAP2 SWAP1 POP JUMP JUMPDEST PUSH0 PUSH2 0xD32 DUP3 PUSH2 0xD09 JUMP JUMPDEST SWAP1 POP SWAP2 SWAP1 POP JUMP JUMPDEST PUSH2 0xD42 DUP2 PUSH2 0xD28 JUMP JUMPDEST DUP2 EQ PUSH2 0xD4C JUMPI PUSH0 PUSH0 REVERT JUMPDEST POP JUMP JUMPDEST PUSH0 DUP2 CALLDATALOAD SWAP1 POP PUSH2 0xD5D DUP2 PUSH2 0xD39 JUMP JUMPDEST SWAP3 SWAP2 POP POP JUMP JUMPDEST PUSH0 DUP2 SWAP1 POP SWAP2 SWAP1 POP JUMP JUMPDEST PUSH2 0xD75 DUP2 PUSH2 0xD63 JUMP JUMPDEST DUP2 EQ PUSH2 0xD7F JUMPI PUSH0 PUSH0 REVERT JUMPDEST POP JUMP JUMPDEST PUSH0 DUP2 CALLDATALOAD SWAP1 POP PUSH2 0xD90 DUP2 PUSH2 0xD6C JUMP JUMPDEST SWAP3 SWAP2 POP POP JUMP JUMPDEST PUSH0 PUSH0 REVERT JUMPDEST PUSH0 PUSH0 REVERT JUMPDEST PUSH0 PUSH0 REVERT JUMPDEST PUSH0 PUSH0 DUP4 PUSH1 0x1F DUP5 ADD SLT PUSH2 0xDB7 JUMPI PUSH2 0xDB6 PUSH2 0xD96 JUMP JUMPDEST JUMPDEST DUP3 CALLDATALOAD SWAP1 POP PUSH8 0xFFFFFFFFFFFFFFFF DUP2 GT ISZERO PUSH2 0xDD4 JUMPI PUSH2 0xDD3 PUSH2 0xD9A JUMP JUMPDEST JUMPDEST PUSH1 0x20 DUP4 ADD SWAP2 POP DUP4 PUSH1 0x1 DUP3 MUL DUP4 ADD GT ISZERO PUSH2 0xDF0 JUMPI PUSH2 0xDEF PUSH2 0xD9E JUMP JUMPDEST JUMPDEST SWAP3 POP SWAP3 SWAP1 POP JUMP JUMPDEST PUSH0 PUSH0 PUSH0 PUSH0 PUSH0 PUSH1 0x80 DUP7 DUP9 SUB SLT ISZERO PUSH2 0xE10 JUMPI PUSH2 0xE0F PUSH2 0xD01 JUMP JUMPDEST JUMPDEST PUSH0 PUSH2 0xE1D DUP9 DUP3 DUP10 ADD PUSH2 0xD4F JUMP JUMPDEST SWAP6 POP POP PUSH1 0x20 PUSH2 0xE2E DUP9 DUP3 DUP10 ADD PUSH2 0xD4F JUMP JUMPDEST SWAP5 POP POP PUSH1 0x40 PUSH2 0xE3F DUP9 DUP3 DUP10 ADD PUSH2 0xD82 JUMP JUMPDEST SWAP4 POP POP PUSH1 0x60 DUP7 ADD CALLDATALOAD PUSH8 0xFFFFFFFFFFFFFFFF DUP2 GT ISZERO PUSH2 0xE60 JUMPI PUSH2 0xE5F PUSH2 0xD05 JUMP JUMPDEST JUMPDEST PUSH2 0xE6C DUP9 DUP3 DUP10 ADD PUSH2 0xDA2 JUMP JUMPDEST SWAP3 POP SWAP3 POP POP SWAP3 SWAP6 POP SWAP3 SWAP6 SWAP1 SWAP4 POP JUMP JUMPDEST PUSH0 PUSH32 0xFFFFFFFF00000000000000000000000000000000000000000000000000000000 DUP3 AND SWAP1 POP SWAP2 SWAP1 POP JUMP JUMPDEST PUSH2 0xEAF DUP2 PUSH2 0xE7B JUMP JUMPDEST DUP3 MSTORE POP POP JUMP JUMPDEST PUSH0 PUSH1 0x20 DUP3 ADD SWAP1 POP PUSH2 0xEC8 PUSH0 DUP4 ADD DUP5 PUSH2 0xEA6 JUMP JUMPDEST SWAP3 SWAP2 POP POP JUMP JUMPDEST PUSH0 PUSH0 PUSH1 0x40 DUP4 DUP6 SUB SLT ISZERO PUSH2 0xEE4 JUMPI PUSH2 0xEE3 PUSH2 0xD01 JUMP JUMPDEST JUMPDEST PUSH0 PUSH2 0xEF1 DUP6 DUP3 DUP7 ADD PUSH2 0xD4F JUMP JUMPDEST SWAP3 POP POP PUSH1 0x20 PUSH2 0xF02 DUP6 DUP3 DUP7 ADD PUSH2 0xD82 JUMP JUMPDEST SWAP2 POP POP SWAP3 POP SWAP3 SWAP1 POP JUMP JUMPDEST PUSH0 PUSH0 PUSH0 PUSH1 0x60 DUP5 DUP7 SUB SLT ISZERO PUSH2 0xF23 JUMPI PUSH2 0xF22 PUSH2 0xD01 JUMP JUMPDEST JUMPDEST PUSH0 PUSH2 0xF30 DUP7 DUP3 DUP8 ADD PUSH2 0xD4F JUMP JUMPDEST SWAP4 POP POP PUSH1 0x20 PUSH2 0xF41 DUP7 DUP3 DUP8 ADD PUSH2 0xD82 JUMP JUMPDEST SWAP3 POP POP PUSH1 0x40 PUSH2 0xF52 DUP7 DUP3 DUP8 ADD PUSH2 0xD82 JUMP JUMPDEST SWAP2 POP POP SWAP3 POP SWAP3 POP SWAP3 JUMP JUMPDEST PUSH0 DUP3 DUP3 MSTORE PUSH1 0x20 DUP3 ADD SWAP1 POP SWAP3 SWAP2 POP POP JUMP JUMPDEST PUSH32 0x496E76616C696420507269636500000000000000000000000000000000000000 PUSH0 DUP3 ADD MSTORE POP JUMP JUMPDEST PUSH0 PUSH2 0xFA0 PUSH1 0xD DUP4 PUSH2 0xF5C JUMP JUMPDEST SWAP2 POP PUSH2 0xFAB DUP3 PUSH2 0xF6C JUMP JUMPDEST PUSH1 0x20 DUP3 ADD SWAP1 POP SWAP2 SWAP1 POP JUMP JUMPDEST PUSH0 PUSH1 0x20 DUP3 ADD SWAP1 POP DUP2 DUP2 SUB PUSH0 DUP4 ADD MSTORE PUSH2 0xFCD DUP2 PUSH2 0xF94 JUMP JUMPDEST SWAP1 POP SWAP2 SWAP1 POP JUMP JUMPDEST PUSH32 0x496E637265617365207072696365000000000000000000000000000000000000 PUSH0 DUP3 ADD MSTORE POP JUMP JUMPDEST PUSH0 PUSH2 0x1008 PUSH1 0xE DUP4 PUSH2 0xF5C JUMP JUMPDEST SWAP2 POP PUSH2 0x1013 DUP3 PUSH2 0xFD4 JUMP JUMPDEST PUSH1 0x20 DUP3 ADD SWAP1 POP SWAP2 SWAP1 POP JUMP JUMPDEST PUSH0 PUSH1 0x20 DUP3 ADD SWAP1 POP DUP2 DUP2 SUB PUSH0 DUP4 ADD MSTORE PUSH2 0x1035 DUP2 PUSH2 0xFFC JUMP JUMPDEST SWAP1 POP SWAP2 SWAP1 POP JUMP JUMPDEST PUSH2 0x1045 DUP2 PUSH2 0xD63 JUMP JUMPDEST DUP3 MSTORE POP POP JUMP JUMPDEST PUSH0 PUSH1 0x20 DUP3 ADD SWAP1 POP PUSH2 0x105E PUSH0 DUP4 ADD DUP5 PUSH2 0x103C JUMP JUMPDEST SWAP3 SWAP2 POP POP JUMP JUMPDEST PUSH0 DUP2 MLOAD SWAP1 POP PUSH2 0x1072 DUP2 PUSH2 0xD39 JUMP JUMPDEST SWAP3 SWAP2 POP POP JUMP JUMPDEST PUSH0 PUSH1 0x20 DUP3 DUP5 SUB SLT ISZERO PUSH2 0x108D JUMPI PUSH2 0x108C PUSH2 0xD01 JUMP JUMPDEST JUMPDEST PUSH0 PUSH2 0x109A DUP5 DUP3 DUP6 ADD PUSH2 0x1064 JUMP JUMPDEST SWAP2 POP POP SWAP3 SWAP2 POP POP JUMP JUMPDEST PUSH32 0x496E76616C6964204F7264657200000000000000000000000000000000000000 PUSH0 DUP3 ADD MSTORE POP JUMP JUMPDEST PUSH0 PUSH2 0x10D7 PUSH1 0xD DUP4 PUSH2 0xF5C JUMP JUMPDEST SWAP2 POP PUSH2 0x10E2 DUP3 PUSH2 0x10A3 JUMP JUMPDEST PUSH1 0x20 DUP3 ADD SWAP1 POP SWAP2 SWAP1 POP JUMP JUMPDEST PUSH0 PUSH1 0x20 DUP3 ADD SWAP1 POP DUP2 DUP2 SUB PUSH0 DUP4 ADD MSTORE PUSH2 0x1104 DUP2 PUSH2 0x10CB JUMP JUMPDEST SWAP1 POP SWAP2 SWAP1 POP JUMP JUMPDEST PUSH2 0x1114 DUP2 PUSH2 0xD28 JUMP JUMPDEST DUP3 MSTORE POP POP JUMP JUMPDEST PUSH0 PUSH1 0x60 DUP3 ADD SWAP1 POP PUSH2 0x112D PUSH0 DUP4 ADD DUP7 PUSH2 0x110B JUMP JUMPDEST PUSH2 0x113A PUSH1 0x20 DUP4 ADD DUP6 PUSH2 0x110B JUMP JUMPDEST PUSH2 0x1147 PUSH1 0x40 DUP4 ADD DUP5 PUSH2 0x103C JUMP JUMPDEST SWAP5 SWAP4 POP POP POP POP JUMP JUMPDEST PUSH32 0x4E487B7100000000000000000000000000000000000000000000000000000000 PUSH0 MSTORE PUSH1 0x11 PUSH1 0x4 MSTORE PUSH1 0x24 PUSH0 REVERT JUMPDEST PUSH0 PUSH2 0x1186 DUP3 PUSH2 0xD63 JUMP JUMPDEST SWAP2 POP PUSH2 0x1191 DUP4 PUSH2 0xD63 JUMP JUMPDEST SWAP3 POP DUP3 DUP3 SUB SWAP1 POP DUP2 DUP2 GT ISZERO PUSH2 0x11A9 JUMPI PUSH2 0x11A8 PUSH2 0x114F JUMP JUMPDEST JUMPDEST SWAP3 SWAP2 POP POP JUMP JUMPDEST PUSH32 0x4E6F74204F776E65720000000000000000000000000000000000000000000000 PUSH0 DUP3 ADD MSTORE POP JUMP JUMPDEST PUSH0 PUSH2 0x11E3 PUSH1 0x9 DUP4 PUSH2 0xF5C JUMP JUMPDEST SWAP2 POP PUSH2 0x11EE DUP3 PUSH2 0x11AF JUMP JUMPDEST PUSH1 0x20 DUP3 ADD SWAP1 POP SWAP2 SWAP1 POP JUMP JUMPDEST PUSH0 PUSH1 0x20 DUP3 ADD SWAP1 POP DUP2 DUP2 SUB PUSH0 DUP4 ADD MSTORE PUSH2 0x1210 DUP2 PUSH2 0x11D7 JUMP JUMPDEST SWAP1 POP SWAP2 SWAP1 POP JUMP JUMPDEST PUSH32 0x4E65656420417070726F76616C00000000000000000000000000000000000000 PUSH0 DUP3 ADD MSTORE POP JUMP JUMPDEST PUSH0 PUSH2 0x124B PUSH1 0xD DUP4 PUSH2 0xF5C JUMP JUMPDEST SWAP2 POP PUSH2 0x1256 DUP3 PUSH2 0x1217 JUMP JUMPDEST PUSH1 0x20 DUP3 ADD SWAP1 POP SWAP2 SWAP1 POP JUMP JUMPDEST PUSH0 PUSH1 0x20 DUP3 ADD SWAP1 POP DUP2 DUP2 SUB PUSH0 DUP4 ADD MSTORE PUSH2 0x1278 DUP2 PUSH2 0x123F JUMP JUMPDEST SWAP1 POP SWAP2 SWAP1 POP JUMP INVALID LOG2 PUSH5 0x6970667358 0x22 SLT KECCAK256 MSTORE 0xEF 0xB5 0xA6 LOG2 PUSH28 0x91E13A6606CC1DBEB742E78FDD2E58F547563817E032118AF7D76473 PUSH16 0x6C634300081E00330000000000000000 "
				},
				"gasEstimates": {
					"creation": {
						"codeDepositCost": "957800",
						"executionCost": "992",
						"totalCost": "958792"
					},
					"external": {
						"list(address,uint256,uint256)": "infinite",
						"onERC721Received(address,address,uint256,bytes)": "infinite",
						"purchase(address,uint256)": "infinite",
						"revoke(address,uint256)": "infinite",
						"update(address,uint256,uint256)": "infinite"
					}
				},
				"methodIdentifiers": {
					"list(address,uint256,uint256)": "dda342bb",
					"onERC721Received(address,address,uint256,bytes)": "150b7a02",
					"purchase(address,uint256)": "8de93222",
					"revoke(address,uint256)": "eac449d9",
					"update(address,uint256,uint256)": "d09b6d43"
				}
			},
			"storageLayout": {
				"storage": [
					{
						"astId": 148,
						"contract": "103/NFTSwap.sol:NFTSwap",
						"label": "nftList",
						"offset": 0,
						"slot": "0",
						"type": "t_mapping(t_address,t_mapping(t_uint256,t_struct(Order)141_storage))"
					}
				],
				"types": {
					"t_address": {
						"encoding": "inplace",
						"label": "address",
						"numberOfBytes": "20"
					},
					"t_mapping(t_address,t_mapping(t_uint256,t_struct(Order)141_storage))": {
						"encoding": "mapping",
						"key": "t_address",
						"label": "mapping(address => mapping(uint256 => struct NFTSwap.Order))",
						"numberOfBytes": "32",
						"value": "t_mapping(t_uint256,t_struct(Order)141_storage)"
					},
					"t_mapping(t_uint256,t_struct(Order)141_storage)": {
						"encoding": "mapping",
						"key": "t_uint256",
						"label": "mapping(uint256 => struct NFTSwap.Order)",
						"numberOfBytes": "32",
						"value": "t_struct(Order)141_storage"
					},
					"t_struct(Order)141_storage": {
						"encoding": "inplace",
						"label": "struct NFTSwap.Order",
						"members": [
							{
								"astId": 138,
								"contract": "103/NFTSwap.sol:NFTSwap",
								"label": "owner",
								"offset": 0,
								"slot": "0",
								"type": "t_address"
							},
							{
								"astId": 140,
								"contract": "103/NFTSwap.sol:NFTSwap",
								"label": "price",
								"offset": 0,
								"slot": "1",
								"type": "t_uint256"
							}
						],
						"numberOfBytes": "64"
					},
					"t_uint256": {
						"encoding": "inplace",
						"label": "uint256",
						"numberOfBytes": "32"
					}
				}
			},
			"userdoc": {
				"kind": "user",
				"methods": {},
				"version": 1
			}
		}
	}
}