{
	"t.sol": {
		"SimpleVoting": {
			"abi": [
				{
					"inputs": [
						{
							"internalType": "string",
							"name": "_name",
							"type": "string"
						}
					],
					"name": "addCandidate",
					"outputs": [],
					"stateMutability": "nonpayable",
					"type": "function"
				},
				{
					"inputs": [
						{
							"internalType": "uint256",
							"name": "",
							"type": "uint256"
						}
					],
					"name": "candidates",
					"outputs": [
						{
							"internalType": "uint256",
							"name": "id",
							"type": "uint256"
						},
						{
							"internalType": "string",
							"name": "name",
							"type": "string"
						},
						{
							"internalType": "uint256",
							"name": "voteCount",
							"type": "uint256"
						}
					],
					"stateMutability": "view",
					"type": "function"
				},
				{
					"inputs": [
						{
							"internalType": "uint256",
							"name": "_candidateId",
							"type": "uint256"
						}
					],
					"name": "getVotes",
					"outputs": [
						{
							"internalType": "uint256",
							"name": "",
							"type": "uint256"
						}
					],
					"stateMutability": "view",
					"type": "function"
				},
				{
					"inputs": [
						{
							"internalType": "uint256",
							"name": "_candidateId",
							"type": "uint256"
						}
					],
					"name": "vote",
					"outputs": [],
					"stateMutability": "nonpayable",
					"type": "function"
				},
				{
					"inputs": [
						{
							"internalType": "address",
							"name": "",
							"type": "address"
						}
					],
					"name": "voters",
					"outputs": [
						{
							"internalType": "bool",
							"name": "",
							"type": "bool"
						}
					],
					"stateMutability": "view",
					"type": "function"
				}
			],
			"devdoc": {
				"kind": "dev",
				"methods": {},
				"version": 1
			},
			"evm": {
				"assembly": "    /* \"t.sol\":85:1472  contract SimpleVoting {... */\n  mstore(0x40, 0x80)\n  callvalue\n  dup1\n  iszero\n  tag_1\n  jumpi\n  revert(0x00, 0x00)\ntag_1:\n  pop\n  dataSize(sub_0)\n  dup1\n  dataOffset(sub_0)\n  0x00\n  codecopy\n  0x00\n  return\nstop\n\nsub_0: assembly {\n        /* \"t.sol\":85:1472  contract SimpleVoting {... */\n      mstore(0x40, 0x80)\n      callvalue\n      dup1\n      iszero\n      tag_1\n      jumpi\n      revert(0x00, 0x00)\n    tag_1:\n      pop\n      jumpi(tag_2, lt(calldatasize, 0x04))\n      shr(0xe0, calldataload(0x00))\n      dup1\n      0x0121b93f\n      eq\n      tag_3\n      jumpi\n      dup1\n      0x3477ee2e\n      eq\n      tag_4\n      jumpi\n      dup1\n      0x462e91ec\n      eq\n      tag_5\n      jumpi\n      dup1\n      0xa3ec138d\n      eq\n      tag_6\n      jumpi\n      dup1\n      0xff981099\n      eq\n      tag_7\n      jumpi\n    tag_2:\n      revert(0x00, 0x00)\n        /* \"t.sol\":786:1221  function vote(uint256 _candidateId) public {... */\n    tag_3:\n      tag_8\n      0x04\n      dup1\n      calldatasize\n      sub\n      dup2\n      add\n      swap1\n      tag_9\n      swap2\n      swap1\n      tag_10\n      jump\t// in\n    tag_9:\n      tag_11\n      jump\t// in\n    tag_8:\n      stop\n        /* \"t.sol\":284:313  Candidate[] public candidates */\n    tag_4:\n      tag_12\n      0x04\n      dup1\n      calldatasize\n      sub\n      dup2\n      add\n      swap1\n      tag_13\n      swap2\n      swap1\n      tag_10\n      jump\t// in\n    tag_13:\n      tag_14\n      jump\t// in\n    tag_12:\n      mload(0x40)\n      tag_15\n      swap4\n      swap3\n      swap2\n      swap1\n      tag_16\n      jump\t// in\n    tag_15:\n      mload(0x40)\n      dup1\n      swap2\n      sub\n      swap1\n      return\n        /* \"t.sol\":435:760  function addCandidate(string memory _name) public {... */\n    tag_5:\n      tag_17\n      0x04\n      dup1\n      calldatasize\n      sub\n      dup2\n      add\n      swap1\n      tag_18\n      swap2\n      swap1\n      tag_19\n      jump\t// in\n    tag_18:\n      tag_20\n      jump\t// in\n    tag_17:\n      stop\n        /* \"t.sol\":367:405  mapping(address => bool) public voters */\n    tag_6:\n      tag_21\n      0x04\n      dup1\n      calldatasize\n      sub\n      dup2\n      add\n      swap1\n      tag_22\n      swap2\n      swap1\n      tag_23\n      jump\t// in\n    tag_22:\n      tag_24\n      jump\t// in\n    tag_21:\n      mload(0x40)\n      tag_25\n      swap2\n      swap1\n      tag_26\n      jump\t// in\n    tag_25:\n      mload(0x40)\n      dup1\n      swap2\n      sub\n      swap1\n      return\n        /* \"t.sol\":1262:1470  function getVotes(uint256 _candidateId) public view returns (uint256) {... */\n    tag_7:\n      tag_27\n      0x04\n      dup1\n      calldatasize\n      sub\n      dup2\n      add\n      swap1\n      tag_28\n      swap2\n      swap1\n      tag_10\n      jump\t// in\n    tag_28:\n      tag_29\n      jump\t// in\n    tag_27:\n      mload(0x40)\n      tag_30\n      swap2\n      swap1\n      tag_31\n      jump\t// in\n    tag_30:\n      mload(0x40)\n      dup1\n      swap2\n      sub\n      swap1\n      return\n        /* \"t.sol\":786:1221  function vote(uint256 _candidateId) public {... */\n    tag_11:\n        /* \"t.sol\":890:896  voters */\n      0x01\n        /* \"t.sol\":890:908  voters[msg.sender] */\n      0x00\n        /* \"t.sol\":897:907  msg.sender */\n      caller\n        /* \"t.sol\":890:908  voters[msg.sender] */\n      0xffffffffffffffffffffffffffffffffffffffff\n      and\n      0xffffffffffffffffffffffffffffffffffffffff\n      and\n      dup2\n      mstore\n      0x20\n      add\n      swap1\n      dup2\n      mstore\n      0x20\n      add\n      0x00\n      keccak256\n      0x00\n      swap1\n      sload\n      swap1\n      0x0100\n      exp\n      swap1\n      div\n      0xff\n      and\n        /* \"t.sol\":889:908  !voters[msg.sender] */\n      iszero\n        /* \"t.sol\":881:936  require(!voters[msg.sender], \"You can only vote once.\") */\n      tag_33\n      jumpi\n      mload(0x40)\n      0x08c379a000000000000000000000000000000000000000000000000000000000\n      dup2\n      mstore\n      0x04\n      add\n      tag_34\n      swap1\n      tag_35\n      jump\t// in\n    tag_34:\n      mload(0x40)\n      dup1\n      swap2\n      sub\n      swap1\n      revert\n    tag_33:\n        /* \"t.sol\":1009:1019  candidates */\n      0x00\n        /* \"t.sol\":1009:1026  candidates.length */\n      dup1\n      sload\n      swap1\n      pop\n        /* \"t.sol\":994:1006  _candidateId */\n      dup2\n        /* \"t.sol\":994:1026  _candidateId < candidates.length */\n      lt\n        /* \"t.sol\":986:1056  require(_candidateId < candidates.length, \"Candidate does not exist.\") */\n      tag_36\n      jumpi\n      mload(0x40)\n      0x08c379a000000000000000000000000000000000000000000000000000000000\n      dup2\n      mstore\n      0x04\n      add\n      tag_37\n      swap1\n      tag_38\n      jump\t// in\n    tag_37:\n      mload(0x40)\n      dup1\n      swap2\n      sub\n      swap1\n      revert\n    tag_36:\n        /* \"t.sol\":1106:1116  candidates */\n      0x00\n        /* \"t.sol\":1117:1129  _candidateId */\n      dup2\n        /* \"t.sol\":1106:1130  candidates[_candidateId] */\n      dup2\n      sload\n      dup2\n      lt\n      tag_39\n      jumpi\n      tag_40\n      tag_41\n      jump\t// in\n    tag_40:\n    tag_39:\n      swap1\n      0x00\n      mstore\n      keccak256(0x00, 0x20)\n      swap1\n      0x03\n      mul\n      add\n        /* \"t.sol\":1106:1140  candidates[_candidateId].voteCount */\n      0x02\n      add\n      0x00\n        /* \"t.sol\":1106:1142  candidates[_candidateId].voteCount++ */\n      dup2\n      sload\n      dup1\n      swap3\n      swap2\n      swap1\n      tag_43\n      swap1\n      tag_44\n      jump\t// in\n    tag_43:\n      swap2\n      swap1\n      pop\n      sstore\n      pop\n        /* \"t.sol\":1210:1214  true */\n      0x01\n        /* \"t.sol\":1189:1195  voters */\n      dup1\n        /* \"t.sol\":1189:1207  voters[msg.sender] */\n      0x00\n        /* \"t.sol\":1196:1206  msg.sender */\n      caller\n        /* \"t.sol\":1189:1207  voters[msg.sender] */\n      0xffffffffffffffffffffffffffffffffffffffff\n      and\n      0xffffffffffffffffffffffffffffffffffffffff\n      and\n      dup2\n      mstore\n      0x20\n      add\n      swap1\n      dup2\n      mstore\n      0x20\n      add\n      0x00\n      keccak256\n      0x00\n        /* \"t.sol\":1189:1214  voters[msg.sender] = true */\n      0x0100\n      exp\n      dup2\n      sload\n      dup2\n      0xff\n      mul\n      not\n      and\n      swap1\n      dup4\n      iszero\n      iszero\n      mul\n      or\n      swap1\n      sstore\n      pop\n        /* \"t.sol\":786:1221  function vote(uint256 _candidateId) public {... */\n      pop\n      jump\t// out\n        /* \"t.sol\":284:313  Candidate[] public candidates */\n    tag_14:\n      0x00\n      dup2\n      dup2\n      sload\n      dup2\n      lt\n      tag_45\n      jumpi\n      0x00\n      dup1\n      revert\n    tag_45:\n      swap1\n      0x00\n      mstore\n      keccak256(0x00, 0x20)\n      swap1\n      0x03\n      mul\n      add\n      0x00\n      swap2\n      pop\n      swap1\n      pop\n      dup1\n      0x00\n      add\n      sload\n      swap1\n      dup1\n      0x01\n      add\n      dup1\n      sload\n      tag_47\n      swap1\n      tag_48\n      jump\t// in\n    tag_47:\n      dup1\n      0x1f\n      add\n      0x20\n      dup1\n      swap2\n      div\n      mul\n      0x20\n      add\n      mload(0x40)\n      swap1\n      dup2\n      add\n      0x40\n      mstore\n      dup1\n      swap3\n      swap2\n      swap1\n      dup2\n      dup2\n      mstore\n      0x20\n      add\n      dup3\n      dup1\n      sload\n      tag_49\n      swap1\n      tag_48\n      jump\t// in\n    tag_49:\n      dup1\n      iszero\n      tag_50\n      jumpi\n      dup1\n      0x1f\n      lt\n      tag_51\n      jumpi\n      0x0100\n      dup1\n      dup4\n      sload\n      div\n      mul\n      dup4\n      mstore\n      swap2\n      0x20\n      add\n      swap2\n      jump(tag_50)\n    tag_51:\n      dup3\n      add\n      swap2\n      swap1\n      0x00\n      mstore\n      keccak256(0x00, 0x20)\n      swap1\n    tag_52:\n      dup2\n      sload\n      dup2\n      mstore\n      swap1\n      0x01\n      add\n      swap1\n      0x20\n      add\n      dup1\n      dup4\n      gt\n      tag_52\n      jumpi\n      dup3\n      swap1\n      sub\n      0x1f\n      and\n      dup3\n      add\n      swap2\n    tag_50:\n      pop\n      pop\n      pop\n      pop\n      pop\n      swap1\n      dup1\n      0x02\n      add\n      sload\n      swap1\n      pop\n      dup4\n      jump\t// out\n        /* \"t.sol\":435:760  function addCandidate(string memory _name) public {... */\n    tag_20:\n        /* \"t.sol\":617:636  uint256 candidateId */\n      0x00\n        /* \"t.sol\":639:649  candidates */\n      0x00\n        /* \"t.sol\":639:656  candidates.length */\n      dup1\n      sload\n      swap1\n      pop\n        /* \"t.sol\":617:656  uint256 candidateId = candidates.length */\n      swap1\n      pop\n        /* \"t.sol\":666:676  candidates */\n      0x00\n        /* \"t.sol\":682:714  Candidate(candidateId, _name, 0) */\n      mload(0x40)\n      dup1\n      0x60\n      add\n      0x40\n      mstore\n      dup1\n        /* \"t.sol\":692:703  candidateId */\n      dup4\n        /* \"t.sol\":682:714  Candidate(candidateId, _name, 0) */\n      dup2\n      mstore\n      0x20\n      add\n        /* \"t.sol\":705:710  _name */\n      dup5\n        /* \"t.sol\":682:714  Candidate(candidateId, _name, 0) */\n      dup2\n      mstore\n      0x20\n      add\n        /* \"t.sol\":712:713  0 */\n      0x00\n        /* \"t.sol\":682:714  Candidate(candidateId, _name, 0) */\n      dup2\n      mstore\n      pop\n        /* \"t.sol\":666:715  candidates.push(Candidate(candidateId, _name, 0)) */\n      swap1\n      dup1\n      0x01\n      dup2\n      sload\n      add\n      dup1\n      dup3\n      sstore\n      dup1\n      swap2\n      pop\n      pop\n      0x01\n      swap1\n      sub\n      swap1\n      0x00\n      mstore\n      keccak256(0x00, 0x20)\n      swap1\n      0x03\n      mul\n      add\n      0x00\n      swap1\n      swap2\n      swap1\n      swap2\n      swap1\n      swap2\n      pop\n      0x00\n      dup3\n      add\n      mload\n      dup2\n      0x00\n      add\n      sstore\n      0x20\n      dup3\n      add\n      mload\n      dup2\n      0x01\n      add\n      swap1\n      dup2\n      tag_55\n      swap2\n      swap1\n      tag_56\n      jump\t// in\n    tag_55:\n      pop\n      0x40\n      dup3\n      add\n      mload\n      dup2\n      0x02\n      add\n      sstore\n      pop\n      pop\n        /* \"t.sol\":485:760  {... */\n      pop\n        /* \"t.sol\":435:760  function addCandidate(string memory _name) public {... */\n      pop\n      jump\t// out\n        /* \"t.sol\":367:405  mapping(address => bool) public voters */\n    tag_24:\n      mstore(0x20, 0x01)\n      dup1\n      0x00\n      mstore\n      keccak256(0x00, 0x40)\n      0x00\n      swap2\n      pop\n      sload\n      swap1\n      0x0100\n      exp\n      swap1\n      div\n      0xff\n      and\n      dup2\n      jump\t// out\n        /* \"t.sol\":1262:1470  function getVotes(uint256 _candidateId) public view returns (uint256) {... */\n    tag_29:\n        /* \"t.sol\":1323:1330  uint256 */\n      0x00\n        /* \"t.sol\":1365:1375  candidates */\n      0x00\n        /* \"t.sol\":1365:1382  candidates.length */\n      dup1\n      sload\n      swap1\n      pop\n        /* \"t.sol\":1350:1362  _candidateId */\n      dup3\n        /* \"t.sol\":1350:1382  _candidateId < candidates.length */\n      lt\n        /* \"t.sol\":1342:1412  require(_candidateId < candidates.length, \"Candidate does not exist.\") */\n      tag_58\n      jumpi\n      mload(0x40)\n      0x08c379a000000000000000000000000000000000000000000000000000000000\n      dup2\n      mstore\n      0x04\n      add\n      tag_59\n      swap1\n      tag_38\n      jump\t// in\n    tag_59:\n      mload(0x40)\n      dup1\n      swap2\n      sub\n      swap1\n      revert\n    tag_58:\n        /* \"t.sol\":1429:1439  candidates */\n      0x00\n        /* \"t.sol\":1440:1452  _candidateId */\n      dup3\n        /* \"t.sol\":1429:1453  candidates[_candidateId] */\n      dup2\n      sload\n      dup2\n      lt\n      tag_60\n      jumpi\n      tag_61\n      tag_41\n      jump\t// in\n    tag_61:\n    tag_60:\n      swap1\n      0x00\n      mstore\n      keccak256(0x00, 0x20)\n      swap1\n      0x03\n      mul\n      add\n        /* \"t.sol\":1429:1463  candidates[_candidateId].voteCount */\n      0x02\n      add\n      sload\n        /* \"t.sol\":1422:1463  return candidates[_candidateId].voteCount */\n      swap1\n      pop\n        /* \"t.sol\":1262:1470  function getVotes(uint256 _candidateId) public view returns (uint256) {... */\n      swap2\n      swap1\n      pop\n      jump\t// out\n        /* \"#utility.yul\":7:82   */\n    tag_63:\n        /* \"#utility.yul\":40:46   */\n      0x00\n        /* \"#utility.yul\":73:75   */\n      0x40\n        /* \"#utility.yul\":67:76   */\n      mload\n        /* \"#utility.yul\":57:76   */\n      swap1\n      pop\n        /* \"#utility.yul\":7:82   */\n      swap1\n      jump\t// out\n        /* \"#utility.yul\":88:205   */\n    tag_64:\n        /* \"#utility.yul\":197:198   */\n      0x00\n        /* \"#utility.yul\":194:195   */\n      0x00\n        /* \"#utility.yul\":187:199   */\n      revert\n        /* \"#utility.yul\":211:328   */\n    tag_65:\n        /* \"#utility.yul\":320:321   */\n      0x00\n        /* \"#utility.yul\":317:318   */\n      0x00\n        /* \"#utility.yul\":310:322   */\n      revert\n        /* \"#utility.yul\":334:411   */\n    tag_66:\n        /* \"#utility.yul\":371:378   */\n      0x00\n        /* \"#utility.yul\":400:405   */\n      dup2\n        /* \"#utility.yul\":389:405   */\n      swap1\n      pop\n        /* \"#utility.yul\":334:411   */\n      swap2\n      swap1\n      pop\n      jump\t// out\n        /* \"#utility.yul\":417:539   */\n    tag_67:\n        /* \"#utility.yul\":490:514   */\n      tag_117\n        /* \"#utility.yul\":508:513   */\n      dup2\n        /* \"#utility.yul\":490:514   */\n      tag_66\n      jump\t// in\n    tag_117:\n        /* \"#utility.yul\":483:488   */\n      dup2\n        /* \"#utility.yul\":480:515   */\n      eq\n        /* \"#utility.yul\":470:533   */\n      tag_118\n      jumpi\n        /* \"#utility.yul\":529:530   */\n      0x00\n        /* \"#utility.yul\":526:527   */\n      0x00\n        /* \"#utility.yul\":519:531   */\n      revert\n        /* \"#utility.yul\":470:533   */\n    tag_118:\n        /* \"#utility.yul\":417:539   */\n      pop\n      jump\t// out\n        /* \"#utility.yul\":545:684   */\n    tag_68:\n        /* \"#utility.yul\":591:596   */\n      0x00\n        /* \"#utility.yul\":629:635   */\n      dup2\n        /* \"#utility.yul\":616:636   */\n      calldataload\n        /* \"#utility.yul\":607:636   */\n      swap1\n      pop\n        /* \"#utility.yul\":645:678   */\n      tag_120\n        /* \"#utility.yul\":672:677   */\n      dup2\n        /* \"#utility.yul\":645:678   */\n      tag_67\n      jump\t// in\n    tag_120:\n        /* \"#utility.yul\":545:684   */\n      swap3\n      swap2\n      pop\n      pop\n      jump\t// out\n        /* \"#utility.yul\":690:1019   */\n    tag_10:\n        /* \"#utility.yul\":749:755   */\n      0x00\n        /* \"#utility.yul\":798:800   */\n      0x20\n        /* \"#utility.yul\":786:795   */\n      dup3\n        /* \"#utility.yul\":777:784   */\n      dup5\n        /* \"#utility.yul\":773:796   */\n      sub\n        /* \"#utility.yul\":769:801   */\n      slt\n        /* \"#utility.yul\":766:885   */\n      iszero\n      tag_122\n      jumpi\n        /* \"#utility.yul\":804:883   */\n      tag_123\n      tag_64\n      jump\t// in\n    tag_123:\n        /* \"#utility.yul\":766:885   */\n    tag_122:\n        /* \"#utility.yul\":924:925   */\n      0x00\n        /* \"#utility.yul\":949:1002   */\n      tag_124\n        /* \"#utility.yul\":994:1001   */\n      dup5\n        /* \"#utility.yul\":985:991   */\n      dup3\n        /* \"#utility.yul\":974:983   */\n      dup6\n        /* \"#utility.yul\":970:992   */\n      add\n        /* \"#utility.yul\":949:1002   */\n      tag_68\n      jump\t// in\n    tag_124:\n        /* \"#utility.yul\":939:1002   */\n      swap2\n      pop\n        /* \"#utility.yul\":895:1012   */\n      pop\n        /* \"#utility.yul\":690:1019   */\n      swap3\n      swap2\n      pop\n      pop\n      jump\t// out\n        /* \"#utility.yul\":1025:1143   */\n    tag_69:\n        /* \"#utility.yul\":1112:1136   */\n      tag_126\n        /* \"#utility.yul\":1130:1135   */\n      dup2\n        /* \"#utility.yul\":1112:1136   */\n      tag_66\n      jump\t// in\n    tag_126:\n        /* \"#utility.yul\":1107:1110   */\n      dup3\n        /* \"#utility.yul\":1100:1137   */\n      mstore\n        /* \"#utility.yul\":1025:1143   */\n      pop\n      pop\n      jump\t// out\n        /* \"#utility.yul\":1149:1248   */\n    tag_70:\n        /* \"#utility.yul\":1201:1207   */\n      0x00\n        /* \"#utility.yul\":1235:1240   */\n      dup2\n        /* \"#utility.yul\":1229:1241   */\n      mload\n        /* \"#utility.yul\":1219:1241   */\n      swap1\n      pop\n        /* \"#utility.yul\":1149:1248   */\n      swap2\n      swap1\n      pop\n      jump\t// out\n        /* \"#utility.yul\":1254:1423   */\n    tag_71:\n        /* \"#utility.yul\":1338:1349   */\n      0x00\n        /* \"#utility.yul\":1372:1378   */\n      dup3\n        /* \"#utility.yul\":1367:1370   */\n      dup3\n        /* \"#utility.yul\":1360:1379   */\n      mstore\n        /* \"#utility.yul\":1412:1416   */\n      0x20\n        /* \"#utility.yul\":1407:1410   */\n      dup3\n        /* \"#utility.yul\":1403:1417   */\n      add\n        /* \"#utility.yul\":1388:1417   */\n      swap1\n      pop\n        /* \"#utility.yul\":1254:1423   */\n      swap3\n      swap2\n      pop\n      pop\n      jump\t// out\n        /* \"#utility.yul\":1429:1568   */\n    tag_72:\n        /* \"#utility.yul\":1518:1524   */\n      dup3\n        /* \"#utility.yul\":1513:1516   */\n      dup2\n        /* \"#utility.yul\":1508:1511   */\n      dup4\n        /* \"#utility.yul\":1502:1525   */\n      mcopy\n        /* \"#utility.yul\":1559:1560   */\n      0x00\n        /* \"#utility.yul\":1550:1556   */\n      dup4\n        /* \"#utility.yul\":1545:1548   */\n      dup4\n        /* \"#utility.yul\":1541:1557   */\n      add\n        /* \"#utility.yul\":1534:1561   */\n      mstore\n        /* \"#utility.yul\":1429:1568   */\n      pop\n      pop\n      pop\n      jump\t// out\n        /* \"#utility.yul\":1574:1676   */\n    tag_73:\n        /* \"#utility.yul\":1615:1621   */\n      0x00\n        /* \"#utility.yul\":1666:1668   */\n      0x1f\n        /* \"#utility.yul\":1662:1669   */\n      not\n        /* \"#utility.yul\":1657:1659   */\n      0x1f\n        /* \"#utility.yul\":1650:1655   */\n      dup4\n        /* \"#utility.yul\":1646:1660   */\n      add\n        /* \"#utility.yul\":1642:1670   */\n      and\n        /* \"#utility.yul\":1632:1670   */\n      swap1\n      pop\n        /* \"#utility.yul\":1574:1676   */\n      swap2\n      swap1\n      pop\n      jump\t// out\n        /* \"#utility.yul\":1682:2059   */\n    tag_74:\n        /* \"#utility.yul\":1770:1773   */\n      0x00\n        /* \"#utility.yul\":1798:1837   */\n      tag_132\n        /* \"#utility.yul\":1831:1836   */\n      dup3\n        /* \"#utility.yul\":1798:1837   */\n      tag_70\n      jump\t// in\n    tag_132:\n        /* \"#utility.yul\":1853:1924   */\n      tag_133\n        /* \"#utility.yul\":1917:1923   */\n      dup2\n        /* \"#utility.yul\":1912:1915   */\n      dup6\n        /* \"#utility.yul\":1853:1924   */\n      tag_71\n      jump\t// in\n    tag_133:\n        /* \"#utility.yul\":1846:1924   */\n      swap4\n      pop\n        /* \"#utility.yul\":1933:1998   */\n      tag_134\n        /* \"#utility.yul\":1991:1997   */\n      dup2\n        /* \"#utility.yul\":1986:1989   */\n      dup6\n        /* \"#utility.yul\":1979:1983   */\n      0x20\n        /* \"#utility.yul\":1972:1977   */\n      dup7\n        /* \"#utility.yul\":1968:1984   */\n      add\n        /* \"#utility.yul\":1933:1998   */\n      tag_72\n      jump\t// in\n    tag_134:\n        /* \"#utility.yul\":2023:2052   */\n      tag_135\n        /* \"#utility.yul\":2045:2051   */\n      dup2\n        /* \"#utility.yul\":2023:2052   */\n      tag_73\n      jump\t// in\n    tag_135:\n        /* \"#utility.yul\":2018:2021   */\n      dup5\n        /* \"#utility.yul\":2014:2053   */\n      add\n        /* \"#utility.yul\":2007:2053   */\n      swap2\n      pop\n        /* \"#utility.yul\":1774:2059   */\n      pop\n        /* \"#utility.yul\":1682:2059   */\n      swap3\n      swap2\n      pop\n      pop\n      jump\t// out\n        /* \"#utility.yul\":2065:2598   */\n    tag_16:\n        /* \"#utility.yul\":2234:2238   */\n      0x00\n        /* \"#utility.yul\":2272:2274   */\n      0x60\n        /* \"#utility.yul\":2261:2270   */\n      dup3\n        /* \"#utility.yul\":2257:2275   */\n      add\n        /* \"#utility.yul\":2249:2275   */\n      swap1\n      pop\n        /* \"#utility.yul\":2285:2356   */\n      tag_137\n        /* \"#utility.yul\":2353:2354   */\n      0x00\n        /* \"#utility.yul\":2342:2351   */\n      dup4\n        /* \"#utility.yul\":2338:2355   */\n      add\n        /* \"#utility.yul\":2329:2335   */\n      dup7\n        /* \"#utility.yul\":2285:2356   */\n      tag_69\n      jump\t// in\n    tag_137:\n        /* \"#utility.yul\":2403:2412   */\n      dup2\n        /* \"#utility.yul\":2397:2401   */\n      dup2\n        /* \"#utility.yul\":2393:2413   */\n      sub\n        /* \"#utility.yul\":2388:2390   */\n      0x20\n        /* \"#utility.yul\":2377:2386   */\n      dup4\n        /* \"#utility.yul\":2373:2391   */\n      add\n        /* \"#utility.yul\":2366:2414   */\n      mstore\n        /* \"#utility.yul\":2431:2509   */\n      tag_138\n        /* \"#utility.yul\":2504:2508   */\n      dup2\n        /* \"#utility.yul\":2495:2501   */\n      dup6\n        /* \"#utility.yul\":2431:2509   */\n      tag_74\n      jump\t// in\n    tag_138:\n        /* \"#utility.yul\":2423:2509   */\n      swap1\n      pop\n        /* \"#utility.yul\":2519:2591   */\n      tag_139\n        /* \"#utility.yul\":2587:2589   */\n      0x40\n        /* \"#utility.yul\":2576:2585   */\n      dup4\n        /* \"#utility.yul\":2572:2590   */\n      add\n        /* \"#utility.yul\":2563:2569   */\n      dup5\n        /* \"#utility.yul\":2519:2591   */\n      tag_69\n      jump\t// in\n    tag_139:\n        /* \"#utility.yul\":2065:2598   */\n      swap5\n      swap4\n      pop\n      pop\n      pop\n      pop\n      jump\t// out\n        /* \"#utility.yul\":2604:2721   */\n    tag_75:\n        /* \"#utility.yul\":2713:2714   */\n      0x00\n        /* \"#utility.yul\":2710:2711   */\n      0x00\n        /* \"#utility.yul\":2703:2715   */\n      revert\n        /* \"#utility.yul\":2727:2844   */\n    tag_76:\n        /* \"#utility.yul\":2836:2837   */\n      0x00\n        /* \"#utility.yul\":2833:2834   */\n      0x00\n        /* \"#utility.yul\":2826:2838   */\n      revert\n        /* \"#utility.yul\":2850:3030   */\n    tag_77:\n        /* \"#utility.yul\":2898:2975   */\n      0x4e487b7100000000000000000000000000000000000000000000000000000000\n        /* \"#utility.yul\":2895:2896   */\n      0x00\n        /* \"#utility.yul\":2888:2976   */\n      mstore\n        /* \"#utility.yul\":2995:2999   */\n      0x41\n        /* \"#utility.yul\":2992:2993   */\n      0x04\n        /* \"#utility.yul\":2985:3000   */\n      mstore\n        /* \"#utility.yul\":3019:3023   */\n      0x24\n        /* \"#utility.yul\":3016:3017   */\n      0x00\n        /* \"#utility.yul\":3009:3024   */\n      revert\n        /* \"#utility.yul\":3036:3317   */\n    tag_78:\n        /* \"#utility.yul\":3119:3146   */\n      tag_144\n        /* \"#utility.yul\":3141:3145   */\n      dup3\n        /* \"#utility.yul\":3119:3146   */\n      tag_73\n      jump\t// in\n    tag_144:\n        /* \"#utility.yul\":3111:3117   */\n      dup2\n        /* \"#utility.yul\":3107:3147   */\n      add\n        /* \"#utility.yul\":3249:3255   */\n      dup2\n        /* \"#utility.yul\":3237:3247   */\n      dup2\n        /* \"#utility.yul\":3234:3256   */\n      lt\n        /* \"#utility.yul\":3213:3231   */\n      0xffffffffffffffff\n        /* \"#utility.yul\":3201:3211   */\n      dup3\n        /* \"#utility.yul\":3198:3232   */\n      gt\n        /* \"#utility.yul\":3195:3257   */\n      or\n        /* \"#utility.yul\":3192:3280   */\n      iszero\n      tag_145\n      jumpi\n        /* \"#utility.yul\":3260:3278   */\n      tag_146\n      tag_77\n      jump\t// in\n    tag_146:\n        /* \"#utility.yul\":3192:3280   */\n    tag_145:\n        /* \"#utility.yul\":3300:3310   */\n      dup1\n        /* \"#utility.yul\":3296:3298   */\n      0x40\n        /* \"#utility.yul\":3289:3311   */\n      mstore\n        /* \"#utility.yul\":3079:3317   */\n      pop\n        /* \"#utility.yul\":3036:3317   */\n      pop\n      pop\n      jump\t// out\n        /* \"#utility.yul\":3323:3452   */\n    tag_79:\n        /* \"#utility.yul\":3357:3363   */\n      0x00\n        /* \"#utility.yul\":3384:3404   */\n      tag_148\n      tag_63\n      jump\t// in\n    tag_148:\n        /* \"#utility.yul\":3374:3404   */\n      swap1\n      pop\n        /* \"#utility.yul\":3413:3446   */\n      tag_149\n        /* \"#utility.yul\":3441:3445   */\n      dup3\n        /* \"#utility.yul\":3433:3439   */\n      dup3\n        /* \"#utility.yul\":3413:3446   */\n      tag_78\n      jump\t// in\n    tag_149:\n        /* \"#utility.yul\":3323:3452   */\n      swap2\n      swap1\n      pop\n      jump\t// out\n        /* \"#utility.yul\":3458:3766   */\n    tag_80:\n        /* \"#utility.yul\":3520:3524   */\n      0x00\n        /* \"#utility.yul\":3610:3628   */\n      0xffffffffffffffff\n        /* \"#utility.yul\":3602:3608   */\n      dup3\n        /* \"#utility.yul\":3599:3629   */\n      gt\n        /* \"#utility.yul\":3596:3652   */\n      iszero\n      tag_151\n      jumpi\n        /* \"#utility.yul\":3632:3650   */\n      tag_152\n      tag_77\n      jump\t// in\n    tag_152:\n        /* \"#utility.yul\":3596:3652   */\n    tag_151:\n        /* \"#utility.yul\":3670:3699   */\n      tag_153\n        /* \"#utility.yul\":3692:3698   */\n      dup3\n        /* \"#utility.yul\":3670:3699   */\n      tag_73\n      jump\t// in\n    tag_153:\n        /* \"#utility.yul\":3662:3699   */\n      swap1\n      pop\n        /* \"#utility.yul\":3754:3758   */\n      0x20\n        /* \"#utility.yul\":3748:3752   */\n      dup2\n        /* \"#utility.yul\":3744:3759   */\n      add\n        /* \"#utility.yul\":3736:3759   */\n      swap1\n      pop\n        /* \"#utility.yul\":3458:3766   */\n      swap2\n      swap1\n      pop\n      jump\t// out\n        /* \"#utility.yul\":3772:3920   */\n    tag_81:\n        /* \"#utility.yul\":3870:3876   */\n      dup3\n        /* \"#utility.yul\":3865:3868   */\n      dup2\n        /* \"#utility.yul\":3860:3863   */\n      dup4\n        /* \"#utility.yul\":3847:3877   */\n      calldatacopy\n        /* \"#utility.yul\":3911:3912   */\n      0x00\n        /* \"#utility.yul\":3902:3908   */\n      dup4\n        /* \"#utility.yul\":3897:3900   */\n      dup4\n        /* \"#utility.yul\":3893:3909   */\n      add\n        /* \"#utility.yul\":3886:3913   */\n      mstore\n        /* \"#utility.yul\":3772:3920   */\n      pop\n      pop\n      pop\n      jump\t// out\n        /* \"#utility.yul\":3926:4351   */\n    tag_82:\n        /* \"#utility.yul\":4004:4009   */\n      0x00\n        /* \"#utility.yul\":4029:4095   */\n      tag_156\n        /* \"#utility.yul\":4045:4094   */\n      tag_157\n        /* \"#utility.yul\":4087:4093   */\n      dup5\n        /* \"#utility.yul\":4045:4094   */\n      tag_80\n      jump\t// in\n    tag_157:\n        /* \"#utility.yul\":4029:4095   */\n      tag_79\n      jump\t// in\n    tag_156:\n        /* \"#utility.yul\":4020:4095   */\n      swap1\n      pop\n        /* \"#utility.yul\":4118:4124   */\n      dup3\n        /* \"#utility.yul\":4111:4116   */\n      dup2\n        /* \"#utility.yul\":4104:4125   */\n      mstore\n        /* \"#utility.yul\":4156:4160   */\n      0x20\n        /* \"#utility.yul\":4149:4154   */\n      dup2\n        /* \"#utility.yul\":4145:4161   */\n      add\n        /* \"#utility.yul\":4194:4197   */\n      dup5\n        /* \"#utility.yul\":4185:4191   */\n      dup5\n        /* \"#utility.yul\":4180:4183   */\n      dup5\n        /* \"#utility.yul\":4176:4192   */\n      add\n        /* \"#utility.yul\":4173:4198   */\n      gt\n        /* \"#utility.yul\":4170:4282   */\n      iszero\n      tag_158\n      jumpi\n        /* \"#utility.yul\":4201:4280   */\n      tag_159\n      tag_76\n      jump\t// in\n    tag_159:\n        /* \"#utility.yul\":4170:4282   */\n    tag_158:\n        /* \"#utility.yul\":4291:4345   */\n      tag_160\n        /* \"#utility.yul\":4338:4344   */\n      dup5\n        /* \"#utility.yul\":4333:4336   */\n      dup3\n        /* \"#utility.yul\":4328:4331   */\n      dup6\n        /* \"#utility.yul\":4291:4345   */\n      tag_81\n      jump\t// in\n    tag_160:\n        /* \"#utility.yul\":4010:4351   */\n      pop\n        /* \"#utility.yul\":3926:4351   */\n      swap4\n      swap3\n      pop\n      pop\n      pop\n      jump\t// out\n        /* \"#utility.yul\":4371:4711   */\n    tag_83:\n        /* \"#utility.yul\":4427:4432   */\n      0x00\n        /* \"#utility.yul\":4476:4479   */\n      dup3\n        /* \"#utility.yul\":4469:4473   */\n      0x1f\n        /* \"#utility.yul\":4461:4467   */\n      dup4\n        /* \"#utility.yul\":4457:4474   */\n      add\n        /* \"#utility.yul\":4453:4480   */\n      slt\n        /* \"#utility.yul\":4443:4565   */\n      tag_162\n      jumpi\n        /* \"#utility.yul\":4484:4563   */\n      tag_163\n      tag_75\n      jump\t// in\n    tag_163:\n        /* \"#utility.yul\":4443:4565   */\n    tag_162:\n        /* \"#utility.yul\":4601:4607   */\n      dup2\n        /* \"#utility.yul\":4588:4608   */\n      calldataload\n        /* \"#utility.yul\":4626:4705   */\n      tag_164\n        /* \"#utility.yul\":4701:4704   */\n      dup5\n        /* \"#utility.yul\":4693:4699   */\n      dup3\n        /* \"#utility.yul\":4686:4690   */\n      0x20\n        /* \"#utility.yul\":4678:4684   */\n      dup7\n        /* \"#utility.yul\":4674:4691   */\n      add\n        /* \"#utility.yul\":4626:4705   */\n      tag_82\n      jump\t// in\n    tag_164:\n        /* \"#utility.yul\":4617:4705   */\n      swap2\n      pop\n        /* \"#utility.yul\":4433:4711   */\n      pop\n        /* \"#utility.yul\":4371:4711   */\n      swap3\n      swap2\n      pop\n      pop\n      jump\t// out\n        /* \"#utility.yul\":4717:5226   */\n    tag_19:\n        /* \"#utility.yul\":4786:4792   */\n      0x00\n        /* \"#utility.yul\":4835:4837   */\n      0x20\n        /* \"#utility.yul\":4823:4832   */\n      dup3\n        /* \"#utility.yul\":4814:4821   */\n      dup5\n        /* \"#utility.yul\":4810:4833   */\n      sub\n        /* \"#utility.yul\":4806:4838   */\n      slt\n        /* \"#utility.yul\":4803:4922   */\n      iszero\n      tag_166\n      jumpi\n        /* \"#utility.yul\":4841:4920   */\n      tag_167\n      tag_64\n      jump\t// in\n    tag_167:\n        /* \"#utility.yul\":4803:4922   */\n    tag_166:\n        /* \"#utility.yul\":4989:4990   */\n      0x00\n        /* \"#utility.yul\":4978:4987   */\n      dup3\n        /* \"#utility.yul\":4974:4991   */\n      add\n        /* \"#utility.yul\":4961:4992   */\n      calldataload\n        /* \"#utility.yul\":5019:5037   */\n      0xffffffffffffffff\n        /* \"#utility.yul\":5011:5017   */\n      dup2\n        /* \"#utility.yul\":5008:5038   */\n      gt\n        /* \"#utility.yul\":5005:5122   */\n      iszero\n      tag_168\n      jumpi\n        /* \"#utility.yul\":5041:5120   */\n      tag_169\n      tag_65\n      jump\t// in\n    tag_169:\n        /* \"#utility.yul\":5005:5122   */\n    tag_168:\n        /* \"#utility.yul\":5146:5209   */\n      tag_170\n        /* \"#utility.yul\":5201:5208   */\n      dup5\n        /* \"#utility.yul\":5192:5198   */\n      dup3\n        /* \"#utility.yul\":5181:5190   */\n      dup6\n        /* \"#utility.yul\":5177:5199   */\n      add\n        /* \"#utility.yul\":5146:5209   */\n      tag_83\n      jump\t// in\n    tag_170:\n        /* \"#utility.yul\":5136:5209   */\n      swap2\n      pop\n        /* \"#utility.yul\":4932:5219   */\n      pop\n        /* \"#utility.yul\":4717:5226   */\n      swap3\n      swap2\n      pop\n      pop\n      jump\t// out\n        /* \"#utility.yul\":5232:5358   */\n    tag_84:\n        /* \"#utility.yul\":5269:5276   */\n      0x00\n        /* \"#utility.yul\":5309:5351   */\n      0xffffffffffffffffffffffffffffffffffffffff\n        /* \"#utility.yul\":5302:5307   */\n      dup3\n        /* \"#utility.yul\":5298:5352   */\n      and\n        /* \"#utility.yul\":5287:5352   */\n      swap1\n      pop\n        /* \"#utility.yul\":5232:5358   */\n      swap2\n      swap1\n      pop\n      jump\t// out\n        /* \"#utility.yul\":5364:5460   */\n    tag_85:\n        /* \"#utility.yul\":5401:5408   */\n      0x00\n        /* \"#utility.yul\":5430:5454   */\n      tag_173\n        /* \"#utility.yul\":5448:5453   */\n      dup3\n        /* \"#utility.yul\":5430:5454   */\n      tag_84\n      jump\t// in\n    tag_173:\n        /* \"#utility.yul\":5419:5454   */\n      swap1\n      pop\n        /* \"#utility.yul\":5364:5460   */\n      swap2\n      swap1\n      pop\n      jump\t// out\n        /* \"#utility.yul\":5466:5588   */\n    tag_86:\n        /* \"#utility.yul\":5539:5563   */\n      tag_175\n        /* \"#utility.yul\":5557:5562   */\n      dup2\n        /* \"#utility.yul\":5539:5563   */\n      tag_85\n      jump\t// in\n    tag_175:\n        /* \"#utility.yul\":5532:5537   */\n      dup2\n        /* \"#utility.yul\":5529:5564   */\n      eq\n        /* \"#utility.yul\":5519:5582   */\n      tag_176\n      jumpi\n        /* \"#utility.yul\":5578:5579   */\n      0x00\n        /* \"#utility.yul\":5575:5576   */\n      0x00\n        /* \"#utility.yul\":5568:5580   */\n      revert\n        /* \"#utility.yul\":5519:5582   */\n    tag_176:\n        /* \"#utility.yul\":5466:5588   */\n      pop\n      jump\t// out\n        /* \"#utility.yul\":5594:5733   */\n    tag_87:\n        /* \"#utility.yul\":5640:5645   */\n      0x00\n        /* \"#utility.yul\":5678:5684   */\n      dup2\n        /* \"#utility.yul\":5665:5685   */\n      calldataload\n        /* \"#utility.yul\":5656:5685   */\n      swap1\n      pop\n        /* \"#utility.yul\":5694:5727   */\n      tag_178\n        /* \"#utility.yul\":5721:5726   */\n      dup2\n        /* \"#utility.yul\":5694:5727   */\n      tag_86\n      jump\t// in\n    tag_178:\n        /* \"#utility.yul\":5594:5733   */\n      swap3\n      swap2\n      pop\n      pop\n      jump\t// out\n        /* \"#utility.yul\":5739:6068   */\n    tag_23:\n        /* \"#utility.yul\":5798:5804   */\n      0x00\n        /* \"#utility.yul\":5847:5849   */\n      0x20\n        /* \"#utility.yul\":5835:5844   */\n      dup3\n        /* \"#utility.yul\":5826:5833   */\n      dup5\n        /* \"#utility.yul\":5822:5845   */\n      sub\n        /* \"#utility.yul\":5818:5850   */\n      slt\n        /* \"#utility.yul\":5815:5934   */\n      iszero\n      tag_180\n      jumpi\n        /* \"#utility.yul\":5853:5932   */\n      tag_181\n      tag_64\n      jump\t// in\n    tag_181:\n        /* \"#utility.yul\":5815:5934   */\n    tag_180:\n        /* \"#utility.yul\":5973:5974   */\n      0x00\n        /* \"#utility.yul\":5998:6051   */\n      tag_182\n        /* \"#utility.yul\":6043:6050   */\n      dup5\n        /* \"#utility.yul\":6034:6040   */\n      dup3\n        /* \"#utility.yul\":6023:6032   */\n      dup6\n        /* \"#utility.yul\":6019:6041   */\n      add\n        /* \"#utility.yul\":5998:6051   */\n      tag_87\n      jump\t// in\n    tag_182:\n        /* \"#utility.yul\":5988:6051   */\n      swap2\n      pop\n        /* \"#utility.yul\":5944:6061   */\n      pop\n        /* \"#utility.yul\":5739:6068   */\n      swap3\n      swap2\n      pop\n      pop\n      jump\t// out\n        /* \"#utility.yul\":6074:6164   */\n    tag_88:\n        /* \"#utility.yul\":6108:6115   */\n      0x00\n        /* \"#utility.yul\":6151:6156   */\n      dup2\n        /* \"#utility.yul\":6144:6157   */\n      iszero\n        /* \"#utility.yul\":6137:6158   */\n      iszero\n        /* \"#utility.yul\":6126:6158   */\n      swap1\n      pop\n        /* \"#utility.yul\":6074:6164   */\n      swap2\n      swap1\n      pop\n      jump\t// out\n        /* \"#utility.yul\":6170:6279   */\n    tag_89:\n        /* \"#utility.yul\":6251:6272   */\n      tag_185\n        /* \"#utility.yul\":6266:6271   */\n      dup2\n        /* \"#utility.yul\":6251:6272   */\n      tag_88\n      jump\t// in\n    tag_185:\n        /* \"#utility.yul\":6246:6249   */\n      dup3\n        /* \"#utility.yul\":6239:6273   */\n      mstore\n        /* \"#utility.yul\":6170:6279   */\n      pop\n      pop\n      jump\t// out\n        /* \"#utility.yul\":6285:6495   */\n    tag_26:\n        /* \"#utility.yul\":6372:6376   */\n      0x00\n        /* \"#utility.yul\":6410:6412   */\n      0x20\n        /* \"#utility.yul\":6399:6408   */\n      dup3\n        /* \"#utility.yul\":6395:6413   */\n      add\n        /* \"#utility.yul\":6387:6413   */\n      swap1\n      pop\n        /* \"#utility.yul\":6423:6488   */\n      tag_187\n        /* \"#utility.yul\":6485:6486   */\n      0x00\n        /* \"#utility.yul\":6474:6483   */\n      dup4\n        /* \"#utility.yul\":6470:6487   */\n      add\n        /* \"#utility.yul\":6461:6467   */\n      dup5\n        /* \"#utility.yul\":6423:6488   */\n      tag_89\n      jump\t// in\n    tag_187:\n        /* \"#utility.yul\":6285:6495   */\n      swap3\n      swap2\n      pop\n      pop\n      jump\t// out\n        /* \"#utility.yul\":6501:6723   */\n    tag_31:\n        /* \"#utility.yul\":6594:6598   */\n      0x00\n        /* \"#utility.yul\":6632:6634   */\n      0x20\n        /* \"#utility.yul\":6621:6630   */\n      dup3\n        /* \"#utility.yul\":6617:6635   */\n      add\n        /* \"#utility.yul\":6609:6635   */\n      swap1\n      pop\n        /* \"#utility.yul\":6645:6716   */\n      tag_189\n        /* \"#utility.yul\":6713:6714   */\n      0x00\n        /* \"#utility.yul\":6702:6711   */\n      dup4\n        /* \"#utility.yul\":6698:6715   */\n      add\n        /* \"#utility.yul\":6689:6695   */\n      dup5\n        /* \"#utility.yul\":6645:6716   */\n      tag_69\n      jump\t// in\n    tag_189:\n        /* \"#utility.yul\":6501:6723   */\n      swap3\n      swap2\n      pop\n      pop\n      jump\t// out\n        /* \"#utility.yul\":6729:6902   */\n    tag_90:\n        /* \"#utility.yul\":6869:6894   */\n      0x596f752063616e206f6e6c7920766f7465206f6e63652e000000000000000000\n        /* \"#utility.yul\":6865:6866   */\n      0x00\n        /* \"#utility.yul\":6857:6863   */\n      dup3\n        /* \"#utility.yul\":6853:6867   */\n      add\n        /* \"#utility.yul\":6846:6895   */\n      mstore\n        /* \"#utility.yul\":6729:6902   */\n      pop\n      jump\t// out\n        /* \"#utility.yul\":6908:7274   */\n    tag_91:\n        /* \"#utility.yul\":7050:7053   */\n      0x00\n        /* \"#utility.yul\":7071:7138   */\n      tag_192\n        /* \"#utility.yul\":7135:7137   */\n      0x17\n        /* \"#utility.yul\":7130:7133   */\n      dup4\n        /* \"#utility.yul\":7071:7138   */\n      tag_71\n      jump\t// in\n    tag_192:\n        /* \"#utility.yul\":7064:7138   */\n      swap2\n      pop\n        /* \"#utility.yul\":7147:7240   */\n      tag_193\n        /* \"#utility.yul\":7236:7239   */\n      dup3\n        /* \"#utility.yul\":7147:7240   */\n      tag_90\n      jump\t// in\n    tag_193:\n        /* \"#utility.yul\":7265:7267   */\n      0x20\n        /* \"#utility.yul\":7260:7263   */\n      dup3\n        /* \"#utility.yul\":7256:7268   */\n      add\n        /* \"#utility.yul\":7249:7268   */\n      swap1\n      pop\n        /* \"#utility.yul\":6908:7274   */\n      swap2\n      swap1\n      pop\n      jump\t// out\n        /* \"#utility.yul\":7280:7699   */\n    tag_35:\n        /* \"#utility.yul\":7446:7450   */\n      0x00\n        /* \"#utility.yul\":7484:7486   */\n      0x20\n        /* \"#utility.yul\":7473:7482   */\n      dup3\n        /* \"#utility.yul\":7469:7487   */\n      add\n        /* \"#utility.yul\":7461:7487   */\n      swap1\n      pop\n        /* \"#utility.yul\":7533:7542   */\n      dup2\n        /* \"#utility.yul\":7527:7531   */\n      dup2\n        /* \"#utility.yul\":7523:7543   */\n      sub\n        /* \"#utility.yul\":7519:7520   */\n      0x00\n        /* \"#utility.yul\":7508:7517   */\n      dup4\n        /* \"#utility.yul\":7504:7521   */\n      add\n        /* \"#utility.yul\":7497:7544   */\n      mstore\n        /* \"#utility.yul\":7561:7692   */\n      tag_195\n        /* \"#utility.yul\":7687:7691   */\n      dup2\n        /* \"#utility.yul\":7561:7692   */\n      tag_91\n      jump\t// in\n    tag_195:\n        /* \"#utility.yul\":7553:7692   */\n      swap1\n      pop\n        /* \"#utility.yul\":7280:7699   */\n      swap2\n      swap1\n      pop\n      jump\t// out\n        /* \"#utility.yul\":7705:7880   */\n    tag_92:\n        /* \"#utility.yul\":7845:7872   */\n      0x43616e64696461746520646f6573206e6f742065786973742e00000000000000\n        /* \"#utility.yul\":7841:7842   */\n      0x00\n        /* \"#utility.yul\":7833:7839   */\n      dup3\n        /* \"#utility.yul\":7829:7843   */\n      add\n        /* \"#utility.yul\":7822:7873   */\n      mstore\n        /* \"#utility.yul\":7705:7880   */\n      pop\n      jump\t// out\n        /* \"#utility.yul\":7886:8252   */\n    tag_93:\n        /* \"#utility.yul\":8028:8031   */\n      0x00\n        /* \"#utility.yul\":8049:8116   */\n      tag_198\n        /* \"#utility.yul\":8113:8115   */\n      0x19\n        /* \"#utility.yul\":8108:8111   */\n      dup4\n        /* \"#utility.yul\":8049:8116   */\n      tag_71\n      jump\t// in\n    tag_198:\n        /* \"#utility.yul\":8042:8116   */\n      swap2\n      pop\n        /* \"#utility.yul\":8125:8218   */\n      tag_199\n        /* \"#utility.yul\":8214:8217   */\n      dup3\n        /* \"#utility.yul\":8125:8218   */\n      tag_92\n      jump\t// in\n    tag_199:\n        /* \"#utility.yul\":8243:8245   */\n      0x20\n        /* \"#utility.yul\":8238:8241   */\n      dup3\n        /* \"#utility.yul\":8234:8246   */\n      add\n        /* \"#utility.yul\":8227:8246   */\n      swap1\n      pop\n        /* \"#utility.yul\":7886:8252   */\n      swap2\n      swap1\n      pop\n      jump\t// out\n        /* \"#utility.yul\":8258:8677   */\n    tag_38:\n        /* \"#utility.yul\":8424:8428   */\n      0x00\n        /* \"#utility.yul\":8462:8464   */\n      0x20\n        /* \"#utility.yul\":8451:8460   */\n      dup3\n        /* \"#utility.yul\":8447:8465   */\n      add\n        /* \"#utility.yul\":8439:8465   */\n      swap1\n      pop\n        /* \"#utility.yul\":8511:8520   */\n      dup2\n        /* \"#utility.yul\":8505:8509   */\n      dup2\n        /* \"#utility.yul\":8501:8521   */\n      sub\n        /* \"#utility.yul\":8497:8498   */\n      0x00\n        /* \"#utility.yul\":8486:8495   */\n      dup4\n        /* \"#utility.yul\":8482:8499   */\n      add\n        /* \"#utility.yul\":8475:8522   */\n      mstore\n        /* \"#utility.yul\":8539:8670   */\n      tag_201\n        /* \"#utility.yul\":8665:8669   */\n      dup2\n        /* \"#utility.yul\":8539:8670   */\n      tag_93\n      jump\t// in\n    tag_201:\n        /* \"#utility.yul\":8531:8670   */\n      swap1\n      pop\n        /* \"#utility.yul\":8258:8677   */\n      swap2\n      swap1\n      pop\n      jump\t// out\n        /* \"#utility.yul\":8683:8863   */\n    tag_41:\n        /* \"#utility.yul\":8731:8808   */\n      0x4e487b7100000000000000000000000000000000000000000000000000000000\n        /* \"#utility.yul\":8728:8729   */\n      0x00\n        /* \"#utility.yul\":8721:8809   */\n      mstore\n        /* \"#utility.yul\":8828:8832   */\n      0x32\n        /* \"#utility.yul\":8825:8826   */\n      0x04\n        /* \"#utility.yul\":8818:8833   */\n      mstore\n        /* \"#utility.yul\":8852:8856   */\n      0x24\n        /* \"#utility.yul\":8849:8850   */\n      0x00\n        /* \"#utility.yul\":8842:8857   */\n      revert\n        /* \"#utility.yul\":8869:9049   */\n    tag_94:\n        /* \"#utility.yul\":8917:8994   */\n      0x4e487b7100000000000000000000000000000000000000000000000000000000\n        /* \"#utility.yul\":8914:8915   */\n      0x00\n        /* \"#utility.yul\":8907:8995   */\n      mstore\n        /* \"#utility.yul\":9014:9018   */\n      0x11\n        /* \"#utility.yul\":9011:9012   */\n      0x04\n        /* \"#utility.yul\":9004:9019   */\n      mstore\n        /* \"#utility.yul\":9038:9042   */\n      0x24\n        /* \"#utility.yul\":9035:9036   */\n      0x00\n        /* \"#utility.yul\":9028:9043   */\n      revert\n        /* \"#utility.yul\":9055:9288   */\n    tag_44:\n        /* \"#utility.yul\":9094:9097   */\n      0x00\n        /* \"#utility.yul\":9117:9141   */\n      tag_205\n        /* \"#utility.yul\":9135:9140   */\n      dup3\n        /* \"#utility.yul\":9117:9141   */\n      tag_66\n      jump\t// in\n    tag_205:\n        /* \"#utility.yul\":9108:9141   */\n      swap2\n      pop\n        /* \"#utility.yul\":9163:9229   */\n      0xffffffffffffffffffffffffffffffffffffffffffffffffffffffffffffffff\n        /* \"#utility.yul\":9156:9161   */\n      dup3\n        /* \"#utility.yul\":9153:9230   */\n      sub\n        /* \"#utility.yul\":9150:9253   */\n      tag_206\n      jumpi\n        /* \"#utility.yul\":9233:9251   */\n      tag_207\n      tag_94\n      jump\t// in\n    tag_207:\n        /* \"#utility.yul\":9150:9253   */\n    tag_206:\n        /* \"#utility.yul\":9280:9281   */\n      0x01\n        /* \"#utility.yul\":9273:9278   */\n      dup3\n        /* \"#utility.yul\":9269:9282   */\n      add\n        /* \"#utility.yul\":9262:9282   */\n      swap1\n      pop\n        /* \"#utility.yul\":9055:9288   */\n      swap2\n      swap1\n      pop\n      jump\t// out\n        /* \"#utility.yul\":9294:9474   */\n    tag_95:\n        /* \"#utility.yul\":9342:9419   */\n      0x4e487b7100000000000000000000000000000000000000000000000000000000\n        /* \"#utility.yul\":9339:9340   */\n      0x00\n        /* \"#utility.yul\":9332:9420   */\n      mstore\n        /* \"#utility.yul\":9439:9443   */\n      0x22\n        /* \"#utility.yul\":9436:9437   */\n      0x04\n        /* \"#utility.yul\":9429:9444   */\n      mstore\n        /* \"#utility.yul\":9463:9467   */\n      0x24\n        /* \"#utility.yul\":9460:9461   */\n      0x00\n        /* \"#utility.yul\":9453:9468   */\n      revert\n        /* \"#utility.yul\":9480:9800   */\n    tag_48:\n        /* \"#utility.yul\":9524:9530   */\n      0x00\n        /* \"#utility.yul\":9561:9562   */\n      0x02\n        /* \"#utility.yul\":9555:9559   */\n      dup3\n        /* \"#utility.yul\":9551:9563   */\n      div\n        /* \"#utility.yul\":9541:9563   */\n      swap1\n      pop\n        /* \"#utility.yul\":9608:9609   */\n      0x01\n        /* \"#utility.yul\":9602:9606   */\n      dup3\n        /* \"#utility.yul\":9598:9610   */\n      and\n        /* \"#utility.yul\":9629:9647   */\n      dup1\n        /* \"#utility.yul\":9619:9700   */\n      tag_210\n      jumpi\n        /* \"#utility.yul\":9685:9689   */\n      0x7f\n        /* \"#utility.yul\":9677:9683   */\n      dup3\n        /* \"#utility.yul\":9673:9690   */\n      and\n        /* \"#utility.yul\":9663:9690   */\n      swap2\n      pop\n        /* \"#utility.yul\":9619:9700   */\n    tag_210:\n        /* \"#utility.yul\":9747:9749   */\n      0x20\n        /* \"#utility.yul\":9739:9745   */\n      dup3\n        /* \"#utility.yul\":9736:9750   */\n      lt\n        /* \"#utility.yul\":9716:9734   */\n      dup2\n        /* \"#utility.yul\":9713:9751   */\n      sub\n        /* \"#utility.yul\":9710:9794   */\n      tag_211\n      jumpi\n        /* \"#utility.yul\":9766:9784   */\n      tag_212\n      tag_95\n      jump\t// in\n    tag_212:\n        /* \"#utility.yul\":9710:9794   */\n    tag_211:\n        /* \"#utility.yul\":9531:9800   */\n      pop\n        /* \"#utility.yul\":9480:9800   */\n      swap2\n      swap1\n      pop\n      jump\t// out\n        /* \"#utility.yul\":9806:9947   */\n    tag_96:\n        /* \"#utility.yul\":9855:9859   */\n      0x00\n        /* \"#utility.yul\":9878:9881   */\n      dup2\n        /* \"#utility.yul\":9870:9881   */\n      swap1\n      pop\n        /* \"#utility.yul\":9901:9904   */\n      dup2\n        /* \"#utility.yul\":9898:9899   */\n      0x00\n        /* \"#utility.yul\":9891:9905   */\n      mstore\n        /* \"#utility.yul\":9935:9939   */\n      0x20\n        /* \"#utility.yul\":9932:9933   */\n      0x00\n        /* \"#utility.yul\":9922:9940   */\n      keccak256\n        /* \"#utility.yul\":9914:9940   */\n      swap1\n      pop\n        /* \"#utility.yul\":9806:9947   */\n      swap2\n      swap1\n      pop\n      jump\t// out\n        /* \"#utility.yul\":9953:10046   */\n    tag_97:\n        /* \"#utility.yul\":9990:9996   */\n      0x00\n        /* \"#utility.yul\":10037:10039   */\n      0x20\n        /* \"#utility.yul\":10032:10034   */\n      0x1f\n        /* \"#utility.yul\":10025:10030   */\n      dup4\n        /* \"#utility.yul\":10021:10035   */\n      add\n        /* \"#utility.yul\":10017:10040   */\n      div\n        /* \"#utility.yul\":10007:10040   */\n      swap1\n      pop\n        /* \"#utility.yul\":9953:10046   */\n      swap2\n      swap1\n      pop\n      jump\t// out\n        /* \"#utility.yul\":10052:10159   */\n    tag_98:\n        /* \"#utility.yul\":10096:10104   */\n      0x00\n        /* \"#utility.yul\":10146:10151   */\n      dup3\n        /* \"#utility.yul\":10140:10144   */\n      dup3\n        /* \"#utility.yul\":10136:10152   */\n      shl\n        /* \"#utility.yul\":10115:10152   */\n      swap1\n      pop\n        /* \"#utility.yul\":10052:10159   */\n      swap3\n      swap2\n      pop\n      pop\n      jump\t// out\n        /* \"#utility.yul\":10165:10558   */\n    tag_99:\n        /* \"#utility.yul\":10234:10240   */\n      0x00\n        /* \"#utility.yul\":10284:10285   */\n      0x08\n        /* \"#utility.yul\":10272:10282   */\n      dup4\n        /* \"#utility.yul\":10268:10286   */\n      mul\n        /* \"#utility.yul\":10307:10404   */\n      tag_217\n        /* \"#utility.yul\":10337:10403   */\n      0xffffffffffffffffffffffffffffffffffffffffffffffffffffffffffffffff\n        /* \"#utility.yul\":10326:10335   */\n      dup3\n        /* \"#utility.yul\":10307:10404   */\n      tag_98\n      jump\t// in\n    tag_217:\n        /* \"#utility.yul\":10425:10464   */\n      tag_218\n        /* \"#utility.yul\":10455:10463   */\n      dup7\n        /* \"#utility.yul\":10444:10453   */\n      dup4\n        /* \"#utility.yul\":10425:10464   */\n      tag_98\n      jump\t// in\n    tag_218:\n        /* \"#utility.yul\":10413:10464   */\n      swap6\n      pop\n        /* \"#utility.yul\":10497:10501   */\n      dup1\n        /* \"#utility.yul\":10493:10502   */\n      not\n        /* \"#utility.yul\":10486:10491   */\n      dup5\n        /* \"#utility.yul\":10482:10503   */\n      and\n        /* \"#utility.yul\":10473:10503   */\n      swap4\n      pop\n        /* \"#utility.yul\":10546:10550   */\n      dup1\n        /* \"#utility.yul\":10536:10544   */\n      dup7\n        /* \"#utility.yul\":10532:10551   */\n      and\n        /* \"#utility.yul\":10525:10530   */\n      dup5\n        /* \"#utility.yul\":10522:10552   */\n      or\n        /* \"#utility.yul\":10512:10552   */\n      swap3\n      pop\n        /* \"#utility.yul\":10241:10558   */\n      pop\n      pop\n        /* \"#utility.yul\":10165:10558   */\n      swap4\n      swap3\n      pop\n      pop\n      pop\n      jump\t// out\n        /* \"#utility.yul\":10564:10624   */\n    tag_100:\n        /* \"#utility.yul\":10592:10595   */\n      0x00\n        /* \"#utility.yul\":10613:10618   */\n      dup2\n        /* \"#utility.yul\":10606:10618   */\n      swap1\n      pop\n        /* \"#utility.yul\":10564:10624   */\n      swap2\n      swap1\n      pop\n      jump\t// out\n        /* \"#utility.yul\":10630:10772   */\n    tag_101:\n        /* \"#utility.yul\":10680:10689   */\n      0x00\n        /* \"#utility.yul\":10713:10766   */\n      tag_221\n        /* \"#utility.yul\":10731:10765   */\n      tag_222\n        /* \"#utility.yul\":10740:10764   */\n      tag_223\n        /* \"#utility.yul\":10758:10763   */\n      dup5\n        /* \"#utility.yul\":10740:10764   */\n      tag_66\n      jump\t// in\n    tag_223:\n        /* \"#utility.yul\":10731:10765   */\n      tag_100\n      jump\t// in\n    tag_222:\n        /* \"#utility.yul\":10713:10766   */\n      tag_66\n      jump\t// in\n    tag_221:\n        /* \"#utility.yul\":10700:10766   */\n      swap1\n      pop\n        /* \"#utility.yul\":10630:10772   */\n      swap2\n      swap1\n      pop\n      jump\t// out\n        /* \"#utility.yul\":10778:10853   */\n    tag_102:\n        /* \"#utility.yul\":10821:10824   */\n      0x00\n        /* \"#utility.yul\":10842:10847   */\n      dup2\n        /* \"#utility.yul\":10835:10847   */\n      swap1\n      pop\n        /* \"#utility.yul\":10778:10853   */\n      swap2\n      swap1\n      pop\n      jump\t// out\n        /* \"#utility.yul\":10859:11128   */\n    tag_103:\n        /* \"#utility.yul\":10969:11008   */\n      tag_226\n        /* \"#utility.yul\":11000:11007   */\n      dup4\n        /* \"#utility.yul\":10969:11008   */\n      tag_101\n      jump\t// in\n    tag_226:\n        /* \"#utility.yul\":11030:11121   */\n      tag_227\n        /* \"#utility.yul\":11079:11120   */\n      tag_228\n        /* \"#utility.yul\":11103:11119   */\n      dup3\n        /* \"#utility.yul\":11079:11120   */\n      tag_102\n      jump\t// in\n    tag_228:\n        /* \"#utility.yul\":11071:11077   */\n      dup5\n        /* \"#utility.yul\":11064:11068   */\n      dup5\n        /* \"#utility.yul\":11058:11069   */\n      sload\n        /* \"#utility.yul\":11030:11121   */\n      tag_99\n      jump\t// in\n    tag_227:\n        /* \"#utility.yul\":11024:11028   */\n      dup3\n        /* \"#utility.yul\":11017:11122   */\n      sstore\n        /* \"#utility.yul\":10935:11128   */\n      pop\n        /* \"#utility.yul\":10859:11128   */\n      pop\n      pop\n      pop\n      jump\t// out\n        /* \"#utility.yul\":11134:11207   */\n    tag_104:\n        /* \"#utility.yul\":11179:11182   */\n      0x00\n        /* \"#utility.yul\":11200:11201   */\n      0x00\n        /* \"#utility.yul\":11193:11201   */\n      swap1\n      pop\n        /* \"#utility.yul\":11134:11207   */\n      swap1\n      jump\t// out\n        /* \"#utility.yul\":11213:11402   */\n    tag_105:\n        /* \"#utility.yul\":11290:11322   */\n      tag_231\n      tag_104\n      jump\t// in\n    tag_231:\n        /* \"#utility.yul\":11331:11396   */\n      tag_232\n        /* \"#utility.yul\":11389:11395   */\n      dup2\n        /* \"#utility.yul\":11381:11387   */\n      dup5\n        /* \"#utility.yul\":11375:11379   */\n      dup5\n        /* \"#utility.yul\":11331:11396   */\n      tag_103\n      jump\t// in\n    tag_232:\n        /* \"#utility.yul\":11266:11402   */\n      pop\n        /* \"#utility.yul\":11213:11402   */\n      pop\n      pop\n      jump\t// out\n        /* \"#utility.yul\":11408:11594   */\n    tag_106:\n        /* \"#utility.yul\":11468:11588   */\n    tag_234:\n        /* \"#utility.yul\":11485:11488   */\n      dup2\n        /* \"#utility.yul\":11478:11483   */\n      dup2\n        /* \"#utility.yul\":11475:11489   */\n      lt\n        /* \"#utility.yul\":11468:11588   */\n      iszero\n      tag_236\n      jumpi\n        /* \"#utility.yul\":11539:11578   */\n      tag_237\n        /* \"#utility.yul\":11576:11577   */\n      0x00\n        /* \"#utility.yul\":11569:11574   */\n      dup3\n        /* \"#utility.yul\":11539:11578   */\n      tag_105\n      jump\t// in\n    tag_237:\n        /* \"#utility.yul\":11512:11513   */\n      0x01\n        /* \"#utility.yul\":11505:11510   */\n      dup2\n        /* \"#utility.yul\":11501:11514   */\n      add\n        /* \"#utility.yul\":11492:11514   */\n      swap1\n      pop\n        /* \"#utility.yul\":11468:11588   */\n      jump(tag_234)\n    tag_236:\n        /* \"#utility.yul\":11408:11594   */\n      pop\n      pop\n      jump\t// out\n        /* \"#utility.yul\":11600:12143   */\n    tag_107:\n        /* \"#utility.yul\":11701:11703   */\n      0x1f\n        /* \"#utility.yul\":11696:11699   */\n      dup3\n        /* \"#utility.yul\":11693:11704   */\n      gt\n        /* \"#utility.yul\":11690:12136   */\n      iszero\n      tag_239\n      jumpi\n        /* \"#utility.yul\":11735:11773   */\n      tag_240\n        /* \"#utility.yul\":11767:11772   */\n      dup2\n        /* \"#utility.yul\":11735:11773   */\n      tag_96\n      jump\t// in\n    tag_240:\n        /* \"#utility.yul\":11819:11848   */\n      tag_241\n        /* \"#utility.yul\":11837:11847   */\n      dup5\n        /* \"#utility.yul\":11819:11848   */\n      tag_97\n      jump\t// in\n    tag_241:\n        /* \"#utility.yul\":11809:11817   */\n      dup2\n        /* \"#utility.yul\":11805:11849   */\n      add\n        /* \"#utility.yul\":12002:12004   */\n      0x20\n        /* \"#utility.yul\":11990:12000   */\n      dup6\n        /* \"#utility.yul\":11987:12005   */\n      lt\n        /* \"#utility.yul\":11984:12033   */\n      iszero\n      tag_242\n      jumpi\n        /* \"#utility.yul\":12023:12031   */\n      dup2\n        /* \"#utility.yul\":12008:12031   */\n      swap1\n      pop\n        /* \"#utility.yul\":11984:12033   */\n    tag_242:\n        /* \"#utility.yul\":12046:12126   */\n      tag_243\n        /* \"#utility.yul\":12102:12124   */\n      tag_244\n        /* \"#utility.yul\":12120:12123   */\n      dup6\n        /* \"#utility.yul\":12102:12124   */\n      tag_97\n      jump\t// in\n    tag_244:\n        /* \"#utility.yul\":12092:12100   */\n      dup4\n        /* \"#utility.yul\":12088:12125   */\n      add\n        /* \"#utility.yul\":12075:12086   */\n      dup3\n        /* \"#utility.yul\":12046:12126   */\n      tag_106\n      jump\t// in\n    tag_243:\n        /* \"#utility.yul\":11705:12136   */\n      pop\n      pop\n        /* \"#utility.yul\":11690:12136   */\n    tag_239:\n        /* \"#utility.yul\":11600:12143   */\n      pop\n      pop\n      pop\n      jump\t// out\n        /* \"#utility.yul\":12149:12266   */\n    tag_108:\n        /* \"#utility.yul\":12203:12211   */\n      0x00\n        /* \"#utility.yul\":12253:12258   */\n      dup3\n        /* \"#utility.yul\":12247:12251   */\n      dup3\n        /* \"#utility.yul\":12243:12259   */\n      shr\n        /* \"#utility.yul\":12222:12259   */\n      swap1\n      pop\n        /* \"#utility.yul\":12149:12266   */\n      swap3\n      swap2\n      pop\n      pop\n      jump\t// out\n        /* \"#utility.yul\":12272:12441   */\n    tag_109:\n        /* \"#utility.yul\":12316:12322   */\n      0x00\n        /* \"#utility.yul\":12349:12400   */\n      tag_247\n        /* \"#utility.yul\":12397:12398   */\n      0x00\n        /* \"#utility.yul\":12393:12399   */\n      not\n        /* \"#utility.yul\":12385:12390   */\n      dup5\n        /* \"#utility.yul\":12382:12383   */\n      0x08\n        /* \"#utility.yul\":12378:12391   */\n      mul\n        /* \"#utility.yul\":12349:12400   */\n      tag_108\n      jump\t// in\n    tag_247:\n        /* \"#utility.yul\":12345:12401   */\n      not\n        /* \"#utility.yul\":12430:12434   */\n      dup1\n        /* \"#utility.yul\":12424:12428   */\n      dup4\n        /* \"#utility.yul\":12420:12435   */\n      and\n        /* \"#utility.yul\":12410:12435   */\n      swap2\n      pop\n        /* \"#utility.yul\":12323:12441   */\n      pop\n        /* \"#utility.yul\":12272:12441   */\n      swap3\n      swap2\n      pop\n      pop\n      jump\t// out\n        /* \"#utility.yul\":12446:12741   */\n    tag_110:\n        /* \"#utility.yul\":12522:12526   */\n      0x00\n        /* \"#utility.yul\":12668:12697   */\n      tag_249\n        /* \"#utility.yul\":12693:12696   */\n      dup4\n        /* \"#utility.yul\":12687:12691   */\n      dup4\n        /* \"#utility.yul\":12668:12697   */\n      tag_109\n      jump\t// in\n    tag_249:\n        /* \"#utility.yul\":12660:12697   */\n      swap2\n      pop\n        /* \"#utility.yul\":12730:12733   */\n      dup3\n        /* \"#utility.yul\":12727:12728   */\n      0x02\n        /* \"#utility.yul\":12723:12734   */\n      mul\n        /* \"#utility.yul\":12717:12721   */\n      dup3\n        /* \"#utility.yul\":12714:12735   */\n      or\n        /* \"#utility.yul\":12706:12735   */\n      swap1\n      pop\n        /* \"#utility.yul\":12446:12741   */\n      swap3\n      swap2\n      pop\n      pop\n      jump\t// out\n        /* \"#utility.yul\":12746:14141   */\n    tag_56:\n        /* \"#utility.yul\":12863:12900   */\n      tag_251\n        /* \"#utility.yul\":12896:12899   */\n      dup3\n        /* \"#utility.yul\":12863:12900   */\n      tag_70\n      jump\t// in\n    tag_251:\n        /* \"#utility.yul\":12965:12983   */\n      0xffffffffffffffff\n        /* \"#utility.yul\":12957:12963   */\n      dup2\n        /* \"#utility.yul\":12954:12984   */\n      gt\n        /* \"#utility.yul\":12951:13007   */\n      iszero\n      tag_252\n      jumpi\n        /* \"#utility.yul\":12987:13005   */\n      tag_253\n      tag_77\n      jump\t// in\n    tag_253:\n        /* \"#utility.yul\":12951:13007   */\n    tag_252:\n        /* \"#utility.yul\":13031:13069   */\n      tag_254\n        /* \"#utility.yul\":13063:13067   */\n      dup3\n        /* \"#utility.yul\":13057:13068   */\n      sload\n        /* \"#utility.yul\":13031:13069   */\n      tag_48\n      jump\t// in\n    tag_254:\n        /* \"#utility.yul\":13116:13183   */\n      tag_255\n        /* \"#utility.yul\":13176:13182   */\n      dup3\n        /* \"#utility.yul\":13168:13174   */\n      dup3\n        /* \"#utility.yul\":13162:13166   */\n      dup6\n        /* \"#utility.yul\":13116:13183   */\n      tag_107\n      jump\t// in\n    tag_255:\n        /* \"#utility.yul\":13210:13211   */\n      0x00\n        /* \"#utility.yul\":13234:13238   */\n      0x20\n        /* \"#utility.yul\":13221:13238   */\n      swap1\n      pop\n        /* \"#utility.yul\":13266:13268   */\n      0x1f\n        /* \"#utility.yul\":13258:13264   */\n      dup4\n        /* \"#utility.yul\":13255:13269   */\n      gt\n        /* \"#utility.yul\":13283:13284   */\n      0x01\n        /* \"#utility.yul\":13278:13896   */\n      dup2\n      eq\n      tag_257\n      jumpi\n        /* \"#utility.yul\":13940:13941   */\n      0x00\n        /* \"#utility.yul\":13957:13963   */\n      dup5\n        /* \"#utility.yul\":13954:14031   */\n      iszero\n      tag_258\n      jumpi\n        /* \"#utility.yul\":14006:14015   */\n      dup3\n        /* \"#utility.yul\":14001:14004   */\n      dup8\n        /* \"#utility.yul\":13997:14016   */\n      add\n        /* \"#utility.yul\":13991:14017   */\n      mload\n        /* \"#utility.yul\":13982:14017   */\n      swap1\n      pop\n        /* \"#utility.yul\":13954:14031   */\n    tag_258:\n        /* \"#utility.yul\":14057:14124   */\n      tag_259\n        /* \"#utility.yul\":14117:14123   */\n      dup6\n        /* \"#utility.yul\":14110:14115   */\n      dup3\n        /* \"#utility.yul\":14057:14124   */\n      tag_110\n      jump\t// in\n    tag_259:\n        /* \"#utility.yul\":14051:14055   */\n      dup7\n        /* \"#utility.yul\":14044:14125   */\n      sstore\n        /* \"#utility.yul\":13913:14135   */\n      pop\n        /* \"#utility.yul\":13248:14135   */\n      jump(tag_256)\n        /* \"#utility.yul\":13278:13896   */\n    tag_257:\n        /* \"#utility.yul\":13330:13334   */\n      0x1f\n        /* \"#utility.yul\":13326:13335   */\n      not\n        /* \"#utility.yul\":13318:13324   */\n      dup5\n        /* \"#utility.yul\":13314:13336   */\n      and\n        /* \"#utility.yul\":13364:13401   */\n      tag_260\n        /* \"#utility.yul\":13396:13400   */\n      dup7\n        /* \"#utility.yul\":13364:13401   */\n      tag_96\n      jump\t// in\n    tag_260:\n        /* \"#utility.yul\":13423:13424   */\n      0x00\n        /* \"#utility.yul\":13437:13645   */\n    tag_261:\n        /* \"#utility.yul\":13451:13458   */\n      dup3\n        /* \"#utility.yul\":13448:13449   */\n      dup2\n        /* \"#utility.yul\":13445:13459   */\n      lt\n        /* \"#utility.yul\":13437:13645   */\n      iszero\n      tag_263\n      jumpi\n        /* \"#utility.yul\":13530:13539   */\n      dup5\n        /* \"#utility.yul\":13525:13528   */\n      dup10\n        /* \"#utility.yul\":13521:13540   */\n      add\n        /* \"#utility.yul\":13515:13541   */\n      mload\n        /* \"#utility.yul\":13507:13513   */\n      dup3\n        /* \"#utility.yul\":13500:13542   */\n      sstore\n        /* \"#utility.yul\":13581:13582   */\n      0x01\n        /* \"#utility.yul\":13573:13579   */\n      dup3\n        /* \"#utility.yul\":13569:13583   */\n      add\n        /* \"#utility.yul\":13559:13583   */\n      swap2\n      pop\n        /* \"#utility.yul\":13628:13630   */\n      0x20\n        /* \"#utility.yul\":13617:13626   */\n      dup6\n        /* \"#utility.yul\":13613:13631   */\n      add\n        /* \"#utility.yul\":13600:13631   */\n      swap5\n      pop\n        /* \"#utility.yul\":13474:13478   */\n      0x20\n        /* \"#utility.yul\":13471:13472   */\n      dup2\n        /* \"#utility.yul\":13467:13479   */\n      add\n        /* \"#utility.yul\":13462:13479   */\n      swap1\n      pop\n        /* \"#utility.yul\":13437:13645   */\n      jump(tag_261)\n    tag_263:\n        /* \"#utility.yul\":13673:13679   */\n      dup7\n        /* \"#utility.yul\":13664:13671   */\n      dup4\n        /* \"#utility.yul\":13661:13680   */\n      lt\n        /* \"#utility.yul\":13658:13837   */\n      iszero\n      tag_264\n      jumpi\n        /* \"#utility.yul\":13731:13740   */\n      dup5\n        /* \"#utility.yul\":13726:13729   */\n      dup10\n        /* \"#utility.yul\":13722:13741   */\n      add\n        /* \"#utility.yul\":13716:13742   */\n      mload\n        /* \"#utility.yul\":13774:13822   */\n      tag_265\n        /* \"#utility.yul\":13816:13820   */\n      0x1f\n        /* \"#utility.yul\":13808:13814   */\n      dup10\n        /* \"#utility.yul\":13804:13821   */\n      and\n        /* \"#utility.yul\":13793:13802   */\n      dup3\n        /* \"#utility.yul\":13774:13822   */\n      tag_109\n      jump\t// in\n    tag_265:\n        /* \"#utility.yul\":13766:13772   */\n      dup4\n        /* \"#utility.yul\":13759:13823   */\n      sstore\n        /* \"#utility.yul\":13681:13837   */\n      pop\n        /* \"#utility.yul\":13658:13837   */\n    tag_264:\n        /* \"#utility.yul\":13883:13884   */\n      0x01\n        /* \"#utility.yul\":13879:13880   */\n      0x02\n        /* \"#utility.yul\":13871:13877   */\n      dup9\n        /* \"#utility.yul\":13867:13881   */\n      mul\n        /* \"#utility.yul\":13863:13885   */\n      add\n        /* \"#utility.yul\":13857:13861   */\n      dup9\n        /* \"#utility.yul\":13850:13886   */\n      sstore\n        /* \"#utility.yul\":13285:13896   */\n      pop\n      pop\n      pop\n        /* \"#utility.yul\":13248:14135   */\n    tag_256:\n      pop\n        /* \"#utility.yul\":12838:14141   */\n      pop\n      pop\n      pop\n        /* \"#utility.yul\":12746:14141   */\n      pop\n      pop\n      jump\t// out\n\n    auxdata: 0xa26469706673582212201c3962f35c8bc209e7b07eaddfcd123f025a374d9741595d30f750ab0049c2bd64736f6c634300081e0033\n}\n",
				"bytecode": {
					"linkReferences": {},
					"object": "6080604052348015600e575f5ffd5b50610c228061001c5f395ff3fe608060405234801561000f575f5ffd5b5060043610610055575f3560e01c80630121b93f146100595780633477ee2e14610075578063462e91ec146100a7578063a3ec138d146100c3578063ff981099146100f3575b5f5ffd5b610073600480360381019061006e9190610485565b610123565b005b61008f600480360381019061008a9190610485565b610281565b60405161009e9392919061052f565b60405180910390f35b6100c160048036038101906100bc9190610697565b61033b565b005b6100dd60048036038101906100d89190610738565b6103b3565b6040516100ea919061077d565b60405180910390f35b61010d60048036038101906101089190610485565b6103d0565b60405161011a9190610796565b60405180910390f35b60015f3373ffffffffffffffffffffffffffffffffffffffff1673ffffffffffffffffffffffffffffffffffffffff1681526020019081526020015f205f9054906101000a900460ff16156101ad576040517f08c379a00000000000000000000000000000000000000000000000000000000081526004016101a4906107f9565b60405180910390fd5b5f8054905081106101f3576040517f08c379a00000000000000000000000000000000000000000000000000000000081526004016101ea90610861565b60405180910390fd5b5f81815481106102065761020561087f565b5b905f5260205f2090600302016002015f815480929190610225906108d9565b91905055506001805f3373ffffffffffffffffffffffffffffffffffffffff1673ffffffffffffffffffffffffffffffffffffffff1681526020019081526020015f205f6101000a81548160ff02191690831515021790555050565b5f818154811061028f575f80fd5b905f5260205f2090600302015f91509050805f0154908060010180546102b49061094d565b80601f01602080910402602001604051908101604052809291908181526020018280546102e09061094d565b801561032b5780601f106103025761010080835404028352916020019161032b565b820191905f5260205f20905b81548152906001019060200180831161030e57829003601f168201915b5050505050908060020154905083565b5f5f8054905090505f60405180606001604052808381526020018481526020015f815250908060018154018082558091505060019003905f5260205f2090600302015f909190919091505f820151815f015560208201518160010190816103a29190610b1d565b506040820151816002015550505050565b6001602052805f5260405f205f915054906101000a900460ff1681565b5f5f805490508210610417576040517f08c379a000000000000000000000000000000000000000000000000000000000815260040161040e90610861565b60405180910390fd5b5f828154811061042a5761042961087f565b5b905f5260205f209060030201600201549050919050565b5f604051905090565b5f5ffd5b5f5ffd5b5f819050919050565b61046481610452565b811461046e575f5ffd5b50565b5f8135905061047f8161045b565b92915050565b5f6020828403121561049a5761049961044a565b5b5f6104a784828501610471565b91505092915050565b6104b981610452565b82525050565b5f81519050919050565b5f82825260208201905092915050565b8281835e5f83830152505050565b5f601f19601f8301169050919050565b5f610501826104bf565b61050b81856104c9565b935061051b8185602086016104d9565b610524816104e7565b840191505092915050565b5f6060820190506105425f8301866104b0565b818103602083015261055481856104f7565b905061056360408301846104b0565b949350505050565b5f5ffd5b5f5ffd5b7f4e487b71000000000000000000000000000000000000000000000000000000005f52604160045260245ffd5b6105a9826104e7565b810181811067ffffffffffffffff821117156105c8576105c7610573565b5b80604052505050565b5f6105da610441565b90506105e682826105a0565b919050565b5f67ffffffffffffffff82111561060557610604610573565b5b61060e826104e7565b9050602081019050919050565b828183375f83830152505050565b5f61063b610636846105eb565b6105d1565b9050828152602081018484840111156106575761065661056f565b5b61066284828561061b565b509392505050565b5f82601f83011261067e5761067d61056b565b5b813561068e848260208601610629565b91505092915050565b5f602082840312156106ac576106ab61044a565b5b5f82013567ffffffffffffffff8111156106c9576106c861044e565b5b6106d58482850161066a565b91505092915050565b5f73ffffffffffffffffffffffffffffffffffffffff82169050919050565b5f610707826106de565b9050919050565b610717816106fd565b8114610721575f5ffd5b50565b5f813590506107328161070e565b92915050565b5f6020828403121561074d5761074c61044a565b5b5f61075a84828501610724565b91505092915050565b5f8115159050919050565b61077781610763565b82525050565b5f6020820190506107905f83018461076e565b92915050565b5f6020820190506107a95f8301846104b0565b92915050565b7f596f752063616e206f6e6c7920766f7465206f6e63652e0000000000000000005f82015250565b5f6107e36017836104c9565b91506107ee826107af565b602082019050919050565b5f6020820190508181035f830152610810816107d7565b9050919050565b7f43616e64696461746520646f6573206e6f742065786973742e000000000000005f82015250565b5f61084b6019836104c9565b915061085682610817565b602082019050919050565b5f6020820190508181035f8301526108788161083f565b9050919050565b7f4e487b71000000000000000000000000000000000000000000000000000000005f52603260045260245ffd5b7f4e487b71000000000000000000000000000000000000000000000000000000005f52601160045260245ffd5b5f6108e382610452565b91507fffffffffffffffffffffffffffffffffffffffffffffffffffffffffffffffff8203610915576109146108ac565b5b600182019050919050565b7f4e487b71000000000000000000000000000000000000000000000000000000005f52602260045260245ffd5b5f600282049050600182168061096457607f821691505b60208210810361097757610976610920565b5b50919050565b5f819050815f5260205f209050919050565b5f6020601f8301049050919050565b5f82821b905092915050565b5f600883026109d97fffffffffffffffffffffffffffffffffffffffffffffffffffffffffffffffff8261099e565b6109e3868361099e565b95508019841693508086168417925050509392505050565b5f819050919050565b5f610a1e610a19610a1484610452565b6109fb565b610452565b9050919050565b5f819050919050565b610a3783610a04565b610a4b610a4382610a25565b8484546109aa565b825550505050565b5f5f905090565b610a62610a53565b610a6d818484610a2e565b505050565b5b81811015610a9057610a855f82610a5a565b600181019050610a73565b5050565b601f821115610ad557610aa68161097d565b610aaf8461098f565b81016020851015610abe578190505b610ad2610aca8561098f565b830182610a72565b50505b505050565b5f82821c905092915050565b5f610af55f1984600802610ada565b1980831691505092915050565b5f610b0d8383610ae6565b9150826002028217905092915050565b610b26826104bf565b67ffffffffffffffff811115610b3f57610b3e610573565b5b610b49825461094d565b610b54828285610a94565b5f60209050601f831160018114610b85575f8415610b73578287015190505b610b7d8582610b02565b865550610be4565b601f198416610b938661097d565b5f5b82811015610bba57848901518255600182019150602085019450602081019050610b95565b86831015610bd75784890151610bd3601f891682610ae6565b8355505b6001600288020188555050505b50505050505056fea26469706673582212201c3962f35c8bc209e7b07eaddfcd123f025a374d9741595d30f750ab0049c2bd64736f6c634300081e0033",
					"opcodes": "PUSH1 0x80 PUSH1 0x40 MSTORE CALLVALUE DUP1 ISZERO PUSH1 0xE JUMPI PUSH0 PUSH0 REVERT JUMPDEST POP PUSH2 0xC22 DUP1 PUSH2 0x1C PUSH0 CODECOPY PUSH0 RETURN INVALID PUSH1 0x80 PUSH1 0x40 MSTORE CALLVALUE DUP1 ISZERO PUSH2 0xF JUMPI PUSH0 PUSH0 REVERT JUMPDEST POP PUSH1 0x4 CALLDATASIZE LT PUSH2 0x55 JUMPI PUSH0 CALLDATALOAD PUSH1 0xE0 SHR DUP1 PUSH4 0x121B93F EQ PUSH2 0x59 JUMPI DUP1 PUSH4 0x3477EE2E EQ PUSH2 0x75 JUMPI DUP1 PUSH4 0x462E91EC EQ PUSH2 0xA7 JUMPI DUP1 PUSH4 0xA3EC138D EQ PUSH2 0xC3 JUMPI DUP1 PUSH4 0xFF981099 EQ PUSH2 0xF3 JUMPI JUMPDEST PUSH0 PUSH0 REVERT JUMPDEST PUSH2 0x73 PUSH1 0x4 DUP1 CALLDATASIZE SUB DUP2 ADD SWAP1 PUSH2 0x6E SWAP2 SWAP1 PUSH2 0x485 JUMP JUMPDEST PUSH2 0x123 JUMP JUMPDEST STOP JUMPDEST PUSH2 0x8F PUSH1 0x4 DUP1 CALLDATASIZE SUB DUP2 ADD SWAP1 PUSH2 0x8A SWAP2 SWAP1 PUSH2 0x485 JUMP JUMPDEST PUSH2 0x281 JUMP JUMPDEST PUSH1 0x40 MLOAD PUSH2 0x9E SWAP4 SWAP3 SWAP2 SWAP1 PUSH2 0x52F JUMP JUMPDEST PUSH1 0x40 MLOAD DUP1 SWAP2 SUB SWAP1 RETURN JUMPDEST PUSH2 0xC1 PUSH1 0x4 DUP1 CALLDATASIZE SUB DUP2 ADD SWAP1 PUSH2 0xBC SWAP2 SWAP1 PUSH2 0x697 JUMP JUMPDEST PUSH2 0x33B JUMP JUMPDEST STOP JUMPDEST PUSH2 0xDD PUSH1 0x4 DUP1 CALLDATASIZE SUB DUP2 ADD SWAP1 PUSH2 0xD8 SWAP2 SWAP1 PUSH2 0x738 JUMP JUMPDEST PUSH2 0x3B3 JUMP JUMPDEST PUSH1 0x40 MLOAD PUSH2 0xEA SWAP2 SWAP1 PUSH2 0x77D JUMP JUMPDEST PUSH1 0x40 MLOAD DUP1 SWAP2 SUB SWAP1 RETURN JUMPDEST PUSH2 0x10D PUSH1 0x4 DUP1 CALLDATASIZE SUB DUP2 ADD SWAP1 PUSH2 0x108 SWAP2 SWAP1 PUSH2 0x485 JUMP JUMPDEST PUSH2 0x3D0 JUMP JUMPDEST PUSH1 0x40 MLOAD PUSH2 0x11A SWAP2 SWAP1 PUSH2 0x796 JUMP JUMPDEST PUSH1 0x40 MLOAD DUP1 SWAP2 SUB SWAP1 RETURN JUMPDEST PUSH1 0x1 PUSH0 CALLER PUSH20 0xFFFFFFFFFFFFFFFFFFFFFFFFFFFFFFFFFFFFFFFF AND PUSH20 0xFFFFFFFFFFFFFFFFFFFFFFFFFFFFFFFFFFFFFFFF AND DUP2 MSTORE PUSH1 0x20 ADD SWAP1 DUP2 MSTORE PUSH1 0x20 ADD PUSH0 KECCAK256 PUSH0 SWAP1 SLOAD SWAP1 PUSH2 0x100 EXP SWAP1 DIV PUSH1 0xFF AND ISZERO PUSH2 0x1AD JUMPI PUSH1 0x40 MLOAD PUSH32 0x8C379A000000000000000000000000000000000000000000000000000000000 DUP2 MSTORE PUSH1 0x4 ADD PUSH2 0x1A4 SWAP1 PUSH2 0x7F9 JUMP JUMPDEST PUSH1 0x40 MLOAD DUP1 SWAP2 SUB SWAP1 REVERT JUMPDEST PUSH0 DUP1 SLOAD SWAP1 POP DUP2 LT PUSH2 0x1F3 JUMPI PUSH1 0x40 MLOAD PUSH32 0x8C379A000000000000000000000000000000000000000000000000000000000 DUP2 MSTORE PUSH1 0x4 ADD PUSH2 0x1EA SWAP1 PUSH2 0x861 JUMP JUMPDEST PUSH1 0x40 MLOAD DUP1 SWAP2 SUB SWAP1 REVERT JUMPDEST PUSH0 DUP2 DUP2 SLOAD DUP2 LT PUSH2 0x206 JUMPI PUSH2 0x205 PUSH2 0x87F JUMP JUMPDEST JUMPDEST SWAP1 PUSH0 MSTORE PUSH1 0x20 PUSH0 KECCAK256 SWAP1 PUSH1 0x3 MUL ADD PUSH1 0x2 ADD PUSH0 DUP2 SLOAD DUP1 SWAP3 SWAP2 SWAP1 PUSH2 0x225 SWAP1 PUSH2 0x8D9 JUMP JUMPDEST SWAP2 SWAP1 POP SSTORE POP PUSH1 0x1 DUP1 PUSH0 CALLER PUSH20 0xFFFFFFFFFFFFFFFFFFFFFFFFFFFFFFFFFFFFFFFF AND PUSH20 0xFFFFFFFFFFFFFFFFFFFFFFFFFFFFFFFFFFFFFFFF AND DUP2 MSTORE PUSH1 0x20 ADD SWAP1 DUP2 MSTORE PUSH1 0x20 ADD PUSH0 KECCAK256 PUSH0 PUSH2 0x100 EXP DUP2 SLOAD DUP2 PUSH1 0xFF MUL NOT AND SWAP1 DUP4 ISZERO ISZERO MUL OR SWAP1 SSTORE POP POP JUMP JUMPDEST PUSH0 DUP2 DUP2 SLOAD DUP2 LT PUSH2 0x28F JUMPI PUSH0 DUP1 REVERT JUMPDEST SWAP1 PUSH0 MSTORE PUSH1 0x20 PUSH0 KECCAK256 SWAP1 PUSH1 0x3 MUL ADD PUSH0 SWAP2 POP SWAP1 POP DUP1 PUSH0 ADD SLOAD SWAP1 DUP1 PUSH1 0x1 ADD DUP1 SLOAD PUSH2 0x2B4 SWAP1 PUSH2 0x94D JUMP JUMPDEST DUP1 PUSH1 0x1F ADD PUSH1 0x20 DUP1 SWAP2 DIV MUL PUSH1 0x20 ADD PUSH1 0x40 MLOAD SWAP1 DUP2 ADD PUSH1 0x40 MSTORE DUP1 SWAP3 SWAP2 SWAP1 DUP2 DUP2 MSTORE PUSH1 0x20 ADD DUP3 DUP1 SLOAD PUSH2 0x2E0 SWAP1 PUSH2 0x94D JUMP JUMPDEST DUP1 ISZERO PUSH2 0x32B JUMPI DUP1 PUSH1 0x1F LT PUSH2 0x302 JUMPI PUSH2 0x100 DUP1 DUP4 SLOAD DIV MUL DUP4 MSTORE SWAP2 PUSH1 0x20 ADD SWAP2 PUSH2 0x32B JUMP JUMPDEST DUP3 ADD SWAP2 SWAP1 PUSH0 MSTORE PUSH1 0x20 PUSH0 KECCAK256 SWAP1 JUMPDEST DUP2 SLOAD DUP2 MSTORE SWAP1 PUSH1 0x1 ADD SWAP1 PUSH1 0x20 ADD DUP1 DUP4 GT PUSH2 0x30E JUMPI DUP3 SWAP1 SUB PUSH1 0x1F AND DUP3 ADD SWAP2 JUMPDEST POP POP POP POP POP SWAP1 DUP1 PUSH1 0x2 ADD SLOAD SWAP1 POP DUP4 JUMP JUMPDEST PUSH0 PUSH0 DUP1 SLOAD SWAP1 POP SWAP1 POP PUSH0 PUSH1 0x40 MLOAD DUP1 PUSH1 0x60 ADD PUSH1 0x40 MSTORE DUP1 DUP4 DUP2 MSTORE PUSH1 0x20 ADD DUP5 DUP2 MSTORE PUSH1 0x20 ADD PUSH0 DUP2 MSTORE POP SWAP1 DUP1 PUSH1 0x1 DUP2 SLOAD ADD DUP1 DUP3 SSTORE DUP1 SWAP2 POP POP PUSH1 0x1 SWAP1 SUB SWAP1 PUSH0 MSTORE PUSH1 0x20 PUSH0 KECCAK256 SWAP1 PUSH1 0x3 MUL ADD PUSH0 SWAP1 SWAP2 SWAP1 SWAP2 SWAP1 SWAP2 POP PUSH0 DUP3 ADD MLOAD DUP2 PUSH0 ADD SSTORE PUSH1 0x20 DUP3 ADD MLOAD DUP2 PUSH1 0x1 ADD SWAP1 DUP2 PUSH2 0x3A2 SWAP2 SWAP1 PUSH2 0xB1D JUMP JUMPDEST POP PUSH1 0x40 DUP3 ADD MLOAD DUP2 PUSH1 0x2 ADD SSTORE POP POP POP POP JUMP JUMPDEST PUSH1 0x1 PUSH1 0x20 MSTORE DUP1 PUSH0 MSTORE PUSH1 0x40 PUSH0 KECCAK256 PUSH0 SWAP2 POP SLOAD SWAP1 PUSH2 0x100 EXP SWAP1 DIV PUSH1 0xFF AND DUP2 JUMP JUMPDEST PUSH0 PUSH0 DUP1 SLOAD SWAP1 POP DUP3 LT PUSH2 0x417 JUMPI PUSH1 0x40 MLOAD PUSH32 0x8C379A000000000000000000000000000000000000000000000000000000000 DUP2 MSTORE PUSH1 0x4 ADD PUSH2 0x40E SWAP1 PUSH2 0x861 JUMP JUMPDEST PUSH1 0x40 MLOAD DUP1 SWAP2 SUB SWAP1 REVERT JUMPDEST PUSH0 DUP3 DUP2 SLOAD DUP2 LT PUSH2 0x42A JUMPI PUSH2 0x429 PUSH2 0x87F JUMP JUMPDEST JUMPDEST SWAP1 PUSH0 MSTORE PUSH1 0x20 PUSH0 KECCAK256 SWAP1 PUSH1 0x3 MUL ADD PUSH1 0x2 ADD SLOAD SWAP1 POP SWAP2 SWAP1 POP JUMP JUMPDEST PUSH0 PUSH1 0x40 MLOAD SWAP1 POP SWAP1 JUMP JUMPDEST PUSH0 PUSH0 REVERT JUMPDEST PUSH0 PUSH0 REVERT JUMPDEST PUSH0 DUP2 SWAP1 POP SWAP2 SWAP1 POP JUMP JUMPDEST PUSH2 0x464 DUP2 PUSH2 0x452 JUMP JUMPDEST DUP2 EQ PUSH2 0x46E JUMPI PUSH0 PUSH0 REVERT JUMPDEST POP JUMP JUMPDEST PUSH0 DUP2 CALLDATALOAD SWAP1 POP PUSH2 0x47F DUP2 PUSH2 0x45B JUMP JUMPDEST SWAP3 SWAP2 POP POP JUMP JUMPDEST PUSH0 PUSH1 0x20 DUP3 DUP5 SUB SLT ISZERO PUSH2 0x49A JUMPI PUSH2 0x499 PUSH2 0x44A JUMP JUMPDEST JUMPDEST PUSH0 PUSH2 0x4A7 DUP5 DUP3 DUP6 ADD PUSH2 0x471 JUMP JUMPDEST SWAP2 POP POP SWAP3 SWAP2 POP POP JUMP JUMPDEST PUSH2 0x4B9 DUP2 PUSH2 0x452 JUMP JUMPDEST DUP3 MSTORE POP POP JUMP JUMPDEST PUSH0 DUP2 MLOAD SWAP1 POP SWAP2 SWAP1 POP JUMP JUMPDEST PUSH0 DUP3 DUP3 MSTORE PUSH1 0x20 DUP3 ADD SWAP1 POP SWAP3 SWAP2 POP POP JUMP JUMPDEST DUP3 DUP2 DUP4 MCOPY PUSH0 DUP4 DUP4 ADD MSTORE POP POP POP JUMP JUMPDEST PUSH0 PUSH1 0x1F NOT PUSH1 0x1F DUP4 ADD AND SWAP1 POP SWAP2 SWAP1 POP JUMP JUMPDEST PUSH0 PUSH2 0x501 DUP3 PUSH2 0x4BF JUMP JUMPDEST PUSH2 0x50B DUP2 DUP6 PUSH2 0x4C9 JUMP JUMPDEST SWAP4 POP PUSH2 0x51B DUP2 DUP6 PUSH1 0x20 DUP7 ADD PUSH2 0x4D9 JUMP JUMPDEST PUSH2 0x524 DUP2 PUSH2 0x4E7 JUMP JUMPDEST DUP5 ADD SWAP2 POP POP SWAP3 SWAP2 POP POP JUMP JUMPDEST PUSH0 PUSH1 0x60 DUP3 ADD SWAP1 POP PUSH2 0x542 PUSH0 DUP4 ADD DUP7 PUSH2 0x4B0 JUMP JUMPDEST DUP2 DUP2 SUB PUSH1 0x20 DUP4 ADD MSTORE PUSH2 0x554 DUP2 DUP6 PUSH2 0x4F7 JUMP JUMPDEST SWAP1 POP PUSH2 0x563 PUSH1 0x40 DUP4 ADD DUP5 PUSH2 0x4B0 JUMP JUMPDEST SWAP5 SWAP4 POP POP POP POP JUMP JUMPDEST PUSH0 PUSH0 REVERT JUMPDEST PUSH0 PUSH0 REVERT JUMPDEST PUSH32 0x4E487B7100000000000000000000000000000000000000000000000000000000 PUSH0 MSTORE PUSH1 0x41 PUSH1 0x4 MSTORE PUSH1 0x24 PUSH0 REVERT JUMPDEST PUSH2 0x5A9 DUP3 PUSH2 0x4E7 JUMP JUMPDEST DUP2 ADD DUP2 DUP2 LT PUSH8 0xFFFFFFFFFFFFFFFF DUP3 GT OR ISZERO PUSH2 0x5C8 JUMPI PUSH2 0x5C7 PUSH2 0x573 JUMP JUMPDEST JUMPDEST DUP1 PUSH1 0x40 MSTORE POP POP POP JUMP JUMPDEST PUSH0 PUSH2 0x5DA PUSH2 0x441 JUMP JUMPDEST SWAP1 POP PUSH2 0x5E6 DUP3 DUP3 PUSH2 0x5A0 JUMP JUMPDEST SWAP2 SWAP1 POP JUMP JUMPDEST PUSH0 PUSH8 0xFFFFFFFFFFFFFFFF DUP3 GT ISZERO PUSH2 0x605 JUMPI PUSH2 0x604 PUSH2 0x573 JUMP JUMPDEST JUMPDEST PUSH2 0x60E DUP3 PUSH2 0x4E7 JUMP JUMPDEST SWAP1 POP PUSH1 0x20 DUP2 ADD SWAP1 POP SWAP2 SWAP1 POP JUMP JUMPDEST DUP3 DUP2 DUP4 CALLDATACOPY PUSH0 DUP4 DUP4 ADD MSTORE POP POP POP JUMP JUMPDEST PUSH0 PUSH2 0x63B PUSH2 0x636 DUP5 PUSH2 0x5EB JUMP JUMPDEST PUSH2 0x5D1 JUMP JUMPDEST SWAP1 POP DUP3 DUP2 MSTORE PUSH1 0x20 DUP2 ADD DUP5 DUP5 DUP5 ADD GT ISZERO PUSH2 0x657 JUMPI PUSH2 0x656 PUSH2 0x56F JUMP JUMPDEST JUMPDEST PUSH2 0x662 DUP5 DUP3 DUP6 PUSH2 0x61B JUMP JUMPDEST POP SWAP4 SWAP3 POP POP POP JUMP JUMPDEST PUSH0 DUP3 PUSH1 0x1F DUP4 ADD SLT PUSH2 0x67E JUMPI PUSH2 0x67D PUSH2 0x56B JUMP JUMPDEST JUMPDEST DUP2 CALLDATALOAD PUSH2 0x68E DUP5 DUP3 PUSH1 0x20 DUP7 ADD PUSH2 0x629 JUMP JUMPDEST SWAP2 POP POP SWAP3 SWAP2 POP POP JUMP JUMPDEST PUSH0 PUSH1 0x20 DUP3 DUP5 SUB SLT ISZERO PUSH2 0x6AC JUMPI PUSH2 0x6AB PUSH2 0x44A JUMP JUMPDEST JUMPDEST PUSH0 DUP3 ADD CALLDATALOAD PUSH8 0xFFFFFFFFFFFFFFFF DUP2 GT ISZERO PUSH2 0x6C9 JUMPI PUSH2 0x6C8 PUSH2 0x44E JUMP JUMPDEST JUMPDEST PUSH2 0x6D5 DUP5 DUP3 DUP6 ADD PUSH2 0x66A JUMP JUMPDEST SWAP2 POP POP SWAP3 SWAP2 POP POP JUMP JUMPDEST PUSH0 PUSH20 0xFFFFFFFFFFFFFFFFFFFFFFFFFFFFFFFFFFFFFFFF DUP3 AND SWAP1 POP SWAP2 SWAP1 POP JUMP JUMPDEST PUSH0 PUSH2 0x707 DUP3 PUSH2 0x6DE JUMP JUMPDEST SWAP1 POP SWAP2 SWAP1 POP JUMP JUMPDEST PUSH2 0x717 DUP2 PUSH2 0x6FD JUMP JUMPDEST DUP2 EQ PUSH2 0x721 JUMPI PUSH0 PUSH0 REVERT JUMPDEST POP JUMP JUMPDEST PUSH0 DUP2 CALLDATALOAD SWAP1 POP PUSH2 0x732 DUP2 PUSH2 0x70E JUMP JUMPDEST SWAP3 SWAP2 POP POP JUMP JUMPDEST PUSH0 PUSH1 0x20 DUP3 DUP5 SUB SLT ISZERO PUSH2 0x74D JUMPI PUSH2 0x74C PUSH2 0x44A JUMP JUMPDEST JUMPDEST PUSH0 PUSH2 0x75A DUP5 DUP3 DUP6 ADD PUSH2 0x724 JUMP JUMPDEST SWAP2 POP POP SWAP3 SWAP2 POP POP JUMP JUMPDEST PUSH0 DUP2 ISZERO ISZERO SWAP1 POP SWAP2 SWAP1 POP JUMP JUMPDEST PUSH2 0x777 DUP2 PUSH2 0x763 JUMP JUMPDEST DUP3 MSTORE POP POP JUMP JUMPDEST PUSH0 PUSH1 0x20 DUP3 ADD SWAP1 POP PUSH2 0x790 PUSH0 DUP4 ADD DUP5 PUSH2 0x76E JUMP JUMPDEST SWAP3 SWAP2 POP POP JUMP JUMPDEST PUSH0 PUSH1 0x20 DUP3 ADD SWAP1 POP PUSH2 0x7A9 PUSH0 DUP4 ADD DUP5 PUSH2 0x4B0 JUMP JUMPDEST SWAP3 SWAP2 POP POP JUMP JUMPDEST PUSH32 0x596F752063616E206F6E6C7920766F7465206F6E63652E000000000000000000 PUSH0 DUP3 ADD MSTORE POP JUMP JUMPDEST PUSH0 PUSH2 0x7E3 PUSH1 0x17 DUP4 PUSH2 0x4C9 JUMP JUMPDEST SWAP2 POP PUSH2 0x7EE DUP3 PUSH2 0x7AF JUMP JUMPDEST PUSH1 0x20 DUP3 ADD SWAP1 POP SWAP2 SWAP1 POP JUMP JUMPDEST PUSH0 PUSH1 0x20 DUP3 ADD SWAP1 POP DUP2 DUP2 SUB PUSH0 DUP4 ADD MSTORE PUSH2 0x810 DUP2 PUSH2 0x7D7 JUMP JUMPDEST SWAP1 POP SWAP2 SWAP1 POP JUMP JUMPDEST PUSH32 0x43616E64696461746520646F6573206E6F742065786973742E00000000000000 PUSH0 DUP3 ADD MSTORE POP JUMP JUMPDEST PUSH0 PUSH2 0x84B PUSH1 0x19 DUP4 PUSH2 0x4C9 JUMP JUMPDEST SWAP2 POP PUSH2 0x856 DUP3 PUSH2 0x817 JUMP JUMPDEST PUSH1 0x20 DUP3 ADD SWAP1 POP SWAP2 SWAP1 POP JUMP JUMPDEST PUSH0 PUSH1 0x20 DUP3 ADD SWAP1 POP DUP2 DUP2 SUB PUSH0 DUP4 ADD MSTORE PUSH2 0x878 DUP2 PUSH2 0x83F JUMP JUMPDEST SWAP1 POP SWAP2 SWAP1 POP JUMP JUMPDEST PUSH32 0x4E487B7100000000000000000000000000000000000000000000000000000000 PUSH0 MSTORE PUSH1 0x32 PUSH1 0x4 MSTORE PUSH1 0x24 PUSH0 REVERT JUMPDEST PUSH32 0x4E487B7100000000000000000000000000000000000000000000000000000000 PUSH0 MSTORE PUSH1 0x11 PUSH1 0x4 MSTORE PUSH1 0x24 PUSH0 REVERT JUMPDEST PUSH0 PUSH2 0x8E3 DUP3 PUSH2 0x452 JUMP JUMPDEST SWAP2 POP PUSH32 0xFFFFFFFFFFFFFFFFFFFFFFFFFFFFFFFFFFFFFFFFFFFFFFFFFFFFFFFFFFFFFFFF DUP3 SUB PUSH2 0x915 JUMPI PUSH2 0x914 PUSH2 0x8AC JUMP JUMPDEST JUMPDEST PUSH1 0x1 DUP3 ADD SWAP1 POP SWAP2 SWAP1 POP JUMP JUMPDEST PUSH32 0x4E487B7100000000000000000000000000000000000000000000000000000000 PUSH0 MSTORE PUSH1 0x22 PUSH1 0x4 MSTORE PUSH1 0x24 PUSH0 REVERT JUMPDEST PUSH0 PUSH1 0x2 DUP3 DIV SWAP1 POP PUSH1 0x1 DUP3 AND DUP1 PUSH2 0x964 JUMPI PUSH1 0x7F DUP3 AND SWAP2 POP JUMPDEST PUSH1 0x20 DUP3 LT DUP2 SUB PUSH2 0x977 JUMPI PUSH2 0x976 PUSH2 0x920 JUMP JUMPDEST JUMPDEST POP SWAP2 SWAP1 POP JUMP JUMPDEST PUSH0 DUP2 SWAP1 POP DUP2 PUSH0 MSTORE PUSH1 0x20 PUSH0 KECCAK256 SWAP1 POP SWAP2 SWAP1 POP JUMP JUMPDEST PUSH0 PUSH1 0x20 PUSH1 0x1F DUP4 ADD DIV SWAP1 POP SWAP2 SWAP1 POP JUMP JUMPDEST PUSH0 DUP3 DUP3 SHL SWAP1 POP SWAP3 SWAP2 POP POP JUMP JUMPDEST PUSH0 PUSH1 0x8 DUP4 MUL PUSH2 0x9D9 PUSH32 0xFFFFFFFFFFFFFFFFFFFFFFFFFFFFFFFFFFFFFFFFFFFFFFFFFFFFFFFFFFFFFFFF DUP3 PUSH2 0x99E JUMP JUMPDEST PUSH2 0x9E3 DUP7 DUP4 PUSH2 0x99E JUMP JUMPDEST SWAP6 POP DUP1 NOT DUP5 AND SWAP4 POP DUP1 DUP7 AND DUP5 OR SWAP3 POP POP POP SWAP4 SWAP3 POP POP POP JUMP JUMPDEST PUSH0 DUP2 SWAP1 POP SWAP2 SWAP1 POP JUMP JUMPDEST PUSH0 PUSH2 0xA1E PUSH2 0xA19 PUSH2 0xA14 DUP5 PUSH2 0x452 JUMP JUMPDEST PUSH2 0x9FB JUMP JUMPDEST PUSH2 0x452 JUMP JUMPDEST SWAP1 POP SWAP2 SWAP1 POP JUMP JUMPDEST PUSH0 DUP2 SWAP1 POP SWAP2 SWAP1 POP JUMP JUMPDEST PUSH2 0xA37 DUP4 PUSH2 0xA04 JUMP JUMPDEST PUSH2 0xA4B PUSH2 0xA43 DUP3 PUSH2 0xA25 JUMP JUMPDEST DUP5 DUP5 SLOAD PUSH2 0x9AA JUMP JUMPDEST DUP3 SSTORE POP POP POP POP JUMP JUMPDEST PUSH0 PUSH0 SWAP1 POP SWAP1 JUMP JUMPDEST PUSH2 0xA62 PUSH2 0xA53 JUMP JUMPDEST PUSH2 0xA6D DUP2 DUP5 DUP5 PUSH2 0xA2E JUMP JUMPDEST POP POP POP JUMP JUMPDEST JUMPDEST DUP2 DUP2 LT ISZERO PUSH2 0xA90 JUMPI PUSH2 0xA85 PUSH0 DUP3 PUSH2 0xA5A JUMP JUMPDEST PUSH1 0x1 DUP2 ADD SWAP1 POP PUSH2 0xA73 JUMP JUMPDEST POP POP JUMP JUMPDEST PUSH1 0x1F DUP3 GT ISZERO PUSH2 0xAD5 JUMPI PUSH2 0xAA6 DUP2 PUSH2 0x97D JUMP JUMPDEST PUSH2 0xAAF DUP5 PUSH2 0x98F JUMP JUMPDEST DUP2 ADD PUSH1 0x20 DUP6 LT ISZERO PUSH2 0xABE JUMPI DUP2 SWAP1 POP JUMPDEST PUSH2 0xAD2 PUSH2 0xACA DUP6 PUSH2 0x98F JUMP JUMPDEST DUP4 ADD DUP3 PUSH2 0xA72 JUMP JUMPDEST POP POP JUMPDEST POP POP POP JUMP JUMPDEST PUSH0 DUP3 DUP3 SHR SWAP1 POP SWAP3 SWAP2 POP POP JUMP JUMPDEST PUSH0 PUSH2 0xAF5 PUSH0 NOT DUP5 PUSH1 0x8 MUL PUSH2 0xADA JUMP JUMPDEST NOT DUP1 DUP4 AND SWAP2 POP POP SWAP3 SWAP2 POP POP JUMP JUMPDEST PUSH0 PUSH2 0xB0D DUP4 DUP4 PUSH2 0xAE6 JUMP JUMPDEST SWAP2 POP DUP3 PUSH1 0x2 MUL DUP3 OR SWAP1 POP SWAP3 SWAP2 POP POP JUMP JUMPDEST PUSH2 0xB26 DUP3 PUSH2 0x4BF JUMP JUMPDEST PUSH8 0xFFFFFFFFFFFFFFFF DUP2 GT ISZERO PUSH2 0xB3F JUMPI PUSH2 0xB3E PUSH2 0x573 JUMP JUMPDEST JUMPDEST PUSH2 0xB49 DUP3 SLOAD PUSH2 0x94D JUMP JUMPDEST PUSH2 0xB54 DUP3 DUP3 DUP6 PUSH2 0xA94 JUMP JUMPDEST PUSH0 PUSH1 0x20 SWAP1 POP PUSH1 0x1F DUP4 GT PUSH1 0x1 DUP2 EQ PUSH2 0xB85 JUMPI PUSH0 DUP5 ISZERO PUSH2 0xB73 JUMPI DUP3 DUP8 ADD MLOAD SWAP1 POP JUMPDEST PUSH2 0xB7D DUP6 DUP3 PUSH2 0xB02 JUMP JUMPDEST DUP7 SSTORE POP PUSH2 0xBE4 JUMP JUMPDEST PUSH1 0x1F NOT DUP5 AND PUSH2 0xB93 DUP7 PUSH2 0x97D JUMP JUMPDEST PUSH0 JUMPDEST DUP3 DUP2 LT ISZERO PUSH2 0xBBA JUMPI DUP5 DUP10 ADD MLOAD DUP3 SSTORE PUSH1 0x1 DUP3 ADD SWAP2 POP PUSH1 0x20 DUP6 ADD SWAP5 POP PUSH1 0x20 DUP2 ADD SWAP1 POP PUSH2 0xB95 JUMP JUMPDEST DUP7 DUP4 LT ISZERO PUSH2 0xBD7 JUMPI DUP5 DUP10 ADD MLOAD PUSH2 0xBD3 PUSH1 0x1F DUP10 AND DUP3 PUSH2 0xAE6 JUMP JUMPDEST DUP4 SSTORE POP JUMPDEST PUSH1 0x1 PUSH1 0x2 DUP9 MUL ADD DUP9 SSTORE POP POP POP JUMPDEST POP POP POP POP POP POP JUMP INVALID LOG2 PUSH5 0x6970667358 0x22 SLT KECCAK256 SHR CODECOPY PUSH3 0xF35C8B 0xC2 MULMOD SWAPN 0xB0 PUSH31 0xADDFCD123F025A374D9741595D30F750AB0049C2BD64736F6C634300081E00 CALLER "
				},
				"gasEstimates": {
					"creation": {
						"codeDepositCost": "621200",
						"executionCost": "655",
						"totalCost": "621855"
					},
					"external": {
						"addCandidate(string)": "infinite",
						"candidates(uint256)": "infinite",
						"getVotes(uint256)": "infinite",
						"vote(uint256)": "infinite",
						"voters(address)": "2877"
					}
				},
				"methodIdentifiers": {
					"addCandidate(string)": "462e91ec",
					"candidates(uint256)": "3477ee2e",
					"getVotes(uint256)": "ff981099",
					"vote(uint256)": "0121b93f",
					"voters(address)": "a3ec138d"
				}
			},
			"storageLayout": {
				"storage": [
					{
						"astId": 12,
						"contract": "t.sol:SimpleVoting",
						"label": "candidates",
						"offset": 0,
						"slot": "0",
						"type": "t_array(t_struct(Candidate)8_storage)dyn_storage"
					},
					{
						"astId": 16,
						"contract": "t.sol:SimpleVoting",
						"label": "voters",
						"offset": 0,
						"slot": "1",
						"type": "t_mapping(t_address,t_bool)"
					}
				],
				"types": {
					"t_address": {
						"encoding": "inplace",
						"label": "address",
						"numberOfBytes": "20"
					},
					"t_array(t_struct(Candidate)8_storage)dyn_storage": {
						"base": "t_struct(Candidate)8_storage",
						"encoding": "dynamic_array",
						"label": "struct SimpleVoting.Candidate[]",
						"numberOfBytes": "32"
					},
					"t_bool": {
						"encoding": "inplace",
						"label": "bool",
						"numberOfBytes": "1"
					},
					"t_mapping(t_address,t_bool)": {
						"encoding": "mapping",
						"key": "t_address",
						"label": "mapping(address => bool)",
						"numberOfBytes": "32",
						"value": "t_bool"
					},
					"t_string_storage": {
						"encoding": "bytes",
						"label": "string",
						"numberOfBytes": "32"
					},
					"t_struct(Candidate)8_storage": {
						"encoding": "inplace",
						"label": "struct SimpleVoting.Candidate",
						"members": [
							{
								"astId": 3,
								"contract": "t.sol:SimpleVoting",
								"label": "id",
								"offset": 0,
								"slot": "0",
								"type": "t_uint256"
							},
							{
								"astId": 5,
								"contract": "t.sol:SimpleVoting",
								"label": "name",
								"offset": 0,
								"slot": "1",
								"type": "t_string_storage"
							},
							{
								"astId": 7,
								"contract": "t.sol:SimpleVoting",
								"label": "voteCount",
								"offset": 0,
								"slot": "2",
								"type": "t_uint256"
							}
						],
						"numberOfBytes": "96"
					},
					"t_uint256": {
						"encoding": "inplace",
						"label": "uint256",
						"numberOfBytes": "32"
					}
				}
			},
			"userdoc": {
				"kind": "user",
				"methods": {},
				"version": 1
			}
		}
	}
}