{
	"103/transparent.sol": {
		"TransparentProxy": {
			"abi": [
				{
					"inputs": [
						{
							"internalType": "address",
							"name": "_implementation",
							"type": "address"
						}
					],
					"stateMutability": "nonpayable",
					"type": "constructor"
				},
				{
					"stateMutability": "payable",
					"type": "fallback"
				},
				{
					"inputs": [
						{
							"internalType": "address",
							"name": "newImplementation",
							"type": "address"
						}
					],
					"name": "upgrade",
					"outputs": [],
					"stateMutability": "nonpayable",
					"type": "function"
				},
				{
					"inputs": [],
					"name": "words",
					"outputs": [
						{
							"internalType": "string",
							"name": "",
							"type": "string"
						}
					],
					"stateMutability": "view",
					"type": "function"
				},
				{
					"stateMutability": "payable",
					"type": "receive"
				}
			],
			"devdoc": {
				"kind": "dev",
				"methods": {},
				"version": 1
			},
			"evm": {
				"assembly": "    /* \"103/transparent.sol\":122:1071  contract TransparentProxy {... */\n  mstore(0x40, 0x80)\n    /* \"103/transparent.sol\":374:487  constructor(address _implementation){... */\n  callvalue\n  dup1\n  iszero\n  tag_1\n  jumpi\n  revert(0x00, 0x00)\ntag_1:\n  pop\n  mload(0x40)\n  sub(codesize, bytecodeSize)\n  dup1\n  bytecodeSize\n  dup4\n  codecopy\n  dup2\n  dup2\n  add\n  0x40\n  mstore\n  dup2\n  add\n  swap1\n  tag_2\n  swap2\n  swap1\n  tag_3\n  jump\t// in\ntag_2:\n    /* \"103/transparent.sol\":428:438  msg.sender */\n  caller\n    /* \"103/transparent.sol\":420:425  admin */\n  0x01\n  0x00\n    /* \"103/transparent.sol\":420:438  admin = msg.sender */\n  0x0100\n  exp\n  dup2\n  sload\n  dup2\n  0xffffffffffffffffffffffffffffffffffffffff\n  mul\n  not\n  and\n  swap1\n  dup4\n  0xffffffffffffffffffffffffffffffffffffffff\n  and\n  mul\n  or\n  swap1\n  sstore\n  pop\n    /* \"103/transparent.sol\":465:480  _implementation */\n  dup1\n    /* \"103/transparent.sol\":448:462  implementation */\n  0x00\n  0x00\n    /* \"103/transparent.sol\":448:480  implementation = _implementation */\n  0x0100\n  exp\n  dup2\n  sload\n  dup2\n  0xffffffffffffffffffffffffffffffffffffffff\n  mul\n  not\n  and\n  swap1\n  dup4\n  0xffffffffffffffffffffffffffffffffffffffff\n  and\n  mul\n  or\n  swap1\n  sstore\n  pop\n    /* \"103/transparent.sol\":374:487  constructor(address _implementation){... */\n  pop\n    /* \"103/transparent.sol\":122:1071  contract TransparentProxy {... */\n  jump(tag_6)\n    /* \"#utility.yul\":88:205   */\ntag_8:\n    /* \"#utility.yul\":197:198   */\n  0x00\n    /* \"#utility.yul\":194:195   */\n  0x00\n    /* \"#utility.yul\":187:199   */\n  revert\n    /* \"#utility.yul\":334:460   */\ntag_10:\n    /* \"#utility.yul\":371:378   */\n  0x00\n    /* \"#utility.yul\":411:453   */\n  0xffffffffffffffffffffffffffffffffffffffff\n    /* \"#utility.yul\":404:409   */\n  dup3\n    /* \"#utility.yul\":400:454   */\n  and\n    /* \"#utility.yul\":389:454   */\n  swap1\n  pop\n    /* \"#utility.yul\":334:460   */\n  swap2\n  swap1\n  pop\n  jump\t// out\n    /* \"#utility.yul\":466:562   */\ntag_11:\n    /* \"#utility.yul\":503:510   */\n  0x00\n    /* \"#utility.yul\":532:556   */\n  tag_20\n    /* \"#utility.yul\":550:555   */\n  dup3\n    /* \"#utility.yul\":532:556   */\n  tag_10\n  jump\t// in\ntag_20:\n    /* \"#utility.yul\":521:556   */\n  swap1\n  pop\n    /* \"#utility.yul\":466:562   */\n  swap2\n  swap1\n  pop\n  jump\t// out\n    /* \"#utility.yul\":568:690   */\ntag_12:\n    /* \"#utility.yul\":641:665   */\n  tag_22\n    /* \"#utility.yul\":659:664   */\n  dup2\n    /* \"#utility.yul\":641:665   */\n  tag_11\n  jump\t// in\ntag_22:\n    /* \"#utility.yul\":634:639   */\n  dup2\n    /* \"#utility.yul\":631:666   */\n  eq\n    /* \"#utility.yul\":621:684   */\n  tag_23\n  jumpi\n    /* \"#utility.yul\":680:681   */\n  0x00\n    /* \"#utility.yul\":677:678   */\n  0x00\n    /* \"#utility.yul\":670:682   */\n  revert\n    /* \"#utility.yul\":621:684   */\ntag_23:\n    /* \"#utility.yul\":568:690   */\n  pop\n  jump\t// out\n    /* \"#utility.yul\":696:839   */\ntag_13:\n    /* \"#utility.yul\":753:758   */\n  0x00\n    /* \"#utility.yul\":784:790   */\n  dup2\n    /* \"#utility.yul\":778:791   */\n  mload\n    /* \"#utility.yul\":769:791   */\n  swap1\n  pop\n    /* \"#utility.yul\":800:833   */\n  tag_25\n    /* \"#utility.yul\":827:832   */\n  dup2\n    /* \"#utility.yul\":800:833   */\n  tag_12\n  jump\t// in\ntag_25:\n    /* \"#utility.yul\":696:839   */\n  swap3\n  swap2\n  pop\n  pop\n  jump\t// out\n    /* \"#utility.yul\":845:1196   */\ntag_3:\n    /* \"#utility.yul\":915:921   */\n  0x00\n    /* \"#utility.yul\":964:966   */\n  0x20\n    /* \"#utility.yul\":952:961   */\n  dup3\n    /* \"#utility.yul\":943:950   */\n  dup5\n    /* \"#utility.yul\":939:962   */\n  sub\n    /* \"#utility.yul\":935:967   */\n  slt\n    /* \"#utility.yul\":932:1051   */\n  iszero\n  tag_27\n  jumpi\n    /* \"#utility.yul\":970:1049   */\n  tag_28\n  tag_8\n  jump\t// in\ntag_28:\n    /* \"#utility.yul\":932:1051   */\ntag_27:\n    /* \"#utility.yul\":1090:1091   */\n  0x00\n    /* \"#utility.yul\":1115:1179   */\n  tag_29\n    /* \"#utility.yul\":1171:1178   */\n  dup5\n    /* \"#utility.yul\":1162:1168   */\n  dup3\n    /* \"#utility.yul\":1151:1160   */\n  dup6\n    /* \"#utility.yul\":1147:1169   */\n  add\n    /* \"#utility.yul\":1115:1179   */\n  tag_13\n  jump\t// in\ntag_29:\n    /* \"#utility.yul\":1105:1179   */\n  swap2\n  pop\n    /* \"#utility.yul\":1061:1189   */\n  pop\n    /* \"#utility.yul\":845:1196   */\n  swap3\n  swap2\n  pop\n  pop\n  jump\t// out\n    /* \"103/transparent.sol\":122:1071  contract TransparentProxy {... */\ntag_6:\n  dataSize(sub_0)\n  dup1\n  dataOffset(sub_0)\n  0x00\n  codecopy\n  0x00\n  return\nstop\n\nsub_0: assembly {\n        /* \"103/transparent.sol\":122:1071  contract TransparentProxy {... */\n      mstore(0x40, 0x80)\n      jumpi(tag_1, lt(calldatasize, 0x04))\n      shr(0xe0, calldataload(0x00))\n      dup1\n      0x0900f010\n      eq\n      tag_3\n      jumpi\n      dup1\n      0xf2c31bd9\n      eq\n      tag_4\n      jumpi\n      jump(tag_2)\n    tag_1:\n      jumpi(tag_2, calldatasize)\n      stop\n    tag_2:\n        /* \"103/transparent.sol\":672:677  admin */\n      0x01\n      0x00\n      swap1\n      sload\n      swap1\n      0x0100\n      exp\n      swap1\n      div\n      0xffffffffffffffffffffffffffffffffffffffff\n      and\n        /* \"103/transparent.sol\":658:677  msg.sender != admin */\n      0xffffffffffffffffffffffffffffffffffffffff\n      and\n        /* \"103/transparent.sol\":658:668  msg.sender */\n      caller\n        /* \"103/transparent.sol\":658:677  msg.sender != admin */\n      0xffffffffffffffffffffffffffffffffffffffff\n      and\n      sub\n        /* \"103/transparent.sol\":650:678  require(msg.sender != admin) */\n      tag_9\n      jumpi\n      revert(0x00, 0x00)\n    tag_9:\n        /* \"103/transparent.sol\":689:701  bool success */\n      0x00\n        /* \"103/transparent.sol\":707:721  implementation */\n      0x00\n      0x00\n      swap1\n      sload\n      swap1\n      0x0100\n      exp\n      swap1\n      div\n      0xffffffffffffffffffffffffffffffffffffffff\n      and\n        /* \"103/transparent.sol\":707:734  implementation.delegatecall */\n      0xffffffffffffffffffffffffffffffffffffffff\n      and\n        /* \"103/transparent.sol\":735:743  msg.data */\n      0x00\n      calldatasize\n        /* \"103/transparent.sol\":707:744  implementation.delegatecall(msg.data) */\n      mload(0x40)\n      tag_10\n      swap3\n      swap2\n      swap1\n      tag_11\n      jump\t// in\n    tag_10:\n      0x00\n      mload(0x40)\n      dup1\n      dup4\n      sub\n      dup2\n      dup6\n      gas\n      delegatecall\n      swap2\n      pop\n      pop\n      returndatasize\n      dup1\n      0x00\n      dup2\n      eq\n      tag_14\n      jumpi\n      mload(0x40)\n      swap2\n      pop\n      and(add(returndatasize, 0x3f), not(0x1f))\n      dup3\n      add\n      0x40\n      mstore\n      returndatasize\n      dup3\n      mstore\n      returndatasize\n      0x00\n      0x20\n      dup5\n      add\n      returndatacopy\n      jump(tag_13)\n    tag_14:\n      0x60\n      swap2\n      pop\n    tag_13:\n      pop\n        /* \"103/transparent.sol\":688:744  (bool success, ) = implementation.delegatecall(msg.data) */\n      pop\n      swap1\n      pop\n        /* \"103/transparent.sol\":759:766  success */\n      dup1\n        /* \"103/transparent.sol\":754:801  if (!success) revert(\"TransparentProxy failed\") */\n      tag_15\n      jumpi\n        /* \"103/transparent.sol\":768:801  revert(\"TransparentProxy failed\") */\n      mload(0x40)\n      0x08c379a000000000000000000000000000000000000000000000000000000000\n      dup2\n      mstore\n      0x04\n      add\n      tag_16\n      swap1\n      tag_17\n      jump\t// in\n    tag_16:\n      mload(0x40)\n      dup1\n      swap2\n      sub\n      swap1\n      revert\n        /* \"103/transparent.sol\":754:801  if (!success) revert(\"TransparentProxy failed\") */\n    tag_15:\n        /* \"103/transparent.sol\":640:808  {... */\n      stop\n        /* \"103/transparent.sol\":922:1069  function upgrade(address newImplementation) external {... */\n    tag_3:\n      callvalue\n      dup1\n      iszero\n      tag_18\n      jumpi\n      revert(0x00, 0x00)\n    tag_18:\n      pop\n      tag_19\n      0x04\n      dup1\n      calldatasize\n      sub\n      dup2\n      add\n      swap1\n      tag_20\n      swap2\n      swap1\n      tag_21\n      jump\t// in\n    tag_20:\n      tag_22\n      jump\t// in\n    tag_19:\n      stop\n        /* \"103/transparent.sol\":235:254  string public words */\n    tag_4:\n      callvalue\n      dup1\n      iszero\n      tag_23\n      jumpi\n      revert(0x00, 0x00)\n    tag_23:\n      pop\n      tag_24\n      tag_25\n      jump\t// in\n    tag_24:\n      mload(0x40)\n      tag_26\n      swap2\n      swap1\n      tag_27\n      jump\t// in\n    tag_26:\n      mload(0x40)\n      dup1\n      swap2\n      sub\n      swap1\n      return\n        /* \"103/transparent.sol\":922:1069  function upgrade(address newImplementation) external {... */\n    tag_22:\n        /* \"103/transparent.sol\":1003:1008  admin */\n      0x01\n      0x00\n      swap1\n      sload\n      swap1\n      0x0100\n      exp\n      swap1\n      div\n      0xffffffffffffffffffffffffffffffffffffffff\n      and\n        /* \"103/transparent.sol\":989:1008  msg.sender != admin */\n      0xffffffffffffffffffffffffffffffffffffffff\n      and\n        /* \"103/transparent.sol\":989:999  msg.sender */\n      caller\n        /* \"103/transparent.sol\":989:1008  msg.sender != admin */\n      0xffffffffffffffffffffffffffffffffffffffff\n      and\n      eq\n        /* \"103/transparent.sol\":985:1018  if (msg.sender != admin) revert() */\n      tag_29\n      jumpi\n        /* \"103/transparent.sol\":1010:1018  revert() */\n      revert(0x00, 0x00)\n        /* \"103/transparent.sol\":985:1018  if (msg.sender != admin) revert() */\n    tag_29:\n        /* \"103/transparent.sol\":1045:1062  newImplementation */\n      dup1\n        /* \"103/transparent.sol\":1028:1042  implementation */\n      0x00\n      0x00\n        /* \"103/transparent.sol\":1028:1062  implementation = newImplementation */\n      0x0100\n      exp\n      dup2\n      sload\n      dup2\n      0xffffffffffffffffffffffffffffffffffffffff\n      mul\n      not\n      and\n      swap1\n      dup4\n      0xffffffffffffffffffffffffffffffffffffffff\n      and\n      mul\n      or\n      swap1\n      sstore\n      pop\n        /* \"103/transparent.sol\":922:1069  function upgrade(address newImplementation) external {... */\n      pop\n      jump\t// out\n        /* \"103/transparent.sol\":235:254  string public words */\n    tag_25:\n      0x02\n      dup1\n      sload\n      tag_30\n      swap1\n      tag_31\n      jump\t// in\n    tag_30:\n      dup1\n      0x1f\n      add\n      0x20\n      dup1\n      swap2\n      div\n      mul\n      0x20\n      add\n      mload(0x40)\n      swap1\n      dup2\n      add\n      0x40\n      mstore\n      dup1\n      swap3\n      swap2\n      swap1\n      dup2\n      dup2\n      mstore\n      0x20\n      add\n      dup3\n      dup1\n      sload\n      tag_32\n      swap1\n      tag_31\n      jump\t// in\n    tag_32:\n      dup1\n      iszero\n      tag_33\n      jumpi\n      dup1\n      0x1f\n      lt\n      tag_34\n      jumpi\n      0x0100\n      dup1\n      dup4\n      sload\n      div\n      mul\n      dup4\n      mstore\n      swap2\n      0x20\n      add\n      swap2\n      jump(tag_33)\n    tag_34:\n      dup3\n      add\n      swap2\n      swap1\n      0x00\n      mstore\n      keccak256(0x00, 0x20)\n      swap1\n    tag_35:\n      dup2\n      sload\n      dup2\n      mstore\n      swap1\n      0x01\n      add\n      swap1\n      0x20\n      add\n      dup1\n      dup4\n      gt\n      tag_35\n      jumpi\n      dup3\n      swap1\n      sub\n      0x1f\n      and\n      dup3\n      add\n      swap2\n    tag_33:\n      pop\n      pop\n      pop\n      pop\n      pop\n      dup2\n      jump\t// out\n        /* \"#utility.yul\":7:154   */\n    tag_36:\n        /* \"#utility.yul\":108:119   */\n      0x00\n        /* \"#utility.yul\":145:148   */\n      dup2\n        /* \"#utility.yul\":130:148   */\n      swap1\n      pop\n        /* \"#utility.yul\":7:154   */\n      swap3\n      swap2\n      pop\n      pop\n      jump\t// out\n        /* \"#utility.yul\":160:308   */\n    tag_37:\n        /* \"#utility.yul\":258:264   */\n      dup3\n        /* \"#utility.yul\":253:256   */\n      dup2\n        /* \"#utility.yul\":248:251   */\n      dup4\n        /* \"#utility.yul\":235:265   */\n      calldatacopy\n        /* \"#utility.yul\":299:300   */\n      0x00\n        /* \"#utility.yul\":290:296   */\n      dup4\n        /* \"#utility.yul\":285:288   */\n      dup4\n        /* \"#utility.yul\":281:297   */\n      add\n        /* \"#utility.yul\":274:301   */\n      mstore\n        /* \"#utility.yul\":160:308   */\n      pop\n      pop\n      pop\n      jump\t// out\n        /* \"#utility.yul\":336:663   */\n    tag_38:\n        /* \"#utility.yul\":450:453   */\n      0x00\n        /* \"#utility.yul\":471:559   */\n      tag_58\n        /* \"#utility.yul\":552:558   */\n      dup4\n        /* \"#utility.yul\":547:550   */\n      dup6\n        /* \"#utility.yul\":471:559   */\n      tag_36\n      jump\t// in\n    tag_58:\n        /* \"#utility.yul\":464:559   */\n      swap4\n      pop\n        /* \"#utility.yul\":569:625   */\n      tag_59\n        /* \"#utility.yul\":618:624   */\n      dup4\n        /* \"#utility.yul\":613:616   */\n      dup6\n        /* \"#utility.yul\":606:611   */\n      dup5\n        /* \"#utility.yul\":569:625   */\n      tag_37\n      jump\t// in\n    tag_59:\n        /* \"#utility.yul\":650:656   */\n      dup3\n        /* \"#utility.yul\":645:648   */\n      dup5\n        /* \"#utility.yul\":641:657   */\n      add\n        /* \"#utility.yul\":634:657   */\n      swap1\n      pop\n        /* \"#utility.yul\":336:663   */\n      swap4\n      swap3\n      pop\n      pop\n      pop\n      jump\t// out\n        /* \"#utility.yul\":669:960   */\n    tag_11:\n        /* \"#utility.yul\":809:812   */\n      0x00\n        /* \"#utility.yul\":831:934   */\n      tag_61\n        /* \"#utility.yul\":930:933   */\n      dup3\n        /* \"#utility.yul\":921:927   */\n      dup5\n        /* \"#utility.yul\":913:919   */\n      dup7\n        /* \"#utility.yul\":831:934   */\n      tag_38\n      jump\t// in\n    tag_61:\n        /* \"#utility.yul\":824:934   */\n      swap2\n      pop\n        /* \"#utility.yul\":951:954   */\n      dup2\n        /* \"#utility.yul\":944:954   */\n      swap1\n      pop\n        /* \"#utility.yul\":669:960   */\n      swap4\n      swap3\n      pop\n      pop\n      pop\n      jump\t// out\n        /* \"#utility.yul\":966:1135   */\n    tag_39:\n        /* \"#utility.yul\":1050:1061   */\n      0x00\n        /* \"#utility.yul\":1084:1090   */\n      dup3\n        /* \"#utility.yul\":1079:1082   */\n      dup3\n        /* \"#utility.yul\":1072:1091   */\n      mstore\n        /* \"#utility.yul\":1124:1128   */\n      0x20\n        /* \"#utility.yul\":1119:1122   */\n      dup3\n        /* \"#utility.yul\":1115:1129   */\n      add\n        /* \"#utility.yul\":1100:1129   */\n      swap1\n      pop\n        /* \"#utility.yul\":966:1135   */\n      swap3\n      swap2\n      pop\n      pop\n      jump\t// out\n        /* \"#utility.yul\":1141:1314   */\n    tag_40:\n        /* \"#utility.yul\":1281:1306   */\n      0x5472616e73706172656e7450726f7879206661696c6564000000000000000000\n        /* \"#utility.yul\":1277:1278   */\n      0x00\n        /* \"#utility.yul\":1269:1275   */\n      dup3\n        /* \"#utility.yul\":1265:1279   */\n      add\n        /* \"#utility.yul\":1258:1307   */\n      mstore\n        /* \"#utility.yul\":1141:1314   */\n      pop\n      jump\t// out\n        /* \"#utility.yul\":1320:1686   */\n    tag_41:\n        /* \"#utility.yul\":1462:1465   */\n      0x00\n        /* \"#utility.yul\":1483:1550   */\n      tag_65\n        /* \"#utility.yul\":1547:1549   */\n      0x17\n        /* \"#utility.yul\":1542:1545   */\n      dup4\n        /* \"#utility.yul\":1483:1550   */\n      tag_39\n      jump\t// in\n    tag_65:\n        /* \"#utility.yul\":1476:1550   */\n      swap2\n      pop\n        /* \"#utility.yul\":1559:1652   */\n      tag_66\n        /* \"#utility.yul\":1648:1651   */\n      dup3\n        /* \"#utility.yul\":1559:1652   */\n      tag_40\n      jump\t// in\n    tag_66:\n        /* \"#utility.yul\":1677:1679   */\n      0x20\n        /* \"#utility.yul\":1672:1675   */\n      dup3\n        /* \"#utility.yul\":1668:1680   */\n      add\n        /* \"#utility.yul\":1661:1680   */\n      swap1\n      pop\n        /* \"#utility.yul\":1320:1686   */\n      swap2\n      swap1\n      pop\n      jump\t// out\n        /* \"#utility.yul\":1692:2111   */\n    tag_17:\n        /* \"#utility.yul\":1858:1862   */\n      0x00\n        /* \"#utility.yul\":1896:1898   */\n      0x20\n        /* \"#utility.yul\":1885:1894   */\n      dup3\n        /* \"#utility.yul\":1881:1899   */\n      add\n        /* \"#utility.yul\":1873:1899   */\n      swap1\n      pop\n        /* \"#utility.yul\":1945:1954   */\n      dup2\n        /* \"#utility.yul\":1939:1943   */\n      dup2\n        /* \"#utility.yul\":1935:1955   */\n      sub\n        /* \"#utility.yul\":1931:1932   */\n      0x00\n        /* \"#utility.yul\":1920:1929   */\n      dup4\n        /* \"#utility.yul\":1916:1933   */\n      add\n        /* \"#utility.yul\":1909:1956   */\n      mstore\n        /* \"#utility.yul\":1973:2104   */\n      tag_68\n        /* \"#utility.yul\":2099:2103   */\n      dup2\n        /* \"#utility.yul\":1973:2104   */\n      tag_41\n      jump\t// in\n    tag_68:\n        /* \"#utility.yul\":1965:2104   */\n      swap1\n      pop\n        /* \"#utility.yul\":1692:2111   */\n      swap2\n      swap1\n      pop\n      jump\t// out\n        /* \"#utility.yul\":2198:2315   */\n    tag_43:\n        /* \"#utility.yul\":2307:2308   */\n      0x00\n        /* \"#utility.yul\":2304:2305   */\n      0x00\n        /* \"#utility.yul\":2297:2309   */\n      revert\n        /* \"#utility.yul\":2444:2570   */\n    tag_45:\n        /* \"#utility.yul\":2481:2488   */\n      0x00\n        /* \"#utility.yul\":2521:2563   */\n      0xffffffffffffffffffffffffffffffffffffffff\n        /* \"#utility.yul\":2514:2519   */\n      dup3\n        /* \"#utility.yul\":2510:2564   */\n      and\n        /* \"#utility.yul\":2499:2564   */\n      swap1\n      pop\n        /* \"#utility.yul\":2444:2570   */\n      swap2\n      swap1\n      pop\n      jump\t// out\n        /* \"#utility.yul\":2576:2672   */\n    tag_46:\n        /* \"#utility.yul\":2613:2620   */\n      0x00\n        /* \"#utility.yul\":2642:2666   */\n      tag_74\n        /* \"#utility.yul\":2660:2665   */\n      dup3\n        /* \"#utility.yul\":2642:2666   */\n      tag_45\n      jump\t// in\n    tag_74:\n        /* \"#utility.yul\":2631:2666   */\n      swap1\n      pop\n        /* \"#utility.yul\":2576:2672   */\n      swap2\n      swap1\n      pop\n      jump\t// out\n        /* \"#utility.yul\":2678:2800   */\n    tag_47:\n        /* \"#utility.yul\":2751:2775   */\n      tag_76\n        /* \"#utility.yul\":2769:2774   */\n      dup2\n        /* \"#utility.yul\":2751:2775   */\n      tag_46\n      jump\t// in\n    tag_76:\n        /* \"#utility.yul\":2744:2749   */\n      dup2\n        /* \"#utility.yul\":2741:2776   */\n      eq\n        /* \"#utility.yul\":2731:2794   */\n      tag_77\n      jumpi\n        /* \"#utility.yul\":2790:2791   */\n      0x00\n        /* \"#utility.yul\":2787:2788   */\n      0x00\n        /* \"#utility.yul\":2780:2792   */\n      revert\n        /* \"#utility.yul\":2731:2794   */\n    tag_77:\n        /* \"#utility.yul\":2678:2800   */\n      pop\n      jump\t// out\n        /* \"#utility.yul\":2806:2945   */\n    tag_48:\n        /* \"#utility.yul\":2852:2857   */\n      0x00\n        /* \"#utility.yul\":2890:2896   */\n      dup2\n        /* \"#utility.yul\":2877:2897   */\n      calldataload\n        /* \"#utility.yul\":2868:2897   */\n      swap1\n      pop\n        /* \"#utility.yul\":2906:2939   */\n      tag_79\n        /* \"#utility.yul\":2933:2938   */\n      dup2\n        /* \"#utility.yul\":2906:2939   */\n      tag_47\n      jump\t// in\n    tag_79:\n        /* \"#utility.yul\":2806:2945   */\n      swap3\n      swap2\n      pop\n      pop\n      jump\t// out\n        /* \"#utility.yul\":2951:3280   */\n    tag_21:\n        /* \"#utility.yul\":3010:3016   */\n      0x00\n        /* \"#utility.yul\":3059:3061   */\n      0x20\n        /* \"#utility.yul\":3047:3056   */\n      dup3\n        /* \"#utility.yul\":3038:3045   */\n      dup5\n        /* \"#utility.yul\":3034:3057   */\n      sub\n        /* \"#utility.yul\":3030:3062   */\n      slt\n        /* \"#utility.yul\":3027:3146   */\n      iszero\n      tag_81\n      jumpi\n        /* \"#utility.yul\":3065:3144   */\n      tag_82\n      tag_43\n      jump\t// in\n    tag_82:\n        /* \"#utility.yul\":3027:3146   */\n    tag_81:\n        /* \"#utility.yul\":3185:3186   */\n      0x00\n        /* \"#utility.yul\":3210:3263   */\n      tag_83\n        /* \"#utility.yul\":3255:3262   */\n      dup5\n        /* \"#utility.yul\":3246:3252   */\n      dup3\n        /* \"#utility.yul\":3235:3244   */\n      dup6\n        /* \"#utility.yul\":3231:3253   */\n      add\n        /* \"#utility.yul\":3210:3263   */\n      tag_48\n      jump\t// in\n    tag_83:\n        /* \"#utility.yul\":3200:3263   */\n      swap2\n      pop\n        /* \"#utility.yul\":3156:3273   */\n      pop\n        /* \"#utility.yul\":2951:3280   */\n      swap3\n      swap2\n      pop\n      pop\n      jump\t// out\n        /* \"#utility.yul\":3286:3385   */\n    tag_49:\n        /* \"#utility.yul\":3338:3344   */\n      0x00\n        /* \"#utility.yul\":3372:3377   */\n      dup2\n        /* \"#utility.yul\":3366:3378   */\n      mload\n        /* \"#utility.yul\":3356:3378   */\n      swap1\n      pop\n        /* \"#utility.yul\":3286:3385   */\n      swap2\n      swap1\n      pop\n      jump\t// out\n        /* \"#utility.yul\":3391:3530   */\n    tag_50:\n        /* \"#utility.yul\":3480:3486   */\n      dup3\n        /* \"#utility.yul\":3475:3478   */\n      dup2\n        /* \"#utility.yul\":3470:3473   */\n      dup4\n        /* \"#utility.yul\":3464:3487   */\n      mcopy\n        /* \"#utility.yul\":3521:3522   */\n      0x00\n        /* \"#utility.yul\":3512:3518   */\n      dup4\n        /* \"#utility.yul\":3507:3510   */\n      dup4\n        /* \"#utility.yul\":3503:3519   */\n      add\n        /* \"#utility.yul\":3496:3523   */\n      mstore\n        /* \"#utility.yul\":3391:3530   */\n      pop\n      pop\n      pop\n      jump\t// out\n        /* \"#utility.yul\":3536:3638   */\n    tag_51:\n        /* \"#utility.yul\":3577:3583   */\n      0x00\n        /* \"#utility.yul\":3628:3630   */\n      0x1f\n        /* \"#utility.yul\":3624:3631   */\n      not\n        /* \"#utility.yul\":3619:3621   */\n      0x1f\n        /* \"#utility.yul\":3612:3617   */\n      dup4\n        /* \"#utility.yul\":3608:3622   */\n      add\n        /* \"#utility.yul\":3604:3632   */\n      and\n        /* \"#utility.yul\":3594:3632   */\n      swap1\n      pop\n        /* \"#utility.yul\":3536:3638   */\n      swap2\n      swap1\n      pop\n      jump\t// out\n        /* \"#utility.yul\":3644:4021   */\n    tag_52:\n        /* \"#utility.yul\":3732:3735   */\n      0x00\n        /* \"#utility.yul\":3760:3799   */\n      tag_88\n        /* \"#utility.yul\":3793:3798   */\n      dup3\n        /* \"#utility.yul\":3760:3799   */\n      tag_49\n      jump\t// in\n    tag_88:\n        /* \"#utility.yul\":3815:3886   */\n      tag_89\n        /* \"#utility.yul\":3879:3885   */\n      dup2\n        /* \"#utility.yul\":3874:3877   */\n      dup6\n        /* \"#utility.yul\":3815:3886   */\n      tag_39\n      jump\t// in\n    tag_89:\n        /* \"#utility.yul\":3808:3886   */\n      swap4\n      pop\n        /* \"#utility.yul\":3895:3960   */\n      tag_90\n        /* \"#utility.yul\":3953:3959   */\n      dup2\n        /* \"#utility.yul\":3948:3951   */\n      dup6\n        /* \"#utility.yul\":3941:3945   */\n      0x20\n        /* \"#utility.yul\":3934:3939   */\n      dup7\n        /* \"#utility.yul\":3930:3946   */\n      add\n        /* \"#utility.yul\":3895:3960   */\n      tag_50\n      jump\t// in\n    tag_90:\n        /* \"#utility.yul\":3985:4014   */\n      tag_91\n        /* \"#utility.yul\":4007:4013   */\n      dup2\n        /* \"#utility.yul\":3985:4014   */\n      tag_51\n      jump\t// in\n    tag_91:\n        /* \"#utility.yul\":3980:3983   */\n      dup5\n        /* \"#utility.yul\":3976:4015   */\n      add\n        /* \"#utility.yul\":3969:4015   */\n      swap2\n      pop\n        /* \"#utility.yul\":3736:4021   */\n      pop\n        /* \"#utility.yul\":3644:4021   */\n      swap3\n      swap2\n      pop\n      pop\n      jump\t// out\n        /* \"#utility.yul\":4027:4340   */\n    tag_27:\n        /* \"#utility.yul\":4140:4144   */\n      0x00\n        /* \"#utility.yul\":4178:4180   */\n      0x20\n        /* \"#utility.yul\":4167:4176   */\n      dup3\n        /* \"#utility.yul\":4163:4181   */\n      add\n        /* \"#utility.yul\":4155:4181   */\n      swap1\n      pop\n        /* \"#utility.yul\":4227:4236   */\n      dup2\n        /* \"#utility.yul\":4221:4225   */\n      dup2\n        /* \"#utility.yul\":4217:4237   */\n      sub\n        /* \"#utility.yul\":4213:4214   */\n      0x00\n        /* \"#utility.yul\":4202:4211   */\n      dup4\n        /* \"#utility.yul\":4198:4215   */\n      add\n        /* \"#utility.yul\":4191:4238   */\n      mstore\n        /* \"#utility.yul\":4255:4333   */\n      tag_93\n        /* \"#utility.yul\":4328:4332   */\n      dup2\n        /* \"#utility.yul\":4319:4325   */\n      dup5\n        /* \"#utility.yul\":4255:4333   */\n      tag_52\n      jump\t// in\n    tag_93:\n        /* \"#utility.yul\":4247:4333   */\n      swap1\n      pop\n        /* \"#utility.yul\":4027:4340   */\n      swap3\n      swap2\n      pop\n      pop\n      jump\t// out\n        /* \"#utility.yul\":4346:4526   */\n    tag_53:\n        /* \"#utility.yul\":4394:4471   */\n      0x4e487b7100000000000000000000000000000000000000000000000000000000\n        /* \"#utility.yul\":4391:4392   */\n      0x00\n        /* \"#utility.yul\":4384:4472   */\n      mstore\n        /* \"#utility.yul\":4491:4495   */\n      0x22\n        /* \"#utility.yul\":4488:4489   */\n      0x04\n        /* \"#utility.yul\":4481:4496   */\n      mstore\n        /* \"#utility.yul\":4515:4519   */\n      0x24\n        /* \"#utility.yul\":4512:4513   */\n      0x00\n        /* \"#utility.yul\":4505:4520   */\n      revert\n        /* \"#utility.yul\":4532:4852   */\n    tag_31:\n        /* \"#utility.yul\":4576:4582   */\n      0x00\n        /* \"#utility.yul\":4613:4614   */\n      0x02\n        /* \"#utility.yul\":4607:4611   */\n      dup3\n        /* \"#utility.yul\":4603:4615   */\n      div\n        /* \"#utility.yul\":4593:4615   */\n      swap1\n      pop\n        /* \"#utility.yul\":4660:4661   */\n      0x01\n        /* \"#utility.yul\":4654:4658   */\n      dup3\n        /* \"#utility.yul\":4650:4662   */\n      and\n        /* \"#utility.yul\":4681:4699   */\n      dup1\n        /* \"#utility.yul\":4671:4752   */\n      tag_96\n      jumpi\n        /* \"#utility.yul\":4737:4741   */\n      0x7f\n        /* \"#utility.yul\":4729:4735   */\n      dup3\n        /* \"#utility.yul\":4725:4742   */\n      and\n        /* \"#utility.yul\":4715:4742   */\n      swap2\n      pop\n        /* \"#utility.yul\":4671:4752   */\n    tag_96:\n        /* \"#utility.yul\":4799:4801   */\n      0x20\n        /* \"#utility.yul\":4791:4797   */\n      dup3\n        /* \"#utility.yul\":4788:4802   */\n      lt\n        /* \"#utility.yul\":4768:4786   */\n      dup2\n        /* \"#utility.yul\":4765:4803   */\n      sub\n        /* \"#utility.yul\":4762:4846   */\n      tag_97\n      jumpi\n        /* \"#utility.yul\":4818:4836   */\n      tag_98\n      tag_53\n      jump\t// in\n    tag_98:\n        /* \"#utility.yul\":4762:4846   */\n    tag_97:\n        /* \"#utility.yul\":4583:4852   */\n      pop\n        /* \"#utility.yul\":4532:4852   */\n      swap2\n      swap1\n      pop\n      jump\t// out\n\n    auxdata: 0xa2646970667358221220f9ec649441eeaa3fcc2ee9b24335a294dff169197f9671d0edc3c0277cf42b5b64736f6c634300081e0033\n}\n",
				"bytecode": {
					"linkReferences": {},
					"object": "608060405234801561000f575f5ffd5b5060405161068238038061068283398181016040528101906100319190610114565b3360015f6101000a81548173ffffffffffffffffffffffffffffffffffffffff021916908373ffffffffffffffffffffffffffffffffffffffff160217905550805f5f6101000a81548173ffffffffffffffffffffffffffffffffffffffff021916908373ffffffffffffffffffffffffffffffffffffffff1602179055505061013f565b5f5ffd5b5f73ffffffffffffffffffffffffffffffffffffffff82169050919050565b5f6100e3826100ba565b9050919050565b6100f3816100d9565b81146100fd575f5ffd5b50565b5f8151905061010e816100ea565b92915050565b5f60208284031215610129576101286100b6565b5b5f61013684828501610100565b91505092915050565b6105368061014c5f395ff3fe60806040526004361061002c575f3560e01c80630900f01014610156578063f2c31bd91461017e57610033565b3661003357005b60015f9054906101000a900473ffffffffffffffffffffffffffffffffffffffff1673ffffffffffffffffffffffffffffffffffffffff163373ffffffffffffffffffffffffffffffffffffffff160361008b575f5ffd5b5f5f5f9054906101000a900473ffffffffffffffffffffffffffffffffffffffff1673ffffffffffffffffffffffffffffffffffffffff165f366040516100d392919061030a565b5f60405180830381855af49150503d805f811461010b576040519150601f19603f3d011682016040523d82523d5f602084013e610110565b606091505b5050905080610154576040517f08c379a000000000000000000000000000000000000000000000000000000000815260040161014b9061037c565b60405180910390fd5b005b348015610161575f5ffd5b5061017c600480360381019061017791906103f8565b6101a8565b005b348015610189575f5ffd5b50610192610242565b60405161019f9190610483565b60405180910390f35b60015f9054906101000a900473ffffffffffffffffffffffffffffffffffffffff1673ffffffffffffffffffffffffffffffffffffffff163373ffffffffffffffffffffffffffffffffffffffff1614610200575f5ffd5b805f5f6101000a81548173ffffffffffffffffffffffffffffffffffffffff021916908373ffffffffffffffffffffffffffffffffffffffff16021790555050565b6002805461024f906104d0565b80601f016020809104026020016040519081016040528092919081815260200182805461027b906104d0565b80156102c65780601f1061029d576101008083540402835291602001916102c6565b820191905f5260205f20905b8154815290600101906020018083116102a957829003601f168201915b505050505081565b5f81905092915050565b828183375f83830152505050565b5f6102f183856102ce565b93506102fe8385846102d8565b82840190509392505050565b5f6103168284866102e6565b91508190509392505050565b5f82825260208201905092915050565b7f5472616e73706172656e7450726f7879206661696c65640000000000000000005f82015250565b5f610366601783610322565b915061037182610332565b602082019050919050565b5f6020820190508181035f8301526103938161035a565b9050919050565b5f5ffd5b5f73ffffffffffffffffffffffffffffffffffffffff82169050919050565b5f6103c78261039e565b9050919050565b6103d7816103bd565b81146103e1575f5ffd5b50565b5f813590506103f2816103ce565b92915050565b5f6020828403121561040d5761040c61039a565b5b5f61041a848285016103e4565b91505092915050565b5f81519050919050565b8281835e5f83830152505050565b5f601f19601f8301169050919050565b5f61045582610423565b61045f8185610322565b935061046f81856020860161042d565b6104788161043b565b840191505092915050565b5f6020820190508181035f83015261049b818461044b565b905092915050565b7f4e487b71000000000000000000000000000000000000000000000000000000005f52602260045260245ffd5b5f60028204905060018216806104e757607f821691505b6020821081036104fa576104f96104a3565b5b5091905056fea2646970667358221220f9ec649441eeaa3fcc2ee9b24335a294dff169197f9671d0edc3c0277cf42b5b64736f6c634300081e0033",
					"opcodes": "PUSH1 0x80 PUSH1 0x40 MSTORE CALLVALUE DUP1 ISZERO PUSH2 0xF JUMPI PUSH0 PUSH0 REVERT JUMPDEST POP PUSH1 0x40 MLOAD PUSH2 0x682 CODESIZE SUB DUP1 PUSH2 0x682 DUP4 CODECOPY DUP2 DUP2 ADD PUSH1 0x40 MSTORE DUP2 ADD SWAP1 PUSH2 0x31 SWAP2 SWAP1 PUSH2 0x114 JUMP JUMPDEST CALLER PUSH1 0x1 PUSH0 PUSH2 0x100 EXP DUP2 SLOAD DUP2 PUSH20 0xFFFFFFFFFFFFFFFFFFFFFFFFFFFFFFFFFFFFFFFF MUL NOT AND SWAP1 DUP4 PUSH20 0xFFFFFFFFFFFFFFFFFFFFFFFFFFFFFFFFFFFFFFFF AND MUL OR SWAP1 SSTORE POP DUP1 PUSH0 PUSH0 PUSH2 0x100 EXP DUP2 SLOAD DUP2 PUSH20 0xFFFFFFFFFFFFFFFFFFFFFFFFFFFFFFFFFFFFFFFF MUL NOT AND SWAP1 DUP4 PUSH20 0xFFFFFFFFFFFFFFFFFFFFFFFFFFFFFFFFFFFFFFFF AND MUL OR SWAP1 SSTORE POP POP PUSH2 0x13F JUMP JUMPDEST PUSH0 PUSH0 REVERT JUMPDEST PUSH0 PUSH20 0xFFFFFFFFFFFFFFFFFFFFFFFFFFFFFFFFFFFFFFFF DUP3 AND SWAP1 POP SWAP2 SWAP1 POP JUMP JUMPDEST PUSH0 PUSH2 0xE3 DUP3 PUSH2 0xBA JUMP JUMPDEST SWAP1 POP SWAP2 SWAP1 POP JUMP JUMPDEST PUSH2 0xF3 DUP2 PUSH2 0xD9 JUMP JUMPDEST DUP2 EQ PUSH2 0xFD JUMPI PUSH0 PUSH0 REVERT JUMPDEST POP JUMP JUMPDEST PUSH0 DUP2 MLOAD SWAP1 POP PUSH2 0x10E DUP2 PUSH2 0xEA JUMP JUMPDEST SWAP3 SWAP2 POP POP JUMP JUMPDEST PUSH0 PUSH1 0x20 DUP3 DUP5 SUB SLT ISZERO PUSH2 0x129 JUMPI PUSH2 0x128 PUSH2 0xB6 JUMP JUMPDEST JUMPDEST PUSH0 PUSH2 0x136 DUP5 DUP3 DUP6 ADD PUSH2 0x100 JUMP JUMPDEST SWAP2 POP POP SWAP3 SWAP2 POP POP JUMP JUMPDEST PUSH2 0x536 DUP1 PUSH2 0x14C PUSH0 CODECOPY PUSH0 RETURN INVALID PUSH1 0x80 PUSH1 0x40 MSTORE PUSH1 0x4 CALLDATASIZE LT PUSH2 0x2C JUMPI PUSH0 CALLDATALOAD PUSH1 0xE0 SHR DUP1 PUSH4 0x900F010 EQ PUSH2 0x156 JUMPI DUP1 PUSH4 0xF2C31BD9 EQ PUSH2 0x17E JUMPI PUSH2 0x33 JUMP JUMPDEST CALLDATASIZE PUSH2 0x33 JUMPI STOP JUMPDEST PUSH1 0x1 PUSH0 SWAP1 SLOAD SWAP1 PUSH2 0x100 EXP SWAP1 DIV PUSH20 0xFFFFFFFFFFFFFFFFFFFFFFFFFFFFFFFFFFFFFFFF AND PUSH20 0xFFFFFFFFFFFFFFFFFFFFFFFFFFFFFFFFFFFFFFFF AND CALLER PUSH20 0xFFFFFFFFFFFFFFFFFFFFFFFFFFFFFFFFFFFFFFFF AND SUB PUSH2 0x8B JUMPI PUSH0 PUSH0 REVERT JUMPDEST PUSH0 PUSH0 PUSH0 SWAP1 SLOAD SWAP1 PUSH2 0x100 EXP SWAP1 DIV PUSH20 0xFFFFFFFFFFFFFFFFFFFFFFFFFFFFFFFFFFFFFFFF AND PUSH20 0xFFFFFFFFFFFFFFFFFFFFFFFFFFFFFFFFFFFFFFFF AND PUSH0 CALLDATASIZE PUSH1 0x40 MLOAD PUSH2 0xD3 SWAP3 SWAP2 SWAP1 PUSH2 0x30A JUMP JUMPDEST PUSH0 PUSH1 0x40 MLOAD DUP1 DUP4 SUB DUP2 DUP6 GAS DELEGATECALL SWAP2 POP POP RETURNDATASIZE DUP1 PUSH0 DUP2 EQ PUSH2 0x10B JUMPI PUSH1 0x40 MLOAD SWAP2 POP PUSH1 0x1F NOT PUSH1 0x3F RETURNDATASIZE ADD AND DUP3 ADD PUSH1 0x40 MSTORE RETURNDATASIZE DUP3 MSTORE RETURNDATASIZE PUSH0 PUSH1 0x20 DUP5 ADD RETURNDATACOPY PUSH2 0x110 JUMP JUMPDEST PUSH1 0x60 SWAP2 POP JUMPDEST POP POP SWAP1 POP DUP1 PUSH2 0x154 JUMPI PUSH1 0x40 MLOAD PUSH32 0x8C379A000000000000000000000000000000000000000000000000000000000 DUP2 MSTORE PUSH1 0x4 ADD PUSH2 0x14B SWAP1 PUSH2 0x37C JUMP JUMPDEST PUSH1 0x40 MLOAD DUP1 SWAP2 SUB SWAP1 REVERT JUMPDEST STOP JUMPDEST CALLVALUE DUP1 ISZERO PUSH2 0x161 JUMPI PUSH0 PUSH0 REVERT JUMPDEST POP PUSH2 0x17C PUSH1 0x4 DUP1 CALLDATASIZE SUB DUP2 ADD SWAP1 PUSH2 0x177 SWAP2 SWAP1 PUSH2 0x3F8 JUMP JUMPDEST PUSH2 0x1A8 JUMP JUMPDEST STOP JUMPDEST CALLVALUE DUP1 ISZERO PUSH2 0x189 JUMPI PUSH0 PUSH0 REVERT JUMPDEST POP PUSH2 0x192 PUSH2 0x242 JUMP JUMPDEST PUSH1 0x40 MLOAD PUSH2 0x19F SWAP2 SWAP1 PUSH2 0x483 JUMP JUMPDEST PUSH1 0x40 MLOAD DUP1 SWAP2 SUB SWAP1 RETURN JUMPDEST PUSH1 0x1 PUSH0 SWAP1 SLOAD SWAP1 PUSH2 0x100 EXP SWAP1 DIV PUSH20 0xFFFFFFFFFFFFFFFFFFFFFFFFFFFFFFFFFFFFFFFF AND PUSH20 0xFFFFFFFFFFFFFFFFFFFFFFFFFFFFFFFFFFFFFFFF AND CALLER PUSH20 0xFFFFFFFFFFFFFFFFFFFFFFFFFFFFFFFFFFFFFFFF AND EQ PUSH2 0x200 JUMPI PUSH0 PUSH0 REVERT JUMPDEST DUP1 PUSH0 PUSH0 PUSH2 0x100 EXP DUP2 SLOAD DUP2 PUSH20 0xFFFFFFFFFFFFFFFFFFFFFFFFFFFFFFFFFFFFFFFF MUL NOT AND SWAP1 DUP4 PUSH20 0xFFFFFFFFFFFFFFFFFFFFFFFFFFFFFFFFFFFFFFFF AND MUL OR SWAP1 SSTORE POP POP JUMP JUMPDEST PUSH1 0x2 DUP1 SLOAD PUSH2 0x24F SWAP1 PUSH2 0x4D0 JUMP JUMPDEST DUP1 PUSH1 0x1F ADD PUSH1 0x20 DUP1 SWAP2 DIV MUL PUSH1 0x20 ADD PUSH1 0x40 MLOAD SWAP1 DUP2 ADD PUSH1 0x40 MSTORE DUP1 SWAP3 SWAP2 SWAP1 DUP2 DUP2 MSTORE PUSH1 0x20 ADD DUP3 DUP1 SLOAD PUSH2 0x27B SWAP1 PUSH2 0x4D0 JUMP JUMPDEST DUP1 ISZERO PUSH2 0x2C6 JUMPI DUP1 PUSH1 0x1F LT PUSH2 0x29D JUMPI PUSH2 0x100 DUP1 DUP4 SLOAD DIV MUL DUP4 MSTORE SWAP2 PUSH1 0x20 ADD SWAP2 PUSH2 0x2C6 JUMP JUMPDEST DUP3 ADD SWAP2 SWAP1 PUSH0 MSTORE PUSH1 0x20 PUSH0 KECCAK256 SWAP1 JUMPDEST DUP2 SLOAD DUP2 MSTORE SWAP1 PUSH1 0x1 ADD SWAP1 PUSH1 0x20 ADD DUP1 DUP4 GT PUSH2 0x2A9 JUMPI DUP3 SWAP1 SUB PUSH1 0x1F AND DUP3 ADD SWAP2 JUMPDEST POP POP POP POP POP DUP2 JUMP JUMPDEST PUSH0 DUP2 SWAP1 POP SWAP3 SWAP2 POP POP JUMP JUMPDEST DUP3 DUP2 DUP4 CALLDATACOPY PUSH0 DUP4 DUP4 ADD MSTORE POP POP POP JUMP JUMPDEST PUSH0 PUSH2 0x2F1 DUP4 DUP6 PUSH2 0x2CE JUMP JUMPDEST SWAP4 POP PUSH2 0x2FE DUP4 DUP6 DUP5 PUSH2 0x2D8 JUMP JUMPDEST DUP3 DUP5 ADD SWAP1 POP SWAP4 SWAP3 POP POP POP JUMP JUMPDEST PUSH0 PUSH2 0x316 DUP3 DUP5 DUP7 PUSH2 0x2E6 JUMP JUMPDEST SWAP2 POP DUP2 SWAP1 POP SWAP4 SWAP3 POP POP POP JUMP JUMPDEST PUSH0 DUP3 DUP3 MSTORE PUSH1 0x20 DUP3 ADD SWAP1 POP SWAP3 SWAP2 POP POP JUMP JUMPDEST PUSH32 0x5472616E73706172656E7450726F7879206661696C6564000000000000000000 PUSH0 DUP3 ADD MSTORE POP JUMP JUMPDEST PUSH0 PUSH2 0x366 PUSH1 0x17 DUP4 PUSH2 0x322 JUMP JUMPDEST SWAP2 POP PUSH2 0x371 DUP3 PUSH2 0x332 JUMP JUMPDEST PUSH1 0x20 DUP3 ADD SWAP1 POP SWAP2 SWAP1 POP JUMP JUMPDEST PUSH0 PUSH1 0x20 DUP3 ADD SWAP1 POP DUP2 DUP2 SUB PUSH0 DUP4 ADD MSTORE PUSH2 0x393 DUP2 PUSH2 0x35A JUMP JUMPDEST SWAP1 POP SWAP2 SWAP1 POP JUMP JUMPDEST PUSH0 PUSH0 REVERT JUMPDEST PUSH0 PUSH20 0xFFFFFFFFFFFFFFFFFFFFFFFFFFFFFFFFFFFFFFFF DUP3 AND SWAP1 POP SWAP2 SWAP1 POP JUMP JUMPDEST PUSH0 PUSH2 0x3C7 DUP3 PUSH2 0x39E JUMP JUMPDEST SWAP1 POP SWAP2 SWAP1 POP JUMP JUMPDEST PUSH2 0x3D7 DUP2 PUSH2 0x3BD JUMP JUMPDEST DUP2 EQ PUSH2 0x3E1 JUMPI PUSH0 PUSH0 REVERT JUMPDEST POP JUMP JUMPDEST PUSH0 DUP2 CALLDATALOAD SWAP1 POP PUSH2 0x3F2 DUP2 PUSH2 0x3CE JUMP JUMPDEST SWAP3 SWAP2 POP POP JUMP JUMPDEST PUSH0 PUSH1 0x20 DUP3 DUP5 SUB SLT ISZERO PUSH2 0x40D JUMPI PUSH2 0x40C PUSH2 0x39A JUMP JUMPDEST JUMPDEST PUSH0 PUSH2 0x41A DUP5 DUP3 DUP6 ADD PUSH2 0x3E4 JUMP JUMPDEST SWAP2 POP POP SWAP3 SWAP2 POP POP JUMP JUMPDEST PUSH0 DUP2 MLOAD SWAP1 POP SWAP2 SWAP1 POP JUMP JUMPDEST DUP3 DUP2 DUP4 MCOPY PUSH0 DUP4 DUP4 ADD MSTORE POP POP POP JUMP JUMPDEST PUSH0 PUSH1 0x1F NOT PUSH1 0x1F DUP4 ADD AND SWAP1 POP SWAP2 SWAP1 POP JUMP JUMPDEST PUSH0 PUSH2 0x455 DUP3 PUSH2 0x423 JUMP JUMPDEST PUSH2 0x45F DUP2 DUP6 PUSH2 0x322 JUMP JUMPDEST SWAP4 POP PUSH2 0x46F DUP2 DUP6 PUSH1 0x20 DUP7 ADD PUSH2 0x42D JUMP JUMPDEST PUSH2 0x478 DUP2 PUSH2 0x43B JUMP JUMPDEST DUP5 ADD SWAP2 POP POP SWAP3 SWAP2 POP POP JUMP JUMPDEST PUSH0 PUSH1 0x20 DUP3 ADD SWAP1 POP DUP2 DUP2 SUB PUSH0 DUP4 ADD MSTORE PUSH2 0x49B DUP2 DUP5 PUSH2 0x44B JUMP JUMPDEST SWAP1 POP SWAP3 SWAP2 POP POP JUMP JUMPDEST PUSH32 0x4E487B7100000000000000000000000000000000000000000000000000000000 PUSH0 MSTORE PUSH1 0x22 PUSH1 0x4 MSTORE PUSH1 0x24 PUSH0 REVERT JUMPDEST PUSH0 PUSH1 0x2 DUP3 DIV SWAP1 POP PUSH1 0x1 DUP3 AND DUP1 PUSH2 0x4E7 JUMPI PUSH1 0x7F DUP3 AND SWAP2 POP JUMPDEST PUSH1 0x20 DUP3 LT DUP2 SUB PUSH2 0x4FA JUMPI PUSH2 0x4F9 PUSH2 0x4A3 JUMP JUMPDEST JUMPDEST POP SWAP2 SWAP1 POP JUMP INVALID LOG2 PUSH5 0x6970667358 0x22 SLT KECCAK256 EXTDELEGATECALL EOFCREATE 0x64 SWAP5 COINBASE RETURNCONTRACT 0xAA EXTCODEHASH 0xCC 0x2E 0xE9 0xB2 NUMBER CALLDATALOAD LOG2 SWAP5 0xDF CALL PUSH10 0x197F9671D0EDC3C0277C DELEGATECALL 0x2B JUMPDEST PUSH5 0x736F6C6343 STOP ADDMOD 0x1E STOP CALLER "
				},
				"gasEstimates": {
					"creation": {
						"codeDepositCost": "266800",
						"executionCost": "infinite",
						"totalCost": "infinite"
					},
					"external": {
						"": "infinite",
						"upgrade(address)": "26861",
						"words()": "infinite"
					}
				},
				"methodIdentifiers": {
					"upgrade(address)": "0900f010",
					"words()": "f2c31bd9"
				}
			},
			"storageLayout": {
				"storage": [
					{
						"astId": 3,
						"contract": "103/transparent.sol:TransparentProxy",
						"label": "implementation",
						"offset": 0,
						"slot": "0",
						"type": "t_address"
					},
					{
						"astId": 5,
						"contract": "103/transparent.sol:TransparentProxy",
						"label": "admin",
						"offset": 0,
						"slot": "1",
						"type": "t_address"
					},
					{
						"astId": 7,
						"contract": "103/transparent.sol:TransparentProxy",
						"label": "words",
						"offset": 0,
						"slot": "2",
						"type": "t_string_storage"
					}
				],
				"types": {
					"t_address": {
						"encoding": "inplace",
						"label": "address",
						"numberOfBytes": "20"
					},
					"t_string_storage": {
						"encoding": "bytes",
						"label": "string",
						"numberOfBytes": "32"
					}
				}
			},
			"userdoc": {
				"kind": "user",
				"methods": {},
				"version": 1
			}
		}
	}
}