{
	"int2roman.sol": {
		"Int2Roman": {
			"abi": [
				{
					"anonymous": false,
					"inputs": [
						{
							"indexed": false,
							"internalType": "uint256",
							"name": "num",
							"type": "uint256"
						}
					],
					"name": "Log",
					"type": "event"
				},
				{
					"inputs": [
						{
							"internalType": "uint256",
							"name": "_num",
							"type": "uint256"
						}
					],
					"name": "int2Roman",
					"outputs": [
						{
							"internalType": "string",
							"name": "romanStr",
							"type": "string"
						}
					],
					"stateMutability": "nonpayable",
					"type": "function"
				},
				{
					"inputs": [
						{
							"internalType": "uint256",
							"name": "",
							"type": "uint256"
						}
					],
					"name": "valueSymbols",
					"outputs": [
						{
							"internalType": "uint256",
							"name": "value",
							"type": "uint256"
						},
						{
							"internalType": "string",
							"name": "symbol",
							"type": "string"
						}
					],
					"stateMutability": "view",
					"type": "function"
				}
			],
			"devdoc": {
				"kind": "dev",
				"methods": {},
				"version": 1
			},
			"evm": {
				"assembly": "    /* \"int2roman.sol\":57:1919  contract Int2Roman{... */\n  mstore(0x40, 0x80)\n    /* \"int2roman.sol\":196:277  uint256[] private values = [1000, 900, 500, 400, 100, 90, 50, 40, 10, 9, 5, 4, 1] */\n  mload(0x40)\n  dup1\n  0x01a0\n  add\n  0x40\n  mstore\n  dup1\n    /* \"int2roman.sol\":224:228  1000 */\n  0x03e8\n    /* \"int2roman.sol\":196:277  uint256[] private values = [1000, 900, 500, 400, 100, 90, 50, 40, 10, 9, 5, 4, 1] */\n  0xffff\n  and\n  dup2\n  mstore\n  0x20\n  add\n    /* \"int2roman.sol\":230:233  900 */\n  0x0384\n    /* \"int2roman.sol\":196:277  uint256[] private values = [1000, 900, 500, 400, 100, 90, 50, 40, 10, 9, 5, 4, 1] */\n  0xffff\n  and\n  dup2\n  mstore\n  0x20\n  add\n    /* \"int2roman.sol\":235:238  500 */\n  0x01f4\n    /* \"int2roman.sol\":196:277  uint256[] private values = [1000, 900, 500, 400, 100, 90, 50, 40, 10, 9, 5, 4, 1] */\n  0xffff\n  and\n  dup2\n  mstore\n  0x20\n  add\n    /* \"int2roman.sol\":240:243  400 */\n  0x0190\n    /* \"int2roman.sol\":196:277  uint256[] private values = [1000, 900, 500, 400, 100, 90, 50, 40, 10, 9, 5, 4, 1] */\n  0xffff\n  and\n  dup2\n  mstore\n  0x20\n  add\n    /* \"int2roman.sol\":245:248  100 */\n  0x64\n    /* \"int2roman.sol\":196:277  uint256[] private values = [1000, 900, 500, 400, 100, 90, 50, 40, 10, 9, 5, 4, 1] */\n  0xffff\n  and\n  dup2\n  mstore\n  0x20\n  add\n    /* \"int2roman.sol\":250:252  90 */\n  0x5a\n    /* \"int2roman.sol\":196:277  uint256[] private values = [1000, 900, 500, 400, 100, 90, 50, 40, 10, 9, 5, 4, 1] */\n  0xffff\n  and\n  dup2\n  mstore\n  0x20\n  add\n    /* \"int2roman.sol\":254:256  50 */\n  0x32\n    /* \"int2roman.sol\":196:277  uint256[] private values = [1000, 900, 500, 400, 100, 90, 50, 40, 10, 9, 5, 4, 1] */\n  0xffff\n  and\n  dup2\n  mstore\n  0x20\n  add\n    /* \"int2roman.sol\":258:260  40 */\n  0x28\n    /* \"int2roman.sol\":196:277  uint256[] private values = [1000, 900, 500, 400, 100, 90, 50, 40, 10, 9, 5, 4, 1] */\n  0xffff\n  and\n  dup2\n  mstore\n  0x20\n  add\n    /* \"int2roman.sol\":262:264  10 */\n  0x0a\n    /* \"int2roman.sol\":196:277  uint256[] private values = [1000, 900, 500, 400, 100, 90, 50, 40, 10, 9, 5, 4, 1] */\n  0xffff\n  and\n  dup2\n  mstore\n  0x20\n  add\n    /* \"int2roman.sol\":266:267  9 */\n  0x09\n    /* \"int2roman.sol\":196:277  uint256[] private values = [1000, 900, 500, 400, 100, 90, 50, 40, 10, 9, 5, 4, 1] */\n  0xffff\n  and\n  dup2\n  mstore\n  0x20\n  add\n    /* \"int2roman.sol\":269:270  5 */\n  0x05\n    /* \"int2roman.sol\":196:277  uint256[] private values = [1000, 900, 500, 400, 100, 90, 50, 40, 10, 9, 5, 4, 1] */\n  0xffff\n  and\n  dup2\n  mstore\n  0x20\n  add\n    /* \"int2roman.sol\":272:273  4 */\n  0x04\n    /* \"int2roman.sol\":196:277  uint256[] private values = [1000, 900, 500, 400, 100, 90, 50, 40, 10, 9, 5, 4, 1] */\n  0xffff\n  and\n  dup2\n  mstore\n  0x20\n  add\n    /* \"int2roman.sol\":275:276  1 */\n  0x01\n    /* \"int2roman.sol\":196:277  uint256[] private values = [1000, 900, 500, 400, 100, 90, 50, 40, 10, 9, 5, 4, 1] */\n  0xffff\n  and\n  dup2\n  mstore\n  pop\n  0x01\n  swap1\n  0x0d\n  tag_1\n  swap3\n  swap2\n  swap1\n  tag_2\n  jump\t// in\ntag_1:\n  pop\n    /* \"int2roman.sol\":283:381  string[] private symbols = [\"M\", \"CM\", \"D\", \"CD\", \"C\", \"XC\", \"L\", \"XL\", \"X\", \"IX\", \"V\", \"IV\", \"I\"] */\n  mload(0x40)\n  dup1\n  0x01a0\n  add\n  0x40\n  mstore\n  dup1\n  mload(0x40)\n  dup1\n  0x40\n  add\n  0x40\n  mstore\n  dup1\n  0x01\n  dup2\n  mstore\n  0x20\n  add\n  0x4d00000000000000000000000000000000000000000000000000000000000000\n  dup2\n  mstore\n  pop\n  dup2\n  mstore\n  0x20\n  add\n  mload(0x40)\n  dup1\n  0x40\n  add\n  0x40\n  mstore\n  dup1\n  0x02\n  dup2\n  mstore\n  0x20\n  add\n  0x434d000000000000000000000000000000000000000000000000000000000000\n  dup2\n  mstore\n  pop\n  dup2\n  mstore\n  0x20\n  add\n  mload(0x40)\n  dup1\n  0x40\n  add\n  0x40\n  mstore\n  dup1\n  0x01\n  dup2\n  mstore\n  0x20\n  add\n  0x4400000000000000000000000000000000000000000000000000000000000000\n  dup2\n  mstore\n  pop\n  dup2\n  mstore\n  0x20\n  add\n  mload(0x40)\n  dup1\n  0x40\n  add\n  0x40\n  mstore\n  dup1\n  0x02\n  dup2\n  mstore\n  0x20\n  add\n  0x4344000000000000000000000000000000000000000000000000000000000000\n  dup2\n  mstore\n  pop\n  dup2\n  mstore\n  0x20\n  add\n  mload(0x40)\n  dup1\n  0x40\n  add\n  0x40\n  mstore\n  dup1\n  0x01\n  dup2\n  mstore\n  0x20\n  add\n  0x4300000000000000000000000000000000000000000000000000000000000000\n  dup2\n  mstore\n  pop\n  dup2\n  mstore\n  0x20\n  add\n  mload(0x40)\n  dup1\n  0x40\n  add\n  0x40\n  mstore\n  dup1\n  0x02\n  dup2\n  mstore\n  0x20\n  add\n  0x5843000000000000000000000000000000000000000000000000000000000000\n  dup2\n  mstore\n  pop\n  dup2\n  mstore\n  0x20\n  add\n  mload(0x40)\n  dup1\n  0x40\n  add\n  0x40\n  mstore\n  dup1\n  0x01\n  dup2\n  mstore\n  0x20\n  add\n  0x4c00000000000000000000000000000000000000000000000000000000000000\n  dup2\n  mstore\n  pop\n  dup2\n  mstore\n  0x20\n  add\n  mload(0x40)\n  dup1\n  0x40\n  add\n  0x40\n  mstore\n  dup1\n  0x02\n  dup2\n  mstore\n  0x20\n  add\n  0x584c000000000000000000000000000000000000000000000000000000000000\n  dup2\n  mstore\n  pop\n  dup2\n  mstore\n  0x20\n  add\n  mload(0x40)\n  dup1\n  0x40\n  add\n  0x40\n  mstore\n  dup1\n  0x01\n  dup2\n  mstore\n  0x20\n  add\n  0x5800000000000000000000000000000000000000000000000000000000000000\n  dup2\n  mstore\n  pop\n  dup2\n  mstore\n  0x20\n  add\n  mload(0x40)\n  dup1\n  0x40\n  add\n  0x40\n  mstore\n  dup1\n  0x02\n  dup2\n  mstore\n  0x20\n  add\n  0x4958000000000000000000000000000000000000000000000000000000000000\n  dup2\n  mstore\n  pop\n  dup2\n  mstore\n  0x20\n  add\n  mload(0x40)\n  dup1\n  0x40\n  add\n  0x40\n  mstore\n  dup1\n  0x01\n  dup2\n  mstore\n  0x20\n  add\n  0x5600000000000000000000000000000000000000000000000000000000000000\n  dup2\n  mstore\n  pop\n  dup2\n  mstore\n  0x20\n  add\n  mload(0x40)\n  dup1\n  0x40\n  add\n  0x40\n  mstore\n  dup1\n  0x02\n  dup2\n  mstore\n  0x20\n  add\n  0x4956000000000000000000000000000000000000000000000000000000000000\n  dup2\n  mstore\n  pop\n  dup2\n  mstore\n  0x20\n  add\n  mload(0x40)\n  dup1\n  0x40\n  add\n  0x40\n  mstore\n  dup1\n  0x01\n  dup2\n  mstore\n  0x20\n  add\n  0x4900000000000000000000000000000000000000000000000000000000000000\n  dup2\n  mstore\n  pop\n  dup2\n  mstore\n  pop\n  0x02\n  swap1\n  0x0d\n  tag_3\n  swap3\n  swap2\n  swap1\n  tag_4\n  jump\t// in\ntag_3:\n  pop\n    /* \"int2roman.sol\":57:1919  contract Int2Roman{... */\n  callvalue\n  dup1\n  iszero\n  tag_5\n  jumpi\n  revert(0x00, 0x00)\ntag_5:\n  pop\n  jump(tag_6)\ntag_2:\n  dup3\n  dup1\n  sload\n  dup3\n  dup3\n  sstore\n  swap1\n  0x00\n  mstore\n  keccak256(0x00, 0x20)\n  swap1\n  dup2\n  add\n  swap3\n  dup3\n  iszero\n  tag_7\n  jumpi\n  swap2\n  0x20\n  mul\n  dup3\n  add\ntag_8:\n  dup3\n  dup2\n  gt\n  iszero\n  tag_9\n  jumpi\n  dup3\n  mload\n  dup3\n  swap1\n  0xffff\n  and\n  swap1\n  sstore\n  swap2\n  0x20\n  add\n  swap2\n  swap1\n  0x01\n  add\n  swap1\n  jump(tag_8)\ntag_9:\ntag_7:\n  pop\n  swap1\n  pop\n  tag_10\n  swap2\n  swap1\n  tag_11\n  jump\t// in\ntag_10:\n  pop\n  swap1\n  jump\t// out\ntag_4:\n  dup3\n  dup1\n  sload\n  dup3\n  dup3\n  sstore\n  swap1\n  0x00\n  mstore\n  keccak256(0x00, 0x20)\n  swap1\n  dup2\n  add\n  swap3\n  dup3\n  iszero\n  tag_12\n  jumpi\n  swap2\n  0x20\n  mul\n  dup3\n  add\ntag_13:\n  dup3\n  dup2\n  gt\n  iszero\n  tag_14\n  jumpi\n  dup3\n  mload\n  dup3\n  swap1\n  dup2\n  tag_15\n  swap2\n  swap1\n  tag_16\n  jump\t// in\ntag_15:\n  pop\n  swap2\n  0x20\n  add\n  swap2\n  swap1\n  0x01\n  add\n  swap1\n  jump(tag_13)\ntag_14:\ntag_12:\n  pop\n  swap1\n  pop\n  tag_17\n  swap2\n  swap1\n  tag_18\n  jump\t// in\ntag_17:\n  pop\n  swap1\n  jump\t// out\ntag_11:\ntag_19:\n  dup1\n  dup3\n  gt\n  iszero\n  tag_20\n  jumpi\n  0x00\n  dup2\n  0x00\n  swap1\n  sstore\n  pop\n  0x01\n  add\n  jump(tag_19)\ntag_20:\n  pop\n  swap1\n  jump\t// out\ntag_18:\ntag_21:\n  dup1\n  dup3\n  gt\n  iszero\n  tag_22\n  jumpi\n  0x00\n  dup2\n  dup2\n  tag_23\n  swap2\n  swap1\n  tag_24\n  jump\t// in\ntag_23:\n  pop\n  0x01\n  add\n  jump(tag_21)\ntag_22:\n  pop\n  swap1\n  jump\t// out\ntag_24:\n  pop\n  dup1\n  sload\n  tag_25\n  swap1\n  tag_26\n  jump\t// in\ntag_25:\n  0x00\n  dup3\n  sstore\n  dup1\n  0x1f\n  lt\n  tag_28\n  jumpi\n  pop\n  jump(tag_27)\ntag_28:\n  0x1f\n  add\n  0x20\n  swap1\n  div\n  swap1\n  0x00\n  mstore\n  keccak256(0x00, 0x20)\n  swap1\n  dup2\n  add\n  swap1\n  tag_29\n  swap2\n  swap1\n  tag_11\n  jump\t// in\ntag_29:\ntag_27:\n  pop\n  jump\t// out\n    /* \"#utility.yul\":7:106   */\ntag_30:\n    /* \"#utility.yul\":59:65   */\n  0x00\n    /* \"#utility.yul\":93:98   */\n  dup2\n    /* \"#utility.yul\":87:99   */\n  mload\n    /* \"#utility.yul\":77:99   */\n  swap1\n  pop\n    /* \"#utility.yul\":7:106   */\n  swap2\n  swap1\n  pop\n  jump\t// out\n    /* \"#utility.yul\":112:292   */\ntag_31:\n    /* \"#utility.yul\":160:237   */\n  0x4e487b7100000000000000000000000000000000000000000000000000000000\n    /* \"#utility.yul\":157:158   */\n  0x00\n    /* \"#utility.yul\":150:238   */\n  mstore\n    /* \"#utility.yul\":257:261   */\n  0x41\n    /* \"#utility.yul\":254:255   */\n  0x04\n    /* \"#utility.yul\":247:262   */\n  mstore\n    /* \"#utility.yul\":281:285   */\n  0x24\n    /* \"#utility.yul\":278:279   */\n  0x00\n    /* \"#utility.yul\":271:286   */\n  revert\n    /* \"#utility.yul\":298:478   */\ntag_32:\n    /* \"#utility.yul\":346:423   */\n  0x4e487b7100000000000000000000000000000000000000000000000000000000\n    /* \"#utility.yul\":343:344   */\n  0x00\n    /* \"#utility.yul\":336:424   */\n  mstore\n    /* \"#utility.yul\":443:447   */\n  0x22\n    /* \"#utility.yul\":440:441   */\n  0x04\n    /* \"#utility.yul\":433:448   */\n  mstore\n    /* \"#utility.yul\":467:471   */\n  0x24\n    /* \"#utility.yul\":464:465   */\n  0x00\n    /* \"#utility.yul\":457:472   */\n  revert\n    /* \"#utility.yul\":484:804   */\ntag_26:\n    /* \"#utility.yul\":528:534   */\n  0x00\n    /* \"#utility.yul\":565:566   */\n  0x02\n    /* \"#utility.yul\":559:563   */\n  dup3\n    /* \"#utility.yul\":555:567   */\n  div\n    /* \"#utility.yul\":545:567   */\n  swap1\n  pop\n    /* \"#utility.yul\":612:613   */\n  0x01\n    /* \"#utility.yul\":606:610   */\n  dup3\n    /* \"#utility.yul\":602:614   */\n  and\n    /* \"#utility.yul\":633:651   */\n  dup1\n    /* \"#utility.yul\":623:704   */\n  tag_54\n  jumpi\n    /* \"#utility.yul\":689:693   */\n  0x7f\n    /* \"#utility.yul\":681:687   */\n  dup3\n    /* \"#utility.yul\":677:694   */\n  and\n    /* \"#utility.yul\":667:694   */\n  swap2\n  pop\n    /* \"#utility.yul\":623:704   */\ntag_54:\n    /* \"#utility.yul\":751:753   */\n  0x20\n    /* \"#utility.yul\":743:749   */\n  dup3\n    /* \"#utility.yul\":740:754   */\n  lt\n    /* \"#utility.yul\":720:738   */\n  dup2\n    /* \"#utility.yul\":717:755   */\n  sub\n    /* \"#utility.yul\":714:798   */\n  tag_55\n  jumpi\n    /* \"#utility.yul\":770:788   */\n  tag_56\n  tag_32\n  jump\t// in\ntag_56:\n    /* \"#utility.yul\":714:798   */\ntag_55:\n    /* \"#utility.yul\":535:804   */\n  pop\n    /* \"#utility.yul\":484:804   */\n  swap2\n  swap1\n  pop\n  jump\t// out\n    /* \"#utility.yul\":810:951   */\ntag_33:\n    /* \"#utility.yul\":859:863   */\n  0x00\n    /* \"#utility.yul\":882:885   */\n  dup2\n    /* \"#utility.yul\":874:885   */\n  swap1\n  pop\n    /* \"#utility.yul\":905:908   */\n  dup2\n    /* \"#utility.yul\":902:903   */\n  0x00\n    /* \"#utility.yul\":895:909   */\n  mstore\n    /* \"#utility.yul\":939:943   */\n  0x20\n    /* \"#utility.yul\":936:937   */\n  0x00\n    /* \"#utility.yul\":926:944   */\n  keccak256\n    /* \"#utility.yul\":918:944   */\n  swap1\n  pop\n    /* \"#utility.yul\":810:951   */\n  swap2\n  swap1\n  pop\n  jump\t// out\n    /* \"#utility.yul\":957:1050   */\ntag_34:\n    /* \"#utility.yul\":994:1000   */\n  0x00\n    /* \"#utility.yul\":1041:1043   */\n  0x20\n    /* \"#utility.yul\":1036:1038   */\n  0x1f\n    /* \"#utility.yul\":1029:1034   */\n  dup4\n    /* \"#utility.yul\":1025:1039   */\n  add\n    /* \"#utility.yul\":1021:1044   */\n  div\n    /* \"#utility.yul\":1011:1044   */\n  swap1\n  pop\n    /* \"#utility.yul\":957:1050   */\n  swap2\n  swap1\n  pop\n  jump\t// out\n    /* \"#utility.yul\":1056:1163   */\ntag_35:\n    /* \"#utility.yul\":1100:1108   */\n  0x00\n    /* \"#utility.yul\":1150:1155   */\n  dup3\n    /* \"#utility.yul\":1144:1148   */\n  dup3\n    /* \"#utility.yul\":1140:1156   */\n  shl\n    /* \"#utility.yul\":1119:1156   */\n  swap1\n  pop\n    /* \"#utility.yul\":1056:1163   */\n  swap3\n  swap2\n  pop\n  pop\n  jump\t// out\n    /* \"#utility.yul\":1169:1562   */\ntag_36:\n    /* \"#utility.yul\":1238:1244   */\n  0x00\n    /* \"#utility.yul\":1288:1289   */\n  0x08\n    /* \"#utility.yul\":1276:1286   */\n  dup4\n    /* \"#utility.yul\":1272:1290   */\n  mul\n    /* \"#utility.yul\":1311:1408   */\n  tag_61\n    /* \"#utility.yul\":1341:1407   */\n  0xffffffffffffffffffffffffffffffffffffffffffffffffffffffffffffffff\n    /* \"#utility.yul\":1330:1339   */\n  dup3\n    /* \"#utility.yul\":1311:1408   */\n  tag_35\n  jump\t// in\ntag_61:\n    /* \"#utility.yul\":1429:1468   */\n  tag_62\n    /* \"#utility.yul\":1459:1467   */\n  dup7\n    /* \"#utility.yul\":1448:1457   */\n  dup4\n    /* \"#utility.yul\":1429:1468   */\n  tag_35\n  jump\t// in\ntag_62:\n    /* \"#utility.yul\":1417:1468   */\n  swap6\n  pop\n    /* \"#utility.yul\":1501:1505   */\n  dup1\n    /* \"#utility.yul\":1497:1506   */\n  not\n    /* \"#utility.yul\":1490:1495   */\n  dup5\n    /* \"#utility.yul\":1486:1507   */\n  and\n    /* \"#utility.yul\":1477:1507   */\n  swap4\n  pop\n    /* \"#utility.yul\":1550:1554   */\n  dup1\n    /* \"#utility.yul\":1540:1548   */\n  dup7\n    /* \"#utility.yul\":1536:1555   */\n  and\n    /* \"#utility.yul\":1529:1534   */\n  dup5\n    /* \"#utility.yul\":1526:1556   */\n  or\n    /* \"#utility.yul\":1516:1556   */\n  swap3\n  pop\n    /* \"#utility.yul\":1245:1562   */\n  pop\n  pop\n    /* \"#utility.yul\":1169:1562   */\n  swap4\n  swap3\n  pop\n  pop\n  pop\n  jump\t// out\n    /* \"#utility.yul\":1568:1645   */\ntag_37:\n    /* \"#utility.yul\":1605:1612   */\n  0x00\n    /* \"#utility.yul\":1634:1639   */\n  dup2\n    /* \"#utility.yul\":1623:1639   */\n  swap1\n  pop\n    /* \"#utility.yul\":1568:1645   */\n  swap2\n  swap1\n  pop\n  jump\t// out\n    /* \"#utility.yul\":1651:1711   */\ntag_38:\n    /* \"#utility.yul\":1679:1682   */\n  0x00\n    /* \"#utility.yul\":1700:1705   */\n  dup2\n    /* \"#utility.yul\":1693:1705   */\n  swap1\n  pop\n    /* \"#utility.yul\":1651:1711   */\n  swap2\n  swap1\n  pop\n  jump\t// out\n    /* \"#utility.yul\":1717:1859   */\ntag_39:\n    /* \"#utility.yul\":1767:1776   */\n  0x00\n    /* \"#utility.yul\":1800:1853   */\n  tag_66\n    /* \"#utility.yul\":1818:1852   */\n  tag_67\n    /* \"#utility.yul\":1827:1851   */\n  tag_68\n    /* \"#utility.yul\":1845:1850   */\n  dup5\n    /* \"#utility.yul\":1827:1851   */\n  tag_37\n  jump\t// in\ntag_68:\n    /* \"#utility.yul\":1818:1852   */\n  tag_38\n  jump\t// in\ntag_67:\n    /* \"#utility.yul\":1800:1853   */\n  tag_37\n  jump\t// in\ntag_66:\n    /* \"#utility.yul\":1787:1853   */\n  swap1\n  pop\n    /* \"#utility.yul\":1717:1859   */\n  swap2\n  swap1\n  pop\n  jump\t// out\n    /* \"#utility.yul\":1865:1940   */\ntag_40:\n    /* \"#utility.yul\":1908:1911   */\n  0x00\n    /* \"#utility.yul\":1929:1934   */\n  dup2\n    /* \"#utility.yul\":1922:1934   */\n  swap1\n  pop\n    /* \"#utility.yul\":1865:1940   */\n  swap2\n  swap1\n  pop\n  jump\t// out\n    /* \"#utility.yul\":1946:2215   */\ntag_41:\n    /* \"#utility.yul\":2056:2095   */\n  tag_71\n    /* \"#utility.yul\":2087:2094   */\n  dup4\n    /* \"#utility.yul\":2056:2095   */\n  tag_39\n  jump\t// in\ntag_71:\n    /* \"#utility.yul\":2117:2208   */\n  tag_72\n    /* \"#utility.yul\":2166:2207   */\n  tag_73\n    /* \"#utility.yul\":2190:2206   */\n  dup3\n    /* \"#utility.yul\":2166:2207   */\n  tag_40\n  jump\t// in\ntag_73:\n    /* \"#utility.yul\":2158:2164   */\n  dup5\n    /* \"#utility.yul\":2151:2155   */\n  dup5\n    /* \"#utility.yul\":2145:2156   */\n  sload\n    /* \"#utility.yul\":2117:2208   */\n  tag_36\n  jump\t// in\ntag_72:\n    /* \"#utility.yul\":2111:2115   */\n  dup3\n    /* \"#utility.yul\":2104:2209   */\n  sstore\n    /* \"#utility.yul\":2022:2215   */\n  pop\n    /* \"#utility.yul\":1946:2215   */\n  pop\n  pop\n  pop\n  jump\t// out\n    /* \"#utility.yul\":2221:2294   */\ntag_42:\n    /* \"#utility.yul\":2266:2269   */\n  0x00\n    /* \"#utility.yul\":2287:2288   */\n  0x00\n    /* \"#utility.yul\":2280:2288   */\n  swap1\n  pop\n    /* \"#utility.yul\":2221:2294   */\n  swap1\n  jump\t// out\n    /* \"#utility.yul\":2300:2489   */\ntag_43:\n    /* \"#utility.yul\":2377:2409   */\n  tag_76\n  tag_42\n  jump\t// in\ntag_76:\n    /* \"#utility.yul\":2418:2483   */\n  tag_77\n    /* \"#utility.yul\":2476:2482   */\n  dup2\n    /* \"#utility.yul\":2468:2474   */\n  dup5\n    /* \"#utility.yul\":2462:2466   */\n  dup5\n    /* \"#utility.yul\":2418:2483   */\n  tag_41\n  jump\t// in\ntag_77:\n    /* \"#utility.yul\":2353:2489   */\n  pop\n    /* \"#utility.yul\":2300:2489   */\n  pop\n  pop\n  jump\t// out\n    /* \"#utility.yul\":2495:2681   */\ntag_44:\n    /* \"#utility.yul\":2555:2675   */\ntag_79:\n    /* \"#utility.yul\":2572:2575   */\n  dup2\n    /* \"#utility.yul\":2565:2570   */\n  dup2\n    /* \"#utility.yul\":2562:2576   */\n  lt\n    /* \"#utility.yul\":2555:2675   */\n  iszero\n  tag_81\n  jumpi\n    /* \"#utility.yul\":2626:2665   */\n  tag_82\n    /* \"#utility.yul\":2663:2664   */\n  0x00\n    /* \"#utility.yul\":2656:2661   */\n  dup3\n    /* \"#utility.yul\":2626:2665   */\n  tag_43\n  jump\t// in\ntag_82:\n    /* \"#utility.yul\":2599:2600   */\n  0x01\n    /* \"#utility.yul\":2592:2597   */\n  dup2\n    /* \"#utility.yul\":2588:2601   */\n  add\n    /* \"#utility.yul\":2579:2601   */\n  swap1\n  pop\n    /* \"#utility.yul\":2555:2675   */\n  jump(tag_79)\ntag_81:\n    /* \"#utility.yul\":2495:2681   */\n  pop\n  pop\n  jump\t// out\n    /* \"#utility.yul\":2687:3230   */\ntag_45:\n    /* \"#utility.yul\":2788:2790   */\n  0x1f\n    /* \"#utility.yul\":2783:2786   */\n  dup3\n    /* \"#utility.yul\":2780:2791   */\n  gt\n    /* \"#utility.yul\":2777:3223   */\n  iszero\n  tag_84\n  jumpi\n    /* \"#utility.yul\":2822:2860   */\n  tag_85\n    /* \"#utility.yul\":2854:2859   */\n  dup2\n    /* \"#utility.yul\":2822:2860   */\n  tag_33\n  jump\t// in\ntag_85:\n    /* \"#utility.yul\":2906:2935   */\n  tag_86\n    /* \"#utility.yul\":2924:2934   */\n  dup5\n    /* \"#utility.yul\":2906:2935   */\n  tag_34\n  jump\t// in\ntag_86:\n    /* \"#utility.yul\":2896:2904   */\n  dup2\n    /* \"#utility.yul\":2892:2936   */\n  add\n    /* \"#utility.yul\":3089:3091   */\n  0x20\n    /* \"#utility.yul\":3077:3087   */\n  dup6\n    /* \"#utility.yul\":3074:3092   */\n  lt\n    /* \"#utility.yul\":3071:3120   */\n  iszero\n  tag_87\n  jumpi\n    /* \"#utility.yul\":3110:3118   */\n  dup2\n    /* \"#utility.yul\":3095:3118   */\n  swap1\n  pop\n    /* \"#utility.yul\":3071:3120   */\ntag_87:\n    /* \"#utility.yul\":3133:3213   */\n  tag_88\n    /* \"#utility.yul\":3189:3211   */\n  tag_89\n    /* \"#utility.yul\":3207:3210   */\n  dup6\n    /* \"#utility.yul\":3189:3211   */\n  tag_34\n  jump\t// in\ntag_89:\n    /* \"#utility.yul\":3179:3187   */\n  dup4\n    /* \"#utility.yul\":3175:3212   */\n  add\n    /* \"#utility.yul\":3162:3173   */\n  dup3\n    /* \"#utility.yul\":3133:3213   */\n  tag_44\n  jump\t// in\ntag_88:\n    /* \"#utility.yul\":2792:3223   */\n  pop\n  pop\n    /* \"#utility.yul\":2777:3223   */\ntag_84:\n    /* \"#utility.yul\":2687:3230   */\n  pop\n  pop\n  pop\n  jump\t// out\n    /* \"#utility.yul\":3236:3353   */\ntag_46:\n    /* \"#utility.yul\":3290:3298   */\n  0x00\n    /* \"#utility.yul\":3340:3345   */\n  dup3\n    /* \"#utility.yul\":3334:3338   */\n  dup3\n    /* \"#utility.yul\":3330:3346   */\n  shr\n    /* \"#utility.yul\":3309:3346   */\n  swap1\n  pop\n    /* \"#utility.yul\":3236:3353   */\n  swap3\n  swap2\n  pop\n  pop\n  jump\t// out\n    /* \"#utility.yul\":3359:3528   */\ntag_47:\n    /* \"#utility.yul\":3403:3409   */\n  0x00\n    /* \"#utility.yul\":3436:3487   */\n  tag_92\n    /* \"#utility.yul\":3484:3485   */\n  0x00\n    /* \"#utility.yul\":3480:3486   */\n  not\n    /* \"#utility.yul\":3472:3477   */\n  dup5\n    /* \"#utility.yul\":3469:3470   */\n  0x08\n    /* \"#utility.yul\":3465:3478   */\n  mul\n    /* \"#utility.yul\":3436:3487   */\n  tag_46\n  jump\t// in\ntag_92:\n    /* \"#utility.yul\":3432:3488   */\n  not\n    /* \"#utility.yul\":3517:3521   */\n  dup1\n    /* \"#utility.yul\":3511:3515   */\n  dup4\n    /* \"#utility.yul\":3507:3522   */\n  and\n    /* \"#utility.yul\":3497:3522   */\n  swap2\n  pop\n    /* \"#utility.yul\":3410:3528   */\n  pop\n    /* \"#utility.yul\":3359:3528   */\n  swap3\n  swap2\n  pop\n  pop\n  jump\t// out\n    /* \"#utility.yul\":3533:3828   */\ntag_48:\n    /* \"#utility.yul\":3609:3613   */\n  0x00\n    /* \"#utility.yul\":3755:3784   */\n  tag_94\n    /* \"#utility.yul\":3780:3783   */\n  dup4\n    /* \"#utility.yul\":3774:3778   */\n  dup4\n    /* \"#utility.yul\":3755:3784   */\n  tag_47\n  jump\t// in\ntag_94:\n    /* \"#utility.yul\":3747:3784   */\n  swap2\n  pop\n    /* \"#utility.yul\":3817:3820   */\n  dup3\n    /* \"#utility.yul\":3814:3815   */\n  0x02\n    /* \"#utility.yul\":3810:3821   */\n  mul\n    /* \"#utility.yul\":3804:3808   */\n  dup3\n    /* \"#utility.yul\":3801:3822   */\n  or\n    /* \"#utility.yul\":3793:3822   */\n  swap1\n  pop\n    /* \"#utility.yul\":3533:3828   */\n  swap3\n  swap2\n  pop\n  pop\n  jump\t// out\n    /* \"#utility.yul\":3833:5228   */\ntag_16:\n    /* \"#utility.yul\":3950:3987   */\n  tag_96\n    /* \"#utility.yul\":3983:3986   */\n  dup3\n    /* \"#utility.yul\":3950:3987   */\n  tag_30\n  jump\t// in\ntag_96:\n    /* \"#utility.yul\":4052:4070   */\n  0xffffffffffffffff\n    /* \"#utility.yul\":4044:4050   */\n  dup2\n    /* \"#utility.yul\":4041:4071   */\n  gt\n    /* \"#utility.yul\":4038:4094   */\n  iszero\n  tag_97\n  jumpi\n    /* \"#utility.yul\":4074:4092   */\n  tag_98\n  tag_31\n  jump\t// in\ntag_98:\n    /* \"#utility.yul\":4038:4094   */\ntag_97:\n    /* \"#utility.yul\":4118:4156   */\n  tag_99\n    /* \"#utility.yul\":4150:4154   */\n  dup3\n    /* \"#utility.yul\":4144:4155   */\n  sload\n    /* \"#utility.yul\":4118:4156   */\n  tag_26\n  jump\t// in\ntag_99:\n    /* \"#utility.yul\":4203:4270   */\n  tag_100\n    /* \"#utility.yul\":4263:4269   */\n  dup3\n    /* \"#utility.yul\":4255:4261   */\n  dup3\n    /* \"#utility.yul\":4249:4253   */\n  dup6\n    /* \"#utility.yul\":4203:4270   */\n  tag_45\n  jump\t// in\ntag_100:\n    /* \"#utility.yul\":4297:4298   */\n  0x00\n    /* \"#utility.yul\":4321:4325   */\n  0x20\n    /* \"#utility.yul\":4308:4325   */\n  swap1\n  pop\n    /* \"#utility.yul\":4353:4355   */\n  0x1f\n    /* \"#utility.yul\":4345:4351   */\n  dup4\n    /* \"#utility.yul\":4342:4356   */\n  gt\n    /* \"#utility.yul\":4370:4371   */\n  0x01\n    /* \"#utility.yul\":4365:4983   */\n  dup2\n  eq\n  tag_102\n  jumpi\n    /* \"#utility.yul\":5027:5028   */\n  0x00\n    /* \"#utility.yul\":5044:5050   */\n  dup5\n    /* \"#utility.yul\":5041:5118   */\n  iszero\n  tag_103\n  jumpi\n    /* \"#utility.yul\":5093:5102   */\n  dup3\n    /* \"#utility.yul\":5088:5091   */\n  dup8\n    /* \"#utility.yul\":5084:5103   */\n  add\n    /* \"#utility.yul\":5078:5104   */\n  mload\n    /* \"#utility.yul\":5069:5104   */\n  swap1\n  pop\n    /* \"#utility.yul\":5041:5118   */\ntag_103:\n    /* \"#utility.yul\":5144:5211   */\n  tag_104\n    /* \"#utility.yul\":5204:5210   */\n  dup6\n    /* \"#utility.yul\":5197:5202   */\n  dup3\n    /* \"#utility.yul\":5144:5211   */\n  tag_48\n  jump\t// in\ntag_104:\n    /* \"#utility.yul\":5138:5142   */\n  dup7\n    /* \"#utility.yul\":5131:5212   */\n  sstore\n    /* \"#utility.yul\":5000:5222   */\n  pop\n    /* \"#utility.yul\":4335:5222   */\n  jump(tag_101)\n    /* \"#utility.yul\":4365:4983   */\ntag_102:\n    /* \"#utility.yul\":4417:4421   */\n  0x1f\n    /* \"#utility.yul\":4413:4422   */\n  not\n    /* \"#utility.yul\":4405:4411   */\n  dup5\n    /* \"#utility.yul\":4401:4423   */\n  and\n    /* \"#utility.yul\":4451:4488   */\n  tag_105\n    /* \"#utility.yul\":4483:4487   */\n  dup7\n    /* \"#utility.yul\":4451:4488   */\n  tag_33\n  jump\t// in\ntag_105:\n    /* \"#utility.yul\":4510:4511   */\n  0x00\n    /* \"#utility.yul\":4524:4732   */\ntag_106:\n    /* \"#utility.yul\":4538:4545   */\n  dup3\n    /* \"#utility.yul\":4535:4536   */\n  dup2\n    /* \"#utility.yul\":4532:4546   */\n  lt\n    /* \"#utility.yul\":4524:4732   */\n  iszero\n  tag_108\n  jumpi\n    /* \"#utility.yul\":4617:4626   */\n  dup5\n    /* \"#utility.yul\":4612:4615   */\n  dup10\n    /* \"#utility.yul\":4608:4627   */\n  add\n    /* \"#utility.yul\":4602:4628   */\n  mload\n    /* \"#utility.yul\":4594:4600   */\n  dup3\n    /* \"#utility.yul\":4587:4629   */\n  sstore\n    /* \"#utility.yul\":4668:4669   */\n  0x01\n    /* \"#utility.yul\":4660:4666   */\n  dup3\n    /* \"#utility.yul\":4656:4670   */\n  add\n    /* \"#utility.yul\":4646:4670   */\n  swap2\n  pop\n    /* \"#utility.yul\":4715:4717   */\n  0x20\n    /* \"#utility.yul\":4704:4713   */\n  dup6\n    /* \"#utility.yul\":4700:4718   */\n  add\n    /* \"#utility.yul\":4687:4718   */\n  swap5\n  pop\n    /* \"#utility.yul\":4561:4565   */\n  0x20\n    /* \"#utility.yul\":4558:4559   */\n  dup2\n    /* \"#utility.yul\":4554:4566   */\n  add\n    /* \"#utility.yul\":4549:4566   */\n  swap1\n  pop\n    /* \"#utility.yul\":4524:4732   */\n  jump(tag_106)\ntag_108:\n    /* \"#utility.yul\":4760:4766   */\n  dup7\n    /* \"#utility.yul\":4751:4758   */\n  dup4\n    /* \"#utility.yul\":4748:4767   */\n  lt\n    /* \"#utility.yul\":4745:4924   */\n  iszero\n  tag_109\n  jumpi\n    /* \"#utility.yul\":4818:4827   */\n  dup5\n    /* \"#utility.yul\":4813:4816   */\n  dup10\n    /* \"#utility.yul\":4809:4828   */\n  add\n    /* \"#utility.yul\":4803:4829   */\n  mload\n    /* \"#utility.yul\":4861:4909   */\n  tag_110\n    /* \"#utility.yul\":4903:4907   */\n  0x1f\n    /* \"#utility.yul\":4895:4901   */\n  dup10\n    /* \"#utility.yul\":4891:4908   */\n  and\n    /* \"#utility.yul\":4880:4889   */\n  dup3\n    /* \"#utility.yul\":4861:4909   */\n  tag_47\n  jump\t// in\ntag_110:\n    /* \"#utility.yul\":4853:4859   */\n  dup4\n    /* \"#utility.yul\":4846:4910   */\n  sstore\n    /* \"#utility.yul\":4768:4924   */\n  pop\n    /* \"#utility.yul\":4745:4924   */\ntag_109:\n    /* \"#utility.yul\":4970:4971   */\n  0x01\n    /* \"#utility.yul\":4966:4967   */\n  0x02\n    /* \"#utility.yul\":4958:4964   */\n  dup9\n    /* \"#utility.yul\":4954:4968   */\n  mul\n    /* \"#utility.yul\":4950:4972   */\n  add\n    /* \"#utility.yul\":4944:4948   */\n  dup9\n    /* \"#utility.yul\":4937:4973   */\n  sstore\n    /* \"#utility.yul\":4372:4983   */\n  pop\n  pop\n  pop\n    /* \"#utility.yul\":4335:5222   */\ntag_101:\n  pop\n    /* \"#utility.yul\":3925:5228   */\n  pop\n  pop\n  pop\n    /* \"#utility.yul\":3833:5228   */\n  pop\n  pop\n  jump\t// out\n    /* \"int2roman.sol\":57:1919  contract Int2Roman{... */\ntag_6:\n  dataSize(sub_0)\n  dup1\n  dataOffset(sub_0)\n  0x00\n  codecopy\n  0x00\n  return\nstop\n\nsub_0: assembly {\n        /* \"int2roman.sol\":57:1919  contract Int2Roman{... */\n      mstore(0x40, 0x80)\n      callvalue\n      dup1\n      iszero\n      tag_1\n      jumpi\n      revert(0x00, 0x00)\n    tag_1:\n      pop\n      jumpi(tag_2, lt(calldatasize, 0x04))\n      shr(0xe0, calldataload(0x00))\n      dup1\n      0x37463a1a\n      eq\n      tag_3\n      jumpi\n      dup1\n      0xe9dc96ad\n      eq\n      tag_4\n      jumpi\n    tag_2:\n      revert(0x00, 0x00)\n        /* \"int2roman.sol\":1159:1917  function int2Roman(uint256 _num) public returns(string memory romanStr){... */\n    tag_3:\n      tag_5\n      0x04\n      dup1\n      calldatasize\n      sub\n      dup2\n      add\n      swap1\n      tag_6\n      swap2\n      swap1\n      tag_7\n      jump\t// in\n    tag_6:\n      tag_8\n      jump\t// in\n    tag_5:\n      mload(0x40)\n      tag_9\n      swap2\n      swap1\n      tag_10\n      jump\t// in\n    tag_9:\n      mload(0x40)\n      dup1\n      swap2\n      sub\n      swap1\n      return\n        /* \"int2roman.sol\":156:190  ValueSymbols[] public valueSymbols */\n    tag_4:\n      tag_11\n      0x04\n      dup1\n      calldatasize\n      sub\n      dup2\n      add\n      swap1\n      tag_12\n      swap2\n      swap1\n      tag_7\n      jump\t// in\n    tag_12:\n      tag_13\n      jump\t// in\n    tag_11:\n      mload(0x40)\n      tag_14\n      swap3\n      swap2\n      swap1\n      tag_15\n      jump\t// in\n    tag_14:\n      mload(0x40)\n      dup1\n      swap2\n      sub\n      swap1\n      return\n        /* \"int2roman.sol\":1159:1917  function int2Roman(uint256 _num) public returns(string memory romanStr){... */\n    tag_8:\n        /* \"int2roman.sol\":1207:1229  string memory romanStr */\n      0x60\n        /* \"int2roman.sol\":1255:1256  0 */\n      0x00\n        /* \"int2roman.sol\":1248:1252  _num */\n      dup3\n        /* \"int2roman.sol\":1248:1256  _num > 0 */\n      gt\n        /* \"int2roman.sol\":1248:1271  _num > 0 && _num < 4000 */\n      dup1\n      iszero\n      tag_17\n      jumpi\n      pop\n        /* \"int2roman.sol\":1267:1271  4000 */\n      0x0fa0\n        /* \"int2roman.sol\":1260:1264  _num */\n      dup3\n        /* \"int2roman.sol\":1260:1271  _num < 4000 */\n      lt\n        /* \"int2roman.sol\":1248:1271  _num > 0 && _num < 4000 */\n    tag_17:\n        /* \"int2roman.sol\":1240:1309  require(_num > 0 && _num < 4000, \"Number must be between 1 and 3999\") */\n      tag_18\n      jumpi\n      mload(0x40)\n      0x08c379a000000000000000000000000000000000000000000000000000000000\n      dup2\n      mstore\n      0x04\n      add\n      tag_19\n      swap1\n      tag_20\n      jump\t// in\n    tag_19:\n      mload(0x40)\n      dup1\n      swap2\n      sub\n      swap1\n      revert\n    tag_18:\n        /* \"int2roman.sol\":1566:1567  0 */\n      0x00\n        /* \"int2roman.sol\":1559:1563  _num */\n      dup3\n        /* \"int2roman.sol\":1559:1567  _num > 0 */\n      gt\n        /* \"int2roman.sol\":1559:1582  _num > 0 && _num < 4000 */\n      dup1\n      iszero\n      tag_21\n      jumpi\n      pop\n        /* \"int2roman.sol\":1578:1582  4000 */\n      0x0fa0\n        /* \"int2roman.sol\":1571:1575  _num */\n      dup3\n        /* \"int2roman.sol\":1571:1582  _num < 4000 */\n      lt\n        /* \"int2roman.sol\":1559:1582  _num > 0 && _num < 4000 */\n    tag_21:\n        /* \"int2roman.sol\":1551:1620  require(_num > 0 && _num < 4000, \"Number must be between 1 and 3999\") */\n      tag_22\n      jumpi\n      mload(0x40)\n      0x08c379a000000000000000000000000000000000000000000000000000000000\n      dup2\n      mstore\n      0x04\n      add\n      tag_23\n      swap1\n      tag_20\n      jump\t// in\n    tag_23:\n      mload(0x40)\n      dup1\n      swap2\n      sub\n      swap1\n      revert\n    tag_22:\n        /* \"int2roman.sol\":1639:1657  bytes memory roman */\n      0x60\n        /* \"int2roman.sol\":1681:1690  uint256 i */\n      0x00\n        /* \"int2roman.sol\":1693:1694  0 */\n      0x00\n        /* \"int2roman.sol\":1681:1694  uint256 i = 0 */\n      swap1\n      pop\n        /* \"int2roman.sol\":1676:1881  for (uint256 i = 0; i < values.length; i++) {... */\n    tag_24:\n        /* \"int2roman.sol\":1700:1706  values */\n      0x01\n        /* \"int2roman.sol\":1700:1713  values.length */\n      dup1\n      sload\n      swap1\n      pop\n        /* \"int2roman.sol\":1696:1697  i */\n      dup2\n        /* \"int2roman.sol\":1696:1713  i < values.length */\n      lt\n        /* \"int2roman.sol\":1676:1881  for (uint256 i = 0; i < values.length; i++) {... */\n      iszero\n      tag_25\n      jumpi\n        /* \"int2roman.sol\":1734:1871  while (_num >= values[i]) {... */\n    tag_27:\n        /* \"int2roman.sol\":1749:1755  values */\n      0x01\n        /* \"int2roman.sol\":1756:1757  i */\n      dup2\n        /* \"int2roman.sol\":1749:1758  values[i] */\n      dup2\n      sload\n      dup2\n      lt\n      tag_29\n      jumpi\n      tag_30\n      tag_31\n      jump\t// in\n    tag_30:\n    tag_29:\n      swap1\n      0x00\n      mstore\n      keccak256(0x00, 0x20)\n      add\n      sload\n        /* \"int2roman.sol\":1741:1745  _num */\n      dup5\n        /* \"int2roman.sol\":1741:1758  _num >= values[i] */\n      lt\n        /* \"int2roman.sol\":1734:1871  while (_num >= values[i]) {... */\n      tag_28\n      jumpi\n        /* \"int2roman.sol\":1803:1808  roman */\n      dup2\n        /* \"int2roman.sol\":1810:1817  symbols */\n      0x02\n        /* \"int2roman.sol\":1818:1819  i */\n      dup3\n        /* \"int2roman.sol\":1810:1820  symbols[i] */\n      dup2\n      sload\n      dup2\n      lt\n      tag_33\n      jumpi\n      tag_34\n      tag_31\n      jump\t// in\n    tag_34:\n    tag_33:\n      swap1\n      0x00\n      mstore\n      keccak256(0x00, 0x20)\n      add\n        /* \"int2roman.sol\":1786:1821  abi.encodePacked(roman, symbols[i]) */\n      add(0x20, mload(0x40))\n      tag_36\n      swap3\n      swap2\n      swap1\n      tag_37\n      jump\t// in\n    tag_36:\n      mload(0x40)\n      0x20\n      dup2\n      dup4\n      sub\n      sub\n      dup2\n      mstore\n      swap1\n      0x40\n      mstore\n        /* \"int2roman.sol\":1778:1821  roman = abi.encodePacked(roman, symbols[i]) */\n      swap2\n      pop\n        /* \"int2roman.sol\":1847:1853  values */\n      0x01\n        /* \"int2roman.sol\":1854:1855  i */\n      dup2\n        /* \"int2roman.sol\":1847:1856  values[i] */\n      dup2\n      sload\n      dup2\n      lt\n      tag_38\n      jumpi\n      tag_39\n      tag_31\n      jump\t// in\n    tag_39:\n    tag_38:\n      swap1\n      0x00\n      mstore\n      keccak256(0x00, 0x20)\n      add\n      sload\n        /* \"int2roman.sol\":1839:1856  _num -= values[i] */\n      dup5\n      tag_41\n      swap2\n      swap1\n      tag_42\n      jump\t// in\n    tag_41:\n      swap4\n      pop\n        /* \"int2roman.sol\":1734:1871  while (_num >= values[i]) {... */\n      jump(tag_27)\n    tag_28:\n        /* \"int2roman.sol\":1715:1718  i++ */\n      dup1\n      dup1\n      0x01\n      add\n      swap2\n      pop\n      pop\n        /* \"int2roman.sol\":1676:1881  for (uint256 i = 0; i < values.length; i++) {... */\n      jump(tag_24)\n    tag_25:\n      pop\n        /* \"int2roman.sol\":1904:1909  roman */\n      dup1\n        /* \"int2roman.sol\":1890:1910  return string(roman) */\n      swap2\n      pop\n      pop\n        /* \"int2roman.sol\":1159:1917  function int2Roman(uint256 _num) public returns(string memory romanStr){... */\n      swap2\n      swap1\n      pop\n      jump\t// out\n        /* \"int2roman.sol\":156:190  ValueSymbols[] public valueSymbols */\n    tag_13:\n      0x00\n      dup2\n      dup2\n      sload\n      dup2\n      lt\n      tag_43\n      jumpi\n      0x00\n      dup1\n      revert\n    tag_43:\n      swap1\n      0x00\n      mstore\n      keccak256(0x00, 0x20)\n      swap1\n      0x02\n      mul\n      add\n      0x00\n      swap2\n      pop\n      swap1\n      pop\n      dup1\n      0x00\n      add\n      sload\n      swap1\n      dup1\n      0x01\n      add\n      dup1\n      sload\n      tag_45\n      swap1\n      tag_46\n      jump\t// in\n    tag_45:\n      dup1\n      0x1f\n      add\n      0x20\n      dup1\n      swap2\n      div\n      mul\n      0x20\n      add\n      mload(0x40)\n      swap1\n      dup2\n      add\n      0x40\n      mstore\n      dup1\n      swap3\n      swap2\n      swap1\n      dup2\n      dup2\n      mstore\n      0x20\n      add\n      dup3\n      dup1\n      sload\n      tag_47\n      swap1\n      tag_46\n      jump\t// in\n    tag_47:\n      dup1\n      iszero\n      tag_48\n      jumpi\n      dup1\n      0x1f\n      lt\n      tag_49\n      jumpi\n      0x0100\n      dup1\n      dup4\n      sload\n      div\n      mul\n      dup4\n      mstore\n      swap2\n      0x20\n      add\n      swap2\n      jump(tag_48)\n    tag_49:\n      dup3\n      add\n      swap2\n      swap1\n      0x00\n      mstore\n      keccak256(0x00, 0x20)\n      swap1\n    tag_50:\n      dup2\n      sload\n      dup2\n      mstore\n      swap1\n      0x01\n      add\n      swap1\n      0x20\n      add\n      dup1\n      dup4\n      gt\n      tag_50\n      jumpi\n      dup3\n      swap1\n      sub\n      0x1f\n      and\n      dup3\n      add\n      swap2\n    tag_48:\n      pop\n      pop\n      pop\n      pop\n      pop\n      swap1\n      pop\n      dup3\n      jump\t// out\n        /* \"#utility.yul\":88:205   */\n    tag_52:\n        /* \"#utility.yul\":197:198   */\n      0x00\n        /* \"#utility.yul\":194:195   */\n      0x00\n        /* \"#utility.yul\":187:199   */\n      revert\n        /* \"#utility.yul\":334:411   */\n    tag_54:\n        /* \"#utility.yul\":371:378   */\n      0x00\n        /* \"#utility.yul\":400:405   */\n      dup2\n        /* \"#utility.yul\":389:405   */\n      swap1\n      pop\n        /* \"#utility.yul\":334:411   */\n      swap2\n      swap1\n      pop\n      jump\t// out\n        /* \"#utility.yul\":417:539   */\n    tag_55:\n        /* \"#utility.yul\":490:514   */\n      tag_79\n        /* \"#utility.yul\":508:513   */\n      dup2\n        /* \"#utility.yul\":490:514   */\n      tag_54\n      jump\t// in\n    tag_79:\n        /* \"#utility.yul\":483:488   */\n      dup2\n        /* \"#utility.yul\":480:515   */\n      eq\n        /* \"#utility.yul\":470:533   */\n      tag_80\n      jumpi\n        /* \"#utility.yul\":529:530   */\n      0x00\n        /* \"#utility.yul\":526:527   */\n      0x00\n        /* \"#utility.yul\":519:531   */\n      revert\n        /* \"#utility.yul\":470:533   */\n    tag_80:\n        /* \"#utility.yul\":417:539   */\n      pop\n      jump\t// out\n        /* \"#utility.yul\":545:684   */\n    tag_56:\n        /* \"#utility.yul\":591:596   */\n      0x00\n        /* \"#utility.yul\":629:635   */\n      dup2\n        /* \"#utility.yul\":616:636   */\n      calldataload\n        /* \"#utility.yul\":607:636   */\n      swap1\n      pop\n        /* \"#utility.yul\":645:678   */\n      tag_82\n        /* \"#utility.yul\":672:677   */\n      dup2\n        /* \"#utility.yul\":645:678   */\n      tag_55\n      jump\t// in\n    tag_82:\n        /* \"#utility.yul\":545:684   */\n      swap3\n      swap2\n      pop\n      pop\n      jump\t// out\n        /* \"#utility.yul\":690:1019   */\n    tag_7:\n        /* \"#utility.yul\":749:755   */\n      0x00\n        /* \"#utility.yul\":798:800   */\n      0x20\n        /* \"#utility.yul\":786:795   */\n      dup3\n        /* \"#utility.yul\":777:784   */\n      dup5\n        /* \"#utility.yul\":773:796   */\n      sub\n        /* \"#utility.yul\":769:801   */\n      slt\n        /* \"#utility.yul\":766:885   */\n      iszero\n      tag_84\n      jumpi\n        /* \"#utility.yul\":804:883   */\n      tag_85\n      tag_52\n      jump\t// in\n    tag_85:\n        /* \"#utility.yul\":766:885   */\n    tag_84:\n        /* \"#utility.yul\":924:925   */\n      0x00\n        /* \"#utility.yul\":949:1002   */\n      tag_86\n        /* \"#utility.yul\":994:1001   */\n      dup5\n        /* \"#utility.yul\":985:991   */\n      dup3\n        /* \"#utility.yul\":974:983   */\n      dup6\n        /* \"#utility.yul\":970:992   */\n      add\n        /* \"#utility.yul\":949:1002   */\n      tag_56\n      jump\t// in\n    tag_86:\n        /* \"#utility.yul\":939:1002   */\n      swap2\n      pop\n        /* \"#utility.yul\":895:1012   */\n      pop\n        /* \"#utility.yul\":690:1019   */\n      swap3\n      swap2\n      pop\n      pop\n      jump\t// out\n        /* \"#utility.yul\":1025:1124   */\n    tag_57:\n        /* \"#utility.yul\":1077:1083   */\n      0x00\n        /* \"#utility.yul\":1111:1116   */\n      dup2\n        /* \"#utility.yul\":1105:1117   */\n      mload\n        /* \"#utility.yul\":1095:1117   */\n      swap1\n      pop\n        /* \"#utility.yul\":1025:1124   */\n      swap2\n      swap1\n      pop\n      jump\t// out\n        /* \"#utility.yul\":1130:1299   */\n    tag_58:\n        /* \"#utility.yul\":1214:1225   */\n      0x00\n        /* \"#utility.yul\":1248:1254   */\n      dup3\n        /* \"#utility.yul\":1243:1246   */\n      dup3\n        /* \"#utility.yul\":1236:1255   */\n      mstore\n        /* \"#utility.yul\":1288:1292   */\n      0x20\n        /* \"#utility.yul\":1283:1286   */\n      dup3\n        /* \"#utility.yul\":1279:1293   */\n      add\n        /* \"#utility.yul\":1264:1293   */\n      swap1\n      pop\n        /* \"#utility.yul\":1130:1299   */\n      swap3\n      swap2\n      pop\n      pop\n      jump\t// out\n        /* \"#utility.yul\":1305:1444   */\n    tag_59:\n        /* \"#utility.yul\":1394:1400   */\n      dup3\n        /* \"#utility.yul\":1389:1392   */\n      dup2\n        /* \"#utility.yul\":1384:1387   */\n      dup4\n        /* \"#utility.yul\":1378:1401   */\n      mcopy\n        /* \"#utility.yul\":1435:1436   */\n      0x00\n        /* \"#utility.yul\":1426:1432   */\n      dup4\n        /* \"#utility.yul\":1421:1424   */\n      dup4\n        /* \"#utility.yul\":1417:1433   */\n      add\n        /* \"#utility.yul\":1410:1437   */\n      mstore\n        /* \"#utility.yul\":1305:1444   */\n      pop\n      pop\n      pop\n      jump\t// out\n        /* \"#utility.yul\":1450:1552   */\n    tag_60:\n        /* \"#utility.yul\":1491:1497   */\n      0x00\n        /* \"#utility.yul\":1542:1544   */\n      0x1f\n        /* \"#utility.yul\":1538:1545   */\n      not\n        /* \"#utility.yul\":1533:1535   */\n      0x1f\n        /* \"#utility.yul\":1526:1531   */\n      dup4\n        /* \"#utility.yul\":1522:1536   */\n      add\n        /* \"#utility.yul\":1518:1546   */\n      and\n        /* \"#utility.yul\":1508:1546   */\n      swap1\n      pop\n        /* \"#utility.yul\":1450:1552   */\n      swap2\n      swap1\n      pop\n      jump\t// out\n        /* \"#utility.yul\":1558:1935   */\n    tag_61:\n        /* \"#utility.yul\":1646:1649   */\n      0x00\n        /* \"#utility.yul\":1674:1713   */\n      tag_92\n        /* \"#utility.yul\":1707:1712   */\n      dup3\n        /* \"#utility.yul\":1674:1713   */\n      tag_57\n      jump\t// in\n    tag_92:\n        /* \"#utility.yul\":1729:1800   */\n      tag_93\n        /* \"#utility.yul\":1793:1799   */\n      dup2\n        /* \"#utility.yul\":1788:1791   */\n      dup6\n        /* \"#utility.yul\":1729:1800   */\n      tag_58\n      jump\t// in\n    tag_93:\n        /* \"#utility.yul\":1722:1800   */\n      swap4\n      pop\n        /* \"#utility.yul\":1809:1874   */\n      tag_94\n        /* \"#utility.yul\":1867:1873   */\n      dup2\n        /* \"#utility.yul\":1862:1865   */\n      dup6\n        /* \"#utility.yul\":1855:1859   */\n      0x20\n        /* \"#utility.yul\":1848:1853   */\n      dup7\n        /* \"#utility.yul\":1844:1860   */\n      add\n        /* \"#utility.yul\":1809:1874   */\n      tag_59\n      jump\t// in\n    tag_94:\n        /* \"#utility.yul\":1899:1928   */\n      tag_95\n        /* \"#utility.yul\":1921:1927   */\n      dup2\n        /* \"#utility.yul\":1899:1928   */\n      tag_60\n      jump\t// in\n    tag_95:\n        /* \"#utility.yul\":1894:1897   */\n      dup5\n        /* \"#utility.yul\":1890:1929   */\n      add\n        /* \"#utility.yul\":1883:1929   */\n      swap2\n      pop\n        /* \"#utility.yul\":1650:1935   */\n      pop\n        /* \"#utility.yul\":1558:1935   */\n      swap3\n      swap2\n      pop\n      pop\n      jump\t// out\n        /* \"#utility.yul\":1941:2254   */\n    tag_10:\n        /* \"#utility.yul\":2054:2058   */\n      0x00\n        /* \"#utility.yul\":2092:2094   */\n      0x20\n        /* \"#utility.yul\":2081:2090   */\n      dup3\n        /* \"#utility.yul\":2077:2095   */\n      add\n        /* \"#utility.yul\":2069:2095   */\n      swap1\n      pop\n        /* \"#utility.yul\":2141:2150   */\n      dup2\n        /* \"#utility.yul\":2135:2139   */\n      dup2\n        /* \"#utility.yul\":2131:2151   */\n      sub\n        /* \"#utility.yul\":2127:2128   */\n      0x00\n        /* \"#utility.yul\":2116:2125   */\n      dup4\n        /* \"#utility.yul\":2112:2129   */\n      add\n        /* \"#utility.yul\":2105:2152   */\n      mstore\n        /* \"#utility.yul\":2169:2247   */\n      tag_97\n        /* \"#utility.yul\":2242:2246   */\n      dup2\n        /* \"#utility.yul\":2233:2239   */\n      dup5\n        /* \"#utility.yul\":2169:2247   */\n      tag_61\n      jump\t// in\n    tag_97:\n        /* \"#utility.yul\":2161:2247   */\n      swap1\n      pop\n        /* \"#utility.yul\":1941:2254   */\n      swap3\n      swap2\n      pop\n      pop\n      jump\t// out\n        /* \"#utility.yul\":2260:2378   */\n    tag_62:\n        /* \"#utility.yul\":2347:2371   */\n      tag_99\n        /* \"#utility.yul\":2365:2370   */\n      dup2\n        /* \"#utility.yul\":2347:2371   */\n      tag_54\n      jump\t// in\n    tag_99:\n        /* \"#utility.yul\":2342:2345   */\n      dup3\n        /* \"#utility.yul\":2335:2372   */\n      mstore\n        /* \"#utility.yul\":2260:2378   */\n      pop\n      pop\n      jump\t// out\n        /* \"#utility.yul\":2384:2807   */\n    tag_15:\n        /* \"#utility.yul\":2525:2529   */\n      0x00\n        /* \"#utility.yul\":2563:2565   */\n      0x40\n        /* \"#utility.yul\":2552:2561   */\n      dup3\n        /* \"#utility.yul\":2548:2566   */\n      add\n        /* \"#utility.yul\":2540:2566   */\n      swap1\n      pop\n        /* \"#utility.yul\":2576:2647   */\n      tag_101\n        /* \"#utility.yul\":2644:2645   */\n      0x00\n        /* \"#utility.yul\":2633:2642   */\n      dup4\n        /* \"#utility.yul\":2629:2646   */\n      add\n        /* \"#utility.yul\":2620:2626   */\n      dup6\n        /* \"#utility.yul\":2576:2647   */\n      tag_62\n      jump\t// in\n    tag_101:\n        /* \"#utility.yul\":2694:2703   */\n      dup2\n        /* \"#utility.yul\":2688:2692   */\n      dup2\n        /* \"#utility.yul\":2684:2704   */\n      sub\n        /* \"#utility.yul\":2679:2681   */\n      0x20\n        /* \"#utility.yul\":2668:2677   */\n      dup4\n        /* \"#utility.yul\":2664:2682   */\n      add\n        /* \"#utility.yul\":2657:2705   */\n      mstore\n        /* \"#utility.yul\":2722:2800   */\n      tag_102\n        /* \"#utility.yul\":2795:2799   */\n      dup2\n        /* \"#utility.yul\":2786:2792   */\n      dup5\n        /* \"#utility.yul\":2722:2800   */\n      tag_61\n      jump\t// in\n    tag_102:\n        /* \"#utility.yul\":2714:2800   */\n      swap1\n      pop\n        /* \"#utility.yul\":2384:2807   */\n      swap4\n      swap3\n      pop\n      pop\n      pop\n      jump\t// out\n        /* \"#utility.yul\":2813:3033   */\n    tag_63:\n        /* \"#utility.yul\":2953:2987   */\n      0x4e756d626572206d757374206265206265747765656e203120616e6420333939\n        /* \"#utility.yul\":2949:2950   */\n      0x00\n        /* \"#utility.yul\":2941:2947   */\n      dup3\n        /* \"#utility.yul\":2937:2951   */\n      add\n        /* \"#utility.yul\":2930:2988   */\n      mstore\n        /* \"#utility.yul\":3022:3025   */\n      0x3900000000000000000000000000000000000000000000000000000000000000\n        /* \"#utility.yul\":3017:3019   */\n      0x20\n        /* \"#utility.yul\":3009:3015   */\n      dup3\n        /* \"#utility.yul\":3005:3020   */\n      add\n        /* \"#utility.yul\":2998:3026   */\n      mstore\n        /* \"#utility.yul\":2813:3033   */\n      pop\n      jump\t// out\n        /* \"#utility.yul\":3039:3405   */\n    tag_64:\n        /* \"#utility.yul\":3181:3184   */\n      0x00\n        /* \"#utility.yul\":3202:3269   */\n      tag_105\n        /* \"#utility.yul\":3266:3268   */\n      0x21\n        /* \"#utility.yul\":3261:3264   */\n      dup4\n        /* \"#utility.yul\":3202:3269   */\n      tag_58\n      jump\t// in\n    tag_105:\n        /* \"#utility.yul\":3195:3269   */\n      swap2\n      pop\n        /* \"#utility.yul\":3278:3371   */\n      tag_106\n        /* \"#utility.yul\":3367:3370   */\n      dup3\n        /* \"#utility.yul\":3278:3371   */\n      tag_63\n      jump\t// in\n    tag_106:\n        /* \"#utility.yul\":3396:3398   */\n      0x40\n        /* \"#utility.yul\":3391:3394   */\n      dup3\n        /* \"#utility.yul\":3387:3399   */\n      add\n        /* \"#utility.yul\":3380:3399   */\n      swap1\n      pop\n        /* \"#utility.yul\":3039:3405   */\n      swap2\n      swap1\n      pop\n      jump\t// out\n        /* \"#utility.yul\":3411:3830   */\n    tag_20:\n        /* \"#utility.yul\":3577:3581   */\n      0x00\n        /* \"#utility.yul\":3615:3617   */\n      0x20\n        /* \"#utility.yul\":3604:3613   */\n      dup3\n        /* \"#utility.yul\":3600:3618   */\n      add\n        /* \"#utility.yul\":3592:3618   */\n      swap1\n      pop\n        /* \"#utility.yul\":3664:3673   */\n      dup2\n        /* \"#utility.yul\":3658:3662   */\n      dup2\n        /* \"#utility.yul\":3654:3674   */\n      sub\n        /* \"#utility.yul\":3650:3651   */\n      0x00\n        /* \"#utility.yul\":3639:3648   */\n      dup4\n        /* \"#utility.yul\":3635:3652   */\n      add\n        /* \"#utility.yul\":3628:3675   */\n      mstore\n        /* \"#utility.yul\":3692:3823   */\n      tag_108\n        /* \"#utility.yul\":3818:3822   */\n      dup2\n        /* \"#utility.yul\":3692:3823   */\n      tag_64\n      jump\t// in\n    tag_108:\n        /* \"#utility.yul\":3684:3823   */\n      swap1\n      pop\n        /* \"#utility.yul\":3411:3830   */\n      swap2\n      swap1\n      pop\n      jump\t// out\n        /* \"#utility.yul\":3836:4016   */\n    tag_31:\n        /* \"#utility.yul\":3884:3961   */\n      0x4e487b7100000000000000000000000000000000000000000000000000000000\n        /* \"#utility.yul\":3881:3882   */\n      0x00\n        /* \"#utility.yul\":3874:3962   */\n      mstore\n        /* \"#utility.yul\":3981:3985   */\n      0x32\n        /* \"#utility.yul\":3978:3979   */\n      0x04\n        /* \"#utility.yul\":3971:3986   */\n      mstore\n        /* \"#utility.yul\":4005:4009   */\n      0x24\n        /* \"#utility.yul\":4002:4003   */\n      0x00\n        /* \"#utility.yul\":3995:4010   */\n      revert\n        /* \"#utility.yul\":4022:4120   */\n    tag_65:\n        /* \"#utility.yul\":4073:4079   */\n      0x00\n        /* \"#utility.yul\":4107:4112   */\n      dup2\n        /* \"#utility.yul\":4101:4113   */\n      mload\n        /* \"#utility.yul\":4091:4113   */\n      swap1\n      pop\n        /* \"#utility.yul\":4022:4120   */\n      swap2\n      swap1\n      pop\n      jump\t// out\n        /* \"#utility.yul\":4126:4273   */\n    tag_66:\n        /* \"#utility.yul\":4227:4238   */\n      0x00\n        /* \"#utility.yul\":4264:4267   */\n      dup2\n        /* \"#utility.yul\":4249:4267   */\n      swap1\n      pop\n        /* \"#utility.yul\":4126:4273   */\n      swap3\n      swap2\n      pop\n      pop\n      jump\t// out\n        /* \"#utility.yul\":4279:4665   */\n    tag_67:\n        /* \"#utility.yul\":4383:4386   */\n      0x00\n        /* \"#utility.yul\":4411:4449   */\n      tag_113\n        /* \"#utility.yul\":4443:4448   */\n      dup3\n        /* \"#utility.yul\":4411:4449   */\n      tag_65\n      jump\t// in\n    tag_113:\n        /* \"#utility.yul\":4465:4553   */\n      tag_114\n        /* \"#utility.yul\":4546:4552   */\n      dup2\n        /* \"#utility.yul\":4541:4544   */\n      dup6\n        /* \"#utility.yul\":4465:4553   */\n      tag_66\n      jump\t// in\n    tag_114:\n        /* \"#utility.yul\":4458:4553   */\n      swap4\n      pop\n        /* \"#utility.yul\":4562:4627   */\n      tag_115\n        /* \"#utility.yul\":4620:4626   */\n      dup2\n        /* \"#utility.yul\":4615:4618   */\n      dup6\n        /* \"#utility.yul\":4608:4612   */\n      0x20\n        /* \"#utility.yul\":4601:4606   */\n      dup7\n        /* \"#utility.yul\":4597:4613   */\n      add\n        /* \"#utility.yul\":4562:4627   */\n      tag_59\n      jump\t// in\n    tag_115:\n        /* \"#utility.yul\":4652:4658   */\n      dup1\n        /* \"#utility.yul\":4647:4650   */\n      dup5\n        /* \"#utility.yul\":4643:4659   */\n      add\n        /* \"#utility.yul\":4636:4659   */\n      swap2\n      pop\n        /* \"#utility.yul\":4387:4665   */\n      pop\n        /* \"#utility.yul\":4279:4665   */\n      swap3\n      swap2\n      pop\n      pop\n      jump\t// out\n        /* \"#utility.yul\":4671:4851   */\n    tag_68:\n        /* \"#utility.yul\":4719:4796   */\n      0x4e487b7100000000000000000000000000000000000000000000000000000000\n        /* \"#utility.yul\":4716:4717   */\n      0x00\n        /* \"#utility.yul\":4709:4797   */\n      mstore\n        /* \"#utility.yul\":4816:4820   */\n      0x22\n        /* \"#utility.yul\":4813:4814   */\n      0x04\n        /* \"#utility.yul\":4806:4821   */\n      mstore\n        /* \"#utility.yul\":4840:4844   */\n      0x24\n        /* \"#utility.yul\":4837:4838   */\n      0x00\n        /* \"#utility.yul\":4830:4845   */\n      revert\n        /* \"#utility.yul\":4857:5177   */\n    tag_46:\n        /* \"#utility.yul\":4901:4907   */\n      0x00\n        /* \"#utility.yul\":4938:4939   */\n      0x02\n        /* \"#utility.yul\":4932:4936   */\n      dup3\n        /* \"#utility.yul\":4928:4940   */\n      div\n        /* \"#utility.yul\":4918:4940   */\n      swap1\n      pop\n        /* \"#utility.yul\":4985:4986   */\n      0x01\n        /* \"#utility.yul\":4979:4983   */\n      dup3\n        /* \"#utility.yul\":4975:4987   */\n      and\n        /* \"#utility.yul\":5006:5024   */\n      dup1\n        /* \"#utility.yul\":4996:5077   */\n      tag_118\n      jumpi\n        /* \"#utility.yul\":5062:5066   */\n      0x7f\n        /* \"#utility.yul\":5054:5060   */\n      dup3\n        /* \"#utility.yul\":5050:5067   */\n      and\n        /* \"#utility.yul\":5040:5067   */\n      swap2\n      pop\n        /* \"#utility.yul\":4996:5077   */\n    tag_118:\n        /* \"#utility.yul\":5124:5126   */\n      0x20\n        /* \"#utility.yul\":5116:5122   */\n      dup3\n        /* \"#utility.yul\":5113:5127   */\n      lt\n        /* \"#utility.yul\":5093:5111   */\n      dup2\n        /* \"#utility.yul\":5090:5128   */\n      sub\n        /* \"#utility.yul\":5087:5171   */\n      tag_119\n      jumpi\n        /* \"#utility.yul\":5143:5161   */\n      tag_120\n      tag_68\n      jump\t// in\n    tag_120:\n        /* \"#utility.yul\":5087:5171   */\n    tag_119:\n        /* \"#utility.yul\":4908:5177   */\n      pop\n        /* \"#utility.yul\":4857:5177   */\n      swap2\n      swap1\n      pop\n      jump\t// out\n        /* \"#utility.yul\":5183:5331   */\n    tag_69:\n        /* \"#utility.yul\":5285:5296   */\n      0x00\n        /* \"#utility.yul\":5322:5325   */\n      dup2\n        /* \"#utility.yul\":5307:5325   */\n      swap1\n      pop\n        /* \"#utility.yul\":5183:5331   */\n      swap3\n      swap2\n      pop\n      pop\n      jump\t// out\n        /* \"#utility.yul\":5337:5478   */\n    tag_70:\n        /* \"#utility.yul\":5386:5390   */\n      0x00\n        /* \"#utility.yul\":5409:5412   */\n      dup2\n        /* \"#utility.yul\":5401:5412   */\n      swap1\n      pop\n        /* \"#utility.yul\":5432:5435   */\n      dup2\n        /* \"#utility.yul\":5429:5430   */\n      0x00\n        /* \"#utility.yul\":5422:5436   */\n      mstore\n        /* \"#utility.yul\":5466:5470   */\n      0x20\n        /* \"#utility.yul\":5463:5464   */\n      0x00\n        /* \"#utility.yul\":5453:5471   */\n      keccak256\n        /* \"#utility.yul\":5445:5471   */\n      swap1\n      pop\n        /* \"#utility.yul\":5337:5478   */\n      swap2\n      swap1\n      pop\n      jump\t// out\n        /* \"#utility.yul\":5508:6382   */\n    tag_71:\n        /* \"#utility.yul\":5611:5614   */\n      0x00\n        /* \"#utility.yul\":5648:5653   */\n      dup2\n        /* \"#utility.yul\":5642:5654   */\n      sload\n        /* \"#utility.yul\":5677:5713   */\n      tag_124\n        /* \"#utility.yul\":5703:5712   */\n      dup2\n        /* \"#utility.yul\":5677:5713   */\n      tag_46\n      jump\t// in\n    tag_124:\n        /* \"#utility.yul\":5729:5818   */\n      tag_125\n        /* \"#utility.yul\":5811:5817   */\n      dup2\n        /* \"#utility.yul\":5806:5809   */\n      dup7\n        /* \"#utility.yul\":5729:5818   */\n      tag_69\n      jump\t// in\n    tag_125:\n        /* \"#utility.yul\":5722:5818   */\n      swap5\n      pop\n        /* \"#utility.yul\":5849:5850   */\n      0x01\n        /* \"#utility.yul\":5838:5847   */\n      dup3\n        /* \"#utility.yul\":5834:5851   */\n      and\n        /* \"#utility.yul\":5865:5866   */\n      0x00\n        /* \"#utility.yul\":5860:6026   */\n      dup2\n      eq\n      tag_127\n      jumpi\n        /* \"#utility.yul\":6040:6041   */\n      0x01\n        /* \"#utility.yul\":6035:6376   */\n      dup2\n      eq\n      tag_128\n      jumpi\n        /* \"#utility.yul\":5827:6376   */\n      jump(tag_126)\n        /* \"#utility.yul\":5860:6026   */\n    tag_127:\n        /* \"#utility.yul\":5944:5948   */\n      0xff\n        /* \"#utility.yul\":5940:5949   */\n      not\n        /* \"#utility.yul\":5929:5938   */\n      dup4\n        /* \"#utility.yul\":5925:5950   */\n      and\n        /* \"#utility.yul\":5920:5923   */\n      dup7\n        /* \"#utility.yul\":5913:5951   */\n      mstore\n        /* \"#utility.yul\":6006:6012   */\n      dup2\n        /* \"#utility.yul\":5999:6013   */\n      iszero\n        /* \"#utility.yul\":5992:6014   */\n      iszero\n        /* \"#utility.yul\":5984:5990   */\n      dup3\n        /* \"#utility.yul\":5980:6015   */\n      mul\n        /* \"#utility.yul\":5975:5978   */\n      dup7\n        /* \"#utility.yul\":5971:6016   */\n      add\n        /* \"#utility.yul\":5964:6016   */\n      swap4\n      pop\n        /* \"#utility.yul\":5860:6026   */\n      jump(tag_126)\n        /* \"#utility.yul\":6035:6376   */\n    tag_128:\n        /* \"#utility.yul\":6102:6140   */\n      tag_129\n        /* \"#utility.yul\":6134:6139   */\n      dup6\n        /* \"#utility.yul\":6102:6140   */\n      tag_70\n      jump\t// in\n    tag_129:\n        /* \"#utility.yul\":6162:6163   */\n      0x00\n        /* \"#utility.yul\":6176:6330   */\n    tag_130:\n        /* \"#utility.yul\":6190:6196   */\n      dup4\n        /* \"#utility.yul\":6187:6188   */\n      dup2\n        /* \"#utility.yul\":6184:6197   */\n      lt\n        /* \"#utility.yul\":6176:6330   */\n      iszero\n      tag_132\n      jumpi\n        /* \"#utility.yul\":6264:6271   */\n      dup2\n        /* \"#utility.yul\":6258:6272   */\n      sload\n        /* \"#utility.yul\":6254:6255   */\n      dup2\n        /* \"#utility.yul\":6249:6252   */\n      dup10\n        /* \"#utility.yul\":6245:6256   */\n      add\n        /* \"#utility.yul\":6238:6273   */\n      mstore\n        /* \"#utility.yul\":6314:6315   */\n      0x01\n        /* \"#utility.yul\":6305:6312   */\n      dup3\n        /* \"#utility.yul\":6301:6316   */\n      add\n        /* \"#utility.yul\":6290:6316   */\n      swap2\n      pop\n        /* \"#utility.yul\":6212:6216   */\n      0x20\n        /* \"#utility.yul\":6209:6210   */\n      dup2\n        /* \"#utility.yul\":6205:6217   */\n      add\n        /* \"#utility.yul\":6200:6217   */\n      swap1\n      pop\n        /* \"#utility.yul\":6176:6330   */\n      jump(tag_130)\n    tag_132:\n        /* \"#utility.yul\":6359:6365   */\n      dup4\n        /* \"#utility.yul\":6354:6357   */\n      dup9\n        /* \"#utility.yul\":6350:6366   */\n      add\n        /* \"#utility.yul\":6343:6366   */\n      swap6\n      pop\n        /* \"#utility.yul\":6042:6376   */\n      pop\n      pop\n        /* \"#utility.yul\":5827:6376   */\n    tag_126:\n      pop\n        /* \"#utility.yul\":5615:6382   */\n      pop\n      pop\n        /* \"#utility.yul\":5508:6382   */\n      swap3\n      swap2\n      pop\n      pop\n      jump\t// out\n        /* \"#utility.yul\":6388:6813   */\n    tag_37:\n        /* \"#utility.yul\":6563:6566   */\n      0x00\n        /* \"#utility.yul\":6585:6678   */\n      tag_134\n        /* \"#utility.yul\":6674:6677   */\n      dup3\n        /* \"#utility.yul\":6665:6671   */\n      dup6\n        /* \"#utility.yul\":6585:6678   */\n      tag_67\n      jump\t// in\n    tag_134:\n        /* \"#utility.yul\":6578:6678   */\n      swap2\n      pop\n        /* \"#utility.yul\":6695:6787   */\n      tag_135\n        /* \"#utility.yul\":6783:6786   */\n      dup3\n        /* \"#utility.yul\":6774:6780   */\n      dup5\n        /* \"#utility.yul\":6695:6787   */\n      tag_71\n      jump\t// in\n    tag_135:\n        /* \"#utility.yul\":6688:6787   */\n      swap2\n      pop\n        /* \"#utility.yul\":6804:6807   */\n      dup2\n        /* \"#utility.yul\":6797:6807   */\n      swap1\n      pop\n        /* \"#utility.yul\":6388:6813   */\n      swap4\n      swap3\n      pop\n      pop\n      pop\n      jump\t// out\n        /* \"#utility.yul\":6819:6999   */\n    tag_72:\n        /* \"#utility.yul\":6867:6944   */\n      0x4e487b7100000000000000000000000000000000000000000000000000000000\n        /* \"#utility.yul\":6864:6865   */\n      0x00\n        /* \"#utility.yul\":6857:6945   */\n      mstore\n        /* \"#utility.yul\":6964:6968   */\n      0x11\n        /* \"#utility.yul\":6961:6962   */\n      0x04\n        /* \"#utility.yul\":6954:6969   */\n      mstore\n        /* \"#utility.yul\":6988:6992   */\n      0x24\n        /* \"#utility.yul\":6985:6986   */\n      0x00\n        /* \"#utility.yul\":6978:6993   */\n      revert\n        /* \"#utility.yul\":7005:7199   */\n    tag_42:\n        /* \"#utility.yul\":7045:7049   */\n      0x00\n        /* \"#utility.yul\":7065:7085   */\n      tag_138\n        /* \"#utility.yul\":7083:7084   */\n      dup3\n        /* \"#utility.yul\":7065:7085   */\n      tag_54\n      jump\t// in\n    tag_138:\n        /* \"#utility.yul\":7060:7085   */\n      swap2\n      pop\n        /* \"#utility.yul\":7099:7119   */\n      tag_139\n        /* \"#utility.yul\":7117:7118   */\n      dup4\n        /* \"#utility.yul\":7099:7119   */\n      tag_54\n      jump\t// in\n    tag_139:\n        /* \"#utility.yul\":7094:7119   */\n      swap3\n      pop\n        /* \"#utility.yul\":7143:7144   */\n      dup3\n        /* \"#utility.yul\":7140:7141   */\n      dup3\n        /* \"#utility.yul\":7136:7145   */\n      sub\n        /* \"#utility.yul\":7128:7145   */\n      swap1\n      pop\n        /* \"#utility.yul\":7167:7168   */\n      dup2\n        /* \"#utility.yul\":7161:7165   */\n      dup2\n        /* \"#utility.yul\":7158:7169   */\n      gt\n        /* \"#utility.yul\":7155:7192   */\n      iszero\n      tag_140\n      jumpi\n        /* \"#utility.yul\":7172:7190   */\n      tag_141\n      tag_72\n      jump\t// in\n    tag_141:\n        /* \"#utility.yul\":7155:7192   */\n    tag_140:\n        /* \"#utility.yul\":7005:7199   */\n      swap3\n      swap2\n      pop\n      pop\n      jump\t// out\n\n    auxdata: 0xa2646970667358221220f2a1c5d569a3683ff83fc72ee0c9e01c67972ab515afc490d87b9a989474a58864736f6c634300081e0033\n}\n",
				"bytecode": {
					"linkReferences": {},
					"object": "6080604052604051806101a001604052806103e861ffff16815260200161038461ffff1681526020016101f461ffff16815260200161019061ffff168152602001606461ffff168152602001605a61ffff168152602001603261ffff168152602001602861ffff168152602001600a61ffff168152602001600961ffff168152602001600561ffff168152602001600461ffff168152602001600161ffff16815250600190600d6100b19291906103dd565b50604051806101a001604052806040518060400160405280600181526020017f4d0000000000000000000000000000000000000000000000000000000000000081525081526020016040518060400160405280600281526020017f434d00000000000000000000000000000000000000000000000000000000000081525081526020016040518060400160405280600181526020017f440000000000000000000000000000000000000000000000000000000000000081525081526020016040518060400160405280600281526020017f434400000000000000000000000000000000000000000000000000000000000081525081526020016040518060400160405280600181526020017f430000000000000000000000000000000000000000000000000000000000000081525081526020016040518060400160405280600281526020017f584300000000000000000000000000000000000000000000000000000000000081525081526020016040518060400160405280600181526020017f4c0000000000000000000000000000000000000000000000000000000000000081525081526020016040518060400160405280600281526020017f584c00000000000000000000000000000000000000000000000000000000000081525081526020016040518060400160405280600181526020017f580000000000000000000000000000000000000000000000000000000000000081525081526020016040518060400160405280600281526020017f495800000000000000000000000000000000000000000000000000000000000081525081526020016040518060400160405280600181526020017f560000000000000000000000000000000000000000000000000000000000000081525081526020016040518060400160405280600281526020017f495600000000000000000000000000000000000000000000000000000000000081525081526020016040518060400160405280600181526020017f4900000000000000000000000000000000000000000000000000000000000000815250815250600290600d6103cb92919061042e565b503480156103d7575f5ffd5b5061080c565b828054828255905f5260205f2090810192821561041d579160200282015b8281111561041c578251829061ffff169055916020019190600101906103fb565b5b50905061042a9190610485565b5090565b828054828255905f5260205f20908101928215610474579160200282015b82811115610473578251829081610463919061073d565b509160200191906001019061044c565b5b50905061048191906104a0565b5090565b5b8082111561049c575f815f905550600101610486565b5090565b5b808211156104bf575f81816104b691906104c3565b506001016104a1565b5090565b5080546104cf90610564565b5f825580601f106104e057506104fd565b601f0160209004905f5260205f20908101906104fc9190610485565b5b50565b5f81519050919050565b7f4e487b71000000000000000000000000000000000000000000000000000000005f52604160045260245ffd5b7f4e487b71000000000000000000000000000000000000000000000000000000005f52602260045260245ffd5b5f600282049050600182168061057b57607f821691505b60208210810361058e5761058d610537565b5b50919050565b5f819050815f5260205f209050919050565b5f6020601f8301049050919050565b5f82821b905092915050565b5f600883026105f07fffffffffffffffffffffffffffffffffffffffffffffffffffffffffffffffff826105b5565b6105fa86836105b5565b95508019841693508086168417925050509392505050565b5f819050919050565b5f819050919050565b5f61063e61063961063484610612565b61061b565b610612565b9050919050565b5f819050919050565b61065783610624565b61066b61066382610645565b8484546105c1565b825550505050565b5f5f905090565b610682610673565b61068d81848461064e565b505050565b5b818110156106b0576106a55f8261067a565b600181019050610693565b5050565b601f8211156106f5576106c681610594565b6106cf846105a6565b810160208510156106de578190505b6106f26106ea856105a6565b830182610692565b50505b505050565b5f82821c905092915050565b5f6107155f19846008026106fa565b1980831691505092915050565b5f61072d8383610706565b9150826002028217905092915050565b61074682610500565b67ffffffffffffffff81111561075f5761075e61050a565b5b6107698254610564565b6107748282856106b4565b5f60209050601f8311600181146107a5575f8415610793578287015190505b61079d8582610722565b865550610804565b601f1984166107b386610594565b5f5b828110156107da578489015182556001820191506020850194506020810190506107b5565b868310156107f757848901516107f3601f891682610706565b8355505b6001600288020188555050505b505050505050565b61068a806108195f395ff3fe608060405234801561000f575f5ffd5b5060043610610034575f3560e01c806337463a1a14610038578063e9dc96ad14610068575b5f5ffd5b610052600480360381019061004d91906102e1565b610099565b60405161005f919061037c565b60405180910390f35b610082600480360381019061007d91906102e1565b6101f6565b6040516100909291906103ab565b60405180910390f35b60605f821180156100ab5750610fa082105b6100ea576040517f08c379a00000000000000000000000000000000000000000000000000000000081526004016100e190610449565b60405180910390fd5b5f821180156100fa5750610fa082105b610139576040517f08c379a000000000000000000000000000000000000000000000000000000000815260040161013090610449565b60405180910390fd5b60605f5f90505b6001805490508110156101ec575b6001818154811061016257610161610467565b5b905f5260205f20015484106101df57816002828154811061018657610185610467565b5b905f5260205f200160405160200161019f9291906105d1565b6040516020818303038152906040529150600181815481106101c4576101c3610467565b5b905f5260205f200154846101d89190610621565b935061014e565b8080600101915050610140565b5080915050919050565b5f8181548110610204575f80fd5b905f5260205f2090600202015f91509050805f01549080600101805461022990610505565b80601f016020809104026020016040519081016040528092919081815260200182805461025590610505565b80156102a05780601f10610277576101008083540402835291602001916102a0565b820191905f5260205f20905b81548152906001019060200180831161028357829003601f168201915b5050505050905082565b5f5ffd5b5f819050919050565b6102c0816102ae565b81146102ca575f5ffd5b50565b5f813590506102db816102b7565b92915050565b5f602082840312156102f6576102f56102aa565b5b5f610303848285016102cd565b91505092915050565b5f81519050919050565b5f82825260208201905092915050565b8281835e5f83830152505050565b5f601f19601f8301169050919050565b5f61034e8261030c565b6103588185610316565b9350610368818560208601610326565b61037181610334565b840191505092915050565b5f6020820190508181035f8301526103948184610344565b905092915050565b6103a5816102ae565b82525050565b5f6040820190506103be5f83018561039c565b81810360208301526103d08184610344565b90509392505050565b7f4e756d626572206d757374206265206265747765656e203120616e64203339395f8201527f3900000000000000000000000000000000000000000000000000000000000000602082015250565b5f610433602183610316565b915061043e826103d9565b604082019050919050565b5f6020820190508181035f83015261046081610427565b9050919050565b7f4e487b71000000000000000000000000000000000000000000000000000000005f52603260045260245ffd5b5f81519050919050565b5f81905092915050565b5f6104b282610494565b6104bc818561049e565b93506104cc818560208601610326565b80840191505092915050565b7f4e487b71000000000000000000000000000000000000000000000000000000005f52602260045260245ffd5b5f600282049050600182168061051c57607f821691505b60208210810361052f5761052e6104d8565b5b50919050565b5f81905092915050565b5f819050815f5260205f209050919050565b5f815461055d81610505565b6105678186610535565b9450600182165f81146105815760018114610596576105c8565b60ff19831686528115158202860193506105c8565b61059f8561053f565b5f5b838110156105c0578154818901526001820191506020810190506105a1565b838801955050505b50505092915050565b5f6105dc82856104a8565b91506105e88284610551565b91508190509392505050565b7f4e487b71000000000000000000000000000000000000000000000000000000005f52601160045260245ffd5b5f61062b826102ae565b9150610636836102ae565b925082820390508181111561064e5761064d6105f4565b5b9291505056fea2646970667358221220f2a1c5d569a3683ff83fc72ee0c9e01c67972ab515afc490d87b9a989474a58864736f6c634300081e0033",
					"opcodes": "PUSH1 0x80 PUSH1 0x40 MSTORE PUSH1 0x40 MLOAD DUP1 PUSH2 0x1A0 ADD PUSH1 0x40 MSTORE DUP1 PUSH2 0x3E8 PUSH2 0xFFFF AND DUP2 MSTORE PUSH1 0x20 ADD PUSH2 0x384 PUSH2 0xFFFF AND DUP2 MSTORE PUSH1 0x20 ADD PUSH2 0x1F4 PUSH2 0xFFFF AND DUP2 MSTORE PUSH1 0x20 ADD PUSH2 0x190 PUSH2 0xFFFF AND DUP2 MSTORE PUSH1 0x20 ADD PUSH1 0x64 PUSH2 0xFFFF AND DUP2 MSTORE PUSH1 0x20 ADD PUSH1 0x5A PUSH2 0xFFFF AND DUP2 MSTORE PUSH1 0x20 ADD PUSH1 0x32 PUSH2 0xFFFF AND DUP2 MSTORE PUSH1 0x20 ADD PUSH1 0x28 PUSH2 0xFFFF AND DUP2 MSTORE PUSH1 0x20 ADD PUSH1 0xA PUSH2 0xFFFF AND DUP2 MSTORE PUSH1 0x20 ADD PUSH1 0x9 PUSH2 0xFFFF AND DUP2 MSTORE PUSH1 0x20 ADD PUSH1 0x5 PUSH2 0xFFFF AND DUP2 MSTORE PUSH1 0x20 ADD PUSH1 0x4 PUSH2 0xFFFF AND DUP2 MSTORE PUSH1 0x20 ADD PUSH1 0x1 PUSH2 0xFFFF AND DUP2 MSTORE POP PUSH1 0x1 SWAP1 PUSH1 0xD PUSH2 0xB1 SWAP3 SWAP2 SWAP1 PUSH2 0x3DD JUMP JUMPDEST POP PUSH1 0x40 MLOAD DUP1 PUSH2 0x1A0 ADD PUSH1 0x40 MSTORE DUP1 PUSH1 0x40 MLOAD DUP1 PUSH1 0x40 ADD PUSH1 0x40 MSTORE DUP1 PUSH1 0x1 DUP2 MSTORE PUSH1 0x20 ADD PUSH32 0x4D00000000000000000000000000000000000000000000000000000000000000 DUP2 MSTORE POP DUP2 MSTORE PUSH1 0x20 ADD PUSH1 0x40 MLOAD DUP1 PUSH1 0x40 ADD PUSH1 0x40 MSTORE DUP1 PUSH1 0x2 DUP2 MSTORE PUSH1 0x20 ADD PUSH32 0x434D000000000000000000000000000000000000000000000000000000000000 DUP2 MSTORE POP DUP2 MSTORE PUSH1 0x20 ADD PUSH1 0x40 MLOAD DUP1 PUSH1 0x40 ADD PUSH1 0x40 MSTORE DUP1 PUSH1 0x1 DUP2 MSTORE PUSH1 0x20 ADD PUSH32 0x4400000000000000000000000000000000000000000000000000000000000000 DUP2 MSTORE POP DUP2 MSTORE PUSH1 0x20 ADD PUSH1 0x40 MLOAD DUP1 PUSH1 0x40 ADD PUSH1 0x40 MSTORE DUP1 PUSH1 0x2 DUP2 MSTORE PUSH1 0x20 ADD PUSH32 0x4344000000000000000000000000000000000000000000000000000000000000 DUP2 MSTORE POP DUP2 MSTORE PUSH1 0x20 ADD PUSH1 0x40 MLOAD DUP1 PUSH1 0x40 ADD PUSH1 0x40 MSTORE DUP1 PUSH1 0x1 DUP2 MSTORE PUSH1 0x20 ADD PUSH32 0x4300000000000000000000000000000000000000000000000000000000000000 DUP2 MSTORE POP DUP2 MSTORE PUSH1 0x20 ADD PUSH1 0x40 MLOAD DUP1 PUSH1 0x40 ADD PUSH1 0x40 MSTORE DUP1 PUSH1 0x2 DUP2 MSTORE PUSH1 0x20 ADD PUSH32 0x5843000000000000000000000000000000000000000000000000000000000000 DUP2 MSTORE POP DUP2 MSTORE PUSH1 0x20 ADD PUSH1 0x40 MLOAD DUP1 PUSH1 0x40 ADD PUSH1 0x40 MSTORE DUP1 PUSH1 0x1 DUP2 MSTORE PUSH1 0x20 ADD PUSH32 0x4C00000000000000000000000000000000000000000000000000000000000000 DUP2 MSTORE POP DUP2 MSTORE PUSH1 0x20 ADD PUSH1 0x40 MLOAD DUP1 PUSH1 0x40 ADD PUSH1 0x40 MSTORE DUP1 PUSH1 0x2 DUP2 MSTORE PUSH1 0x20 ADD PUSH32 0x584C000000000000000000000000000000000000000000000000000000000000 DUP2 MSTORE POP DUP2 MSTORE PUSH1 0x20 ADD PUSH1 0x40 MLOAD DUP1 PUSH1 0x40 ADD PUSH1 0x40 MSTORE DUP1 PUSH1 0x1 DUP2 MSTORE PUSH1 0x20 ADD PUSH32 0x5800000000000000000000000000000000000000000000000000000000000000 DUP2 MSTORE POP DUP2 MSTORE PUSH1 0x20 ADD PUSH1 0x40 MLOAD DUP1 PUSH1 0x40 ADD PUSH1 0x40 MSTORE DUP1 PUSH1 0x2 DUP2 MSTORE PUSH1 0x20 ADD PUSH32 0x4958000000000000000000000000000000000000000000000000000000000000 DUP2 MSTORE POP DUP2 MSTORE PUSH1 0x20 ADD PUSH1 0x40 MLOAD DUP1 PUSH1 0x40 ADD PUSH1 0x40 MSTORE DUP1 PUSH1 0x1 DUP2 MSTORE PUSH1 0x20 ADD PUSH32 0x5600000000000000000000000000000000000000000000000000000000000000 DUP2 MSTORE POP DUP2 MSTORE PUSH1 0x20 ADD PUSH1 0x40 MLOAD DUP1 PUSH1 0x40 ADD PUSH1 0x40 MSTORE DUP1 PUSH1 0x2 DUP2 MSTORE PUSH1 0x20 ADD PUSH32 0x4956000000000000000000000000000000000000000000000000000000000000 DUP2 MSTORE POP DUP2 MSTORE PUSH1 0x20 ADD PUSH1 0x40 MLOAD DUP1 PUSH1 0x40 ADD PUSH1 0x40 MSTORE DUP1 PUSH1 0x1 DUP2 MSTORE PUSH1 0x20 ADD PUSH32 0x4900000000000000000000000000000000000000000000000000000000000000 DUP2 MSTORE POP DUP2 MSTORE POP PUSH1 0x2 SWAP1 PUSH1 0xD PUSH2 0x3CB SWAP3 SWAP2 SWAP1 PUSH2 0x42E JUMP JUMPDEST POP CALLVALUE DUP1 ISZERO PUSH2 0x3D7 JUMPI PUSH0 PUSH0 REVERT JUMPDEST POP PUSH2 0x80C JUMP JUMPDEST DUP3 DUP1 SLOAD DUP3 DUP3 SSTORE SWAP1 PUSH0 MSTORE PUSH1 0x20 PUSH0 KECCAK256 SWAP1 DUP2 ADD SWAP3 DUP3 ISZERO PUSH2 0x41D JUMPI SWAP2 PUSH1 0x20 MUL DUP3 ADD JUMPDEST DUP3 DUP2 GT ISZERO PUSH2 0x41C JUMPI DUP3 MLOAD DUP3 SWAP1 PUSH2 0xFFFF AND SWAP1 SSTORE SWAP2 PUSH1 0x20 ADD SWAP2 SWAP1 PUSH1 0x1 ADD SWAP1 PUSH2 0x3FB JUMP JUMPDEST JUMPDEST POP SWAP1 POP PUSH2 0x42A SWAP2 SWAP1 PUSH2 0x485 JUMP JUMPDEST POP SWAP1 JUMP JUMPDEST DUP3 DUP1 SLOAD DUP3 DUP3 SSTORE SWAP1 PUSH0 MSTORE PUSH1 0x20 PUSH0 KECCAK256 SWAP1 DUP2 ADD SWAP3 DUP3 ISZERO PUSH2 0x474 JUMPI SWAP2 PUSH1 0x20 MUL DUP3 ADD JUMPDEST DUP3 DUP2 GT ISZERO PUSH2 0x473 JUMPI DUP3 MLOAD DUP3 SWAP1 DUP2 PUSH2 0x463 SWAP2 SWAP1 PUSH2 0x73D JUMP JUMPDEST POP SWAP2 PUSH1 0x20 ADD SWAP2 SWAP1 PUSH1 0x1 ADD SWAP1 PUSH2 0x44C JUMP JUMPDEST JUMPDEST POP SWAP1 POP PUSH2 0x481 SWAP2 SWAP1 PUSH2 0x4A0 JUMP JUMPDEST POP SWAP1 JUMP JUMPDEST JUMPDEST DUP1 DUP3 GT ISZERO PUSH2 0x49C JUMPI PUSH0 DUP2 PUSH0 SWAP1 SSTORE POP PUSH1 0x1 ADD PUSH2 0x486 JUMP JUMPDEST POP SWAP1 JUMP JUMPDEST JUMPDEST DUP1 DUP3 GT ISZERO PUSH2 0x4BF JUMPI PUSH0 DUP2 DUP2 PUSH2 0x4B6 SWAP2 SWAP1 PUSH2 0x4C3 JUMP JUMPDEST POP PUSH1 0x1 ADD PUSH2 0x4A1 JUMP JUMPDEST POP SWAP1 JUMP JUMPDEST POP DUP1 SLOAD PUSH2 0x4CF SWAP1 PUSH2 0x564 JUMP JUMPDEST PUSH0 DUP3 SSTORE DUP1 PUSH1 0x1F LT PUSH2 0x4E0 JUMPI POP PUSH2 0x4FD JUMP JUMPDEST PUSH1 0x1F ADD PUSH1 0x20 SWAP1 DIV SWAP1 PUSH0 MSTORE PUSH1 0x20 PUSH0 KECCAK256 SWAP1 DUP2 ADD SWAP1 PUSH2 0x4FC SWAP2 SWAP1 PUSH2 0x485 JUMP JUMPDEST JUMPDEST POP JUMP JUMPDEST PUSH0 DUP2 MLOAD SWAP1 POP SWAP2 SWAP1 POP JUMP JUMPDEST PUSH32 0x4E487B7100000000000000000000000000000000000000000000000000000000 PUSH0 MSTORE PUSH1 0x41 PUSH1 0x4 MSTORE PUSH1 0x24 PUSH0 REVERT JUMPDEST PUSH32 0x4E487B7100000000000000000000000000000000000000000000000000000000 PUSH0 MSTORE PUSH1 0x22 PUSH1 0x4 MSTORE PUSH1 0x24 PUSH0 REVERT JUMPDEST PUSH0 PUSH1 0x2 DUP3 DIV SWAP1 POP PUSH1 0x1 DUP3 AND DUP1 PUSH2 0x57B JUMPI PUSH1 0x7F DUP3 AND SWAP2 POP JUMPDEST PUSH1 0x20 DUP3 LT DUP2 SUB PUSH2 0x58E JUMPI PUSH2 0x58D PUSH2 0x537 JUMP JUMPDEST JUMPDEST POP SWAP2 SWAP1 POP JUMP JUMPDEST PUSH0 DUP2 SWAP1 POP DUP2 PUSH0 MSTORE PUSH1 0x20 PUSH0 KECCAK256 SWAP1 POP SWAP2 SWAP1 POP JUMP JUMPDEST PUSH0 PUSH1 0x20 PUSH1 0x1F DUP4 ADD DIV SWAP1 POP SWAP2 SWAP1 POP JUMP JUMPDEST PUSH0 DUP3 DUP3 SHL SWAP1 POP SWAP3 SWAP2 POP POP JUMP JUMPDEST PUSH0 PUSH1 0x8 DUP4 MUL PUSH2 0x5F0 PUSH32 0xFFFFFFFFFFFFFFFFFFFFFFFFFFFFFFFFFFFFFFFFFFFFFFFFFFFFFFFFFFFFFFFF DUP3 PUSH2 0x5B5 JUMP JUMPDEST PUSH2 0x5FA DUP7 DUP4 PUSH2 0x5B5 JUMP JUMPDEST SWAP6 POP DUP1 NOT DUP5 AND SWAP4 POP DUP1 DUP7 AND DUP5 OR SWAP3 POP POP POP SWAP4 SWAP3 POP POP POP JUMP JUMPDEST PUSH0 DUP2 SWAP1 POP SWAP2 SWAP1 POP JUMP JUMPDEST PUSH0 DUP2 SWAP1 POP SWAP2 SWAP1 POP JUMP JUMPDEST PUSH0 PUSH2 0x63E PUSH2 0x639 PUSH2 0x634 DUP5 PUSH2 0x612 JUMP JUMPDEST PUSH2 0x61B JUMP JUMPDEST PUSH2 0x612 JUMP JUMPDEST SWAP1 POP SWAP2 SWAP1 POP JUMP JUMPDEST PUSH0 DUP2 SWAP1 POP SWAP2 SWAP1 POP JUMP JUMPDEST PUSH2 0x657 DUP4 PUSH2 0x624 JUMP JUMPDEST PUSH2 0x66B PUSH2 0x663 DUP3 PUSH2 0x645 JUMP JUMPDEST DUP5 DUP5 SLOAD PUSH2 0x5C1 JUMP JUMPDEST DUP3 SSTORE POP POP POP POP JUMP JUMPDEST PUSH0 PUSH0 SWAP1 POP SWAP1 JUMP JUMPDEST PUSH2 0x682 PUSH2 0x673 JUMP JUMPDEST PUSH2 0x68D DUP2 DUP5 DUP5 PUSH2 0x64E JUMP JUMPDEST POP POP POP JUMP JUMPDEST JUMPDEST DUP2 DUP2 LT ISZERO PUSH2 0x6B0 JUMPI PUSH2 0x6A5 PUSH0 DUP3 PUSH2 0x67A JUMP JUMPDEST PUSH1 0x1 DUP2 ADD SWAP1 POP PUSH2 0x693 JUMP JUMPDEST POP POP JUMP JUMPDEST PUSH1 0x1F DUP3 GT ISZERO PUSH2 0x6F5 JUMPI PUSH2 0x6C6 DUP2 PUSH2 0x594 JUMP JUMPDEST PUSH2 0x6CF DUP5 PUSH2 0x5A6 JUMP JUMPDEST DUP2 ADD PUSH1 0x20 DUP6 LT ISZERO PUSH2 0x6DE JUMPI DUP2 SWAP1 POP JUMPDEST PUSH2 0x6F2 PUSH2 0x6EA DUP6 PUSH2 0x5A6 JUMP JUMPDEST DUP4 ADD DUP3 PUSH2 0x692 JUMP JUMPDEST POP POP JUMPDEST POP POP POP JUMP JUMPDEST PUSH0 DUP3 DUP3 SHR SWAP1 POP SWAP3 SWAP2 POP POP JUMP JUMPDEST PUSH0 PUSH2 0x715 PUSH0 NOT DUP5 PUSH1 0x8 MUL PUSH2 0x6FA JUMP JUMPDEST NOT DUP1 DUP4 AND SWAP2 POP POP SWAP3 SWAP2 POP POP JUMP JUMPDEST PUSH0 PUSH2 0x72D DUP4 DUP4 PUSH2 0x706 JUMP JUMPDEST SWAP2 POP DUP3 PUSH1 0x2 MUL DUP3 OR SWAP1 POP SWAP3 SWAP2 POP POP JUMP JUMPDEST PUSH2 0x746 DUP3 PUSH2 0x500 JUMP JUMPDEST PUSH8 0xFFFFFFFFFFFFFFFF DUP2 GT ISZERO PUSH2 0x75F JUMPI PUSH2 0x75E PUSH2 0x50A JUMP JUMPDEST JUMPDEST PUSH2 0x769 DUP3 SLOAD PUSH2 0x564 JUMP JUMPDEST PUSH2 0x774 DUP3 DUP3 DUP6 PUSH2 0x6B4 JUMP JUMPDEST PUSH0 PUSH1 0x20 SWAP1 POP PUSH1 0x1F DUP4 GT PUSH1 0x1 DUP2 EQ PUSH2 0x7A5 JUMPI PUSH0 DUP5 ISZERO PUSH2 0x793 JUMPI DUP3 DUP8 ADD MLOAD SWAP1 POP JUMPDEST PUSH2 0x79D DUP6 DUP3 PUSH2 0x722 JUMP JUMPDEST DUP7 SSTORE POP PUSH2 0x804 JUMP JUMPDEST PUSH1 0x1F NOT DUP5 AND PUSH2 0x7B3 DUP7 PUSH2 0x594 JUMP JUMPDEST PUSH0 JUMPDEST DUP3 DUP2 LT ISZERO PUSH2 0x7DA JUMPI DUP5 DUP10 ADD MLOAD DUP3 SSTORE PUSH1 0x1 DUP3 ADD SWAP2 POP PUSH1 0x20 DUP6 ADD SWAP5 POP PUSH1 0x20 DUP2 ADD SWAP1 POP PUSH2 0x7B5 JUMP JUMPDEST DUP7 DUP4 LT ISZERO PUSH2 0x7F7 JUMPI DUP5 DUP10 ADD MLOAD PUSH2 0x7F3 PUSH1 0x1F DUP10 AND DUP3 PUSH2 0x706 JUMP JUMPDEST DUP4 SSTORE POP JUMPDEST PUSH1 0x1 PUSH1 0x2 DUP9 MUL ADD DUP9 SSTORE POP POP POP JUMPDEST POP POP POP POP POP POP JUMP JUMPDEST PUSH2 0x68A DUP1 PUSH2 0x819 PUSH0 CODECOPY PUSH0 RETURN INVALID PUSH1 0x80 PUSH1 0x40 MSTORE CALLVALUE DUP1 ISZERO PUSH2 0xF JUMPI PUSH0 PUSH0 REVERT JUMPDEST POP PUSH1 0x4 CALLDATASIZE LT PUSH2 0x34 JUMPI PUSH0 CALLDATALOAD PUSH1 0xE0 SHR DUP1 PUSH4 0x37463A1A EQ PUSH2 0x38 JUMPI DUP1 PUSH4 0xE9DC96AD EQ PUSH2 0x68 JUMPI JUMPDEST PUSH0 PUSH0 REVERT JUMPDEST PUSH2 0x52 PUSH1 0x4 DUP1 CALLDATASIZE SUB DUP2 ADD SWAP1 PUSH2 0x4D SWAP2 SWAP1 PUSH2 0x2E1 JUMP JUMPDEST PUSH2 0x99 JUMP JUMPDEST PUSH1 0x40 MLOAD PUSH2 0x5F SWAP2 SWAP1 PUSH2 0x37C JUMP JUMPDEST PUSH1 0x40 MLOAD DUP1 SWAP2 SUB SWAP1 RETURN JUMPDEST PUSH2 0x82 PUSH1 0x4 DUP1 CALLDATASIZE SUB DUP2 ADD SWAP1 PUSH2 0x7D SWAP2 SWAP1 PUSH2 0x2E1 JUMP JUMPDEST PUSH2 0x1F6 JUMP JUMPDEST PUSH1 0x40 MLOAD PUSH2 0x90 SWAP3 SWAP2 SWAP1 PUSH2 0x3AB JUMP JUMPDEST PUSH1 0x40 MLOAD DUP1 SWAP2 SUB SWAP1 RETURN JUMPDEST PUSH1 0x60 PUSH0 DUP3 GT DUP1 ISZERO PUSH2 0xAB JUMPI POP PUSH2 0xFA0 DUP3 LT JUMPDEST PUSH2 0xEA JUMPI PUSH1 0x40 MLOAD PUSH32 0x8C379A000000000000000000000000000000000000000000000000000000000 DUP2 MSTORE PUSH1 0x4 ADD PUSH2 0xE1 SWAP1 PUSH2 0x449 JUMP JUMPDEST PUSH1 0x40 MLOAD DUP1 SWAP2 SUB SWAP1 REVERT JUMPDEST PUSH0 DUP3 GT DUP1 ISZERO PUSH2 0xFA JUMPI POP PUSH2 0xFA0 DUP3 LT JUMPDEST PUSH2 0x139 JUMPI PUSH1 0x40 MLOAD PUSH32 0x8C379A000000000000000000000000000000000000000000000000000000000 DUP2 MSTORE PUSH1 0x4 ADD PUSH2 0x130 SWAP1 PUSH2 0x449 JUMP JUMPDEST PUSH1 0x40 MLOAD DUP1 SWAP2 SUB SWAP1 REVERT JUMPDEST PUSH1 0x60 PUSH0 PUSH0 SWAP1 POP JUMPDEST PUSH1 0x1 DUP1 SLOAD SWAP1 POP DUP2 LT ISZERO PUSH2 0x1EC JUMPI JUMPDEST PUSH1 0x1 DUP2 DUP2 SLOAD DUP2 LT PUSH2 0x162 JUMPI PUSH2 0x161 PUSH2 0x467 JUMP JUMPDEST JUMPDEST SWAP1 PUSH0 MSTORE PUSH1 0x20 PUSH0 KECCAK256 ADD SLOAD DUP5 LT PUSH2 0x1DF JUMPI DUP2 PUSH1 0x2 DUP3 DUP2 SLOAD DUP2 LT PUSH2 0x186 JUMPI PUSH2 0x185 PUSH2 0x467 JUMP JUMPDEST JUMPDEST SWAP1 PUSH0 MSTORE PUSH1 0x20 PUSH0 KECCAK256 ADD PUSH1 0x40 MLOAD PUSH1 0x20 ADD PUSH2 0x19F SWAP3 SWAP2 SWAP1 PUSH2 0x5D1 JUMP JUMPDEST PUSH1 0x40 MLOAD PUSH1 0x20 DUP2 DUP4 SUB SUB DUP2 MSTORE SWAP1 PUSH1 0x40 MSTORE SWAP2 POP PUSH1 0x1 DUP2 DUP2 SLOAD DUP2 LT PUSH2 0x1C4 JUMPI PUSH2 0x1C3 PUSH2 0x467 JUMP JUMPDEST JUMPDEST SWAP1 PUSH0 MSTORE PUSH1 0x20 PUSH0 KECCAK256 ADD SLOAD DUP5 PUSH2 0x1D8 SWAP2 SWAP1 PUSH2 0x621 JUMP JUMPDEST SWAP4 POP PUSH2 0x14E JUMP JUMPDEST DUP1 DUP1 PUSH1 0x1 ADD SWAP2 POP POP PUSH2 0x140 JUMP JUMPDEST POP DUP1 SWAP2 POP POP SWAP2 SWAP1 POP JUMP JUMPDEST PUSH0 DUP2 DUP2 SLOAD DUP2 LT PUSH2 0x204 JUMPI PUSH0 DUP1 REVERT JUMPDEST SWAP1 PUSH0 MSTORE PUSH1 0x20 PUSH0 KECCAK256 SWAP1 PUSH1 0x2 MUL ADD PUSH0 SWAP2 POP SWAP1 POP DUP1 PUSH0 ADD SLOAD SWAP1 DUP1 PUSH1 0x1 ADD DUP1 SLOAD PUSH2 0x229 SWAP1 PUSH2 0x505 JUMP JUMPDEST DUP1 PUSH1 0x1F ADD PUSH1 0x20 DUP1 SWAP2 DIV MUL PUSH1 0x20 ADD PUSH1 0x40 MLOAD SWAP1 DUP2 ADD PUSH1 0x40 MSTORE DUP1 SWAP3 SWAP2 SWAP1 DUP2 DUP2 MSTORE PUSH1 0x20 ADD DUP3 DUP1 SLOAD PUSH2 0x255 SWAP1 PUSH2 0x505 JUMP JUMPDEST DUP1 ISZERO PUSH2 0x2A0 JUMPI DUP1 PUSH1 0x1F LT PUSH2 0x277 JUMPI PUSH2 0x100 DUP1 DUP4 SLOAD DIV MUL DUP4 MSTORE SWAP2 PUSH1 0x20 ADD SWAP2 PUSH2 0x2A0 JUMP JUMPDEST DUP3 ADD SWAP2 SWAP1 PUSH0 MSTORE PUSH1 0x20 PUSH0 KECCAK256 SWAP1 JUMPDEST DUP2 SLOAD DUP2 MSTORE SWAP1 PUSH1 0x1 ADD SWAP1 PUSH1 0x20 ADD DUP1 DUP4 GT PUSH2 0x283 JUMPI DUP3 SWAP1 SUB PUSH1 0x1F AND DUP3 ADD SWAP2 JUMPDEST POP POP POP POP POP SWAP1 POP DUP3 JUMP JUMPDEST PUSH0 PUSH0 REVERT JUMPDEST PUSH0 DUP2 SWAP1 POP SWAP2 SWAP1 POP JUMP JUMPDEST PUSH2 0x2C0 DUP2 PUSH2 0x2AE JUMP JUMPDEST DUP2 EQ PUSH2 0x2CA JUMPI PUSH0 PUSH0 REVERT JUMPDEST POP JUMP JUMPDEST PUSH0 DUP2 CALLDATALOAD SWAP1 POP PUSH2 0x2DB DUP2 PUSH2 0x2B7 JUMP JUMPDEST SWAP3 SWAP2 POP POP JUMP JUMPDEST PUSH0 PUSH1 0x20 DUP3 DUP5 SUB SLT ISZERO PUSH2 0x2F6 JUMPI PUSH2 0x2F5 PUSH2 0x2AA JUMP JUMPDEST JUMPDEST PUSH0 PUSH2 0x303 DUP5 DUP3 DUP6 ADD PUSH2 0x2CD JUMP JUMPDEST SWAP2 POP POP SWAP3 SWAP2 POP POP JUMP JUMPDEST PUSH0 DUP2 MLOAD SWAP1 POP SWAP2 SWAP1 POP JUMP JUMPDEST PUSH0 DUP3 DUP3 MSTORE PUSH1 0x20 DUP3 ADD SWAP1 POP SWAP3 SWAP2 POP POP JUMP JUMPDEST DUP3 DUP2 DUP4 MCOPY PUSH0 DUP4 DUP4 ADD MSTORE POP POP POP JUMP JUMPDEST PUSH0 PUSH1 0x1F NOT PUSH1 0x1F DUP4 ADD AND SWAP1 POP SWAP2 SWAP1 POP JUMP JUMPDEST PUSH0 PUSH2 0x34E DUP3 PUSH2 0x30C JUMP JUMPDEST PUSH2 0x358 DUP2 DUP6 PUSH2 0x316 JUMP JUMPDEST SWAP4 POP PUSH2 0x368 DUP2 DUP6 PUSH1 0x20 DUP7 ADD PUSH2 0x326 JUMP JUMPDEST PUSH2 0x371 DUP2 PUSH2 0x334 JUMP JUMPDEST DUP5 ADD SWAP2 POP POP SWAP3 SWAP2 POP POP JUMP JUMPDEST PUSH0 PUSH1 0x20 DUP3 ADD SWAP1 POP DUP2 DUP2 SUB PUSH0 DUP4 ADD MSTORE PUSH2 0x394 DUP2 DUP5 PUSH2 0x344 JUMP JUMPDEST SWAP1 POP SWAP3 SWAP2 POP POP JUMP JUMPDEST PUSH2 0x3A5 DUP2 PUSH2 0x2AE JUMP JUMPDEST DUP3 MSTORE POP POP JUMP JUMPDEST PUSH0 PUSH1 0x40 DUP3 ADD SWAP1 POP PUSH2 0x3BE PUSH0 DUP4 ADD DUP6 PUSH2 0x39C JUMP JUMPDEST DUP2 DUP2 SUB PUSH1 0x20 DUP4 ADD MSTORE PUSH2 0x3D0 DUP2 DUP5 PUSH2 0x344 JUMP JUMPDEST SWAP1 POP SWAP4 SWAP3 POP POP POP JUMP JUMPDEST PUSH32 0x4E756D626572206D757374206265206265747765656E203120616E6420333939 PUSH0 DUP3 ADD MSTORE PUSH32 0x3900000000000000000000000000000000000000000000000000000000000000 PUSH1 0x20 DUP3 ADD MSTORE POP JUMP JUMPDEST PUSH0 PUSH2 0x433 PUSH1 0x21 DUP4 PUSH2 0x316 JUMP JUMPDEST SWAP2 POP PUSH2 0x43E DUP3 PUSH2 0x3D9 JUMP JUMPDEST PUSH1 0x40 DUP3 ADD SWAP1 POP SWAP2 SWAP1 POP JUMP JUMPDEST PUSH0 PUSH1 0x20 DUP3 ADD SWAP1 POP DUP2 DUP2 SUB PUSH0 DUP4 ADD MSTORE PUSH2 0x460 DUP2 PUSH2 0x427 JUMP JUMPDEST SWAP1 POP SWAP2 SWAP1 POP JUMP JUMPDEST PUSH32 0x4E487B7100000000000000000000000000000000000000000000000000000000 PUSH0 MSTORE PUSH1 0x32 PUSH1 0x4 MSTORE PUSH1 0x24 PUSH0 REVERT JUMPDEST PUSH0 DUP2 MLOAD SWAP1 POP SWAP2 SWAP1 POP JUMP JUMPDEST PUSH0 DUP2 SWAP1 POP SWAP3 SWAP2 POP POP JUMP JUMPDEST PUSH0 PUSH2 0x4B2 DUP3 PUSH2 0x494 JUMP JUMPDEST PUSH2 0x4BC DUP2 DUP6 PUSH2 0x49E JUMP JUMPDEST SWAP4 POP PUSH2 0x4CC DUP2 DUP6 PUSH1 0x20 DUP7 ADD PUSH2 0x326 JUMP JUMPDEST DUP1 DUP5 ADD SWAP2 POP POP SWAP3 SWAP2 POP POP JUMP JUMPDEST PUSH32 0x4E487B7100000000000000000000000000000000000000000000000000000000 PUSH0 MSTORE PUSH1 0x22 PUSH1 0x4 MSTORE PUSH1 0x24 PUSH0 REVERT JUMPDEST PUSH0 PUSH1 0x2 DUP3 DIV SWAP1 POP PUSH1 0x1 DUP3 AND DUP1 PUSH2 0x51C JUMPI PUSH1 0x7F DUP3 AND SWAP2 POP JUMPDEST PUSH1 0x20 DUP3 LT DUP2 SUB PUSH2 0x52F JUMPI PUSH2 0x52E PUSH2 0x4D8 JUMP JUMPDEST JUMPDEST POP SWAP2 SWAP1 POP JUMP JUMPDEST PUSH0 DUP2 SWAP1 POP SWAP3 SWAP2 POP POP JUMP JUMPDEST PUSH0 DUP2 SWAP1 POP DUP2 PUSH0 MSTORE PUSH1 0x20 PUSH0 KECCAK256 SWAP1 POP SWAP2 SWAP1 POP JUMP JUMPDEST PUSH0 DUP2 SLOAD PUSH2 0x55D DUP2 PUSH2 0x505 JUMP JUMPDEST PUSH2 0x567 DUP2 DUP7 PUSH2 0x535 JUMP JUMPDEST SWAP5 POP PUSH1 0x1 DUP3 AND PUSH0 DUP2 EQ PUSH2 0x581 JUMPI PUSH1 0x1 DUP2 EQ PUSH2 0x596 JUMPI PUSH2 0x5C8 JUMP JUMPDEST PUSH1 0xFF NOT DUP4 AND DUP7 MSTORE DUP2 ISZERO ISZERO DUP3 MUL DUP7 ADD SWAP4 POP PUSH2 0x5C8 JUMP JUMPDEST PUSH2 0x59F DUP6 PUSH2 0x53F JUMP JUMPDEST PUSH0 JUMPDEST DUP4 DUP2 LT ISZERO PUSH2 0x5C0 JUMPI DUP2 SLOAD DUP2 DUP10 ADD MSTORE PUSH1 0x1 DUP3 ADD SWAP2 POP PUSH1 0x20 DUP2 ADD SWAP1 POP PUSH2 0x5A1 JUMP JUMPDEST DUP4 DUP9 ADD SWAP6 POP POP POP JUMPDEST POP POP POP SWAP3 SWAP2 POP POP JUMP JUMPDEST PUSH0 PUSH2 0x5DC DUP3 DUP6 PUSH2 0x4A8 JUMP JUMPDEST SWAP2 POP PUSH2 0x5E8 DUP3 DUP5 PUSH2 0x551 JUMP JUMPDEST SWAP2 POP DUP2 SWAP1 POP SWAP4 SWAP3 POP POP POP JUMP JUMPDEST PUSH32 0x4E487B7100000000000000000000000000000000000000000000000000000000 PUSH0 MSTORE PUSH1 0x11 PUSH1 0x4 MSTORE PUSH1 0x24 PUSH0 REVERT JUMPDEST PUSH0 PUSH2 0x62B DUP3 PUSH2 0x2AE JUMP JUMPDEST SWAP2 POP PUSH2 0x636 DUP4 PUSH2 0x2AE JUMP JUMPDEST SWAP3 POP DUP3 DUP3 SUB SWAP1 POP DUP2 DUP2 GT ISZERO PUSH2 0x64E JUMPI PUSH2 0x64D PUSH2 0x5F4 JUMP JUMPDEST JUMPDEST SWAP3 SWAP2 POP POP JUMP INVALID LOG2 PUSH5 0x6970667358 0x22 SLT KECCAK256 CALLCODE LOG1 0xC5 0xD5 PUSH10 0xA3683FF83FC72EE0C9E0 SHR PUSH8 0x972AB515AFC490D8 PUSH28 0x9A989474A58864736F6C634300081E00330000000000000000000000 "
				},
				"gasEstimates": {
					"creation": {
						"codeDepositCost": "334800",
						"executionCost": "infinite",
						"totalCost": "infinite"
					},
					"external": {
						"int2Roman(uint256)": "infinite",
						"valueSymbols(uint256)": "infinite"
					}
				},
				"methodIdentifiers": {
					"int2Roman(uint256)": "37463a1a",
					"valueSymbols(uint256)": "e9dc96ad"
				}
			},
			"storageLayout": {
				"storage": [
					{
						"astId": 10,
						"contract": "int2roman.sol:Int2Roman",
						"label": "valueSymbols",
						"offset": 0,
						"slot": "0",
						"type": "t_array(t_struct(ValueSymbols)6_storage)dyn_storage"
					},
					{
						"astId": 27,
						"contract": "int2roman.sol:Int2Roman",
						"label": "values",
						"offset": 0,
						"slot": "1",
						"type": "t_array(t_uint256)dyn_storage"
					},
					{
						"astId": 44,
						"contract": "int2roman.sol:Int2Roman",
						"label": "symbols",
						"offset": 0,
						"slot": "2",
						"type": "t_array(t_string_storage)dyn_storage"
					}
				],
				"types": {
					"t_array(t_string_storage)dyn_storage": {
						"base": "t_string_storage",
						"encoding": "dynamic_array",
						"label": "string[]",
						"numberOfBytes": "32"
					},
					"t_array(t_struct(ValueSymbols)6_storage)dyn_storage": {
						"base": "t_struct(ValueSymbols)6_storage",
						"encoding": "dynamic_array",
						"label": "struct Int2Roman.ValueSymbols[]",
						"numberOfBytes": "32"
					},
					"t_array(t_uint256)dyn_storage": {
						"base": "t_uint256",
						"encoding": "dynamic_array",
						"label": "uint256[]",
						"numberOfBytes": "32"
					},
					"t_string_storage": {
						"encoding": "bytes",
						"label": "string",
						"numberOfBytes": "32"
					},
					"t_struct(ValueSymbols)6_storage": {
						"encoding": "inplace",
						"label": "struct Int2Roman.ValueSymbols",
						"members": [
							{
								"astId": 3,
								"contract": "int2roman.sol:Int2Roman",
								"label": "value",
								"offset": 0,
								"slot": "0",
								"type": "t_uint256"
							},
							{
								"astId": 5,
								"contract": "int2roman.sol:Int2Roman",
								"label": "symbol",
								"offset": 0,
								"slot": "1",
								"type": "t_string_storage"
							}
						],
						"numberOfBytes": "64"
					},
					"t_uint256": {
						"encoding": "inplace",
						"label": "uint256",
						"numberOfBytes": "32"
					}
				}
			},
			"userdoc": {
				"kind": "user",
				"methods": {},
				"version": 1
			}
		}
	}
}