{
	"data": {
		"bytecode": {
			"linkReferences": {},
			"object": "6080604052348015600e575f5ffd5b506105e48061001c5f395ff3fe608060405234801561000f575f5ffd5b5060043610610029575f3560e01c8063e65eac981461002d575b5f5ffd5b6100476004803603810190610042919061039b565b61005d565b6040516100549190610436565b60405180910390f35b60606100688261006f565b9050919050565b60606100868260016100808561008d565b0161011b565b9050919050565b5f60076100ab6fffffffffffffffffffffffffffffffff8411610359565b901b905060066100c767ffffffffffffffff8385901c11610359565b901b8117905060056100e163ffffffff8385901c11610359565b901b8117905060046100f961ffff8385901c11610359565b901b8117905061010e60ff8284901c11610359565b600382901c179050919050565b60605f8390505f60028460026101319190610483565b61013b91906104c4565b67ffffffffffffffff811115610154576101536104f7565b5b6040519080825280601f01601f1916602001820160405280156101865781602001600182028036833780820191505090505b5090507f3000000000000000000000000000000000000000000000000000000000000000815f815181106101bd576101bc610524565b5b60200101907effffffffffffffffffffffffffffffffffffffffffffffffffffffffffffff191690815f1a9053507f7800000000000000000000000000000000000000000000000000000000000000816001815181106102205761021f610524565b5b60200101907effffffffffffffffffffffffffffffffffffffffffffffffffffffffffffff191690815f1a9053505f600185600261025e9190610483565b61026891906104c4565b90505b6001811115610307577f3031323334353637383961626364656600000000000000000000000000000000600f8416601081106102aa576102a9610524565b5b1a60f81b8282815181106102c1576102c0610524565b5b60200101907effffffffffffffffffffffffffffffffffffffffffffffffffffffffffffff191690815f1a905350600483901c92508061030090610551565b905061026b565b505f821461034e5784846040517fe22e27eb000000000000000000000000000000000000000000000000000000008152600401610345929190610587565b60405180910390fd5b809250505092915050565b5f8115159050919050565b5f5ffd5b5f819050919050565b61037a81610368565b8114610384575f5ffd5b50565b5f8135905061039581610371565b92915050565b5f602082840312156103b0576103af610364565b5b5f6103bd84828501610387565b91505092915050565b5f81519050919050565b5f82825260208201905092915050565b8281835e5f83830152505050565b5f601f19601f8301169050919050565b5f610408826103c6565b61041281856103d0565b93506104228185602086016103e0565b61042b816103ee565b840191505092915050565b5f6020820190508181035f83015261044e81846103fe565b905092915050565b7f4e487b71000000000000000000000000000000000000000000000000000000005f52601160045260245ffd5b5f61048d82610368565b915061049883610368565b92508282026104a681610368565b915082820484148315176104bd576104bc610456565b5b5092915050565b5f6104ce82610368565b91506104d983610368565b92508282019050808211156104f1576104f0610456565b5b92915050565b7f4e487b71000000000000000000000000000000000000000000000000000000005f52604160045260245ffd5b7f4e487b71000000000000000000000000000000000000000000000000000000005f52603260045260245ffd5b5f61055b82610368565b91505f820361056d5761056c610456565b5b600182039050919050565b61058181610368565b82525050565b5f60408201905061059a5f830185610578565b6105a76020830184610578565b939250505056fea2646970667358221220d6fec540f1a13dccb5d3dff64b7b972adc6a5b7f60bdfdeb79102f45bdb998bb64736f6c634300081e0033",
			"opcodes": "PUSH1 0x80 PUSH1 0x40 MSTORE CALLVALUE DUP1 ISZERO PUSH1 0xE JUMPI PUSH0 PUSH0 REVERT JUMPDEST POP PUSH2 0x5E4 DUP1 PUSH2 0x1C PUSH0 CODECOPY PUSH0 RETURN INVALID PUSH1 0x80 PUSH1 0x40 MSTORE CALLVALUE DUP1 ISZERO PUSH2 0xF JUMPI PUSH0 PUSH0 REVERT JUMPDEST POP PUSH1 0x4 CALLDATASIZE LT PUSH2 0x29 JUMPI PUSH0 CALLDATALOAD PUSH1 0xE0 SHR DUP1 PUSH4 0xE65EAC98 EQ PUSH2 0x2D JUMPI JUMPDEST PUSH0 PUSH0 REVERT JUMPDEST PUSH2 0x47 PUSH1 0x4 DUP1 CALLDATASIZE SUB DUP2 ADD SWAP1 PUSH2 0x42 SWAP2 SWAP1 PUSH2 0x39B JUMP JUMPDEST PUSH2 0x5D JUMP JUMPDEST PUSH1 0x40 MLOAD PUSH2 0x54 SWAP2 SWAP1 PUSH2 0x436 JUMP JUMPDEST PUSH1 0x40 MLOAD DUP1 SWAP2 SUB SWAP1 RETURN JUMPDEST PUSH1 0x60 PUSH2 0x68 DUP3 PUSH2 0x6F JUMP JUMPDEST SWAP1 POP SWAP2 SWAP1 POP JUMP JUMPDEST PUSH1 0x60 PUSH2 0x86 DUP3 PUSH1 0x1 PUSH2 0x80 DUP6 PUSH2 0x8D JUMP JUMPDEST ADD PUSH2 0x11B JUMP JUMPDEST SWAP1 POP SWAP2 SWAP1 POP JUMP JUMPDEST PUSH0 PUSH1 0x7 PUSH2 0xAB PUSH16 0xFFFFFFFFFFFFFFFFFFFFFFFFFFFFFFFF DUP5 GT PUSH2 0x359 JUMP JUMPDEST SWAP1 SHL SWAP1 POP PUSH1 0x6 PUSH2 0xC7 PUSH8 0xFFFFFFFFFFFFFFFF DUP4 DUP6 SWAP1 SHR GT PUSH2 0x359 JUMP JUMPDEST SWAP1 SHL DUP2 OR SWAP1 POP PUSH1 0x5 PUSH2 0xE1 PUSH4 0xFFFFFFFF DUP4 DUP6 SWAP1 SHR GT PUSH2 0x359 JUMP JUMPDEST SWAP1 SHL DUP2 OR SWAP1 POP PUSH1 0x4 PUSH2 0xF9 PUSH2 0xFFFF DUP4 DUP6 SWAP1 SHR GT PUSH2 0x359 JUMP JUMPDEST SWAP1 SHL DUP2 OR SWAP1 POP PUSH2 0x10E PUSH1 0xFF DUP3 DUP5 SWAP1 SHR GT PUSH2 0x359 JUMP JUMPDEST PUSH1 0x3 DUP3 SWAP1 SHR OR SWAP1 POP SWAP2 SWAP1 POP JUMP JUMPDEST PUSH1 0x60 PUSH0 DUP4 SWAP1 POP PUSH0 PUSH1 0x2 DUP5 PUSH1 0x2 PUSH2 0x131 SWAP2 SWAP1 PUSH2 0x483 JUMP JUMPDEST PUSH2 0x13B SWAP2 SWAP1 PUSH2 0x4C4 JUMP JUMPDEST PUSH8 0xFFFFFFFFFFFFFFFF DUP2 GT ISZERO PUSH2 0x154 JUMPI PUSH2 0x153 PUSH2 0x4F7 JUMP JUMPDEST JUMPDEST PUSH1 0x40 MLOAD SWAP1 DUP1 DUP3 MSTORE DUP1 PUSH1 0x1F ADD PUSH1 0x1F NOT AND PUSH1 0x20 ADD DUP3 ADD PUSH1 0x40 MSTORE DUP1 ISZERO PUSH2 0x186 JUMPI DUP2 PUSH1 0x20 ADD PUSH1 0x1 DUP3 MUL DUP1 CALLDATASIZE DUP4 CALLDATACOPY DUP1 DUP3 ADD SWAP2 POP POP SWAP1 POP JUMPDEST POP SWAP1 POP PUSH32 0x3000000000000000000000000000000000000000000000000000000000000000 DUP2 PUSH0 DUP2 MLOAD DUP2 LT PUSH2 0x1BD JUMPI PUSH2 0x1BC PUSH2 0x524 JUMP JUMPDEST JUMPDEST PUSH1 0x20 ADD ADD SWAP1 PUSH31 0xFFFFFFFFFFFFFFFFFFFFFFFFFFFFFFFFFFFFFFFFFFFFFFFFFFFFFFFFFFFFFF NOT AND SWAP1 DUP2 PUSH0 BYTE SWAP1 MSTORE8 POP PUSH32 0x7800000000000000000000000000000000000000000000000000000000000000 DUP2 PUSH1 0x1 DUP2 MLOAD DUP2 LT PUSH2 0x220 JUMPI PUSH2 0x21F PUSH2 0x524 JUMP JUMPDEST JUMPDEST PUSH1 0x20 ADD ADD SWAP1 PUSH31 0xFFFFFFFFFFFFFFFFFFFFFFFFFFFFFFFFFFFFFFFFFFFFFFFFFFFFFFFFFFFFFF NOT AND SWAP1 DUP2 PUSH0 BYTE SWAP1 MSTORE8 POP PUSH0 PUSH1 0x1 DUP6 PUSH1 0x2 PUSH2 0x25E SWAP2 SWAP1 PUSH2 0x483 JUMP JUMPDEST PUSH2 0x268 SWAP2 SWAP1 PUSH2 0x4C4 JUMP JUMPDEST SWAP1 POP JUMPDEST PUSH1 0x1 DUP2 GT ISZERO PUSH2 0x307 JUMPI PUSH32 0x3031323334353637383961626364656600000000000000000000000000000000 PUSH1 0xF DUP5 AND PUSH1 0x10 DUP2 LT PUSH2 0x2AA JUMPI PUSH2 0x2A9 PUSH2 0x524 JUMP JUMPDEST JUMPDEST BYTE PUSH1 0xF8 SHL DUP3 DUP3 DUP2 MLOAD DUP2 LT PUSH2 0x2C1 JUMPI PUSH2 0x2C0 PUSH2 0x524 JUMP JUMPDEST JUMPDEST PUSH1 0x20 ADD ADD SWAP1 PUSH31 0xFFFFFFFFFFFFFFFFFFFFFFFFFFFFFFFFFFFFFFFFFFFFFFFFFFFFFFFFFFFFFF NOT AND SWAP1 DUP2 PUSH0 BYTE SWAP1 MSTORE8 POP PUSH1 0x4 DUP4 SWAP1 SHR SWAP3 POP DUP1 PUSH2 0x300 SWAP1 PUSH2 0x551 JUMP JUMPDEST SWAP1 POP PUSH2 0x26B JUMP JUMPDEST POP PUSH0 DUP3 EQ PUSH2 0x34E JUMPI DUP5 DUP5 PUSH1 0x40 MLOAD PUSH32 0xE22E27EB00000000000000000000000000000000000000000000000000000000 DUP2 MSTORE PUSH1 0x4 ADD PUSH2 0x345 SWAP3 SWAP2 SWAP1 PUSH2 0x587 JUMP JUMPDEST PUSH1 0x40 MLOAD DUP1 SWAP2 SUB SWAP1 REVERT JUMPDEST DUP1 SWAP3 POP POP POP SWAP3 SWAP2 POP POP JUMP JUMPDEST PUSH0 DUP2 ISZERO ISZERO SWAP1 POP SWAP2 SWAP1 POP JUMP JUMPDEST PUSH0 PUSH0 REVERT JUMPDEST PUSH0 DUP2 SWAP1 POP SWAP2 SWAP1 POP JUMP JUMPDEST PUSH2 0x37A DUP2 PUSH2 0x368 JUMP JUMPDEST DUP2 EQ PUSH2 0x384 JUMPI PUSH0 PUSH0 REVERT JUMPDEST POP JUMP JUMPDEST PUSH0 DUP2 CALLDATALOAD SWAP1 POP PUSH2 0x395 DUP2 PUSH2 0x371 JUMP JUMPDEST SWAP3 SWAP2 POP POP JUMP JUMPDEST PUSH0 PUSH1 0x20 DUP3 DUP5 SUB SLT ISZERO PUSH2 0x3B0 JUMPI PUSH2 0x3AF PUSH2 0x364 JUMP JUMPDEST JUMPDEST PUSH0 PUSH2 0x3BD DUP5 DUP3 DUP6 ADD PUSH2 0x387 JUMP JUMPDEST SWAP2 POP POP SWAP3 SWAP2 POP POP JUMP JUMPDEST PUSH0 DUP2 MLOAD SWAP1 POP SWAP2 SWAP1 POP JUMP JUMPDEST PUSH0 DUP3 DUP3 MSTORE PUSH1 0x20 DUP3 ADD SWAP1 POP SWAP3 SWAP2 POP POP JUMP JUMPDEST DUP3 DUP2 DUP4 MCOPY PUSH0 DUP4 DUP4 ADD MSTORE POP POP POP JUMP JUMPDEST PUSH0 PUSH1 0x1F NOT PUSH1 0x1F DUP4 ADD AND SWAP1 POP SWAP2 SWAP1 POP JUMP JUMPDEST PUSH0 PUSH2 0x408 DUP3 PUSH2 0x3C6 JUMP JUMPDEST PUSH2 0x412 DUP2 DUP6 PUSH2 0x3D0 JUMP JUMPDEST SWAP4 POP PUSH2 0x422 DUP2 DUP6 PUSH1 0x20 DUP7 ADD PUSH2 0x3E0 JUMP JUMPDEST PUSH2 0x42B DUP2 PUSH2 0x3EE JUMP JUMPDEST DUP5 ADD SWAP2 POP POP SWAP3 SWAP2 POP POP JUMP JUMPDEST PUSH0 PUSH1 0x20 DUP3 ADD SWAP1 POP DUP2 DUP2 SUB PUSH0 DUP4 ADD MSTORE PUSH2 0x44E DUP2 DUP5 PUSH2 0x3FE JUMP JUMPDEST SWAP1 POP SWAP3 SWAP2 POP POP JUMP JUMPDEST PUSH32 0x4E487B7100000000000000000000000000000000000000000000000000000000 PUSH0 MSTORE PUSH1 0x11 PUSH1 0x4 MSTORE PUSH1 0x24 PUSH0 REVERT JUMPDEST PUSH0 PUSH2 0x48D DUP3 PUSH2 0x368 JUMP JUMPDEST SWAP2 POP PUSH2 0x498 DUP4 PUSH2 0x368 JUMP JUMPDEST SWAP3 POP DUP3 DUP3 MUL PUSH2 0x4A6 DUP2 PUSH2 0x368 JUMP JUMPDEST SWAP2 POP DUP3 DUP3 DIV DUP5 EQ DUP4 ISZERO OR PUSH2 0x4BD JUMPI PUSH2 0x4BC PUSH2 0x456 JUMP JUMPDEST JUMPDEST POP SWAP3 SWAP2 POP POP JUMP JUMPDEST PUSH0 PUSH2 0x4CE DUP3 PUSH2 0x368 JUMP JUMPDEST SWAP2 POP PUSH2 0x4D9 DUP4 PUSH2 0x368 JUMP JUMPDEST SWAP3 POP DUP3 DUP3 ADD SWAP1 POP DUP1 DUP3 GT ISZERO PUSH2 0x4F1 JUMPI PUSH2 0x4F0 PUSH2 0x456 JUMP JUMPDEST JUMPDEST SWAP3 SWAP2 POP POP JUMP JUMPDEST PUSH32 0x4E487B7100000000000000000000000000000000000000000000000000000000 PUSH0 MSTORE PUSH1 0x41 PUSH1 0x4 MSTORE PUSH1 0x24 PUSH0 REVERT JUMPDEST PUSH32 0x4E487B7100000000000000000000000000000000000000000000000000000000 PUSH0 MSTORE PUSH1 0x32 PUSH1 0x4 MSTORE PUSH1 0x24 PUSH0 REVERT JUMPDEST PUSH0 PUSH2 0x55B DUP3 PUSH2 0x368 JUMP JUMPDEST SWAP2 POP PUSH0 DUP3 SUB PUSH2 0x56D JUMPI PUSH2 0x56C PUSH2 0x456 JUMP JUMPDEST JUMPDEST PUSH1 0x1 DUP3 SUB SWAP1 POP SWAP2 SWAP1 POP JUMP JUMPDEST PUSH2 0x581 DUP2 PUSH2 0x368 JUMP JUMPDEST DUP3 MSTORE POP POP JUMP JUMPDEST PUSH0 PUSH1 0x40 DUP3 ADD SWAP1 POP PUSH2 0x59A PUSH0 DUP4 ADD DUP6 PUSH2 0x578 JUMP JUMPDEST PUSH2 0x5A7 PUSH1 0x20 DUP4 ADD DUP5 PUSH2 0x578 JUMP JUMPDEST SWAP4 SWAP3 POP POP POP JUMP INVALID LOG2 PUSH5 0x6970667358 0x22 SLT KECCAK256 0xD6 INVALID 0xC5 BLOCKHASH CALL LOG1 RETURNDATASIZE 0xCC 0xB5 0xD3 0xDF 0xF6 0x4B PUSH28 0x972ADC6A5B7F60BDFDEB79102F45BDB998BB64736F6C634300081E00 CALLER "
		},
		"gasEstimates": {
			"creation": {
				"codeDepositCost": "301600",
				"executionCost": "341",
				"totalCost": "301941"
			},
			"external": {
				"getString2(uint256)": "infinite"
			}
		},
		"methodIdentifiers": {
			"getString2(uint256)": "e65eac98"
		}
	},
	"abi": [
		{
			"inputs": [
				{
					"internalType": "uint256",
					"name": "value",
					"type": "uint256"
				},
				{
					"internalType": "uint256",
					"name": "length",
					"type": "uint256"
				}
			],
			"name": "StringsInsufficientHexLength",
			"type": "error"
		},
		{
			"inputs": [
				{
					"internalType": "uint256",
					"name": "_number",
					"type": "uint256"
				}
			],
			"name": "getString2",
			"outputs": [
				{
					"internalType": "string",
					"name": "",
					"type": "string"
				}
			],
			"stateMutability": "pure",
			"type": "function"
		}
	]
}